0160722583139602007010100537+32847-096851FM-15+0149KDAL V0303205N004652200059N0160935N5+00675-00065102245ADDAA101000095GF100991999999999999999999MA1102245100445REMMET09612/31/06 18:53:26 METAR KDAL 010053Z 32009KT 10SM CLR 07/M01 A3019 RMK AO2 SLP224 T00671006 (MG)
0160722583139602007010101537+32847-096851FM-15+0149KDAL V0303105N002652200059N0160935N5+00615-00065102295ADDAA101000095GF100991999999999999999999MA1102305100515REMMET09612/31/06 19:53:26 METAR KDAL 010153Z 31005KT 10SM CLR 06/M01 A3021 RMK AO2 SLP229 T00611006 (MG)
0180722583139602007010102537+32847-096851FM-15+0149KDAL V0303005N003152200059N0160935N5+00565-00065102325ADDAA101000095GF100991999999999999999999MA1102345100545MD1140144+9999REMMET10212/31/06 20:53:26 METAR KDAL 010253Z 30006KT 10SM CLR 06/M01 A3022 RMK AO2 SLP232 T00561006 51014 (MG)
0159722583139602007010103537+32847-096851FM-15+0149KDAL V0302805N002152200059N0160935N5+00565+00005102355ADDAA101000095GF100991999999999999999999MA1102375100585REMMET09512/31/06 21:53:26 METAR KDAL 010353Z 28004KT 10SM CLR 06/00 A3023 RMK AO2 SLP235 T00560000 (MG)
0160722583139602007010104537+32847-096851FM-15+0149KDAL V0303005N002652200059N0160935N5+00505-00065102405ADDAA101000095GF100991999999999999999999MA1102405100615REMMET09612/31/06 22:53:26 METAR KDAL 010453Z 30005KT 10SM CLR 05/M01 A3024 RMK AO2 SLP240 T00501006 (MG)
0228722583139602007010105537+32847-096851FM-15+0149KDAL V0303205N004652200059N0160935N5+00505-00115102425ADDAA101000095GF100991999999999999999999KA1999M+00781KA2999N+00501MA1102445100645MD1140104+9999REMMET12412/31/06 23:53:26 METAR KDAL 010553Z 32009KT 10SM CLR 05/M01 A3025 RMK AO2 SLP242 T00501011 10078 20050 400890050 51010 (SW)
0996722583139602007010105596+32847-096851SOD  +0149KDAL V030999999999999999999999999999+99999+99999999999ADDAA124000095AJ100009599999999AL12400095AN1024000095KA1024M+00895KA2024N+00505MG1100294101594OE11240116231013565OE22240098331013405OE33240046099999995REMSOD80124 HR PRECIPITATION (IN):0.00  SNOW DEPTH (IN):0     24 HR SNOWFALL (IN):0.0  24 HR MAX TEMP (F):48 24 HR MAX TEMP TIME (LST):1340 24 HR MIN TEMP (F):41 24 HR MIN TEMP TIME (LST):2359 AVERAGE STATION PRESSURE:29.615 MINIMUM SEA LEVEL PRESSURE:30.00 TIME OF OCCURRENCE:0353 PEAK WIND SPEED (MPH):26  PEAK WIND DIR (DEG):310 PEAK WIND TIME (LST):1356  FASTEST 2MIN SPEED (MPH):22 FASTEST 2MIN DIR (DEG):310 FASTEST 2MIN TIME (LST):1340 AVERAGE WIND SPEED (MPH):10.3 24 HR AVG TEMP (F):45 DEPART FROM NORMAL: -1  HEATING DEGREE DAYS:20  COOLING DEGREE DAYS:0   LATEST DAY MAX TEMP (0700-1900 LST):48  LATEST NIGHT MIN TEMP(1900-0800 LST):42 HOURLY INCREMENTAL PRECIPITATION VALUES (IN):.00 0.00 0.00 0.00 0.00 0.00 0.00 0.00 0.00 0.00 0.00 0.00 0.00 0.00 0.00 0.00 0.00 0.00 0.00 0.00 0.00 0.00 0.00 0.00EQDR01     N7GJS072R02     N7GKS075
1358722583139602007010105596+32847-096851SOM  +0149KDAL V030999999999999999999999999999+99999+99999999999ADDAB10099899AD10067392930999999999AE1075045025015AH1005006992914555AH2010009492914595AH3015011492915045AH4020012292915085AH5030015792919185AH6045019692919235AI1060020892919295AI2080025992919235AI3100026492919435AI4120026992920145AI5150031792920295AI6180035892919295AK1000040299999AM1000099999999999999AN1024000099KB1744N+05225KB2744M+15619KB3744A+10449KC1N9-00500899995KC2M9+02671799999KD1744H04465KD2744C00126KE1005005085005MH110041U102179MK1104170810045100882919595REMSOM814PCP MTOT:3.93 DEPNRM:+1.4 PCP GT 24HRS:2.65 DATE(S):29-30 DAYS W/PCP >=.01:7  DAYS W/PCP >=.10:4  DAYS W/ PCP >=.50:2 DAYS W/PCP >=1.00:1 MSDP AMTS W/DATE-TIME TAGS:MIN:5 0.27  29/1455 MIN:10 0.37  29/1459 MIN:15 0.45  29/1504 MIN:20 0.48  29/1508 MIN:30 0.62  29/1918 MIN:45 0.77  29/1923 MIN:60 0.82  29/1929 MIN:80 1.02  29/1923 MIN:100 1.04  29/1943 MIN:120 1.06  29/2014 MIN:150 1.25  29/2029 MIN:180 1.41  29/1929 AVG DLY MIN:41.4  AVG DLY MAX:60.1  AVG MLY TMP:50.8  DEP NORM:2.8   MIN TMP:23 DATE(S):08 MAX TMP:80  DATE(S):17 DAYS MAX <=32:0 DAYS MAX >=90:0  DAYS MIN <=32:8  DAYS MIN  <=0:0  AVG STP:29.645 LWST SLP:29.79 DATE/TIME:291959 HGST SLP:30.76 DATE/TIME:081004 HDD MTH TOT:446 DEP NORM:-81 SEASON(JUL 1-JUN 30):730 DEP NORM:-147 CDD MTH TOT:12 DEP NORM:+7 SEASON(JAN 1-DEC 31):3393 DEP NORM:+515EQDR01  3.937ABP070R02  2.657ADP081R03 80 177KCX019R04    127KDC058
0160722583139602007010106537+32847-096851FM-15+0149KDAL V0303305N003652200059N0160935N5+00395-00175102465ADDAA101000095GF100991999999999999999999MA1102475100685REMMET09601/01/07 00:53:26 METAR KDAL 010653Z 33007KT 10SM CLR 04/M02 A3026 RMK AO2 SLP246 T00391017 (SW)
0160722583139602007010107537+32847-096851FM-15+0149KDAL V0303305N003152200059N0160935N5+00335-00225102495ADDAA101000095GF100991999999999999999999MA1102515100715REMMET09601/01/07 01:53:26 METAR KDAL 010753Z 33006KT 10SM CLR 03/M02 A3027 RMK AO2 SLP249 T00331022 (SW)
0180722583139602007010108537+32847-096851FM-15+0149KDAL V0303105N003652200059N0160935N5+00335-00225102505ADDAA101000095GF100991999999999999999999MA1102515100715MD1140084+9999REMMET10201/01/07 02:53:26 METAR KDAL 010853Z 31007KT 10SM CLR 03/M02 A3027 RMK AO2 SLP250 T00331022 51008 (SW)
0160722583139602007010109537+32847-096851FM-15+0149KDAL V0303205N005752200059N0160935N5+00285-00285102535ADDAA101000095GF100991999999999999999999MA1102515100715REMMET09601/01/07 03:53:26 METAR KDAL 010953Z 32011KT 10SM CLR 03/M03 A3027 RMK AO2 SLP253 T00281028 (SW)
0160722583139602007010110537+32847-096851FM-15+0149KDAL V0303405N005152200059N0160935N5+00225-00335102525ADDAA101000095GF100991999999999999999999MA1102515100715REMMET09601/01/07 04:53:26 METAR KDAL 011053Z 34010KT 10SM CLR 02/M03 A3027 RMK AO2 SLP252 T00221033 (SW)
0218722583139602007010111537+32847-096851FM-15+0149KDAL V0303305N003652200059N0160935N5+00175-00335102575ADDAA101000095GF100991999999999999999999KA1999M+00501KA2999N+00111MA1102575100785MD1340064+9999REMMET11401/01/07 05:53:26 METAR KDAL 011153Z 33007KT 10SM CLR 02/M03 A3029 RMK AO2 SLP257 T00171033 10050 20011 53006 (SW)
0160722583139602007010112537+32847-096851FM-15+0149KDAL V0303305N004652200059N0160935N5+00115-00335102665ADDAA101000095GF100991999999999999999999MA1102645100845REMMET09601/01/07 06:53:26 METAR KDAL 011253Z 33009KT 10SM CLR 01/M03 A3031 RMK AO2 SLP266 T00111033 (SW)
0161722583139602007010113537+32847-096851FM-15+0149KDAL V0303505N004652200059N0160935N5+00115-00335102745ADDAA101000095GF100991999999999999999999MA1102745100945REMMET09701/01/07 07:53:26 METAR KDAL 011353Z 35009KT 10SM CLR 01/M03 A3034 RMK AO2 SLP274 T00111033 (DCG)
0215722583139602007010114537+32847-096851FM-15+0149KDAL V0303505N005152200059N0160935N5+00225-00335102825ADDAA101000095GA1025+005495999GD11991+0054959GF102991999999999999999999MA1102815101015MD1140244+9999REMMET10601/01/07 08:53:26 METAR KDAL 011453Z 35010KT 10SM FEW018 02/M03 A3036 RMK AO2 SLP282 T00221033 51024 (DCG)
0195722583139602007010115537+32847-096851FM-15+0149KDAL V0300105N006252200059N0160935N5+00335-00285102895ADDAA101000095GA1025+006105999GD11991+0061059GF102991999999999999999999MA1102885101085REMMET10001/01/07 09:53:26 METAR KDAL 011553Z 01012KT 10SM FEW020 03/M03 A3038 RMK AO2 SLP289 T00331028 (DCG)
0161722583139602007010116537+32847-096851FM-15+0149KDAL V0303505N005752200059N0160935N5+00445-00225102905ADDAA101000095GF100991999999999999999999MA1102915101115REMMET09701/01/07 10:53:26 METAR KDAL 011653Z 35011KT 10SM CLR 04/M02 A3039 RMK AO2 SLP290 T00441022 (DCG)
0219722583139602007010117537+32847-096851FM-15+0149KDAL V0309999V002652200059N0160935N5+00615-00225102855ADDAA101000095GF100991999999999999999999KA1999M+00611KA2999N+00061MA1102845101045MD1040034+9999REMMET11501/01/07 11:53:26 METAR KDAL 011753Z VRB05KT 10SM CLR 06/M02 A3037 RMK AO2 SLP285 T00611022 10061 20006 50003 (DCG)
0161722583139602007010118537+32847-096851FM-15+0149KDAL V0303605N003152200059N0160935N5+00835-00285102725ADDAA101000095GF100991999999999999999999MA1102745100945REMMET09701/01/07 12:53:26 METAR KDAL 011853Z 36006KT 10SM CLR 08/M03 A3034 RMK AO2 SLP272 T00831028 (DCG)
0161722583139602007010119537+32847-096851FM-15+0149KDAL V0303505N002152200059N0160935N5+01005-00225102625ADDAA101000095GF100991999999999999999999MA1102645100845REMMET09701/01/07 13:53:26 METAR KDAL 011953Z 35004KT 10SM CLR 10/M02 A3031 RMK AO2 SLP262 T01001022 (DCG)
0181722583139602007010120537+32847-096851FM-15+0149KDAL V0309999V002652200059N0160935N5+01115-00395102645ADDAA101000095GF100991999999999999999999MA1102645100845MD1540194+9999REMMET10301/01/07 14:53:26 METAR KDAL 012053Z VRB05KT 10SM CLR 11/M04 A3031 RMK AO2 SLP264 T01111039 55019 (DCG)
0160722583139602007010121537+32847-096851FM-15+0149KDAL V0300205N004652200059N0160935N5+01115-00395102675ADDAA101000095GF100991999999999999999999MA1102685100885REMMET09601/01/07 15:53:26 METAR KDAL 012153Z 02009KT 10SM CLR 11/M04 A3032 RMK AO2 SLP267 T01111039 (TG)
0160722583139602007010122537+32847-096851FM-15+0149KDAL V0300205N003152200059N0160935N5+01065-00395102655ADDAA101000095GF100991999999999999999999MA1102685100885REMMET09601/01/07 16:53:26 METAR KDAL 012253Z 02006KT 10SM CLR 11/M04 A3032 RMK AO2 SLP265 T01061039 (TG)
0223722583139602007010123504+32833-096850FM-15+0152KDAL V0200101N003610018019N0064371N1+00102+00001999999ADDAA101000891GD13991+0018019GD24991+0150019GF108991999999999999999999MA1999999999999MW1101MW2711REMMET082SPECI KDAL 012350Z COR 01007KT 4SM -SN BR BKN006 OVC050 01/00 A2983 RMK AO2 P0003;EQDQ01+101023APOA  Q02 101023APOA  
0218722583139602007010123537+32847-096851FM-15+0149KDAL V0300305N003152200059N0160935N5+00895-00335102675ADDAA101000095GF100991999999999999999999KA1999M+01111KA2999N+00611MA1102685100885MD1140014+9999REMMET11401/01/07 17:53:26 METAR KDAL 012353Z 03006KT 10SM CLR 09/M03 A3032 RMK AO2 SLP267 T00891033 10111 20061 51001 (TG)
0160722583139602007010200537+32847-096851FM-15+0149KDAL V0300505N002152200059N0160935N5+00675-00225102745ADDAA101000095GF100991999999999999999999MA1102745100945REMMET09601/01/07 18:53:26 METAR KDAL 020053Z 05004KT 10SM CLR 07/M02 A3034 RMK AO2 SLP274 T00671022 (TG)
0160722583139602007010201537+32847-096851FM-15+0149KDAL V0309999C000052200059N0160935N5+00565-00225102785ADDAA101000095GF100991999999999999999999MA1102785100985REMMET09601/01/07 19:53:26 METAR KDAL 020153Z 00000KT 10SM CLR 06/M02 A3035 RMK AO2 SLP278 T00561022 (TG)
0180722583139602007010202537+32847-096851FM-15+0149KDAL V0309999C000052200059N0160935N5+00505-00225102795ADDAA101000095GF100991999999999999999999MA1102785100985MD1140124+9999REMMET10201/01/07 20:53:26 METAR KDAL 020253Z 00000KT 10SM CLR 05/M02 A3035 RMK AO2 SLP279 T00501022 51012 (TG)
0160722583139602007010203537+32847-096851FM-15+0149KDAL V0309999C000052200059N0160935N5+00335-00225102805ADDAA101000095GF100991999999999999999999MA1102785100985REMMET09601/01/07 21:53:26 METAR KDAL 020353Z 00000KT 10SM CLR 03/M02 A3035 RMK AO2 SLP280 T00331022 (TG)
0160722583139602007010204537+32847-096851FM-15+0149KDAL V0309999C000052200059N0160935N5+00395-00285102845ADDAA101000095GF100991999999999999999999MA1102845101045REMMET09601/01/07 22:53:26 METAR KDAL 020453Z 00000KT 10SM CLR 04/M03 A3037 RMK AO2 SLP284 T00391028 (TG)
0228722583139602007010205537+32847-096851FM-15+0149KDAL V0303405N001552200059N0160935N5+00335-00285102805ADDAA101000095GF100991999999999999999999KA1999M+00891KA2999N+00221MA1102815101015MD1040014+9999REMMET12401/01/07 23:53:26 METAR KDAL 020553Z 34003KT 10SM CLR 03/M03 A3036 RMK AO2 SLP280 T00331028 10089 20022 401110006 50001 (SW)
0996722583139602007010205596+32847-096851SOD  +0149KDAL V030999999999999999999999999999+99999+99999999999ADDAA124000095AJ100009599999999AL12400095AN1024000095KA1024M+01115KA2024N+00065MG1100914102444OE11240093901009425OE22240076036009075OE33240031399999995REMSOD80124 HR PRECIPITATION (IN):0.00  SNOW DEPTH (IN):0     24 HR SNOWFALL (IN):0.0  24 HR MAX TEMP (F):52 24 HR MAX TEMP TIME (LST):1633 24 HR MIN TEMP (F):33 24 HR MIN TEMP TIME (LST):0721 AVERAGE STATION PRESSURE:29.800 MINIMUM SEA LEVEL PRESSURE:30.25 TIME OF OCCURRENCE:0055 PEAK WIND SPEED (MPH):21  PEAK WIND DIR (DEG):10  PEAK WIND TIME (LST):0942  FASTEST 2MIN SPEED (MPH):17 FASTEST 2MIN DIR (DEG):360 FASTEST 2MIN TIME (LST):0907 AVERAGE WIND SPEED (MPH):7.0  24 HR AVG TEMP (F):43 DEPART FROM NORMAL: -3  HEATING DEGREE DAYS:22  COOLING DEGREE DAYS:0   LATEST DAY MAX TEMP (0700-1900 LST):52  LATEST NIGHT MIN TEMP(1900-0800 LST):33 HOURLY INCREMENTAL PRECIPITATION VALUES (IN):.00 0.00 0.00 0.00 0.00 0.00 0.00 0.00 0.00 0.00 0.00 0.00 0.00 0.00 0.00 0.00 0.00 0.00 0.00 0.00 0.00 0.00 0.00 0.00EQDR01     N7GJS072R02     N7GKS075
0160722583139602007010206537+32847-096851FM-15+0149KDAL V0300605N003652200059N0160935N5+00285-00395102775ADDAA101000095GF100991999999999999999999MA1102785100985REMMET09601/02/07 00:53:26 METAR KDAL 020653Z 06007KT 10SM CLR 03/M04 A3035 RMK AO2 SLP277 T00281039 (SW)
0194722583139602007010207537+32847-096851FM-15+0149KDAL V0300605N002652200059N0160935N5+00285-00445102795ADDAA101000095GA1025+091445999GD11991+0914459GF102991999999999999999999MA1102815101015REMMET09901/02/07 01:53:26 METAR KDAL 020753Z 06005KT 10SM FEW300 03/M04 A3036 RMK AO2 SLP279 T00281044 (SW)
0214722583139602007010208537+32847-096851FM-15+0149KDAL V0300605N002652200059N0160935N5+00225-00445102825ADDAA101000095GA1025+091445999GD11991+0914459GF102991999999999999999999MA1102815101015MD1340024+9999REMMET10501/02/07 02:53:26 METAR KDAL 020853Z 06005KT 10SM FEW300 02/M04 A3036 RMK AO2 SLP282 T00221044 53002 (SW)
0194722583139602007010209537+32847-096851FM-15+0149KDAL V0300305N00215091445MN0160935N5+00175-00445102805ADDAA101000095GA1075+091445999GD13991+0914459GF107991999999999999999999MA1102815101015REMMET09901/02/07 03:53:26 METAR KDAL 020953Z 03004KT 10SM BKN300 02/M04 A3036 RMK AO2 SLP280 T00171044 (SW)
0194722583139602007010210537+32847-096851FM-15+0149KDAL V0300605N00265091445MN0160935N5+00175-00445102755ADDAA101000095GA1075+091445999GD13991+0914459GF107991999999999999999999MA1102785100985REMMET09901/02/07 04:53:26 METAR KDAL 021053Z 06005KT 10SM BKN300 02/M04 A3035 RMK AO2 SLP275 T00171044 (SW)
0252722583139602007010211537+32847-096851FM-15+0149KDAL V0300505N00215091445MN0160935N5+00175-00445102835ADDAA101000095GA1075+091445999GD13991+0914459GF107991999999999999999999KA1999M+00331KA2999N+00111MA1102845101045MD1340014+9999REMMET11701/02/07 05:53:26 METAR KDAL 021153Z 05004KT 10SM BKN300 02/M04 A3037 RMK AO2 SLP283 T00171044 10033 20011 53001 (SW)
0194722583139602007010212537+32847-096851FM-15+0149KDAL V0309999C00005091445MN0160935N5+00225-00395102895ADDAA101000095GA1075+091445999GD13991+0914459GF107991999999999999999999MA1102885101085REMMET09901/02/07 06:53:26 METAR KDAL 021253Z 00000KT 10SM BKN300 02/M04 A3038 RMK AO2 SLP289 T00221039 (SW)
0233722583139602007010213537+32847-096851FM-15+0149KDAL V0303005N00215100585MN0160935N5+00175-00335103045ADDAA101000095GA1025+082305999GA2075+100585999GD11991+0823059GD23991+1005859GF107991999999999999999999MA1103055101245REMMET10701/02/07 07:53:26 METAR KDAL 021353Z 30004KT 10SM FEW270 BKN330 02/M03 A3043 RMK AO2 SLP304 T00171033 (DCG)
0253722583139602007010214537+32847-096851FM-15+0149KDAL V0309999C000052200059N0160935N5+00335-00285103035ADDAA101000095GA1025+082305999GA2045+100585999GD11991+0823059GD22991+1005859GF104991999999999999999999MA1103015101215MD1040204+9999REMMET11301/02/07 08:53:26 METAR KDAL 021453Z 00000KT 10SM FEW270 SCT330 03/M03 A3042 RMK AO2 SLP303 T00331028 50020 (DCG)
0233722583139602007010215537+32847-096851FM-15+0149KDAL V0309999C000052200059N0160935N5+00675-00285103085ADDAA101000095GA1025+082305999GA2045+100585999GD11991+0823059GD22991+1005859GF104991999999999999999999MA1103085101285REMMET10701/02/07 09:53:26 METAR KDAL 021553Z 00000KT 10SM FEW270 SCT330 07/M03 A3044 RMK AO2 SLP308 T00671028 (DCG)
0195722583139602007010216537+32847-096851FM-15+0149KDAL V0301605N002152200059N0160935N5+00835-00225103065ADDAA101000095GA1025+100585999GD11991+1005859GF102991999999999999999999MA1103085101285REMMET10001/02/07 10:53:26 METAR KDAL 021653Z 16004KT 10SM FEW330 08/M02 A3044 RMK AO2 SLP306 T00831022 (DCG)
0253722583139602007010217537+32847-096851FM-15+0149KDAL V0301105N003152200059N0160935N5+01005-00225102945ADDAA101000095GA1025+100585999GD11991+1005859GF102991999999999999999999KA1999M+01001KA2999N+00061MA1102955101145MD1840084+9999REMMET11801/02/07 11:53:26 METAR KDAL 021753Z 11006KT 10SM FEW330 10/M02 A3040 RMK AO2 SLP294 T01001022 10100 20006 58008 (DCG)
0195722583139602007010218537+32847-096851FM-15+0149KDAL V0309999V001552200059N0160935N5+01005-00395102805ADDAA101000095GA1025+100585999GD11991+1005859GF102991999999999999999999MA1102815101015REMMET10001/02/07 12:53:26 METAR KDAL 021853Z VRB03KT 10SM FEW330 10/M04 A3036 RMK AO2 SLP280 T01001039 (DCG)
0195722583139602007010219537+32847-096851FM-15+0149KDAL V0309999C000052200059N0160935N5+01115-00335102695ADDAA101000095GA1025+094495999GD11991+0944959GF102991999999999999999999MA1102715100915REMMET10001/02/07 13:53:26 METAR KDAL 021953Z 00000KT 10SM FEW310 11/M03 A3033 RMK AO2 SLP269 T01111033 (DCG)
0215722583139602007010220537+32847-096851FM-15+0149KDAL V0309999V001552200059N0160935N5+01175-00335102615ADDAA101000095GA1025+094495999GD11991+0944959GF102991999999999999999999MA1102615100815MD1640324+9999REMMET10601/02/07 14:53:26 METAR KDAL 022053Z VRB03KT 10SM FEW310 12/M03 A3030 RMK AO2 SLP261 T01171033 56032 (DCG)
0194722583139602007010221537+32847-096851FM-15+0149KDAL V0300605N002652200059N0160935N5+01175-00335102585ADDAA101000095GA1025+094495999GD11991+0944959GF102991999999999999999999MA1102575100785REMMET09901/02/07 15:53:26 METAR KDAL 022153Z 06005KT 10SM FEW310 12/M03 A3029 RMK AO2 SLP258 T01171033 (TG)
0194722583139602007010222537+32847-096851FM-15+0149KDAL V0300705N003152200059N0160935N5+01115-00395102555ADDAA101000095GA1025+094495999GD11991+0944959GF102991999999999999999999MA1102545100745REMMET09901/02/07 16:53:26 METAR KDAL 022253Z 07006KT 10SM FEW310 11/M04 A3028 RMK AO2 SLP255 T01111039 (TG)
0290722583139602007010223537+32847-096851FM-15+0149KDAL V0301005N002652200059N0160935N5+00945-00285102575ADDAA101000095GA1025+076205999GA2045+094495999GD11991+0762059GD22991+0944959GF104991999999999999999999KA1999M+01221KA2999N+00941MA1102575100785MD1540054+9999REMMET12401/02/07 17:53:26 METAR KDAL 022353Z 10005KT 10SM FEW250 SCT310 09/M03 A3029 RMK AO2 SLP257 T00941028 10122 20094 55005 (TG)
0194722583139602007010300537+32847-096851FM-15+0149KDAL V0300905N00265091445MN0160935N5+00835-00225102615ADDAA101000095GA1075+091445999GD13991+0914459GF107991999999999999999999MA1102615100815REMMET09901/02/07 18:53:26 METAR KDAL 030053Z 09005KT 10SM BKN300 08/M02 A3030 RMK AO2 SLP261 T00831022 (TG)
0194722583139602007010301537+32847-096851FM-15+0149KDAL V0300905N00215091445MN0160935N5+00675-00115102665ADDAA101000095GA1075+091445999GD13991+0914459GF107991999999999999999999MA1102645100845REMMET09901/02/07 19:53:26 METAR KDAL 030153Z 09004KT 10SM BKN300 07/M01 A3031 RMK AO2 SLP266 T00671011 (TG)
0214722583139602007010302537+32847-096851FM-15+0149KDAL V0300905N00215091445MN0160935N5+00505-00065102705ADDAA101000095GA1075+091445999GD13991+0914459GF107991999999999999999999MA1102715100915MD1340144+9999REMMET10501/02/07 20:53:26 METAR KDAL 030253Z 09004KT 10SM BKN300 05/M01 A3033 RMK AO2 SLP270 T00501006 53014 (TG)
0194722583139602007010303537+32847-096851FM-15+0149KDAL V0309999C00005091445MN0160935N5+00505-00065102695ADDAA101000095GA1075+091445999GD13991+0914459GF107991999999999999999999MA1102715100915REMMET09901/02/07 21:53:26 METAR KDAL 030353Z 00000KT 10SM BKN300 05/M01 A3033 RMK AO2 SLP269 T00501006 (TG)
0232722583139602007010304537+32847-096851FM-15+0149KDAL V0309999C00005091445MN0160935N5+00505-00065102675ADDAA101000095GA1025+054865999GA2085+091445999GD11991+0548659GD24991+0914459GF108991999999999999999999MA1102685100885REMMET10601/02/07 22:53:26 METAR KDAL 030453Z 00000KT 10SM FEW180 OVC300 05/M01 A3032 RMK AO2 SLP267 T00501006 (TG)
0300722583139602007010305537+32847-096851FM-15+0149KDAL V0309999C00005091445MN0160935N5+00505-00065102685ADDAA101000095GA1025+076205999GA2085+091445999GD11991+0762059GD24991+0914459GF108991999999999999999999KA1999M+00941KA2999N+00441MA1102685100885MD1540014+9999REMMET13401/02/07 23:53:26 METAR KDAL 030553Z 00000KT 10SM FEW250 OVC300 05/M01 A3032 RMK AO2 SLP268 T00501006 10094 20044 401220006 55001 (SW)
0996722583139602007010305596+32847-096851SOD  +0149KDAL V030999999999999999999999999999+99999+99999999999ADDAA124000095AJ100009599999999AL12400095AN1024000095KA1024M+01225KA2024N+00065MG1100954102544OE11240053610015425OE22240040209015425OE33240017099999995REMSOD80124 HR PRECIPITATION (IN):0.00  SNOW DEPTH (IN):0     24 HR SNOWFALL (IN):0.0  24 HR MAX TEMP (F):54 24 HR MAX TEMP TIME (LST):1623 24 HR MIN TEMP (F):33 24 HR MIN TEMP TIME (LST):0757 AVERAGE STATION PRESSURE:29.810 MINIMUM SEA LEVEL PRESSURE:30.28 TIME OF OCCURRENCE:1657 PEAK WIND SPEED (MPH):12  PEAK WIND DIR (DEG):100 PEAK WIND TIME (LST):1542  FASTEST 2MIN SPEED (MPH):9  FASTEST 2MIN DIR (DEG):90  FASTEST 2MIN TIME (LST):1542 AVERAGE WIND SPEED (MPH):3.8  24 HR AVG TEMP (F):44 DEPART FROM NORMAL: -2  HEATING DEGREE DAYS:21  COOLING DEGREE DAYS:0   LATEST DAY MAX TEMP (0700-1900 LST):54  LATEST NIGHT MIN TEMP(1900-0800 LST):33 HOURLY INCREMENTAL PRECIPITATION VALUES (IN):.00 0.00 0.00 0.00 0.00 0.00 0.00 0.00 0.00 0.00 0.00 0.00 0.00 0.00 0.00 0.00 0.00 0.00 0.00 0.00 0.00 0.00 0.00 0.00EQDR01     N7GJS072R02     N7GKS075
0231722583139602007010306537+32847-096851FM-15+0149KDAL V0309999C00005091445MN0160935N5+00335+00005102615ADDAA101000095GA1025+076205999GA2085+091445999GD11991+0762059GD24991+0914459GF108991999999999999999999MA1102615100815REMMET10501/03/07 00:53:26 METAR KDAL 030653Z 00000KT 10SM FEW250 OVC300 03/00 A3030 RMK AO2 SLP261 T00330000 (SW)
0232722583139602007010307537+32847-096851FM-15+0149KDAL V0309999C000052200059N0160935N5+00335-00065102605ADDAA101000095GA1025+076205999GA2045+091445999GD11991+0762059GD22991+0914459GF104991999999999999999999MA1102615100815REMMET10601/03/07 01:53:26 METAR KDAL 030753Z 00000KT 10SM FEW250 SCT300 03/M01 A3030 RMK AO2 SLP260 T00331006 (SW)
0214722583139602007010308537+32847-096851FM-15+0149KDAL V0300905N002152200059N0160935N5+00225-00065102545ADDAA101000095GA1025+054865999GD11991+0548659GF102991999999999999999999MA1102545100745MD1640144+9999REMMET10501/03/07 02:53:26 METAR KDAL 030853Z 09004KT 10SM FEW180 02/M01 A3028 RMK AO2 SLP254 T00221006 56014 (SW)
0231722583139602007010309537+32847-096851FM-15+0149KDAL V0309999C000052200059N0160935N5+00335+00005102545ADDAA101000095GA1025+076205999GA2045+091445999GD11991+0762059GD22991+0914459GF104991999999999999999999MA1102545100745REMMET10501/03/07 03:53:26 METAR KDAL 030953Z 00000KT 10SM FEW250 SCT300 03/00 A3028 RMK AO2 SLP254 T00330000 (SW)
0232722583139602007010310537+32847-096851FM-15+0149KDAL V0309999C00005091445MN0160935N5+00285-00065102585ADDAA101000095GA1025+076205999GA2085+091445999GD11991+0762059GD24991+0914459GF108991999999999999999999MA1102615100815REMMET10601/03/07 04:53:26 METAR KDAL 031053Z 00000KT 10SM FEW250 OVC300 03/M01 A3030 RMK AO2 SLP258 T00281006 (SW)
0289722583139602007010311537+32847-096851FM-15+0149KDAL V0309999C00005024385MN0160935N5+00445+00065102565ADDAA101000095GA1075+024385999GA2085+091445999GD13991+0243859GD24991+0914459GF108991999999999999999999KA1999M+00501KA2999N+00221MA1102575100785MD1040024+9999REMMET12301/03/07 05:53:26 METAR KDAL 031153Z 00000KT 10SM BKN080 OVC300 04/01 A3029 RMK AO2 SLP256 T00440006 10050 20022 50002 (SW)
0231722583139602007010312537+32847-096851FM-15+0149KDAL V0309999C00005024385MN0160935N5+00505+00005102505ADDAA101000095GA1075+024385999GA2085+091445999GD13991+0243859GD24991+0914459GF108991999999999999999999MA1102515100715REMMET10501/03/07 06:53:26 METAR KDAL 031253Z 00000KT 10SM BKN080 OVC300 05/00 A3027 RMK AO2 SLP250 T00500000 (SW)
0285722583139602007010313537+32847-096851FM-15+0149KDAL V0301205N00265042675MN0160935N5+00505+00065102535ADDAA101000095GA1025+025915999GA2075+042675999GA3085+091445999GD11991+0259159GD23991+0426759GD34991+0914459GF108991999999999999999999MA1102545100745REMMET12801/03/07 07:53:26 METAR KDAL 031353Z 12005KT 10SM FEW085 BKN140 OVC300 05/01 A3028 RMK AO2 SLP253 VIRGA DSNT E-S T00500006 (DCG)
0305722583139602007010314537+32847-096851FM-15+0149KDAL V0301305N00365091445MN0160935N5+00615+00065102595ADDAA101000095GA1025+025915999GA2045+042675999GA3085+091445999GD11991+0259159GD22991+0426759GD34991+0914459GF108991999999999999999999MA1102575100785MD1340024+9999REMMET13401/03/07 08:53:26 METAR KDAL 031453Z 13007KT 10SM FEW085 SCT140 OVC300 06/01 A3029 RMK AO2 SLP259 VIRGA DSNT S W T00610006 53002 (DCG)
0242722583139602007010315536+32847-096851FM-15+0149KDAL V0301505N00415091445MN0160935N5+00785+00065102585ADDAA101000095GA1045+042675999GA2085+091445999GD12991+0426759GD24991+0914459MA1102575100785REMMET14201/03/07 09:53:26 METAR KDAL 031553Z 15008KT 10SM SCT140 OVC300 08/01 A3029 RMK AO2 SLP258 VIRGA DSNT NW-NE ACC DSNT W-NW T00780006 FIBI (DCG)
0250722583139602007010316537+32847-096851FM-15+0149KDAL V0301705N00465085345MN0160935N5+01065+00175102575ADDAA101000095GA1025+042675999GA2075+085345999GD11991+0426759GD23991+0853459GF107991999999999999999999MA1102575100785REMMET12401/03/07 10:53:26 METAR KDAL 031653Z 17009KT 10SM FEW140 BKN280 11/02 A3029 RMK AO2 SLP257 ACC DSNT NE SW NW T01060017 (DCG)
0328722583139602007010317537+32847-096851FM-15+0149KDAL V0301505N00365085345MN0160935N5+01175+00065102425ADDAA101000095GA1025+042675999GA2045+054865999GA3075+085345999GD11991+0426759GD22991+0548659GD33991+0853459GF107991999999999999999999KA1999M+01221KA2999N+00391MA1102445100645MD1840164+9999REMMET13101/03/07 11:53:26 METAR KDAL 031753Z 15007KT 10SM FEW140 SCT180 BKN280 12/01 A3025 RMK AO2 SLP242 T01170006 10122 20039 58016 (DCG)
0207722583139602007010318537+32847-096851FM-15+0149KDAL V0301805N00465018295MN0160935N5+01175+00115102405ADDAA101000095GA1085+018295999GD14991+0182959GF108991999999999999999999MA1102405100615REMMET11201/03/07 12:53:26 METAR KDAL 031853Z 18009KT 10SM OVC060 12/01 A3024 RMK AO2 SLP240 SHRA DSNT SE T01170011 (DCG)
0206722583139602007010319537+32847-096851FM-15+0149KDAL V0301905N00515016765MN0160935N5+01065+00115102335ADDAA101000095GA1085+016765999GD14991+0167659GF108991999999999999999999MA1102345100545REMMET11101/03/07 13:53:26 METAR KDAL 031953Z 19010KT 10SM OVC055 11/01 A3022 RMK AO2 SLP233 SHRA DSNT E T01060011 (DCG)
0252722583139602007010320537+32847-096851FM-15+0149KDAL V0301805N00365019815MN0160935N5+01005+00225102265ADDAA101000095GA1045+015245999GA2085+019815999GD12991+0152459GD24991+0198159GF108991999999999999999999MA1102275100485MD1840154+9999REMMET11201/03/07 14:53:26 METAR KDAL 032053Z 18007KT 10SM SCT050 OVC065 10/02 A3020 RMK AO2 SLP226 T01000022 58015 (DCG)
0269722583139602007010321537+32847-096851FM-15+0149KDAL V0301405N00625025915MN0160935N5+01065+00225102155ADDAA101000095GA1025+015245999GA2045+021345999GA3085+025915999GD11991+0152459GD22991+0213459GD34991+0259159GF108991999999999999999999MA1102175100385REMMET11201/03/07 15:53:26 METAR KDAL 032153Z 14012KT 10SM FEW050 SCT070 OVC085 11/02 A3017 RMK AO2 SLP215 T01060022 (TG)
0266722583139602007010322537+32847-096851FM-15+0149KDAL V0301505N00575030485MN0160935N5+01005+00175102065ADDAA101000095GA1025+021345999GA2085+030485999GD11991+0213459GD24991+0304859GF108991999999999999999999MA1102075100285REMMET14001/03/07 16:53:26 METAR KDAL 032253Z 15011KT 10SM FEW070 OVC100 10/02 A3014 RMK AO2 PRESFR SLP206 VIRGA DSNT W SHRA DSNT S-SW T01000017 (TG)
0345722583139602007010323537+32847-096851FM-15+0149KDAL V0301905N00215033535MN0160935N5+00945+00395102105ADDAA101000025AA206000021AU110020015AW1615GA1025+009145999GA2085+033535999GD11991+0091459GD24991+0335359GF108991999999999999999999KA1999M+01221KA2999N+00891MA1102105100315MD1540174+9999MW1611REMMET14501/03/07 17:53:26 METAR KDAL 032353Z 19004KT 10SM -RA FEW030 OVC110 09/04 A3015 RMK AO2 RAB11 SLP210 P0000 60000 T00940039 10122 20089 55017 (TG)
0275722583139602007010400537+32847-096851FM-15+0149KDAL V0302005N00315033535MN0160935N5+00895+00505102125ADDAA101000395AU110020015AW1615GA1045+024385999GA2075+033535999GD12991+0243859GD23991+0335359GF107991999999999999999999MA1102135100345MW1611REMMET12601/03/07 18:53:26 METAR KDAL 040053Z 20006KT 10SM -RA SCT080 BKN110 09/05 A3016 RMK AO2 RAE2358B45 SLP212 P0000 T00890050 (TG)
0243722583139602007010401537+32847-096851FM-15+0149KDAL V0301505N00365054865MN0160935N5+00835+00505101995ADDAA101000025GA1025+036585999GA2075+054865999GD11991+0365859GD23991+0548659GF107991999999999999999999MA1102005100215REMMET11701/03/07 19:53:26 METAR KDAL 040153Z 15007KT 10SM FEW120 BKN180 08/05 A3012 RMK AO2 RAE10 SLP199 P0001 T00830050 (TG)
0321722583139602007010402537+32847-096851FM-15+0149KDAL V0301505N00315036585MN0160935N5+00835+00505101895ADDAA101000025AA203000391GA1025+022865999GA2075+036585999GA3085+054865999GD11991+0228659GD23991+0365859GD34991+0548659GF108991999999999999999999MA1101905100115MD1840204+9999REMMET13901/03/07 20:53:26 METAR KDAL 040253Z 15006KT 10SM FEW075 BKN120 OVC180 08/05 A3009 RMK AO2 RAB12E21 SLP189 P0000 60001 T00830050 58020 (TG)
0231722583139602007010403537+32847-096851FM-15+0149KDAL V0301205N00415033535MN0160935N5+00835+00565101805ADDAA101000095GA1075+033535999GA2075+054865999GD13991+0335359GD23991+0548659GF107991999999999999999999MA1101795100015REMMET10501/03/07 21:53:26 METAR KDAL 040353Z 12008KT 10SM BKN110 BKN180 08/06 A3006 RMK AO2 SLP180 T00830056 (TG)
0267722583139602007010404517+32847-096851FM-16+0149KDAL V0302005N00155007325MN0160935N5+00805+00605999999ADDAA101000021GA1045+004275999GA2075+007325999GA3085+021345999GD12991+0042759GD23991+0073259GD34991+0213459GF108991999999999999999999MA1101905100115REMMET11001/03/07 22:51:26 SPECI KDAL 040451Z 20003KT 10SM SCT014 BKN024 OVC070 08/06 A3009 RMK AO2 RAB03E46 P0000 (TG)
0284722583139602007010404537+32847-096851FM-15+0149KDAL V0302005N00155004275MN0160935N5+00835+00565101885ADDAA101000025GA1075+004275999GA2075+007325999GA3085+021345999GD13991+0042759GD23991+0073259GD34991+0213459GF108991999999999999999999MA1101905100115REMMET12701/03/07 22:53:26 METAR KDAL 040453Z 20003KT 10SM BKN014 BKN024 OVC070 08/06 A3009 RMK AO2 RAB03E46 SLP188 P0000 T00830056 (TG)
0253722583139602007010405177+32847-096851FM-16+0149KDAL V0302205N00465003665MN0040235N5+00805+00605999999ADDAA101001391AU130020015AU200001015AW1105AW2635GA1085+003665999GD14991+0036659GF108991999999999999999999MA1102135100345MW1101MW2651REMMET11201/03/07 23:17:26 SPECI KDAL 040517Z 22009KT 2 1/2SM +RA BR OVC012 08/06 A3016 RMK AO2 RAB0459 PRESRR P0005 (SW)
0317722583139602007010405317+32847-096851FM-16+0149KDAL V0302305N00215009755MN0048285N5+00805+00705999999ADDAA101003691AU120020015AU200001015AW1105AW2625GA1045+003665999GA2075+009755999GA3085+012805999GD12991+0036659GD23991+0097559GD34991+0128059GF108991999999999999999999MA1102105100315MW1101MW2631REMMET11401/03/07 23:31:26 SPECI KDAL 040531Z 23004KT 3SM RA BR SCT012 BKN032 OVC042 08/07 A3015 RMK AO2 RAB0459 P0014 (SW)
0321722583139602007010405347+32847-096851FM-16+0149KDAL V0302305N00265003665MN0040235N5+00805+00705999999ADDAA101004191AU120020015AU200001015AW1105AW2625GA1075+003665999GA2075+008845999GA3085+012805999GD13991+0036659GD23991+0088459GD34991+0128059GF108991999999999999999999MA1102105100315MW1101MW2631REMMET11801/03/07 23:34:26 SPECI KDAL 040534Z 23005KT 2 1/2SM RA BR BKN012 BKN029 OVC042 08/07 A3015 RMK AO2 RAB0459 P0016 (SW)
0349722583139602007010405487+32847-096851FM-16+0149KDAL V0302505N00155008845MN0040235N5+00805+00705999999ADDAA101005891AU120020015AU200001015AW1105AW2625GA1045+003665999GA2075+008845999GA3085+013725999GD12991+0036659GD23991+0088459GD34991+0137259GF108991999999999999999999MA1102035100245MW1101MW2631REMMET14601/03/07 23:48:26 SPECI KDAL 040548Z 25003KT 2 1/2SM R13L/6000VP6000FT RA BR SCT012 BKN029 OVC045 08/07 A3013 RMK AO2 RAB0459 P0023 401220022 (SW)
0442722583139602007010405537+32847-096851FM-15+0149KDAL V0309999C00005008845MN0040235N5+00785+00675101965ADDAA101007496AA206006992AU130020015AU200001015AW1105AW2635GA1045+003665999GA2075+008845999GA3085+013725999GD12991+0036659GD23991+0088459GD34991+0137259GF108991999999999999999999KA1999M+00941KA2999N+00781MA1101965100185MD1040094+9999MW1101MW2651REMMET18801/03/07 23:53:26 METAR KDAL 040553Z 00000KT 2 1/2SM R13L/6000VP6000FT +RA BR SCT012 BKN029 OVC045 08/07 A3011 RMK AO2 RAB0459 SLP196 P0026 60027 T00780067 10094 20078 401220022 50009 (SW)
1022722583139602007010405596+32847-096851SOD  +0149KDAL V030999999999999999999999999999+99999+99999999999ADDAA124007695AJ100009599999999AL12400095AN1024000095AX1015245KA1024M+01225KA2024N+00225MG1100464101764OE11240080515016505OE22240071515016515OE33240026499999995REMSOD81824 HR PRECIPITATION (IN):0.30  SNOW DEPTH (IN):0     24 HR SNOWFALL (IN):0.0  WEATHER(CODE):1  24 HR MAX TEMP (F):54 24 HR MAX TEMP TIME (LST):1241 24 HR MIN TEMP (F):36 24 HR MIN TEMP TIME (LST):0256 AVERAGE STATION PRESSURE:29.665 MINIMUM SEA LEVEL PRESSURE:30.05 TIME OF OCCURRENCE:2215 PEAK WIND SPEED (MPH):18  PEAK WIND DIR (DEG):150 PEAK WIND TIME (LST):1650  FASTEST 2MIN SPEED (MPH):16 FASTEST 2MIN DIR (DEG):150 FASTEST 2MIN TIME (LST):1651 AVERAGE WIND SPEED (MPH):5.9  24 HR AVG TEMP (F):45 DEPART FROM NORMAL: 0   HEATING DEGREE DAYS:20  COOLING DEGREE DAYS:0   LATEST DAY MAX TEMP (0700-1900 LST):54  LATEST NIGHT MIN TEMP(1900-0800 LST):36 HOURLY INCREMENTAL PRECIPITATION VALUES (IN):.00 0.00 0.00 0.00 0.00 0.00 0.00 0.00 0.00 0.00 0.00 0.00 0.00 0.00 0.00 0.00 0.00 T    0.01 T    T    0.00 T    0.29EQDR01     N7GJS072R02     N7GKS075
0271722583139602007010406147+32847-096851FM-16+0149KDAL V0300505N00215008845MN0048285N5+00805+00705999999ADDAA101002891AU120020015AU200001015AW1105AW2625GA1025+003665999GA2085+008845999GD11991+0036659GD24991+0088459GF108991999999999999999999MA1101835100045MW1101MW2631REMMET09901/04/07 00:14:26 SPECI KDAL 040614Z 05004KT 3SM RA BR FEW012 OVC029 08/07 A3007 RMK AO2 P0011 (SW)
0309722583139602007010406257+32847-096851FM-16+0149KDAL V0309999C00005008845MN0048285N5+00805+00705999999ADDAA101003691AU120020015AU200001015AW1105AW2625GA1045+002745999GA2075+008845999GA3085+016765999GD12991+0027459GD23991+0088459GD34991+0167659GF108991999999999999999999MA1101835100045MW1101MW2631REMMET10601/04/07 00:25:26 SPECI KDAL 040625Z 00000KT 3SM RA BR SCT009 BKN029 OVC055 08/07 A3007 RMK AO2 P0014 (SW)
0327722583139602007010406537+32847-096851FM-15+0149KDAL V0309999C00005008845MN0064375N5+00785+00675101755ADDAA101003695AU110020015AU200001015AW1105AW2615GA1025+002745999GA2075+008845999GA3085+015245999GD11991+0027459GD23991+0088459GD34991+0152459GF108991999999999999999999MA1101765099985MW1101MW2611REMMET12401/04/07 00:53:26 METAR KDAL 040653Z 00000KT 4SM -RA BR FEW009 BKN029 OVC050 08/07 A3005 RMK AO2 SLP175 P0016 T00780067 (SW)
0309722583139602007010407277+32847-096851FM-16+0149KDAL V0302905N00155011895MN0080475N5+00805+00705999999ADDAA101001391AU120020015AU200001015AW1105AW2625GA1025+002745999GA2075+011895999GA3085+016765999GD11991+0027459GD23991+0118959GD34991+0167659GF108991999999999999999999MA1101765099985MW1101MW2631REMMET10601/04/07 01:27:26 SPECI KDAL 040727Z 29003KT 5SM RA BR FEW009 BKN039 OVC055 08/07 A3005 RMK AO2 P0005 (SW)
0310722583139602007010407497+32847-096851FM-16+0149KDAL V0309999C00005004275MN0048285N5+00805+00705999999ADDAA101001891AU110020015AU200001015AW1105AW2615GA1025+000915999GA2075+004275999GA3085+010065999GD11991+0009159GD23991+0042759GD34991+0100659GF108991999999999999999999MA1101765099985MW1101MW2611REMMET10701/04/07 01:49:26 SPECI KDAL 040749Z 00000KT 3SM -RA BR FEW003 BKN014 OVC033 08/07 A3005 RMK AO2 P0007 (SW)
0269722583139602007010407516+32847-096851FM-16+0149KDAL V0309999C00005004275MN0040235N5+00805+00705999999ADDAU120020015AU200001015AW1105AW2625GA1025+000915999GA2075+004275999GA3085+010065999GD11991+0009159GD23991+0042759GD34991+0100659MA1101765099985REMMET11501/04/07 01:52:21 SPECI KDAL 040751Z 00000KT 2 1/2SM RA BR FEW003 BKN014 OVC033 08/07 A3005 RMK AO2 P0008 FIBI (SW)
0330722583139602007010407537+32847-096851FM-15+0149KDAL V0309999C00005004275MN0040235N5+00785+00675101755ADDAA101002095AU120020015AU200001015AW1105AW2625GA1045+000915999GA2075+004275999GA3085+010065999GD12991+0009159GD23991+0042759GD34991+0100659GF108991999999999999999999MA1101765099985MW1101MW2631REMMET12701/04/07 01:53:26 METAR KDAL 040753Z 00000KT 2 1/2SM RA BR SCT003 BKN014 OVC033 08/07 A3005 RMK AO2 SLP175 P0008 T00780067 (SW)
0275722583139602007010408157+32847-096851FM-16+0149KDAL V0309999C00005000915MN0040235N5+00805+00705999999ADDAA101001391AU120020015AU200001015AW1105AW2625GA1075+000915999GA2085+009455999GD13991+0009159GD24991+0094559GF108991999999999999999999MA1101695099915MW1101MW2631REMMET10301/04/07 02:15:26 SPECI KDAL 040815Z 00000KT 2 1/2SM RA BR BKN003 OVC031 08/07 A3003 RMK AO2 P0005 (SW)
0314722583139602007010408307+32847-096851FM-16+0149KDAL V0309999C00005005185MN0040235N5+00805+00705999999ADDAA101002091AU110020015AU200001015AW1105AW2615GA1045+000915999GA2075+005185999GA3085+015245999GD12991+0009159GD23991+0051859GD34991+0152459GF108991999999999999999999MA1101735099945MW1101MW2611REMMET11101/04/07 02:30:26 SPECI KDAL 040830Z 00000KT 2 1/2SM -RA BR SCT003 BKN017 OVC050 08/07 A3004 RMK AO2 P0008 (SW)
0367722583139602007010408537+32847-096851FM-15+0149KDAL V0300905N00315007015MN0040235N5+00785+00675101565ADDAA101004195AA203009991AU120020015AU200001015AW1105AW2625GA1045+000915999GA2075+007015999GA3085+015245999GD12991+0009159GD23991+0070159GD34991+0152459GF108991999999999999999999MA1101595099815MD1840194+9999MW1101MW2631REMMET13901/04/07 02:53:26 METAR KDAL 040853Z 09006KT 2 1/2SM RA BR SCT003 BKN023 OVC050 08/07 A3000 RMK AO2 SLP156 P0015 60039 T00780067 58019 (SW)
0330722583139602007010409537+32847-096851FM-15+0149KDAL V0301105N00315007925MN0040235N5+00785+00725101465ADDAA101008195AU120020015AU200001015AW1105AW2625GA1025+000915999GA2075+007925999GA3085+013415999GD11991+0009159GD23991+0079259GD34991+0134159GF108991999999999999999999MA1101495099715MW1101MW2631REMMET12701/04/07 03:53:26 METAR KDAL 040953Z 11006KT 2 1/2SM RA BR FEW003 BKN026 OVC044 08/07 A2997 RMK AO2 SLP146 P0033 T00780072 (SW)
0309722583139602007010410067+32847-096851FM-16+0149KDAL V0301105N00465005795MN0048285N5+00805+00705999999ADDAA101000591AU120020015AU200001015AW1105AW2625GA1025+000915999GA2075+005795999GA3085+008535999GD11991+0009159GD23991+0057959GD34991+0085359GF108991999999999999999999MA1101425099645MW1101MW2631REMMET10601/04/07 04:06:26 SPECI KDAL 041006Z 11009KT 3SM RA BR FEW003 BKN019 OVC028 08/07 A2995 RMK AO2 P0002 (SW)
0346722583139602007010410537+32847-096851FM-15+0149KDAL V0300905N00825001525MN0080475N5+00785+00675101046ADDAA101000895AU110020015AU200001015AW1105AW2615GA1075+001525999GA2075+008235999GA3075+027435999GD13991+0015259GD23991+0082359GD33991+0274359GF107991999999999999999999MA1101055099285MW1101MW2611REMMET12401/04/07 04:53:26 METAR KDAL 041053Z 09016KT 5SM -RA BR BKN005 BKN027 BKN090 08/07 A2984 RMK AO2 SLP104 P0004 T00780067 (SW)EQDQ01+101043APOSLP
0317722583139602007010411537+32847-096851FM-15+0149KDAL V0301205N00465001525MN0112655N5+00785+00675101205ADDAA101000095AA206019391AA324026291GA1085+001525999GD14991+0015259GF108991999999999999999999KA1999M+00781KA2999N+00781MA1101225099445MD1540354+9999REMMET14101/04/07 05:53:26 METAR KDAL 041153Z 12009KT 7SM OVC005 08/07 A2989 RMK AO2 RAE1058 SLP120 P0000 60076 70103 T00780067 10078 20078 55035 (SW)EQDQ01  02628PRCP24
0269722583139602007010412537+32847-096851FM-15+0149KDAL V0302605N00365002135MN0096565N5+00835+00675101355ADDAA101000025AU110010015AU200001015AW1105AW2515GA1085+002135999GD14991+0021359GF108991999999999999999999MA1101355099585MW1101MW2511REMMET12801/04/07 06:53:26 METAR KDAL 041253Z 26007KT 6SM -DZ BR OVC007 08/07 A2993 RMK AO2 DZB53 CIG 005V010 SLP135 P0000 T00830067 (SW)
0285722583139602007010413037+32847-096851FM-16+0149KDAL V0302605N00315002135MN0032195N5+00805+00705999999ADDAA101000021AU110010015AU200001015AW1105AW2515GA1075+002135999GA2085+003665999GD13991+0021359GD24991+0036659GF108991999999999999999999MA1101355099585MW1101MW2511REMMET11301/04/07 07:03:26 SPECI KDAL 041303Z 26006KT 2SM -DZ BR BKN007 OVC012 08/07 A2993 RMK AO2 CIG 005V009 P0000 (DCG)
0328722583139602007010413537+32847-096851FM-15+0149KDAL V0302105N00155001525MN0032195N5+00835+00725101325ADDAA101000395AU110010015AU200001015AW1105AW2515GA1075+001525999GA2075+003665999GA3085+007015999GD13991+0015259GD23991+0036659GD34991+0070159GF108991999999999999999999MA1101325099545MW1101MW2511REMMET12501/04/07 07:53:26 METAR KDAL 041353Z 21003KT 2SM -DZ BR BKN005 BKN012 OVC023 08/07 A2992 RMK AO2 SLP132 P0001 T00830072 (DCG)
0273722583139602007010414047+32847-096851FM-16+0149KDAL V0302005N00265000915MN0032195N5+00805+00705999999ADDAA101000021AU110010015AU200001015AW1105AW2515GA1075+000915999GA2085+002135999GD13991+0009159GD24991+0021359GF108991999999999999999999MA1101325099545MW1101MW2511REMMET10101/04/07 08:04:26 SPECI KDAL 041404Z 20005KT 2SM -DZ BR BKN003 OVC007 08/07 A2992 RMK AO2 P0000 (DCG)
0226722583139602007010414327+32847-096851FM-16+0149KDAL V0301805N00155000915MN0048285N5+00805+00805999999ADDAA101000021AU100001015AW1105GA1085+000915999GD14991+0009159GF108991999999999999999999MA1101295099515MW1101REMMET10801/04/07 08:32:26 SPECI KDAL 041432Z 18003KT 3SM BR OVC003 08/08 A2991 RMK AO2 DZE27 CIG 003V007 P0000 (DCG)
0214722583139602007010414407+32847-096851FM-16+0149KDAL V0301705N00215001835MN0048285N5+00905+00705999999ADDAA101000021AU100001015AW1105GA1085+001835999GD14991+0018359GF108991999999999999999999MA1101295099515MW1101REMMET09601/04/07 08:40:26 SPECI KDAL 041440Z 17004KT 3SM BR OVC006 09/07 A2991 RMK AO2 DZE27 P0000 (DCG)
0268722583139602007010414537+32847-096851FM-15+0149KDAL V0301605N00215001835MN0080475N5+00895+00725101265ADDAA101000025AA203000391AU100001015AW1105GA1075+001835999GD13991+0018359GF107991999999999999999999MA1101295099515MD1040054+9999MW1101REMMET12501/04/07 08:53:26 METAR KDAL 041453Z 16004KT 5SM BR BKN006 09/07 A2991 RMK AO2 DZE27 SLP126 P0000 60001 T00890072 50005 (DCG)
0264722583139602007010415537+32847-096851FM-15+0149KDAL V0301205N00415001835MN0096565N5+00945+00785101145ADDAA101000095AU100001015AW1105GA1075+001835999GA2075+006105999GD13991+0018359GD23991+0061059GF107991999999999999999999MA1101155099385MW1101REMMET11501/04/07 09:53:26 METAR KDAL 041553Z 12008KT 6SM BR BKN006 BKN020 09/08 A2987 RMK AO2 PRESFR SLP114 T00940078 (DCG)
0211722583139602007010416087+32847-096851FM-16+0149KDAL V0301205N00415006105MN0128755N5+01005+00805999999ADDGA1045+001835999GA2075+006105999GD12991+0018359GD23991+0061059GF107991999999999999999999MA1101125099345REMMET09601/04/07 10:08:26 SPECI KDAL 041608Z 12008KT 8SM SCT006 BKN020 10/08 A2986 RMK AO2 VIS E 5 (DCG)
0203722583139602007010416227+32847-096851FM-16+0149KDAL V0301205N004152200059N0128755N5+01005+00805999999ADDGA1045+001835999GA2045+006105999GD12991+0018359GD22991+0061059GF104991999999999999999999MA1101125099345REMMET08801/04/07 10:22:26 SPECI KDAL 041622Z 12008KT 8SM SCT006 SCT020 10/08 A2986 RMK AO2 (DCG)
0269722583139602007010416537+32847-096851FM-15+0149KDAL V0301405N003652200059N0128755N5+01115+00835101075ADDAA101000095GA1025+003055999GA2045+006105999GA3045+076205999GD11991+0030559GD22991+0061059GD32991+0762059GF104991999999999999999999MA1101085099315REMMET11201/04/07 10:53:26 METAR KDAL 041653Z 14007KT 8SM FEW010 SCT020 SCT250 11/08 A2985 RMK AO2 SLP107 T01110083 (DCG)
0242722583139602007010417467+32847-096851FM-16+0149KDAL V0301705N00465003355MN0160935N5+01105+00805999999ADDGA1075+003355999GA2075+006105999GA3075+076205999GD13991+0033559GD23991+0061059GD33991+0762059GF107991999999999999999999MA1101025099245REMMET09601/04/07 11:46:26 SPECI KDAL 041746Z 17009KT 10SM BKN011 BKN020 BKN250 11/08 A2983 RMK AO2 (DCG)
0345722583139602007010417537+32847-096851FM-15+0149KDAL V0301705N00415003355MN0160935N5+01115+00835100955ADDAA101000095AA206000391GA1075+003355999GA2075+006105999GA3075+076205999GD13991+0033559GD23991+0061059GD33991+0762059GF107991999999999999999999KA1999M+01221KA2999N+00781MA1100985099215MD1840304+9999REMMET13701/04/07 11:53:26 METAR KDAL 041753Z 17008KT 10SM BKN011 BKN020 BKN250 11/08 A2982 RMK AO2 SLP095 60001 T01110083 10122 20078 58030 (DCG)
0193722583139602007010418537+32847-096851FM-15+0149KDAL V0302105N00215003355MN0128755N5+01175+00895100795ADDAA101000095GA1085+003355999GD14991+0033559GF108991999999999999999999MA1100815099045REMMET09801/04/07 12:53:26 METAR KDAL 041853Z 21004KT 8SM OVC011 12/09 A2977 RMK AO2 SLP079 T01170089 (DCG)
0194722583139602007010419537+32847-096851FM-15+0149KDAL V0302005N00415003355MN0160935N5+01175+00835100795ADDAA101000095GA1085+003355999GD14991+0033559GF108991999999999999999999MA1100815099045REMMET09901/04/07 13:53:26 METAR KDAL 041953Z 20008KT 10SM OVC011 12/08 A2977 RMK AO2 SLP079 T01170083 (DCG)
0214722583139602007010420537+32847-096851FM-15+0149KDAL V0301805N00415003055MN0160935N5+01175+00835100715ADDAA101000095GA1085+003055999GD14991+0030559GF108991999999999999999999MA1100755098975MD1640244+9999REMMET10501/04/07 14:53:26 METAR KDAL 042053Z 18008KT 10SM OVC010 12/08 A2975 RMK AO2 SLP071 T01170083 56024 (DCG)
0200722583139602007010421537+32847-096851FM-15+0149KDAL V0301405N00315003665MN0160935N5+01175+00835100675ADDAA101000095GA1085+003665999GD14991+0036659GF108991999999999999999999MA1100685098915REMMET10501/04/07 15:53:26 METAR KDAL 042153Z 14006KT 10SM OVC012 12/08 A2973 RMK AO2 PRESFR SLP067 T01170083 (TG)
0203722583139602007010422537+32847-096851FM-15+0149KDAL V0302205N00315003665MN0160935N5+01115+00785100705ADDAA101000095GA1085+003665999GD14991+0036659GF108991999999999999999999MA1100715098945REMMET10801/04/07 16:53:26 METAR KDAL 042253Z 22006KT 10SM OVC012 11/08 A2974 RMK AO2 SLP070 OVC V BKN T01110078 (TG)
0251722583139602007010423537+32847-096851FM-15+0149KDAL V0302005N00265003665MN0160935N5+01065+00785100765ADDAA101000095GA1085+003665999GD14991+0036659GF108991999999999999999999KA1999M+01221KA2999N+01061MA1100785099015MD1340044+9999REMMET11601/04/07 17:53:26 METAR KDAL 042353Z 20005KT 10SM OVC012 11/08 A2976 RMK AO2 SLP076 T01060078 10122 20106 53004 (TG)
0193722583139602007010500537+32847-096851FM-15+0149KDAL V0301305N00265003665MN0160935N5+00945+00725100775ADDAA101000095GA1075+003665999GD13991+0036659GF107991999999999999999999MA1100815099045REMMET09801/04/07 18:53:26 METAR KDAL 050053Z 13005KT 10SM BKN012 09/07 A2977 RMK AO2 SLP077 T00940072 (TG)
0193722583139602007010501537+32847-096851FM-15+0149KDAL V0301705N00415003055MN0160935N5+01005+00785100815ADDAA101000095GA1085+003055999GD14991+0030559GF108991999999999999999999MA1100855099085REMMET09801/04/07 19:53:26 METAR KDAL 050153Z 17008KT 10SM OVC010 10/08 A2978 RMK AO2 SLP081 T01000078 (TG)
0165722583139602007010502207+32847-096851FM-16+0149KDAL V0301605N00415002445MN0160935N5+01005+00805999999ADDGA1085+002445999GD14991+0024459GF108991999999999999999999MA1100855099085REMMET08101/04/07 20:20:26 SPECI KDAL 050220Z 16008KT 10SM OVC008 10/08 A2978 RMK AO2 (TG)
0213722583139602007010502537+32847-096851FM-15+0149KDAL V0301605N00415002445MN0160935N5+01005+00835100855ADDAA101000095GA1085+002445999GD14991+0024459GF108991999999999999999999MA1100885099115MD1340104+9999REMMET10401/04/07 20:53:26 METAR KDAL 050253Z 16008KT 10SM OVC008 10/08 A2979 RMK AO2 SLP085 T01000083 53010 (TG)
0193722583139602007010503537+32847-096851FM-15+0149KDAL V0301605N00415002445MN0160935N5+01005+00835100805ADDAA101000095GA1075+002445999GD13991+0024459GF107991999999999999999999MA1100815099045REMMET09801/04/07 21:53:26 METAR KDAL 050353Z 16008KT 10SM BKN008 10/08 A2977 RMK AO2 SLP080 T01000083 (TG)
0165722583139602007010504167+32847-096851FM-16+0149KDAL V0301405N003652200059N0160935N5+01005+00805999999ADDGA1045+003055999GD12991+0030559GF104991999999999999999999MA1100785099015REMMET08101/04/07 22:16:26 SPECI KDAL 050416Z 14007KT 10SM SCT010 10/08 A2976 RMK AO2 (TG)
0193722583139602007010504537+32847-096851FM-15+0149KDAL V0301505N003152200059N0160935N5+01005+00785100705ADDAA101000095GA1025+003055999GD11991+0030559GF102991999999999999999999MA1100715098945REMMET09801/04/07 22:53:26 METAR KDAL 050453Z 15006KT 10SM FEW010 10/08 A2974 RMK AO2 SLP070 T01000078 (TG)
0174722583139602007010505497+32847-096851FM-16+0149KDAL V0301405N00465003055MN0112655N5+01005+00805999999ADDGA1075+003055999GD13991+0030559GF107991999999999999999999MA1100685098915REMMET09001/04/07 23:49:26 SPECI KDAL 050549Z 14009KT 7SM BKN010 10/08 A2973 RMK AO2 401220078 (SW)
0260722583139602007010505537+32847-096851FM-15+0149KDAL V0301405N00365003055MN0112655N5+01005+00835100675ADDAA101000095GA1075+003055999GD13991+0030559GF107991999999999999999999KA1999M+01061KA2999N+00941MA1100715098945MD1640134+9999REMMET12501/04/07 23:53:26 METAR KDAL 050553Z 14007KT 7SM BKN010 10/08 A2974 RMK AO2 SLP067 T01000083 10106 20094 401220078 56013 (SW)
1022722583139602007010505596+32847-096851SOD  +0149KDAL V030999999999999999999999999999+99999+99999999999ADDAA124018895AJ100009599999999AL12400095AN1024000095AX1015245KA1024M+01225KA2024N+00785MG1099144100644OE11240107310005015OE22240089410005015OE33240032699999995REMSOD81824 HR PRECIPITATION (IN):0.74  SNOW DEPTH (IN):0     24 HR SNOWFALL (IN):0.0  WEATHER(CODE):1  24 HR MAX TEMP (F):54 24 HR MAX TEMP TIME (LST):1311 24 HR MIN TEMP (F):46 24 HR MIN TEMP TIME (LST):0638 AVERAGE STATION PRESSURE:29.275 MINIMUM SEA LEVEL PRESSURE:29.72 TIME OF OCCURRENCE:1640 PEAK WIND SPEED (MPH):24  PEAK WIND DIR (DEG):100 PEAK WIND TIME (LST):0501  FASTEST 2MIN SPEED (MPH):20 FASTEST 2MIN DIR (DEG):100 FASTEST 2MIN TIME (LST):0501 AVERAGE WIND SPEED (MPH):7.3  24 HR AVG TEMP (F):50 DEPART FROM NORMAL: +5  HEATING DEGREE DAYS:15  COOLING DEGREE DAYS:0   LATEST DAY MAX TEMP (0700-1900 LST):54  LATEST NIGHT MIN TEMP(1900-0800 LST):46 HOURLY INCREMENTAL PRECIPITATION VALUES (IN):.14 0.08 0.16 0.32 0.03 0.00 T    0.01 T    0.00 0.00 0.00 0.00 0.00 0.00 0.00 0.00 0.00 0.00 0.00 0.00 0.00 0.00 0.00EQDR01     N7GJS072R02     N7GKS075
0176722583139602007010506097+32847-096851FM-16+0149KDAL V0301505N00365002445MN0112655N5+01005+00905999999ADDGA1085+002445999GD14991+0024459GF108991999999999999999999MA1100715098945REMMET09201/05/07 00:09:26 SPECI KDAL 050609Z 15007KT 7SM OVC008 10/09 A2974 RMK AO2 CIG 007V012 (SW)
0218722583139602007010506537+32847-096851FM-15+0149KDAL V0301605N00415002445MN0080475N5+01065+00895100625ADDAA101000095AU100001015AW1105GA1085+002445999GD14991+0024459GF108991999999999999999999MA1100645098875MW1101REMMET10001/05/07 00:53:26 METAR KDAL 050653Z 16008KT 5SM BR OVC008 11/09 A2972 RMK AO2 SLP062 T01060089 (SW)
0218722583139602007010507537+32847-096851FM-15+0149KDAL V0301805N00315001835MN0080475N5+01005+00895100575ADDAA101000095AU100001015AW1105GA1085+001835999GD14991+0018359GF108991999999999999999999MA1100585098815MW1101REMMET10001/05/07 01:53:26 METAR KDAL 050753Z 18006KT 5SM BR OVC006 10/09 A2970 RMK AO2 SLP057 T01000089 (SW)
0190722583139602007010508297+32847-096851FM-16+0149KDAL V0301805N00315001225MN0048285N5+01005+00905999999ADDAU100001015AW1105GA1085+001225999GD14991+0012259GF108991999999999999999999MA1100585098815MW1101REMMET08301/05/07 02:29:26 SPECI KDAL 050829Z 18006KT 3SM BR OVC004 10/09 A2970 RMK AO2 (SW)
0242722583139602007010508537+32847-096851FM-15+0149KDAL V0301705N00365001225MN0040235N5+01005+00895100565ADDAA101000095AU100001015AW1105GA1085+001225999GD14991+0012259GF108991999999999999999999MA1100585098815MD1640114+9999MW1101REMMET11001/05/07 02:53:26 METAR KDAL 050853Z 17007KT 2 1/2SM BR OVC004 10/09 A2970 RMK AO2 SLP056 T01000089 56011 (SW)
0206722583139602007010509487+32847-096851FM-16+0149KDAL V0301905N00415001225MN0028165N5+00905+00805999999ADDAU100001015AW1105GA1085+001225999GD14991+0012259GF108991999999999999999999MA1100545098775MW1101REMMET09901/05/07 03:48:26 SPECI KDAL 050948Z 19008KT 1 3/4SM BR OVC004 09/08 A2969 RMK AO2 CIG 002V007 (SW)
0234722583139602007010509537+32847-096851FM-15+0149KDAL V0302105N00315001225MN0028165N5+00945+00835100515ADDAA101000095AU100001015AW1105GA1085+001225999GD14991+0012259GF108991999999999999999999MA1100545098775MW1101REMMET11601/05/07 03:53:26 METAR KDAL 050953Z 21006KT 1 3/4SM BR OVC004 09/08 A2969 RMK AO2 CIG 002V007 SLP051 T00940083 (SW)
0214722583139602007010510017+32847-096851FM-16+0149KDAL V0302005N00265000615MN0016095N5+00905+00805999999ADDAU100001015AW1105ED199U18299GA1085+000615999GD14991+0006159GF108991999999999999999999MA1100545098775MW1101REMMET09601/05/07 04:01:26 SPECI KDAL 051001Z 20005KT 1SM R13L/P6000FT BR OVC002 09/08 A2969 RMK AO2 (SW)
0261722583139602007010510537+32847-096851FM-15+0149KDAL V0301705N00315000615MN0028165N5+00895+00835100535ADDAA101000025AU110010015AU200001015AW1105AW2515GA1085+000615999GD14991+0006159GF108991999999999999999999MA1100545098775MW1101MW2511REMMET12001/05/07 04:53:26 METAR KDAL 051053Z 17006KT 1 3/4SM -DZ BR OVC002 09/08 A2969 RMK AO2 DZB50 SLP053 P0000 T00890083 (SW)
0213722583139602007010511167+32847-096851FM-16+0149KDAL V0301905N00315000615MN0032195N5+00905+00805999999ADDAA101000021AU100001015AW1105GA1085+000615999GD14991+0006159GF108991999999999999999999MA1100615098845MW1101REMMET09501/05/07 05:16:26 SPECI KDAL 051116Z 19006KT 2SM BR OVC002 09/08 A2971 RMK AO2 DZE15 P0000 (SW)
0213722583139602007010511477+32847-096851FM-16+0149KDAL V0302105N00215000615MN0048285N5+00905+00805999999ADDAA101000021AU100001015AW1105GA1085+000615999GD14991+0006159GF108991999999999999999999MA1100645098875MW1101REMMET09501/05/07 05:47:26 SPECI KDAL 051147Z 21004KT 3SM BR OVC002 09/08 A2972 RMK AO2 DZE15 P0000 (SW)
0353722583139602007010511537+32847-096851FM-15+0149KDAL V0301905N00155000615MN0048285N5+00945+00835100635ADDAA101000025AA206000021AA324000391AU100001015AW1105GA1085+000615999GD14991+0006159GF108991999999999999999999KA1999M+01061KA2999N+00891MA1100645098875MD1340124+9999MW1101REMMET15401/05/07 05:53:26 METAR KDAL 051153Z 19003KT 3SM BR OVC002 09/08 A2972 RMK AO2 DZE15 CIG 002V006 SLP063 P0000 60000 70001 T00940083 10106 20089 53012 (SW)EQDQ01  00038PRCP24
0190722583139602007010512257+32847-096851FM-16+0149KDAL V0302005N00315001835MN0080475N5+01005+00805999999ADDAU100001015AW1105GA1085+001835999GD14991+0018359GF108991999999999999999999MA1100685098915MW1101REMMET08301/05/07 06:25:26 SPECI KDAL 051225Z 20006KT 5SM BR OVC006 10/08 A2973 RMK AO2 (SW)
0218722583139602007010512537+32847-096851FM-15+0149KDAL V0301905N00265001835MN0080475N5+01005+00835100655ADDAA101000095AU100001015AW1105GA1085+001835999GD14991+0018359GF108991999999999999999999MA1100685098915MW1101REMMET10001/05/07 06:53:26 METAR KDAL 051253Z 19005KT 5SM BR OVC006 10/08 A2973 RMK AO2 SLP065 T01000083 (SW)
0219722583139602007010513537+32847-096851FM-15+0149KDAL V0301805N00415001835MN0080475N5+01005+00835100665ADDAA101000095AU100001015AW1105GA1085+001835999GD14991+0018359GF108991999999999999999999MA1100685098915MW1101REMMET10101/05/07 07:53:26 METAR KDAL 051353Z 18008KT 5SM BR OVC006 10/08 A2973 RMK AO2 SLP066 T01000083 (DCG)
0184722583139602007010514534+32833-096850FM-16+0152KDAL V0201701N00361001801CN0080461N1+01101+00901100751ADDGD14991+0024019GF108991999999999999999999MA1100781999999MD1310121+9999MW1101REMMET096SPECI KDAL 051453Z 17007KT 5SM BR OVC008 11/09 A2976 RMK AO2 CIG 006V011 SLP075 T01060089 53012;
0251722583139602007010514537+32847-096851FM-15+0149KDAL V0301705N00365002445MN0080475N5+01065+00895100755ADDAA101000095AU100001015AW1105GA1085+002445999GD14991+0024459GF108991999999999999999999MA1100785099015MD1340124+9999MW1101REMMET11901/05/07 08:53:26 METAR KDAL 051453Z 17007KT 5SM BR OVC008 11/09 A2976 RMK AO2 CIG 006V011 SLP075 T01060089 53012 (DCG)
0191722583139602007010515387+32847-096851FM-16+0149KDAL V0301905N00575003055MN0080475N5+01105+00905999999ADDAU100001015AW1105GA1085+003055999GD14991+0030559GF108991999999999999999999MA1100815099045MW1101REMMET08401/05/07 09:40:26 SPECI KDAL 051538Z 19011KT 5SM BR OVC010 11/09 A2977 RMK AO2 (DCG)
0219722583139602007010515537+32847-096851FM-15+0149KDAL V0301905V00415003055MN0096565N5+01115+00895100825ADDAA101000095AU100001015AW1105GA1085+003055999GD14991+0030559GF108991999999999999999999MA1100855099085MW1101REMMET10101/05/07 09:53:26 METAR KDAL 051553Z 19008KT 6SM BR OVC010 11/09 A2978 RMK AO2 SLP082 T01110089 (DCG)
0213722583139602007010516537+32847-096851FM-15+0149KDAL V0302005N00465003055MN0096565N5+01175+00895100805ADDAA101000095AU100007015GA1085+003055999GD14991+0030559GF108991999999999999999999MA1100815099045MW1055REMMET10101/05/07 10:53:26 METAR KDAL 051653Z 20009KT 6SM HZ OVC010 12/09 A2977 RMK AO2 SLP080 T01170089 (DCG)
0271722583139602007010517537+32847-096851FM-15+0149KDAL V0301605N00575003055MN0096565N5+01225+00895100695ADDAA101000095AU100007015GA1085+003055999GD14991+0030559GF108991999999999999999999KA1999M+01221KA2999N+00941MA1100715098945MD1840064+9999MW1055REMMET11901/05/07 11:53:26 METAR KDAL 051753Z 16011KT 6SM HZ OVC010 12/09 A2974 RMK AO2 SLP069 T01220089 10122 20094 58006 (DCG)
0212722583139602007010518537+32847-096851FM-15+0149KDAL V0301705N00575003055MN0096565N5+01285+00895100565ADDAA101000095AU100007015GA1085+003055999GD14991+0030559GF108991999999999999999999MA1100615098845MW1055REMMET10001/05/07 12:53:26 METAR KDAL 051853Z 17011KT 6SM HZ OVC010 13/09 A2971 RMK AO2 SLP056 T01280089 (TG)
0192722583139602007010519537+32847-096851FM-15+0149KDAL V0301805N00365004275MN0144845N5+01285+00895100545ADDAA101000095GA1075+004275999GD13991+0042759GF107991999999999999999999MA1100585098815REMMET09701/05/07 13:53:26 METAR KDAL 051953Z 18007KT 9SM BKN014 13/09 A2970 RMK AO2 SLP054 T01280089 (TG)
0165722583139602007010520177+32847-096851FM-16+0149KDAL V0301405N00365004885MN0160935N5+01405+00905999999ADDGA1075+004885999GD13991+0048859GF107991999999999999999999MA1100585098815REMMET08101/05/07 14:17:26 SPECI KDAL 052017Z 14007KT 10SM BKN016 14/09 A2970 RMK AO2 (TG)
0165722583139602007010520267+32847-096851FM-16+0149KDAL V0301805N004152200059N0160935N5+01405+00905999999ADDGA1045+004885999GD12991+0048859GF104991999999999999999999MA1100585098815REMMET08101/05/07 14:26:26 SPECI KDAL 052026Z 18008KT 10SM SCT016 14/09 A2970 RMK AO2 (TG)
0213722583139602007010520537+32847-096851FM-15+0149KDAL V0301505N004152200059N0160935N5+01505+00945100545ADDAA101000095GA1025+005495999GD11991+0054959GF102991999999999999999999MA1100585098815MD1540144+9999REMMET10401/05/07 14:53:26 METAR KDAL 052053Z 15008KT 10SM FEW018 15/09 A2970 RMK AO2 SLP054 T01500094 55014 (TG)
0159722583139602007010521537+32847-096851FM-15+0149KDAL V0301405N003152200059N0160935N5+01615+01005100605ADDAA101000095GF100991999999999999999999MA1100645098875REMMET09501/05/07 15:53:26 METAR KDAL 052153Z 14006KT 10SM CLR 16/10 A2972 RMK AO2 SLP060 T01610100 (TG)
0159722583139602007010522537+32847-096851FM-15+0149KDAL V0301405N002652200059N0160935N5+01615+01005100685ADDAA101000095GF100991999999999999999999MA1100715098945REMMET09501/05/07 16:53:26 METAR KDAL 052253Z 14005KT 10SM CLR 16/10 A2974 RMK AO2 SLP068 T01610100 (TG)
0217722583139602007010523537+32847-096851FM-15+0149KDAL V0301105N002652200059N0160935N5+01505+01005100735ADDAA101000095GF100991999999999999999999KA1999M+01671KA2999N+01221MA1100785099015MD1140194+9999REMMET11301/05/07 17:53:26 METAR KDAL 052353Z 11005KT 10SM CLR 15/10 A2976 RMK AO2 SLP073 T01500100 10167 20122 51019 (TG)
0159722583139602007010600537+32847-096851FM-15+0149KDAL V0300605N002652200059N0160935N5+01285+00945100835ADDAA101000095GF100991999999999999999999MA1100855099085REMMET09501/05/07 18:53:26 METAR KDAL 060053Z 06005KT 10SM CLR 13/09 A2978 RMK AO2 SLP083 T01280094 (TG)
0159722583139602007010601537+32847-096851FM-15+0149KDAL V0300505N002152200059N0160935N5+01225+00945100975ADDAA101000095GF100991999999999999999999MA1100985099215REMMET09501/05/07 19:53:26 METAR KDAL 060153Z 05004KT 10SM CLR 12/09 A2982 RMK AO2 SLP097 T01220094 (TG)
0187722583139602007010602537+32847-096851FM-15+0149KDAL V0300305N002152200059N0144845N5+01065+00835101085ADDAA101000095GF100991999999999999999999MA1101125099345MD1340344+9999REMMET10901/05/07 21:15:26 METAR KDAL 060253Z 03004KT 9SM CLR 11/08 A2986 RMK AO2 SLP108 HZ ALQDS T01060083 53034 (TG)
0167722583139602007010603537+32847-096851FM-15+0149KDAL V0303605N002652200059N0128755N5+01005+00835101235ADDAA101000095GF100991999999999999999999MA1101255099485REMMET10301/05/07 21:53:26 METAR KDAL 060353Z 36005KT 8SM CLR 10/08 A2990 RMK AO2 SLP123 HZ ALQDS T01000083 (TG)
0167722583139602007010604537+32847-096851FM-15+0149KDAL V0300305N002652200059N0112655N5+01065+00895101345ADDAA101000095GF100991999999999999999999MA1101355099585REMMET10301/05/07 22:53:26 METAR KDAL 060453Z 03005KT 7SM CLR 11/09 A2993 RMK AO2 SLP134 HZ ALQDS T01060089 (TG)
0191722583139602007010605117+32847-096851FM-16+0149KDAL V0303405N00625002745MN0096565N5+01005+00805999999ADDAU100001015AW1105GA1075+002745999GD13991+0027459GF107991999999999999999999MA1101425099645MW1101REMMET08401/05/07 23:11:26 SPECI KDAL 060511Z 34012KT 6SM BR BKN009 10/08 A2995 RMK AO2 (CLL)
0174722583139602007010605516+32847-096851FM-16+0149KDAL V0303605N00515004575MN0096565N5+00905+00705999999ADDAU100001015AW1105GA1075+004575999GD13991+0045759MA1101465099685REMMET09901/05/07 23:52:21 SPECI KDAL 060551Z 36010KT 6SM BR BKN015 09/07 A2996 RMK AO2 401670089 FIBI (CLL)
0281722583139602007010605537+32847-096851FM-15+0149KDAL V0300105N00415004575MN0096565N5+00945+00675101435ADDAA101000095AU100007015GA1075+004575999GD13991+0045759GF107991999999999999999999KA1999M+01501KA2999N+00941MA1101465099685MD1140344+9999MW1055REMMET12901/05/07 23:53:26 METAR KDAL 060553Z 01008KT 6SM HZ BKN015 09/07 A2996 RMK AO2 SLP143 T00940067 10150 20094 401670089 51034 (CLL)
1033722583139602007010605596+32847-096851SOD  +0149KDAL V030999999999999999999999999999+99999+99999999999ADDAA124000025AJ100009599999999AL12400095AN1024000095AX1015245AX2085245KA1024M+01675KA2024N+00895MG1099104100474OE11240080517013095OE22240071518013105OE33240033599999995REMSOD82024 HR PRECIPITATION (IN):T     SNOW DEPTH (IN):0     24 HR SNOWFALL (IN):0.0  WEATHER(CODE):1,8  24 HR MAX TEMP (F):62 24 HR MAX TEMP TIME (LST):1651 24 HR MIN TEMP (F):48 24 HR MIN TEMP TIME (LST):2359 AVERAGE STATION PRESSURE:29.265 MINIMUM SEA LEVEL PRESSURE:29.67 TIME OF OCCURRENCE:0336 PEAK WIND SPEED (MPH):18  PEAK WIND DIR (DEG):170 PEAK WIND TIME (LST):1309  FASTEST 2MIN SPEED (MPH):16 FASTEST 2MIN DIR (DEG):180 FASTEST 2MIN TIME (LST):1310 AVERAGE WIND SPEED (MPH):7.5  24 HR AVG TEMP (F):55 DEPART FROM NORMAL:+10  HEATING DEGREE DAYS:10  COOLING DEGREE DAYS:0   LATEST DAY MAX TEMP (0700-1900 LST):62  LATEST NIGHT MIN TEMP(1900-0800 LST):48 HOURLY INCREMENTAL PRECIPITATION VALUES (IN):.00 0.00 0.00 0.00 T    T    0.00 0.00 0.00 0.00 0.00 0.00 0.00 0.00 0.00 0.00 0.00 0.00 0.00 0.00 0.00 0.00 0.00 0.00EQDR01     N7GJS072R02     N7GKS075
0145722583139602007010606516+32847-096851FM-16+0149KDAL V0303505N006752200059N0160935N5+00805+00505999999ADDGA1045+006105999GD12991+0061059MA1101495099715REMMET08701/06/07 00:52:21 SPECI KDAL 060651Z 35013KT 10SM SCT020 08/05 A2997 RMK AO2 FIBI (CLL)
0205722583139602007010606537+32847-096851FM-15+0149KDAL V0303605N007252200059N0160935N5+00835+00505101485ADDAA101000095GA1045+006105999GD12991+0061059GF104991999999999999999999MA1101495099715OC100985REMMET10201/06/07 00:53:26 METAR KDAL 060653Z 36014G19KT 10SM SCT020 08/05 A2997 RMK AO2 SLP148 T00830050 (CLL)
0160722583139602007010607537+32847-096851FM-15+0149KDAL V0303605N003152200059N0160935N5+00785+00445101605ADDAA101000095GF100991999999999999999999MA1101635099845REMMET09601/06/07 01:53:26 METAR KDAL 060753Z 36006KT 10SM CLR 08/04 A3001 RMK AO2 SLP160 T00780044 (CLL)
0180722583139602007010608537+32847-096851FM-15+0149KDAL V0303405N003652200059N0160935N5+00725+00445101695ADDAA101000095GF100991999999999999999999MA1101735099945MD1340254+9999REMMET10201/06/07 02:53:26 METAR KDAL 060853Z 34007KT 10SM CLR 07/04 A3004 RMK AO2 SLP169 T00720044 53025 (CLL)
0160722583139602007010609537+32847-096851FM-15+0149KDAL V0303505N004652200059N0160935N5+00675+00445101735ADDAA101000095GF100991999999999999999999MA1101765099985REMMET09601/06/07 03:53:26 METAR KDAL 060953Z 35009KT 10SM CLR 07/04 A3005 RMK AO2 SLP173 T00670044 (CLL)
0194722583139602007010610537+32847-096851FM-15+0149KDAL V0303605N004152200059N0160935N5+00675+00395101755ADDAA101000095GA1025+003055999GD11991+0030559GF102991999999999999999999MA1101795100015REMMET09901/06/07 04:53:26 METAR KDAL 061053Z 36008KT 10SM FEW010 07/04 A3006 RMK AO2 SLP175 T00670039 (CLL)
0252722583139602007010611537+32847-096851FM-15+0149KDAL V0303505N003652200059N0160935N5+00675+00395101885ADDAA101000095GA1025+003055999GD11991+0030559GF102991999999999999999999KA1999M+00941KA2999N+00671MA1101905100115MD1340184+9999REMMET11701/06/07 05:53:26 METAR KDAL 061153Z 35007KT 10SM FEW010 07/04 A3009 RMK AO2 SLP188 T00670039 10094 20067 53018 (CLL)
0145722583139602007010612516+32847-096851FM-16+0149KDAL V0303605N00465006105MN0160935N5+00705+00405999999ADDGA1075+006105999GD13991+0061059MA1101905100115REMMET08701/06/07 06:52:21 SPECI KDAL 061251Z 36009KT 10SM BKN020 07/04 A3009 RMK AO2 FIBI (CLL)
0194722583139602007010612537+32847-096851FM-15+0149KDAL V0303605N00465006105MN0160935N5+00675+00395101895ADDAA101000095GA1075+006105999GD13991+0061059GF107991999999999999999999MA1101905100115REMMET09901/06/07 06:53:26 METAR KDAL 061253Z 36009KT 10SM BKN020 07/04 A3009 RMK AO2 SLP189 T00670039 (CLL)
0193722583139602007010613537+32847-096851FM-15+0149KDAL V0303505N00515006715MN0160935N5+00725+00395102025ADDAA101000095GA1085+006715999GD14991+0067159GF108991999999999999999999MA1102035100245REMMET09801/06/07 07:53:26 METAR KDAL 061353Z 35010KT 10SM OVC022 07/04 A3013 RMK AO2 SLP202 T00720039 (MG)
0224722583139602007010614537+32847-096851FM-15+0149KDAL V0303605N00465006105MN0160935N5+00785+00395102065ADDAA101000095GA1085+006105999GD14991+0061059GF108991999999999999999999MA1102105100315MD1340184+9999OC100775REMMET10701/06/07 08:53:26 METAR KDAL 061453Z 36009G15KT 10SM OVC020 08/04 A3015 RMK AO2 SLP206 T00780039 53018 (MG)
0193722583139602007010615537+32847-096851FM-15+0149KDAL V0300305N00465006105MN0160935N5+00835+00285102255ADDAA101000095GA1085+006105999GD14991+0061059GF108991999999999999999999MA1102275100485REMMET09801/06/07 09:53:26 METAR KDAL 061553Z 03009KT 10SM OVC020 08/03 A3020 RMK AO2 SLP225 T00830028 (MG)
0193722583139602007010616537+32847-096851FM-15+0149KDAL V0300305N00465006715MN0160935N5+00895+00335102225ADDAA101000095GA1085+006715999GD14991+0067159GF108991999999999999999999MA1102245100445REMMET09801/06/07 10:53:26 METAR KDAL 061653Z 03009KT 10SM OVC022 09/03 A3019 RMK AO2 SLP222 T00890033 (MG)
0251722583139602007010617537+32847-096851FM-15+0149KDAL V0300405N00265006715MN0160935N5+00945+00335102105ADDAA101000095GA1075+006715999GD13991+0067159GF107991999999999999999999KA1999M+00941KA2999N+00611MA1102105100315MD1040034+9999REMMET11601/06/07 11:53:26 METAR KDAL 061753Z 04005KT 10SM BKN022 09/03 A3015 RMK AO2 SLP210 T00940033 10094 20061 50003 (MG)
0193722583139602007010618537+32847-096851FM-15+0149KDAL V0303405N00365007925MN0160935N5+01005+00395101965ADDAA101000095GA1075+007925999GD13991+0079259GF107991999999999999999999MA1101965100185REMMET09801/06/07 12:55:26 METAR KDAL 061853Z 34007KT 10SM BKN026 10/04 A3011 RMK AO2 SLP196 T01000039 (MG)
0193722583139602007010619537+32847-096851FM-15+0149KDAL V0303605N00215007925MN0160935N5+01005+00335101925ADDAA101000095GA1075+007925999GD13991+0079259GF107991999999999999999999MA1101935100145REMMET09801/06/07 13:53:26 METAR KDAL 061953Z 36004KT 10SM BKN026 10/03 A3010 RMK AO2 SLP192 T01000033 (MG)
0213722583139602007010620537+32847-096851FM-15+0149KDAL V0309999C00005007925MN0160935N5+01065+00395101885ADDAA101000095GA1075+007925999GD13991+0079259GF107991999999999999999999MA1101905100115MD1640214+9999REMMET10401/06/07 14:53:26 METAR KDAL 062053Z 00000KT 10SM BKN026 11/04 A3009 RMK AO2 SLP188 T01060039 56021 (MG)
0203722583139602007010621017+32847-096851FM-16+0149KDAL V0303005N001552200059N0160935N5+01105+00405999999ADDGA1045+007925999GA2045+013725999GD12991+0079259GD22991+0137259GF104991999999999999999999MA1101905100115REMMET08801/06/07 15:01:26 SPECI KDAL 062101Z 30003KT 10SM SCT026 SCT045 11/04 A3009 RMK AO2 (JM)
0269722583139602007010621537+32847-096851FM-15+0149KDAL V0300205N00575024385MN0160935N5+01115+00395101755ADDAA101000095GA1045+015245999GA2075+024385999GA3075+091445999GD12991+0152459GD23991+0243859GD33991+0914459GF107991999999999999999999MA1101765099985REMMET11201/06/07 15:53:26 METAR KDAL 062153Z 02011KT 10SM SCT050 BKN080 BKN300 11/04 A3005 RMK AO2 SLP175 T01110039 (JM)
0231722583139602007010622537+32847-096851FM-15+0149KDAL V0300205N00465030485MN0160935N5+01115+00395101635ADDAA101000095GA1025+024385999GA2075+030485999GD11991+0243859GD23991+0304859GF107991999999999999999999MA1101665099885REMMET10501/06/07 16:53:26 METAR KDAL 062253Z 02009KT 10SM FEW080 BKN100 11/04 A3002 RMK AO2 SLP163 T01110039 (JM)
0251722583139602007010623537+32847-096851FM-15+0149KDAL V0309999C00005021345MN0160935N5+01115+00395101765ADDAA101000095GA1085+021345999GD14991+0213459GF108991999999999999999999KA1999M+01171KA2999N+00941MA1101765099985MD1540134+9999REMMET11601/06/07 17:53:26 METAR KDAL 062353Z 00000KT 10SM OVC070 11/04 A3005 RMK AO2 SLP176 T01110039 10117 20094 55013 (JM)
0269722583139602007010700537+32847-096851FM-15+0149KDAL V0303105N00155012195MN0160935N5+01115+00505101825ADDAA101000095GA1045+009755999GA2075+012195999GA3085+018295999GD12991+0097559GD23991+0121959GD34991+0182959GF108991999999999999999999MA1101835100045REMMET11201/06/07 18:53:26 METAR KDAL 070053Z 31003KT 10SM SCT032 BKN040 OVC060 11/05 A3007 RMK AO2 SLP182 T01110050 (JM)
0269722583139602007010701537+32847-096851FM-15+0149KDAL V0300205N00155014945MN0160935N5+01115+00445101755ADDAA101000025GA1045+012195999GA2075+014945999GA3085+021345999GD12991+0121959GD23991+0149459GD34991+0213459GF108991999999999999999999MA1101765099985REMMET11201/06/07 19:53:26 METAR KDAL 070153Z 02003KT 10SM SCT040 BKN049 OVC070 11/04 A3005 RMK AO2 SLP175 T01110044 (JM)
0276722583139602007010702537+32847-096851FM-15+0149KDAL V0309999C00005011895MN0144845N5+01065+00615101875ADDAA101000025AA203000021AU110020015AW1615GA1085+011895999GD14991+0118959GF108991999999999999999999MA1101905100115MD1340114+9999MW1611REMMET13301/06/07 20:53:26 METAR KDAL 070253Z 00000KT 9SM -RA OVC039 11/06 A3009 RMK AO2 RAB0155E17B39 SLP187 P0000 60000 T01060061 53011 (JM)
0205722583139602007010703537+32847-096851FM-15+0149KDAL V0309999C00005011895MN0160935N5+01065+00565101875ADDAA101000025GA1085+011895999GD14991+0118959GF108991999999999999999999MA1101905100115REMMET11001/06/07 21:53:26 METAR KDAL 070353Z 00000KT 10SM OVC039 11/06 A3009 RMK AO2 RAE13 SLP187 P0000 T01060056 (JM)
0231722583139602007010704537+32847-096851FM-15+0149KDAL V0302105N00155012505MN0160935N5+01005+00675101895ADDAA101000095GA1075+012505999GA2085+016765999GD13991+0125059GD24991+0167659GF108991999999999999999999MA1101905100115REMMET10501/06/07 22:53:26 METAR KDAL 070453Z 21003KT 10SM BKN041 OVC055 10/07 A3009 RMK AO2 SLP189 T01000067 (JM)
0279722583139602007010705537+32847-096851FM-15+0149KDAL V0302605N00155016765MN0160935N5+01005+00725101885ADDAA101000095AA206000021GA1085+016765999GD14991+0167659GF108991999999999999999999KA1999M+01171KA2999N+01001MA1101905100115MD1040014+9999REMMET13301/06/07 23:53:26 METAR KDAL 070553Z 26003KT 10SM OVC055 10/07 A3009 RMK AO2 SLP188 60000 T01000072 10117 20100 401170061 50001 (CLL)
0996722583139602007010705596+32847-096851SOD  +0149KDAL V030999999999999999999999999999+99999+99999999999ADDAA124000025AJ100009599999999AL12400095AN1024000095KA1024M+01175KA2024N+00615MG1100124101424OE11240107335000165OE22240089435000095OE33240030899999995REMSOD80124 HR PRECIPITATION (IN):T     SNOW DEPTH (IN):0     24 HR SNOWFALL (IN):0.0  24 HR MAX TEMP (F):53 24 HR MAX TEMP TIME (LST):1804 24 HR MIN TEMP (F):43 24 HR MIN TEMP TIME (LST):0635 AVERAGE STATION PRESSURE:29.565 MINIMUM SEA LEVEL PRESSURE:29.95 TIME OF OCCURRENCE:0033 PEAK WIND SPEED (MPH):24  PEAK WIND DIR (DEG):350 PEAK WIND TIME (LST):0016  FASTEST 2MIN SPEED (MPH):20 FASTEST 2MIN DIR (DEG):350 FASTEST 2MIN TIME (LST):0009 AVERAGE WIND SPEED (MPH):6.9  24 HR AVG TEMP (F):48 DEPART FROM NORMAL: +3  HEATING DEGREE DAYS:17  COOLING DEGREE DAYS:0   LATEST DAY MAX TEMP (0700-1900 LST):53  LATEST NIGHT MIN TEMP(1900-0800 LST):43 HOURLY INCREMENTAL PRECIPITATION VALUES (IN):.00 0.00 0.00 0.00 0.00 0.00 0.00 0.00 0.00 0.00 0.00 0.00 0.00 0.00 0.00 0.00 0.00 0.00 0.00 T    T    T    0.00 0.00EQDR01     N7GJS072R02     N7GKS075
0247722583139602007010706537+32847-096851FM-15+0149KDAL V0303205N00415016765MN0160935N5+01005+00505101775ADDAA101000025GA1075+016765999GA2085+025915999GD13991+0167659GD24991+0259159GF108991999999999999999999MA1101795100015REMMET12101/07/07 00:53:26 METAR KDAL 070653Z 32008KT 10SM BKN055 OVC085 10/05 A3006 RMK AO2 RAB06E20 SLP177 P0000 T01000050 (CLL)
0194722583139602007010707537+32847-096851FM-15+0149KDAL V0302905N00215021345MN0160935N5+00945+00395101785ADDAA101000095GA1085+021345999GD14991+0213459GF108991999999999999999999MA1101795100015REMMET09901/07/07 01:53:26 METAR KDAL 070753Z 29004KT 10SM OVC070 09/04 A3006 RMK AO2 SLP178 T00940039 (CLL)
0231722583139602007010708537+32847-096851FM-15+0149KDAL V0303105N00315018295MN0160935N5+00835+00335101785ADDAA101000095AA203000021GA1075+018295999GD13991+0182959GF107991999999999999999999MA1101795100015MD1640104+9999REMMET11101/07/07 02:53:26 METAR KDAL 070853Z 31006KT 10SM BKN060 08/03 A3006 RMK AO2 SLP178 60000 T00830033 56010 (CLL)
0160722583139602007010709537+32847-096851FM-15+0149KDAL V0303105N003652200059N0160935N5+00725+00285101815ADDAA101000095GF100991999999999999999999MA1101835100045REMMET09601/07/07 03:53:26 METAR KDAL 070953Z 31007KT 10SM CLR 07/03 A3007 RMK AO2 SLP181 T00720028 (CLL)
0160722583139602007010710537+32847-096851FM-15+0149KDAL V0303205N003152200059N0160935N5+00615+00115101855ADDAA101000095GF100991999999999999999999MA1101865100085REMMET09601/07/07 04:53:26 METAR KDAL 071053Z 32006KT 10SM CLR 06/01 A3008 RMK AO2 SLP185 T00610011 (CLL)
0235722583139602007010711537+32847-096851FM-15+0149KDAL V0303105N002152200059N0160935N5+00565+00115101895ADDAA101000095AA206000021GF100991999999999999999999KA1999M+01001KA2999N+00561MA1101905100115MD1240104+9999REMMET12001/07/07 05:53:26 METAR KDAL 071153Z 31004KT 10SM CLR 06/01 A3009 RMK AO2 SLP189 60000 T00560011 10100 20056 52010 (CLL)
0160722583139602007010712537+32847-096851FM-15+0149KDAL V0303105N002652200059N0160935N5+00505+00065101965ADDAA101000095GF100991999999999999999999MA1101965100185REMMET09601/07/07 06:53:26 METAR KDAL 071253Z 31005KT 10SM CLR 05/01 A3011 RMK AO2 SLP196 T00500006 (CLL)
0194722583139602007010713537+32847-096851FM-15+0149KDAL V0303105N001552200059N0160935N5+00445+00115102065ADDAA101000095GA1025+060965999GD11991+0609659GF102991999999999999999999MA1102075100285REMMET09901/07/07 07:53:26 METAR KDAL 071353Z 31003KT 10SM FEW200 04/01 A3014 RMK AO2 SLP206 T00440011 (CLL)
0214722583139602007010714537+32847-096851FM-15+0149KDAL V0303105N003152200059N0160935N5+00615+00115102155ADDAA101000095GA1025+091445999GD11991+0914459GF102991999999999999999999MA1102175100385MD1340254+9999REMMET10501/07/07 08:53:26 METAR KDAL 071453Z 31006KT 10SM FEW300 06/01 A3017 RMK AO2 SLP215 T00610011 53025 (CLL)
0194722583139602007010715537+32847-096851FM-15+0149KDAL V0303205N003652200059N0160935N5+00835+00115102255ADDAA101000095GA1025+091445999GD11991+0914459GF102991999999999999999999MA1102275100485REMMET09901/07/07 09:53:26 METAR KDAL 071553Z 32007KT 10SM FEW300 08/01 A3020 RMK AO2 SLP225 T00830011 (CLL)
0160722583139602007010716537+32847-096851FM-15+0149KDAL V0303305N006252200059N0160935N5+01065+00065102275ADDAA101000095GF100991999999999999999999MA1102305100515REMMET09601/07/07 10:53:26 METAR KDAL 071653Z 33012KT 10SM CLR 11/01 A3021 RMK AO2 SLP227 T01060006 (CLL)
0217722583139602007010717537+32847-096851FM-15+0149KDAL V0303205N006252200059N0160935N5+01175+00065102245ADDAA101000095GF100991999999999999999999KA1999M+01171KA2999N+00391MA1102275100485MD1040094+9999REMMET11301/07/07 11:53:26 METAR KDAL 071753Z 32012KT 10SM CLR 12/01 A3020 RMK AO2 SLP224 T01170006 10117 20039 50009 (JM)
0159722583139602007010718537+32847-096851FM-15+0149KDAL V0303305N005752200059N0160935N5+01395+00065102175ADDAA101000095GF100991999999999999999999MA1102205100415REMMET09501/07/07 12:53:26 METAR KDAL 071853Z 33011KT 10SM CLR 14/01 A3018 RMK AO2 SLP217 T01390006 (JM)
0159722583139602007010719537+32847-096851FM-15+0149KDAL V0303205N008252200059N0160935N5+01395+00005102185ADDAA101000095GF100991999999999999999999MA1102205100415REMMET09501/07/07 13:53:26 METAR KDAL 071953Z 32016KT 10SM CLR 14/00 A3018 RMK AO2 SLP218 T01390000 (JM)
0191722583139602007010720537+32847-096851FM-15+0149KDAL V0303205N008852200059N0160935N5+01445-00175102225ADDAA101000095GF100991999999999999999999MA1102245100445MD1540014+9999OC101185REMMET10501/07/07 14:53:26 METAR KDAL 072053Z 32017G23KT 10SM CLR 14/M02 A3019 RMK AO2 SLP222 T01441017 55001 (JM)
0189722583139602007010721537+32847-096851FM-15+0149KDAL V0303305N008852200059N0160935N5+01395-00335102335ADDAA101000095GF100991999999999999999999MA1102345100545OC101135REMMET11701/07/07 15:53:26 METAR KDAL 072153Z 33017G22KT 10SM CLR 14/M03 A3022 RMK AO2 PK WND 32026/2137 SLP233 T01391033 (JM)
0189722583139602007010722537+32847-096851FM-15+0149KDAL V0303405N008252200059N0160935N5+01285-00565102445ADDAA101000095GF100991999999999999999999MA1102475100685OC101085REMMET11701/07/07 16:53:26 METAR KDAL 072253Z 34016G21KT 10SM CLR 13/M06 A3026 RMK AO2 PK WND 32027/2235 SLP244 T01281056 (JM)
0229722583139602007010723537+32847-096851FM-15+0149KDAL V0303305N006752200059N0160935N5+01115-00565102515ADDAA101000095GF100991999999999999999999KA1999M+01441KA2999N+01111MA1102515100715MD1140274+9999OC101085REMMET11701/07/07 17:53:26 METAR KDAL 072353Z 33013G21KT 10SM CLR 11/M06 A3027 RMK AO2 SLP251 T01111056 10144 20111 51027 (JM)
0160722583139602007010800537+32847-096851FM-15+0149KDAL V0303205N006752200059N0160935N5+01005-00335102605ADDAA101000095GF100991999999999999999999MA1102615100815REMMET09601/07/07 18:53:26 METAR KDAL 080053Z 32013KT 10SM CLR 10/M03 A3030 RMK AO2 SLP260 T01001033 (JM)
0160722583139602007010801537+32847-096851FM-15+0149KDAL V0303205N003652200059N0160935N5+00835-00285102645ADDAA101000095GF100991999999999999999999MA1102645100845REMMET09601/07/07 19:53:26 METAR KDAL 080153Z 32007KT 10SM CLR 08/M03 A3031 RMK AO2 SLP264 T00831028 (JM)
0180722583139602007010802537+32847-096851FM-15+0149KDAL V0303105N002652200059N0160935N5+00785-00285102685ADDAA101000095GF100991999999999999999999MA1102685100885MD1140174+9999REMMET10201/07/07 20:53:26 METAR KDAL 080253Z 31005KT 10SM CLR 08/M03 A3032 RMK AO2 SLP268 T00781028 51017 (JM)
0160722583139602007010803537+32847-096851FM-15+0149KDAL V0303105N002652200059N0160935N5+00675-00225102725ADDAA101000095GF100991999999999999999999MA1102745100945REMMET09601/07/07 21:53:26 METAR KDAL 080353Z 31005KT 10SM CLR 07/M02 A3034 RMK AO2 SLP272 T00671022 (JM)
0160722583139602007010804537+32847-096851FM-15+0149KDAL V0303205N004152200059N0160935N5+00565-00335102755ADDAA101000095GF100991999999999999999999MA1102785100985REMMET09601/07/07 22:53:26 METAR KDAL 080453Z 32008KT 10SM CLR 06/M03 A3035 RMK AO2 SLP275 T00561033 (JM)
0228722583139602007010805537+32847-096851FM-15+0149KDAL V0303105N003152200059N0160935N5+00505-00335102765ADDAA101000095GF100991999999999999999999KA1999M+01111KA2999N+00501MA1102785100985MD1140074+9999REMMET12401/07/07 23:53:26 METAR KDAL 080553Z 31006KT 10SM CLR 05/M03 A3035 RMK AO2 SLP276 T00501033 10111 20050 401440039 51007 (SW)
0996722583139602007010805596+32847-096851SOD  +0149KDAL V030999999999999999999999999999+99999+99999999999ADDAA124000025AJ100009599999999AL12400095AN1024000095KA1024M+01445KA2024N+00395MG1100564101764OE11240138632016355OE22240111832016315OE33240046099999995REMSOD80124 HR PRECIPITATION (IN):T     SNOW DEPTH (IN):0     24 HR SNOWFALL (IN):0.0  24 HR MAX TEMP (F):58 24 HR MAX TEMP TIME (LST):1509 24 HR MIN TEMP (F):39 24 HR MIN TEMP TIME (LST):0800 AVERAGE STATION PRESSURE:29.695 MINIMUM SEA LEVEL PRESSURE:30.05 TIME OF OCCURRENCE:0302 PEAK WIND SPEED (MPH):31  PEAK WIND DIR (DEG):320 PEAK WIND TIME (LST):1635  FASTEST 2MIN SPEED (MPH):25 FASTEST 2MIN DIR (DEG):320 FASTEST 2MIN TIME (LST):1631 AVERAGE WIND SPEED (MPH):10.3 24 HR AVG TEMP (F):49 DEPART FROM NORMAL: +4  HEATING DEGREE DAYS:16  COOLING DEGREE DAYS:0   LATEST DAY MAX TEMP (0700-1900 LST):58  LATEST NIGHT MIN TEMP(1900-0800 LST):39 HOURLY INCREMENTAL PRECIPITATION VALUES (IN):    0.00 0.00 0.00 0.00 0.00 0.00 0.00 0.00 0.00 0.00 0.00 0.00 0.00 0.00 0.00 0.00 0.00 0.00 0.00 0.00 0.00 0.00 0.00EQDR01     N7GJS072R02     N7GKS075
0160722583139602007010806537+32847-096851FM-15+0149KDAL V0303305N002652200059N0160935N5+00285-00395102675ADDAA101000095GF100991999999999999999999MA1102685100885REMMET09601/08/07 00:53:26 METAR KDAL 080653Z 33005KT 10SM CLR 03/M04 A3032 RMK AO2 SLP267 T00281039 (SW)
0160722583139602007010807537+32847-096851FM-15+0149KDAL V0303105N001552200059N0160935N5+00335-00445102665ADDAA101000095GF100991999999999999999999MA1102685100885REMMET09601/08/07 01:53:26 METAR KDAL 080753Z 31003KT 10SM CLR 03/M04 A3032 RMK AO2 SLP266 T00331044 (SW)
0180722583139602007010808537+32847-096851FM-15+0149KDAL V0309999C000052200059N0160935N5+00005-00395102665ADDAA101000095GF100991999999999999999999MA1102685100885MD1640094+9999REMMET10201/08/07 02:53:26 METAR KDAL 080853Z 00000KT 10SM CLR 00/M04 A3032 RMK AO2 SLP266 T00001039 56009 (SW)
0160722583139602007010809537+32847-096851FM-15+0149KDAL V0309999C000052200059N0160935N5+00225-00505102625ADDAA101000095GF100991999999999999999999MA1102615100815REMMET09601/08/07 03:53:26 METAR KDAL 080953Z 00000KT 10SM CLR 02/M05 A3030 RMK AO2 SLP262 T00221050 (SW)
0160722583139602007010810537+32847-096851FM-15+0149KDAL V0309999C000052200059N0160935N5+00175-00445102565ADDAA101000095GF100991999999999999999999MA1102575100785REMMET09601/08/07 04:53:26 METAR KDAL 081053Z 00000KT 10SM CLR 02/M04 A3029 RMK AO2 SLP256 T00171044 (SW)
0218722583139602007010811537+32847-096851FM-15+0149KDAL V0309999C000052200059N0160935N5+00175-00395102555ADDAA101000095GF100991999999999999999999KA1999M+00501KA2999N+00001MA1102575100785MD1640104+9999REMMET11401/08/07 05:53:26 METAR KDAL 081153Z 00000KT 10SM CLR 02/M04 A3029 RMK AO2 SLP255 T00171039 10050 20000 56010 (SW)
0160722583139602007010812537+32847-096851FM-15+0149KDAL V0309999C000052200059N0160935N5+00225-00225102615ADDAA101000095GF100991999999999999999999MA1102615100815REMMET09601/08/07 06:53:26 METAR KDAL 081253Z 00000KT 10SM CLR 02/M02 A3030 RMK AO2 SLP261 T00221022 (SW)
0161722583139602007010813537+32847-096851FM-15+0149KDAL V0301605N001552200059N0160935N5+00175-00395102635ADDAA101000095GF100991999999999999999999MA1102645100845REMMET09701/08/07 07:53:26 METAR KDAL 081353Z 16003KT 10SM CLR 02/M04 A3031 RMK AO2 SLP263 T00171039 (DCG)
0181722583139602007010814537+32847-096851FM-15+0149KDAL V0302105N002152200059N0160935N5+00395-00335102645ADDAA101000095GF100991999999999999999999MA1102645100845MD1140094+9999REMMET10301/08/07 08:53:26 METAR KDAL 081453Z 21004KT 10SM CLR 04/M03 A3031 RMK AO2 SLP264 T00391033 51009 (DCG)
0161722583139602007010815537+32847-096851FM-15+0149KDAL V0302005N003152200059N0160935N5+00725-00505102685ADDAA101000095GF100991999999999999999999MA1102685100885REMMET09701/08/07 09:53:26 METAR KDAL 081553Z 20006KT 10SM CLR 07/M05 A3032 RMK AO2 SLP268 T00721050 (DCG)
0161722583139602007010816537+32847-096851FM-15+0149KDAL V0302205N005752200059N0160935N5+01005-00565102665ADDAA101000095GF100991999999999999999999MA1102685100885REMMET09701/08/07 10:53:26 METAR KDAL 081653Z 22011KT 10SM CLR 10/M06 A3032 RMK AO2 SLP266 T01001056 (DCG)
0219722583139602007010817537+32847-096851FM-15+0149KDAL V0302205N005152200059N0160935N5+01175-00445102515ADDAA101000095GF100991999999999999999999KA1999M+01221KA2999N+00111MA1102515100715MD1840134+9999REMMET11501/08/07 11:53:26 METAR KDAL 081753Z 22010KT 10SM CLR 12/M04 A3027 RMK AO2 SLP251 T01171044 10122 20011 58013 (DCG)
0161722583139602007010818537+32847-096851FM-15+0149KDAL V0302205N004652200059N0160935N5+01335-00445102415ADDAA101000095GF100991999999999999999999MA1102405100615REMMET09701/08/07 12:53:26 METAR KDAL 081853Z 22009KT 10SM CLR 13/M04 A3024 RMK AO2 SLP241 T01331044 (DCG)
0161722583139602007010819537+32847-096851FM-15+0149KDAL V0302105N002652200059N0160935N5+01505-00225102415ADDAA101000095GF100991999999999999999999MA1102445100645REMMET09701/08/07 13:53:26 METAR KDAL 081953Z 21005KT 10SM CLR 15/M02 A3025 RMK AO2 SLP241 T01501022 (DCG)
0181722583139602007010820537+32847-096851FM-15+0149KDAL V0302405N002152200059N0160935N5+01565-00335102335ADDAA101000095GF100991999999999999999999MA1102345100545MD1640184+9999REMMET10301/08/07 14:53:26 METAR KDAL 082053Z 24004KT 10SM CLR 16/M03 A3022 RMK AO2 SLP233 T01561033 56018 (DCG)
0160722583139602007010821537+32847-096851FM-15+0149KDAL V0309999V002652200059N0160935N5+01615-00395102325ADDAA101000095GF100991999999999999999999MA1102345100545REMMET09601/08/07 15:53:26 METAR KDAL 082153Z VRB05KT 10SM CLR 16/M04 A3022 RMK AO2 SLP232 T01611039 (TG)
0160722583139602007010822537+32847-096851FM-15+0149KDAL V0302205N001552200059N0160935N5+01565-00335102415ADDAA101000095GF100991999999999999999999MA1102445100645REMMET09601/08/07 16:53:26 METAR KDAL 082253Z 22003KT 10SM CLR 16/M03 A3025 RMK AO2 SLP241 T01561033 (TG)
0218722583139602007010823537+32847-096851FM-15+0149KDAL V0302205N002152200059N0160935N5+01505-00335102455ADDAA101000095GF100991999999999999999999KA1999M+01611KA2999N+01171MA1102445100645MD1340114+9999REMMET11401/08/07 17:53:26 METAR KDAL 082353Z 22004KT 10SM CLR 15/M03 A3025 RMK AO2 SLP245 T01501033 10161 20117 53011 (TG)
0160722583139602007010900537+32847-096851FM-15+0149KDAL V0309999C000052200059N0160935N5+01335-00285102535ADDAA101000095GF100991999999999999999999MA1102545100745REMMET09601/08/07 18:53:26 METAR KDAL 090053Z 00000KT 10SM CLR 13/M03 A3028 RMK AO2 SLP253 T01331028 (TG)
0159722583139602007010901537+32847-096851FM-15+0149KDAL V0309999C000052200059N0160935N5+00945+00005102605ADDAA101000095GF100991999999999999999999MA1102615100815REMMET09501/08/07 19:53:26 METAR KDAL 090153Z 00000KT 10SM CLR 09/00 A3030 RMK AO2 SLP260 T00940000 (TG)
0179722583139602007010902537+32847-096851FM-15+0149KDAL V0309999C000052200059N0160935N5+00675+00115102705ADDAA101000095GF100991999999999999999999MA1102715100915MD1340244+9999REMMET10101/08/07 20:53:26 METAR KDAL 090253Z 00000KT 10SM CLR 07/01 A3033 RMK AO2 SLP270 T00670011 53024 (TG)
0159722583139602007010903537+32847-096851FM-15+0149KDAL V0309999C000052200059N0160935N5+00675+00065102795ADDAA101000095GF100991999999999999999999MA1102815101015REMMET09501/08/07 21:53:26 METAR KDAL 090353Z 00000KT 10SM CLR 07/01 A3036 RMK AO2 SLP279 T00670006 (TG)
0160722583139602007010904537+32847-096851FM-15+0149KDAL V0303205N001552200059N0160935N5+00725-00065102885ADDAA101000095GF100991999999999999999999MA1102915101115REMMET09601/08/07 22:53:26 METAR KDAL 090453Z 32003KT 10SM CLR 07/M01 A3039 RMK AO2 SLP288 T00721006 (TG)
0227722583139602007010905537+32847-096851FM-15+0149KDAL V0309999C000052200059N0160935N5+00675+00005102915ADDAA101000095GF100991999999999999999999KA1999M+01501KA2999N+00561MA1102915101115MD1140224+9999REMMET12301/08/07 23:53:26 METAR KDAL 090553Z 00000KT 10SM CLR 07/00 A3039 RMK AO2 SLP291 T00670000 10150 20056 401610000 51022 (SW)
0996722583139602007010905596+32847-096851SOD  +0149KDAL V030999999999999999999999999999+99999+99999999999ADDAA124000095AJ100009599999999AL12400095AN1024000095KA1024M+01615KA2024N+00005MG1100814102304OE11240071522012425OE22240062622012005OE33240016199999995REMSOD80124 HR PRECIPITATION (IN):0.00  SNOW DEPTH (IN):0     24 HR SNOWFALL (IN):0.0  24 HR MAX TEMP (F):61 24 HR MAX TEMP TIME (LST):1632 24 HR MIN TEMP (F):32 24 HR MIN TEMP TIME (LST):0254 AVERAGE STATION PRESSURE:29.770 MINIMUM SEA LEVEL PRESSURE:30.21 TIME OF OCCURRENCE:1554 PEAK WIND SPEED (MPH):16  PEAK WIND DIR (DEG):220 PEAK WIND TIME (LST):1242  FASTEST 2MIN SPEED (MPH):14 FASTEST 2MIN DIR (DEG):220 FASTEST 2MIN TIME (LST):1200 AVERAGE WIND SPEED (MPH):3.6  24 HR AVG TEMP (F):47 DEPART FROM NORMAL: +2  HEATING DEGREE DAYS:18  COOLING DEGREE DAYS:0   LATEST DAY MAX TEMP (0700-1900 LST):61  LATEST NIGHT MIN TEMP(1900-0800 LST):32 HOURLY INCREMENTAL PRECIPITATION VALUES (IN):.00 0.00 0.00 0.00 0.00 0.00 0.00 0.00 0.00 0.00 0.00 0.00 0.00 0.00 0.00 0.00 0.00 0.00 0.00 0.00 0.00 0.00 0.00 0.00EQDR01     N7GJS072R02     N7GKS075
0159722583139602007010906537+32847-096851FM-15+0149KDAL V0309999C000052200059N0160935N5+00565+00005102915ADDAA101000095GF100991999999999999999999MA1102915101115REMMET09501/09/07 00:53:26 METAR KDAL 090653Z 00000KT 10SM CLR 06/00 A3039 RMK AO2 SLP291 T00560000 (SW)
0159722583139602007010907537+32847-096851FM-15+0149KDAL V0309999C000052200059N0160935N5+00445+00005102975ADDAA101000095GF100991999999999999999999MA1102985101185REMMET09501/09/07 01:53:26 METAR KDAL 090753Z 00000KT 10SM CLR 04/00 A3041 RMK AO2 SLP297 T00440000 (SW)
0180722583139602007010908537+32847-096851FM-15+0149KDAL V0309999C000052200059N0160935N5+00335-00065103025ADDAA101000095GF100991999999999999999999MA1103055101245MD1340124+9999REMMET10201/09/07 02:53:26 METAR KDAL 090853Z 00000KT 10SM CLR 03/M01 A3043 RMK AO2 SLP302 T00331006 53012 (SW)
0160722583139602007010909537+32847-096851FM-15+0149KDAL V0309999C000052200059N0160935N5+00335-00115103085ADDAA101000095GF100991999999999999999999MA1103085101285REMMET09601/09/07 03:53:26 METAR KDAL 090953Z 00000KT 10SM CLR 03/M01 A3044 RMK AO2 SLP308 T00331011 (SW)
0160722583139602007010910537+32847-096851FM-15+0149KDAL V0303405N002152200059N0160935N5+00285-00065103175ADDAA101000095GF100991999999999999999999MA1103185101385REMMET09601/09/07 04:55:26 METAR KDAL 091053Z 34004KT 10SM CLR 03/M01 A3047 RMK AO2 SLP317 T00281006 (SW)
0218722583139602007010911537+32847-096851FM-15+0149KDAL V0303505N002652200059N0160935N5+00285-00115103265ADDAA101000095GF100991999999999999999999KA1999M+00611KA2999N+00221MA1103285101485MD1340244+9999REMMET11401/09/07 05:53:26 METAR KDAL 091153Z 35005KT 10SM CLR 03/M01 A3050 RMK AO2 SLP326 T00281011 10061 20022 53024 (SW)
0194722583139602007010912537+32847-096851FM-15+0149KDAL V0303305N003652200059N0160935N5+00335-00065103375ADDAA101000095GA1025+091445999GD11991+0914459GF102991999999999999999999MA1103395101585REMMET09901/09/07 06:53:26 METAR KDAL 091253Z 33007KT 10SM FEW300 03/M01 A3053 RMK AO2 SLP337 T00331006 (SW)
0195722583139602007010913537+32847-096851FM-15+0149KDAL V0303405N002652200059N0160935N5+00395-00065103415ADDAA101000095GA1025+091445999GD11991+0914459GF102991999999999999999999MA1103425101615REMMET10001/09/07 07:53:26 METAR KDAL 091353Z 34005KT 10SM FEW300 04/M01 A3054 RMK AO2 SLP341 T00391006 (DCG)
0214722583139602007010914537+32847-096851FM-15+0149KDAL V0303405N002652200059N0160935N5+00725+00065103515ADDAA101000095GA1025+091445999GD11991+0914459GF102991999999999999999999MA1103525101715MD1340234+9999REMMET10501/09/07 08:53:26 METAR KDAL 091453Z 34005KT 10SM FEW300 07/01 A3057 RMK AO2 SLP351 T00720006 53023 (DCG)
0195722583139602007010915537+32847-096851FM-15+0149KDAL V0300205N004152200059N0160935N5+01175-00335103595ADDAA101000095GA1025+091445999GD11991+0914459GF102991999999999999999999MA1103625101815REMMET10001/09/07 09:53:26 METAR KDAL 091553Z 02008KT 10SM FEW300 12/M03 A3060 RMK AO2 SLP359 T01171033 (DCG)
0195722583139602007010916537+32847-096851FM-15+0149KDAL V0300205N004152200059N0160935N5+01335-00675103615ADDAA101000095GA1025+091445999GD11991+0914459GF102991999999999999999999MA1103625101815REMMET10001/09/07 10:53:26 METAR KDAL 091653Z 02008KT 10SM FEW300 13/M07 A3060 RMK AO2 SLP361 T01331067 (DCG)
0259722583139602007010917537+32847-096851FM-15+0149KDAL V0300605N005152200059N0160935N5+01445-00725103555ADDAA101000095GA1025+091445999GD11991+0914459GF102991999999999999999999KA1999M+01501KA2999N+00281MA1103565101755MD1040054+9999MW1611REMMET11801/09/07 11:54:26 METAR KDAL 091753Z 06010KT 10SM FEW300 14/M07 A3058 RMK AO2 SLP355 T01441072 10150 20028 50005 (DCG)
0195722583139602007010918537+32847-096851FM-15+0149KDAL V0300305N006752200059N0160935N5+01505-00725103415ADDAA101000095GA1025+091445999GD11991+0914459GF102991999999999999999999MA1103425101615REMMET10001/09/07 12:53:26 METAR KDAL 091853Z 03013KT 10SM FEW300 15/M07 A3054 RMK AO2 SLP341 T01501072 (DCG)
0195722583139602007010919537+32847-096851FM-15+0149KDAL V0300405N003652200059N0160935N5+01565-00835103305ADDAA101000095GA1025+100585999GD11991+1005859GF102991999999999999999999MA1103325101515REMMET10001/09/07 13:53:26 METAR KDAL 091953Z 04007KT 10SM FEW330 16/M08 A3051 RMK AO2 SLP330 T01561083 (DCG)
0215722583139602007010920537+32847-096851FM-15+0149KDAL V0300305N003652200059N0160935N5+01615-00675103235ADDAA101000095GA1045+100585999GD12991+1005859GF104991999999999999999999MA1103255101455MD1640314+9999REMMET10601/09/07 14:53:26 METAR KDAL 092053Z 03007KT 10SM SCT330 16/M07 A3049 RMK AO2 SLP323 T01611067 56031 (DCG)
0194722583139602007010921537+32847-096851FM-15+0149KDAL V0309999V002152200059N0160935N5+01615-00725103215ADDAA101000095GA1045+100585999GD12991+1005859GF104991999999999999999999MA1103225101415REMMET09901/09/07 15:53:26 METAR KDAL 092153Z VRB04KT 10SM SCT330 16/M07 A3048 RMK AO2 SLP321 T01611072 (TG)
0194722583139602007010922537+32847-096851FM-15+0149KDAL V0300805N002652200059N0160935N5+01445-00725103185ADDAA101000095GA1045+100585999GD12991+1005859GF104991999999999999999999MA1103185101385REMMET09901/09/07 16:53:26 METAR KDAL 092253Z 08005KT 10SM SCT330 14/M07 A3047 RMK AO2 SLP318 T01441072 (TG)
0252722583139602007010923537+32847-096851FM-15+0149KDAL V0300805N002652200059N0160935N5+01335-00615103175ADDAA101000095GA1045+091445999GD12991+0914459GF104991999999999999999999KA1999M+01671KA2999N+01331MA1103185101385MD1740074+9999REMMET11701/09/07 17:53:26 METAR KDAL 092353Z 08005KT 10SM SCT300 13/M06 A3047 RMK AO2 SLP317 T01331061 10167 20133 57007 (TG)
0194722583139602007011000537+32847-096851FM-15+0149KDAL V0309999C000052200059N0160935N5+01065-00565103205ADDAA101000095GA1045+091445999GD12991+0914459GF104991999999999999999999MA1103185101385REMMET09901/09/07 18:53:26 METAR KDAL 100053Z 00000KT 10SM SCT300 11/M06 A3047 RMK AO2 SLP320 T01061056 (TG)
0194722583139602007011001537+32847-096851FM-15+0149KDAL V0309999C000052200059N0160935N5+00945-00395103205ADDAA101000095GA1045+091445999GD12991+0914459GF104991999999999999999999MA1103225101415REMMET09901/09/07 19:53:26 METAR KDAL 100153Z 00000KT 10SM SCT300 09/M04 A3048 RMK AO2 SLP320 T00941039 (TG)
0214722583139602007011002537+32847-096851FM-15+0149KDAL V0301305N001552200059N0160935N5+00835-00335103185ADDAA101000095GA1045+091445999GD12991+0914459GF104991999999999999999999MA1103185101385MD1040004+9999REMMET10501/09/07 20:53:26 METAR KDAL 100253Z 13003KT 10SM SCT300 08/M03 A3047 RMK AO2 SLP318 T00831033 50000 (TG)
0194722583139602007011003537+32847-096851FM-15+0149KDAL V0309999C000052200059N0160935N5+00675-00115103185ADDAA101000095GA1025+091445999GD11991+0914459GF102991999999999999999999MA1103185101385REMMET09901/09/07 21:53:26 METAR KDAL 100353Z 00000KT 10SM FEW300 07/M01 A3047 RMK AO2 SLP318 T00671011 (TG)
0160722583139602007011004537+32847-096851FM-15+0149KDAL V0309999C000052200059N0160935N5+00505-00115103135ADDAA101000095GF100991999999999999999999MA1103155101355REMMET09601/09/07 22:53:26 METAR KDAL 100453Z 00000KT 10SM CLR 05/M01 A3046 RMK AO2 SLP313 T00501011 (TG)
0228722583139602007011005537+32847-096851FM-15+0149KDAL V0309999C000052200059N0160935N5+00565-00175103055ADDAA101000095GF100991999999999999999999KA1999M+01331KA2999N+00501MA1103055101245MD1840124+9999REMMET12401/09/07 23:53:26 METAR KDAL 100553Z 00000KT 10SM CLR 06/M02 A3043 RMK AO2 SLP305 T00561017 10133 20050 401670022 58012 (SW)
0996722583139602007011005596+32847-096851SOD  +0149KDAL V030999999999999999999999999999+99999+99999999999ADDAA124000095AJ100009599999999AL12400095AN1024000095KA1024M+01675KA2024N+00225MG1101464102884OE11240080502011135OE22240067103012585OE33240020699999995REMSOD80124 HR PRECIPITATION (IN):0.00  SNOW DEPTH (IN):0     24 HR SNOWFALL (IN):0.0  24 HR MAX TEMP (F):62 24 HR MAX TEMP TIME (LST):1518 24 HR MIN TEMP (F):36 24 HR MIN TEMP TIME (LST):0519 AVERAGE STATION PRESSURE:29.960 MINIMUM SEA LEVEL PRESSURE:30.38 TIME OF OCCURRENCE:0023 PEAK WIND SPEED (MPH):18  PEAK WIND DIR (DEG):20  PEAK WIND TIME (LST):1113  FASTEST 2MIN SPEED (MPH):15 FASTEST 2MIN DIR (DEG):30  FASTEST 2MIN TIME (LST):1258 AVERAGE WIND SPEED (MPH):4.6  24 HR AVG TEMP (F):49 DEPART FROM NORMAL: +4  HEATING DEGREE DAYS:16  COOLING DEGREE DAYS:0   LATEST DAY MAX TEMP (0700-1900 LST):62  LATEST NIGHT MIN TEMP(1900-0800 LST):36 HOURLY INCREMENTAL PRECIPITATION VALUES (IN):.00 0.00 0.00 0.00 0.00 0.00 0.00 0.00 0.00 0.00 0.00 0.00 0.00 0.00 0.00 0.00 0.00 0.00 0.00 0.00 0.00 0.00 0.00 0.00EQDR01     N7GJS072R02     N7GKS075
0160722583139602007011006537+32847-096851FM-15+0149KDAL V0309999C000052200059N0160935N5+00445-00175102935ADDAA101000095GF100991999999999999999999MA1102955101145REMMET09601/10/07 00:53:26 METAR KDAL 100653Z 00000KT 10SM CLR 04/M02 A3040 RMK AO2 SLP293 T00441017 (SW)
0194722583139602007011007537+32847-096851FM-15+0149KDAL V0301305N004652200059N0160935N5+00445-00225102835ADDAA101000095GA1025+091445999GD11991+0914459GF102991999999999999999999MA1102845101045REMMET09901/10/07 01:53:26 METAR KDAL 100753Z 13009KT 10SM FEW300 04/M02 A3037 RMK AO2 SLP283 T00441022 (SW)
0214722583139602007011008537+32847-096851FM-15+0149KDAL V0301305N004652200059N0160935N5+00565-00285102785ADDAA101000095GA1025+091445999GD11991+0914459GF102991999999999999999999MA1102785100985MD1640264+9999REMMET10501/10/07 02:53:26 METAR KDAL 100853Z 13009KT 10SM FEW300 06/M03 A3035 RMK AO2 SLP278 T00561028 56026 (SW)
0194722583139602007011009537+32847-096851FM-15+0149KDAL V0301405N00465091445MN0160935N5+00505-00335102755ADDAA101000095GA1075+091445999GD13991+0914459GF107991999999999999999999MA1102785100985REMMET09901/10/07 03:53:26 METAR KDAL 100953Z 14009KT 10SM BKN300 05/M03 A3035 RMK AO2 SLP275 T00501033 (SW)
0194722583139602007011010537+32847-096851FM-15+0149KDAL V0301405N003652200059N0160935N5+00505-00335102735ADDAA101000095GA1045+091445999GD12991+0914459GF104991999999999999999999MA1102745100945REMMET09901/10/07 04:53:26 METAR KDAL 101053Z 14007KT 10SM SCT300 05/M03 A3034 RMK AO2 SLP273 T00501033 (SW)
0252722583139602007011011537+32847-096851FM-15+0149KDAL V0301305N00265091445MN0160935N5+00505-00445102755ADDAA101000095GA1075+091445999GD13991+0914459GF107991999999999999999999KA1999M+00671KA2999N+00391MA1102785100985MD1540034+9999REMMET11701/10/07 05:53:26 METAR KDAL 101153Z 13005KT 10SM BKN300 05/M04 A3035 RMK AO2 SLP275 T00501044 10067 20039 55003 (SW)
0194722583139602007011012537+32847-096851FM-15+0149KDAL V0301305N002652200059N0160935N5+00395-00395102775ADDAA101000095GA1045+091445999GD12991+0914459GF104991999999999999999999MA1102785100985REMMET09901/10/07 06:53:26 METAR KDAL 101253Z 13005KT 10SM SCT300 04/M04 A3035 RMK AO2 SLP277 T00391039 (SW)
0195722583139602007011013537+32847-096851FM-15+0149KDAL V0301605N004652200059N0160935N5+00615-00395102755ADDAA101000095GA1025+094495999GD11991+0944959GF102991999999999999999999MA1102745100945REMMET10001/10/07 07:53:26 METAR KDAL 101353Z 16009KT 10SM FEW310 06/M04 A3034 RMK AO2 SLP275 T00611039 (DCG)
0236722583139602007011014537+32847-096851FM-15+0149KDAL V0301605N004652200059N0160935N5+00785-00505102755ADDAA101000095GA1025+094495999GD11991+0944959GF102991999999999999999999MA1102785100985MD1840004+9999REMMET10801/10/07 08:53:26 METAR KDAL 101453Z 16009KT 10SM FEW310 08/M05 A3035 RMK AO2 SLP275 T00781050 58000 $ (DCG)EQDQ01+000082APCTEN
0207722583139602007011015537+32847-096851FM-15+0149KDAL V0301705N007252200059N0160935N5+01065-00565102745ADDAA101000095GA1025+003665999GD11991+0036659GF102991999999999999999999MA1102785100985REMMET11201/10/07 09:53:26 METAR KDAL 101553Z 17014KT 10SM FEW012 11/M06 A3035 RMK AO2 SLP274 FU FEW012 T01061056 $ (DCG)
0197722583139602007011016537+32847-096851FM-15+0149KDAL V0301705N007252200059N0160935N5+01225-00445102635ADDAA101000095GA1025+094495999GD11991+0944959GF102991999999999999999999MA1102645100845REMMET10201/10/07 10:53:26 METAR KDAL 101653Z 17014KT 10SM FEW310 12/M04 A3031 RMK AO2 SLP263 T01221044 $ (DCG)
