0189722583139602009010100537+32847-096851FM-15+0149KDAL V0309999C00005091445MN0160935N5+00945-00445102485ADDAA101000095GA1075+091445999GD13991+0914459GF107991999999999999999999MA1102475100685REMMET09412/31/08 18:53:00 METAR KDAL 010053Z 00000KT 10SM BKN300 09/M04 A3026 RMK AO2 SLP248 T00941044
0189722583139602009010101537+32847-096851FM-15+0149KDAL V0300605N00215091445MN0160935N5+00675-00285102445ADDAA101000095GA1075+091445999GD13991+0914459GF107991999999999999999999MA1102445100645REMMET09412/31/08 19:53:00 METAR KDAL 010153Z 06004KT 10SM BKN300 07/M03 A3025 RMK AO2 SLP244 T00671028
0209722583139602009010102537+32847-096851FM-15+0149KDAL V0309999C000052200059N0160935N5+00675-00225102415ADDAA101000095GA1045+091445999GD12991+0914459GF104991999999999999999999MA1102445100645MD1840064+9999REMMET10012/31/08 20:53:00 METAR KDAL 010253Z 00000KT 10SM SCT300 07/M02 A3025 RMK AO2 SLP241 T00671022 58006
0189722583139602009010103537+32847-096851FM-15+0149KDAL V0309999C00005091445MN0160935N5+00505-00285102345ADDAA101000095GA1075+091445999GD13991+0914459GF107991999999999999999999MA1102345100545REMMET09412/31/08 21:53:00 METAR KDAL 010353Z 00000KT 10SM BKN300 05/M03 A3022 RMK AO2 SLP234 T00501028
0189722583139602009010104537+32847-096851FM-15+0149KDAL V0301305N004652200059N0160935N5+00505-00395102305ADDAA101000095GA1025+091445999GD11991+0914459GF102991999999999999999999MA1102305100515REMMET09412/31/08 22:53:00 METAR KDAL 010453Z 13009KT 10SM FEW300 05/M04 A3021 RMK AO2 SLP230 T00501039
0257722583139602009010105537+32847-096851FM-15+0149KDAL V0301305N005152200059N0160935N5+00565-00505102245ADDAA101000095GA1025+091445999GD11991+0914459GF102991999999999999999999KA1999M+00941KA2999N+00441MA1102245100445MD1640174+9999REMMET12212/31/08 23:53:00 METAR KDAL 010553Z 13010KT 10SM FEW300 06/M05 A3019 RMK AO2 SLP224 T00561050 10094 20044 401280044 56017
0996722583139602009010105596+32847-096851SOD  +0149KDAL V030999999999999999999999999999+99999+99999999999ADDAA124000095AJ100009599999999AL12400095AN1024000095KA1240M+01285KA2240N+00445MG1100764100784OE11240138603004355OE22240111803004355OE33240051099999995REMSOD80124 HR PRECIPITATION (IN):0.00  SNOW DEPTH (IN):0     24 HR SNOWFALL (IN):0.0  24 HR MAX TEMP (F):55 24 HR MAX TEMP TIME (LST):0105 24 HR MIN TEMP (F):40 24 HR MIN TEMP TIME (LST):2252 AVERAGE STATION PRESSURE:29.755 MINIMUM SEA LEVEL PRESSURE:29.76 TIME OF OCCURRENCE:0000 PEAK WIND SPEED (MPH):31  PEAK WIND DIR (DEG):30  PEAK WIND TIME (LST):0435  FASTEST 2MIN SPEED (MPH):25 FASTEST 2MIN DIR (DEG):30  FASTEST 2MIN TIME (LST):0435 AVERAGE WIND SPEED (MPH):11.4 24 HR AVG TEMP (F):48 DEPART FROM NORMAL: +2  HEATING DEGREE DAYS:17  COOLING DEGREE DAYS:0   LATEST DAY MAX TEMP (0700-1900 LST):53  LATEST NIGHT MIN TEMP(1900-0800 LST):43 HOURLY INCREMENTAL PRECIPITATION VALUES (IN):.00 0.00 0.00 0.00 0.00 0.00 0.00 0.00 0.00 0.00 0.00 0.00 0.00 0.00 0.00 0.00 0.00 0.00 0.00 0.00 0.00 0.00 0.00 0.00EQDR01     N7GJS072R02     N7GKS075
1286722583139602009010105596+32847-096851SOM  +0149KDAL V030999999999999999999999999999+99999+99999999999ADDAB10007495AD10002892727999999995AE1055015005005AH1005001890823365AH2010001890823365AH3015001890823365AH4020002092709445AH5030002592709445AH6045002892709505AI1060002892709505AI2080002892709505AI3100002892709505AI4120002892709505AI5150002892709505AI6180002892709505AK1000041699999AM1000041616999999999AN1744000039KB1744N+02115KB2744M+15225KB3744A+08675KC1N9-00552199995KC2M9+02722699995KD1744H05395KD2744C00075KE1005005125005MH1100194101964MK1103762204539100240904539REMSOM809PCP MTOT:0.29 DEPNRM:-2.3 PCP GT 24HRS:0.11 DATE(S):27 DAYS W/PCP >=.01:5  DAYS W/PCP >=.10:1  DAYS W/ PCP >=.50:0 DAYS W/PCP >=1.00:0 MSDP AMTS W/DATE-TIME TAGS:MIN:5 0.07  08/2336 MIN:10 0.07  08/2336 MIN:15 0.07  08/2336 MIN:20 0.08  27/0944 MIN:30 0.10  27/0944 MIN:45 0.11  27/0950 MIN:60 0.11  27/0950 MIN:80 0.11  27/0950 MIN:100 0.11  27/0950 MIN:120 0.11  27/0950 MIN:150 0.11  27/0950 MIN:180 0.11  27/0950 AVG DLY MIN:35.8  AVG DLY MAX:59.4  AVG MLY TMP:47.6  DEP NORM:-0.4  MIN TMP:22 DATE(S):21 MAX TMP:81  DATE(S):26 DAYS MAX <=32:0 DAYS MAX >=90:0  DAYS MIN <=32:12 DAYS MIN  <=0:0  AVG STP:29.585 LWST SLP:29.57 DATE/TIME:082134 HGST SLP:30.60 DATE/TIME:220256 HDD MTH TOT:539 DEP NORM:+12 SEASON(JUL 1-JUN 30):813 DEP NORM:-64 CDD MTH TOT:7 DEP NORM:+2 SEASON(JAN 1-DEC 31):3021 DEP NORM:+143
0155722583139602009010106537+32847-096851FM-15+0149KDAL V0301205N004152200059N0160935N5+00565-00505102135ADDAA101000095GF100991999999999999999999MA1102135100345REMMET09101/01/09 00:53:00 METAR KDAL 010653Z 12008KT 10SM CLR 06/M05 A3016 RMK AO2 SLP213 T00561050
0155722583139602009010107537+32847-096851FM-15+0149KDAL V0301305N005152200059N0160935N5+00505-00445102075ADDAA101000095GF100991999999999999999999MA1102075100285REMMET09101/01/09 01:53:00 METAR KDAL 010753Z 13010KT 10SM CLR 05/M04 A3014 RMK AO2 SLP207 T00501044
0175722583139602009010108537+32847-096851FM-15+0149KDAL V0301205N003152200059N0160935N5+00335-00445102055ADDAA101000095GF100991999999999999999999MA1102075100285MD1640194+9999REMMET09701/01/09 02:53:00 METAR KDAL 010853Z 12006KT 10SM CLR 03/M04 A3014 RMK AO2 SLP205 T00331044 56019
0155722583139602009010109537+32847-096851FM-15+0149KDAL V0301205N004152200059N0160935N5+00395-00445102005ADDAA101000095GF100991999999999999999999MA1102005100215REMMET09101/01/09 03:53:00 METAR KDAL 010953Z 12008KT 10SM CLR 04/M04 A3012 RMK AO2 SLP200 T00391044
0155722583139602009010110537+32847-096851FM-15+0149KDAL V0301305N004152200059N0160935N5+00335-00395101955ADDAA101000095GF100991999999999999999999MA1101965100185REMMET09101/01/09 04:53:00 METAR KDAL 011053Z 13008KT 10SM CLR 03/M04 A3011 RMK AO2 SLP195 T00331039
0213722583139602009010111537+32847-096851FM-15+0149KDAL V0301205N002652200059N0160935N5+00335-00395101905ADDAA101000095GF100991999999999999999999KA1999M+00611KA2999N+00281MA1101935100145MD1640144+9999REMMET10901/01/09 05:53:00 METAR KDAL 011153Z 12005KT 10SM CLR 03/M04 A3010 RMK AO2 SLP190 T00331039 10061 20028 56014
0155722583139602009010112537+32847-096851FM-15+0149KDAL V0301305N004652200059N0160935N5+00285-00395101905ADDAA101000095GF100991999999999999999999MA1101935100145REMMET09101/01/09 06:53:00 METAR KDAL 011253Z 13009KT 10SM CLR 03/M04 A3010 RMK AO2 SLP190 T00281039
0155722583139602009010113537+32847-096851FM-15+0149KDAL V0301405N005152200059N0160935N5+00285-00335101905ADDAA101000095GF100991999999999999999999MA1101905100115REMMET09101/01/09 07:53:00 METAR KDAL 011353Z 14010KT 10SM CLR 03/M03 A3009 RMK AO2 SLP190 T00281033
0175722583139602009010114537+32847-096851FM-15+0149KDAL V0301505N004652200059N0160935N5+00445-00335101895ADDAA101000095GF100991999999999999999999MA1101905100115MD1840024+9999REMMET09701/01/09 08:53:00 METAR KDAL 011453Z 15009KT 10SM CLR 04/M03 A3009 RMK AO2 SLP189 T00441033 58002
0155722583139602009010115537+32847-096851FM-15+0149KDAL V0301605N006252200059N0160935N5+00615-00225101835ADDAA101000095GF100991999999999999999999MA1101835100045REMMET09101/01/09 09:53:00 METAR KDAL 011553Z 16012KT 10SM CLR 06/M02 A3007 RMK AO2 SLP183 T00611022
0155722583139602009010116537+32847-096851FM-15+0149KDAL V0301805N006752200059N0160935N5+00945-00115101695ADDAA101000095GF100991999999999999999999MA1101695099915REMMET09101/01/09 10:53:00 METAR KDAL 011653Z 18013KT 10SM CLR 09/M01 A3003 RMK AO2 SLP169 T00941011
0219722583139602009010117537+32847-096851FM-15+0149KDAL V0301805N008252200059N0160935N5+01225+00065101445ADDAA101000095GF100991999999999999999999KA1999M+01221KA2999N+00221MA1101465099685MD1840434+9999REMMET11501/01/09 11:53:00 METAR KDAL 011753Z 18016KT 10SM CLR 12/01 A2996 RMK AO2 PRESFR SLP144 T01220006 10122 20022 58043
0154722583139602009010118537+32847-096851FM-15+0149KDAL V0301805N005752200059N0160935N5+01565+00225101305ADDAA101000095GF100991999999999999999999MA1101325099545REMMET09001/01/09 12:53:00 METAR KDAL 011853Z 18011KT 10SM CLR 16/02 A2992 RMK AO2 SLP130 T01560022
0154722583139602009010119537+32847-096851FM-15+0149KDAL V0302005N005152200059N0160935N5+01725+00335101175ADDAA101000095GF100991999999999999999999MA1101195099415REMMET09001/01/09 13:53:00 METAR KDAL 011953Z 20010KT 10SM CLR 17/03 A2988 RMK AO2 SLP117 T01720033
0185722583139602009010120537+32847-096851FM-15+0149KDAL V0301905N005752200059N0160935N5+01835+00445101045ADDAA101000095GF100991999999999999999999MA1101055099285MD1740394+9999OC101085REMMET09901/01/09 14:53:00 METAR KDAL 012053Z 19011G21KT 10SM CLR 18/04 A2984 RMK AO2 SLP104 T01830044 57039
0165722583139602009010121537+32847-096851FM-15+0149KDAL V0301905N008252200059N0160935N5+01895+00505100955ADDAA101000095GF100991999999999999999999MA1100985099215OC101035REMMET09301/01/09 15:53:00 METAR KDAL 012153Z 19016G20KT 10SM CLR 19/05 A2982 RMK AO2 SLP095 T01890050
0154722583139602009010122537+32847-096851FM-15+0149KDAL V0301805N007752200059N0160935N5+01835+00505100945ADDAA101000095GF100991999999999999999999MA1100955099185REMMET09001/01/09 16:53:00 METAR KDAL 012253Z 18015KT 10SM CLR 18/05 A2981 RMK AO2 SLP094 T01830050
0212722583139602009010123537+32847-096851FM-15+0149KDAL V0301605N004652200059N0160935N5+01675+00615100955ADDAA101000095GF100991999999999999999999KA1999M+01891KA2999N+01221MA1100985099215MD1540084+9999REMMET10801/01/09 17:53:00 METAR KDAL 012353Z 16009KT 10SM CLR 17/06 A2982 RMK AO2 SLP095 T01670061 10189 20122 55008
0154722583139602009010200537+32847-096851FM-15+0149KDAL V0301605N003652200059N0160935N5+01615+00675100995ADDAA101000095GF100991999999999999999999MA1101025099245REMMET09001/01/09 18:53:00 METAR KDAL 020053Z 16007KT 10SM CLR 16/07 A2983 RMK AO2 SLP099 T01610067
0154722583139602009010201537+32847-096851FM-15+0149KDAL V0301505N005152200059N0160935N5+01565+00785101015ADDAA101000095GF100991999999999999999999MA1101025099245REMMET09001/01/09 19:53:00 METAR KDAL 020153Z 15010KT 10SM CLR 16/08 A2983 RMK AO2 SLP101 T01560078
0174722583139602009010202537+32847-096851FM-15+0149KDAL V0301805N006252200059N0160935N5+01445+01065100985ADDAA101000095GF100991999999999999999999MA1101025099245MD1040034+9999REMMET09601/01/09 20:53:00 METAR KDAL 020253Z 18012KT 10SM CLR 14/11 A2983 RMK AO2 SLP098 T01440106 50003
0154722583139602009010203537+32847-096851FM-15+0149KDAL V0301605N004652200059N0160935N5+01395+01115101035ADDAA101000095GF100991999999999999999999MA1101055099285REMMET09001/01/09 21:53:00 METAR KDAL 020353Z 16009KT 10SM CLR 14/11 A2984 RMK AO2 SLP103 T01390111
0154722583139602009010204537+32847-096851FM-15+0149KDAL V0301705N005152200059N0160935N5+01335+01115101025ADDAA101000095GF100991999999999999999999MA1101055099285REMMET09001/01/09 22:53:00 METAR KDAL 020453Z 17010KT 10SM CLR 13/11 A2984 RMK AO2 SLP102 T01330111
0222722583139602009010205537+32847-096851FM-15+0149KDAL V0301605N003652200059N0160935N5+01335+01115101025ADDAA101000095GF100991999999999999999999KA1999M+01671KA2999N+01331MA1101055099285MD1140054+9999REMMET11801/01/09 23:53:00 METAR KDAL 020553Z 16007KT 10SM CLR 13/11 A2984 RMK AO2 SLP102 T01330111 10167 20133 401890022 51005
0996722583139602009010205596+32847-096851SOD  +0149KDAL V030999999999999999999999999999+99999+99999999999ADDAA124000095AJ100009599999999AL12400095AN1024000095KA1240M+01895KA2240N+00225MG1099564100914OE11240111817015415OE22240098318015415OE33240051499999995REMSOD80124 HR PRECIPITATION (IN):0.00  SNOW DEPTH (IN):0     24 HR SNOWFALL (IN):0.0  24 HR MAX TEMP (F):66 24 HR MAX TEMP TIME (LST):1642 24 HR MIN TEMP (F):36 24 HR MIN TEMP TIME (LST):0738 AVERAGE STATION PRESSURE:29.400 MINIMUM SEA LEVEL PRESSURE:29.80 TIME OF OCCURRENCE:1740 PEAK WIND SPEED (MPH):25  PEAK WIND DIR (DEG):170 PEAK WIND TIME (LST):1541  FASTEST 2MIN SPEED (MPH):22 FASTEST 2MIN DIR (DEG):180 FASTEST 2MIN TIME (LST):1541 AVERAGE WIND SPEED (MPH):11.5 24 HR AVG TEMP (F):51 DEPART FROM NORMAL: +5  HEATING DEGREE DAYS:14  COOLING DEGREE DAYS:0   LATEST DAY MAX TEMP (0700-1900 LST):66  LATEST NIGHT MIN TEMP(1900-0800 LST):36 HOURLY INCREMENTAL PRECIPITATION VALUES (IN):.00 0.00 0.00 0.00 0.00 0.00 0.00 0.00 0.00 0.00 0.00 0.00 0.00 0.00 0.00 0.00 0.00 0.00 0.00 0.00 0.00 0.00 0.00 0.00EQDR01     N7GJS072R02     N7GKS075
0154722583139602009010206537+32847-096851FM-15+0149KDAL V0301605N004152200059N0160935N5+01285+01115100985ADDAA101000095GF100991999999999999999999MA1101025099245REMMET09001/02/09 00:53:00 METAR KDAL 020653Z 16008KT 10SM CLR 13/11 A2983 RMK AO2 SLP098 T01280111
0154722583139602009010207537+32847-096851FM-15+0149KDAL V0301605N004152200059N0160935N5+01225+01065100985ADDAA101000095GF100991999999999999999999MA1101025099245REMMET09001/02/09 01:53:00 METAR KDAL 020753Z 16008KT 10SM CLR 12/11 A2983 RMK AO2 SLP098 T01220106
0174722583139602009010208537+32847-096851FM-15+0149KDAL V0301705N003152200059N0160935N5+01065+01005100995ADDAA101000095GF100991999999999999999999MA1101055099285MD1540024+9999REMMET09601/02/09 02:53:00 METAR KDAL 020853Z 17006KT 10SM CLR 11/10 A2984 RMK AO2 SLP099 T01060100 55002
0153722583139602009010209537+32847-096851FM-15+0149KDAL V0309999V001552200059N0128755N5+01005+00895101015ADDAA101000095GF100991999999999999999999MA1101055099285REMMET08901/02/09 03:53:00 METAR KDAL 020953Z VRB03KT 8SM CLR 10/09 A2984 RMK AO2 SLP101 T01000089
0153722583139602009010210537+32847-096851FM-15+0149KDAL V0309999V001552200059N0144845N5+01005+00895100965ADDAA101000095GF100991999999999999999999MA1101025099245REMMET08901/02/09 04:53:00 METAR KDAL 021053Z VRB03KT 9SM CLR 10/09 A2983 RMK AO2 SLP096 T01000089
0211722583139602009010211537+32847-096851FM-15+0149KDAL V0301305N001552200059N0144845N5+00895+00835100995ADDAA101000095GF100991999999999999999999KA1999M+01331KA2999N+00781MA1101025099245MD1740014+9999REMMET10701/02/09 05:53:00 METAR KDAL 021153Z 13003KT 9SM CLR 09/08 A2983 RMK AO2 SLP099 T00890083 10133 20078 57001
0154722583139602009010212537+32847-096851FM-15+0149KDAL V0301705N001552200059N0160935N5+00835+00785101045ADDAA101000095GF100991999999999999999999MA1101085099315REMMET09001/02/09 06:53:00 METAR KDAL 021253Z 17003KT 10SM CLR 08/08 A2985 RMK AO2 SLP104 T00830078
0173722583139602009010213427+32847-096851FM-16+0149KDAL V0309999C000052200059N0064375N5+00805+00705999999ADDAU101002015GF100991999999999999999999MA1101125099345MW1125REMMET10301/02/09 07:42:26 SPECI KDAL 021342Z 00000KT 4SM MIFG CLR 08/07 A2986 RMK AO2 VIS E-W 2 MIFG ALQDS (JG)
0196722583139602009010213537+32847-096851FM-15+0149KDAL V0309999C000052200059N0064375N5+00835+00785101095ADDAA101000095AU101002015GF100991999999999999999999MA1101125099345MW1125REMMET11501/02/09 07:53:00 METAR KDAL 021353Z 00000KT 4SM MIFG CLR 08/08 A2986 RMK AO2 SLP109 VIS E-W 2 MIFG ALQDS T00830078
0164722583139602009010214267+32847-096851FM-16+0149KDAL V0301305N002152200059N0080475N5+00805+00805999999ADDAU100001015AW1105GF100991999999999999999999MA1101155099385MW1101REMMET08801/02/09 08:26:26 SPECI KDAL 021426Z 13004KT 5SM BR CLR 08/08 A2987 RMK AO2 VIS E 4 (JG)
0199722583139602009010214537+32847-096851FM-15+0149KDAL V0309999C000052200059N0080475N5+01065+01005101135ADDAA101000095AU100001015AW1105GF100991999999999999999999MA1101155099385MD1140144+9999MW1101REMMET09801/02/09 08:53:00 METAR KDAL 021453Z 00000KT 5SM BR CLR 11/10 A2987 RMK AO2 SLP113 T01060100 51014
0271722583139602009010215537+32847-096851FM-15+0149KDAL V0302005N002652200059N0096565N5+01285+01065101165ADDAA101000095AU100001015AU200007015AW1105GA1025+006105999GA2045+076205999GD11991+0061059GD22991+0762059GF104991999999999999999999MA1101195099415MW1055MW2101REMMET10501/02/09 09:53:00 METAR KDAL 021553Z 20005KT 6SM BR HZ FEW020 SCT250 13/11 A2988 RMK AO2 SLP116 T01280106
0200722583139602009010216267+32847-096851FM-16+0149KDAL V0302005N002652200059N0128755N5+01405+01105999999ADDGA1025+000915999GA2045+076205999GD11991+0009159GD22991+0762059GF104991999999999999999999MA1101225099445REMMET08501/02/09 10:26:00 SPECI KDAL 021626Z 20005KT 8SM FEW003 SCT250 14/11 A2989 RMK AO2 HZ
0206722583139602009010216537+32847-096851FM-15+0149KDAL V0301905N002652200059N0144845N5+01615+01065101145ADDAA101000095GA1045+076205999GD12991+0762059GF104991999999999999999999MA1101195099415REMMET11101/02/09 10:53:00 METAR KDAL 021653Z 19005KT 9SM SCT250 16/11 A2988 RMK AO2 SLP114 LWR CLOUDS DSNT SE T01610106
0246722583139602009010217537+32847-096851FM-15+0149KDAL V0301805N002152200059N0160935N5+01785+01005101045ADDAA101000095GA1025+076205999GD11991+0762059GF102991999999999999999999KA1999M+01781KA2999N+00721MA1101085099315MD1840084+9999REMMET11101/02/09 11:53:00 METAR KDAL 021753Z 18004KT 10SM FEW250 18/10 A2985 RMK AO2 SLP104 T01780100 10178 20072 58008
0188722583139602009010218537+32847-096851FM-15+0149KDAL V0302005N002152200059N0160935N5+02005+00675100915ADDAA101000095GA1025+076205999GD11991+0762059GF102991999999999999999999MA1100955099185REMMET09301/02/09 12:53:00 METAR KDAL 021853Z 20004KT 10SM FEW250 20/07 A2981 RMK AO2 SLP091 T02000067
0188722583139602009010219537+32847-096851FM-15+0149KDAL V0301305N003152200059N0160935N5+02115+01005100775ADDAA101000095GA1025+076205999GD11991+0762059GF102991999999999999999999MA1100815099045REMMET09301/02/09 13:53:00 METAR KDAL 021953Z 13006KT 10SM FEW250 21/10 A2977 RMK AO2 SLP077 T02110100
0208722583139602009010220537+32847-096851FM-15+0149KDAL V0301805N004152200059N0160935N5+02395+00675100685ADDAA101000095GA1025+076205999GD11991+0762059GF102991999999999999999999MA1100715098945MD1640354+9999REMMET09901/02/09 14:53:00 METAR KDAL 022053Z 18008KT 10SM FEW250 24/07 A2974 RMK AO2 SLP068 T02390067 56035
0188722583139602009010221537+32847-096851FM-15+0149KDAL V0301705N004652200059N0160935N5+02395+00785100655ADDAA101000095GA1025+085345999GD11991+0853459GF102991999999999999999999MA1100685098915REMMET09301/02/09 15:53:00 METAR KDAL 022153Z 17009KT 10SM FEW280 24/08 A2973 RMK AO2 SLP065 T02390078
0188722583139602009010222537+32847-096851FM-15+0149KDAL V0301605N005152200059N0160935N5+02335+00945100625ADDAA101000095GA1025+085345999GD11991+0853459GF102991999999999999999999MA1100685098915REMMET09301/02/09 16:53:00 METAR KDAL 022253Z 16010KT 10SM FEW280 23/09 A2973 RMK AO2 SLP062 T02330094
0246722583139602009010223537+32847-096851FM-15+0149KDAL V0301605N006752200059N0160935N5+02225+01395100615ADDAA101000095GA1025+085345999GD11991+0853459GF102991999999999999999999KA1999M+02441KA2999N+01721MA1100645098875MD1640074+9999REMMET11101/02/09 17:53:00 METAR KDAL 022353Z 16013KT 10SM FEW280 22/14 A2972 RMK AO2 SLP061 T02220139 10244 20172 56007
0199722583139602009010300537+32847-096851FM-15+0149KDAL V0301705N008852200059N0160935N5+02005+01445100675ADDAA101000095GA1025+085345999GD11991+0853459GF102991999999999999999999MA1100715098945OC101135REMMET09601/02/09 18:53:00 METAR KDAL 030053Z 17017G22KT 10SM FEW280 20/14 A2974 RMK AO2 SLP067 T02000144
0226722583139602009010301537+32847-096851FM-15+0149KDAL V0301705N00825085345MN0160935N5+01835+01505100695ADDAA101000095GA1025+004275999GA2075+085345999GD11991+0042759GD23991+0853459GF107991999999999999999999MA1100715098945REMMET10001/02/09 19:53:00 METAR KDAL 030153Z 17016KT 10SM FEW014 BKN280 18/15 A2974 RMK AO2 SLP069 T01830150
0256722583139602009010302537+32847-096851FM-15+0149KDAL V0301805N00575085345MN0128755N5+01725+01505100705ADDAA101000095GA1025+004275999GA2075+085345999GD11991+0042759GD23991+0853459GF107991999999999999999999MA1100755098975MD1140084+9999OC100985REMMET10801/02/09 20:53:00 METAR KDAL 030253Z 18011G19KT 8SM FEW014 BKN280 17/15 A2975 RMK AO2 SLP070 T01720150 51008
0225722583139602009010303537+32847-096851FM-15+0149KDAL V0301805N00625085345MN0128755N5+01725+01565100695ADDAA101000095GA1025+036585999GA2075+085345999GD11991+0365859GD23991+0853459GF107991999999999999999999MA1100755098975REMMET09901/02/09 21:53:00 METAR KDAL 030353Z 18012KT 8SM FEW120 BKN280 17/16 A2975 RMK AO2 SLP069 T01720156
0263722583139602009010304537+32847-096851FM-15+0149KDAL V0301705N00625085345MN0128755N5+01725+01565100685ADDAA101000095GA1025+003055999GA2045+036585999GA3075+085345999GD11991+0030559GD22991+0365859GD33991+0853459GF107991999999999999999999MA1100715098945REMMET10601/02/09 22:53:00 METAR KDAL 030453Z 17012KT 8SM FEW010 SCT120 BKN280 17/16 A2974 RMK AO2 SLP068 T01720156
0357722583139602009010305537+32847-096851FM-15+0149KDAL V0301705N00625036585MN0096565N5+01725+01615100625ADDAA101000095AU100001015AW1105GA1045+003055999GA2075+036585999GA3075+085345999GD12991+0030559GD23991+0365859GD33991+0853459GF107991999999999999999999KA1999M+02171KA2999N+01721MA1100685098915MD1840064+9999MW1101REMMET13701/02/09 23:53:00 METAR KDAL 030553Z 17012KT 6SM BR SCT010 BKN120 BKN280 17/16 A2973 RMK AO2 SLP062 T01720161 10217 20172 402440072 58006
0945722583139602009010305596+32847-096851SOD  +0149KDAL V030999999999999999999999999999+99999+99999999999ADDAA124000095AJ100009199999999AN1024000099AX1015245AX2085245KA1240M+02445KA2240N+00725MG1099164100614OE11240125216017585OE22240093917018545OE33240038099999995REMSOD77724 HR PRECIPITATION (IN): 0.00 WEATHER(CODE):1,8  24 HR MAX TEMP (F):76 24 HR MAX TEMP TIME (LST):1618 24 HR MIN TEMP (F):45 24 HR MIN TEMP TIME (LST):0747 AVERAGE STATION PRESSURE(D):29.283 MINIMUM SEA LEVEL PRESSURE:29.71 TIME OF OCCURRENCE:2359 PEAK WIND SPEED (MPH):28  PEAK WIND DIR (DEG):160 PEAK WIND TIME (LST):1758  FASTEST 2MIN SPEED (MPH):21 FASTEST 2MIN DIR (DEG):170 FASTEST 2MIN TIME (LST):1854 AVERAGE WIND SPEED (MPH): 8.5 24 HR AVG TEMP (F):61 DEPART FROM NORMAL:  15 HEATING DEGREE DAYS:  4 COOLING DEGREE DAYS:  0 LATEST DAY MAX TEMP (0700-1900 LST): 76 LATEST NIGHT MIN TEMP(1900-0800 LST):45 HOURLY INCREMENTAL PRECIPITATION VALUES (IN):0.00 0.00 0.00 0.00 0.00 0.00 0.00 0.00 0.00 0.00 0.00 0.00 0.00 0.00 0.00 0.00 0.00 0.00 0.00 0.00 0.00 0.00 0.00 0.00
0261722583139602009010306237+32847-096851FM-16+0149KDAL V0301705N00625003055MN0096565N5+01805+01605999999ADDAU100001015AW1105GA1075+003055999GA2075+036585999GA3085+085345999GD13991+0030559GD23991+0365859GD34991+0853459GF108991999999999999999999MA1100645098875MW1101REMMET09201/03/09 00:23:00 SPECI KDAL 030623Z 17012KT 6SM BR BKN010 BKN120 OVC280 18/16 A2972 RMK AO2
0289722583139602009010306537+32847-096851FM-15+0149KDAL V0301705N00725003055MN0096565N5+01785+01615100595ADDAA101000095AU100001015AW1105GA1075+003055999GA2075+036585999GA3085+085345999GD13991+0030559GD23991+0365859GD34991+0853459GF108991999999999999999999MA1100645098875MW1101REMMET10901/03/09 00:53:00 METAR KDAL 030653Z 17014KT 6SM BR BKN010 BKN120 OVC280 18/16 A2972 RMK AO2 SLP059 T01780161
0240722583139602009010307516+32847-096851FM-16+0149KDAL V0301905N00515036585MN0096565N5+01705+01605999999ADDAU100001015AW1105GA1045+003055999GA2075+036585999GA3085+085345999GD12991+0030559GD23991+0365859GD34991+0853459MA1100615098845REMMET10301/03/09 01:52:21 SPECI KDAL 030751Z 19010KT 6SM BR SCT010 BKN120 OVC280 17/16 A2971 RMK AO2 FIBI (SJG)
0300722583139602009010307537+32847-096851FM-15+0149KDAL V0301905N00515036585MN0096565N5+01785+01615100565ADDAA101000095AU100001015AW1105GA1045+003055999GA2075+036585999GA3085+085345999GD12991+0030559GD23991+0365859GD34991+0853459GF108991999999999999999999MA1100615098845MW1101OC100825REMMET11201/03/09 01:53:00 METAR KDAL 030753Z 19010G16KT 6SM BR SCT010 BKN120 OVC280 18/16 A2971 RMK AO2 SLP056 T01780161
0267722583139602009010308507+32847-096851FM-16+0149KDAL V0301805N00465003055MN0096565N5+01805+01705999999ADDAU100001015AW1105GA1075+003055999GA2075+036585999GA3085+085345999GD13991+0030559GD23991+0365859GD34991+0853459GF108991999999999999999999MA1100615098845MW1101REMMET09801/03/09 02:50:26 SPECI KDAL 030850Z 18009KT 6SM BR BKN010 BKN120 OVC280 18/17 A2971 RMK AO2 (SJG)
0309722583139602009010308537+32847-096851FM-15+0149KDAL V0301805N00465003055MN0096565N5+01785+01675100545ADDAA101000095AU100001015AW1105GA1075+003055999GA2075+036585999GA3085+085345999GD13991+0030559GD23991+0365859GD34991+0853459GF108991999999999999999999MA1100615098845MD1640074+9999MW1101REMMET11501/03/09 02:53:00 METAR KDAL 030853Z 18009KT 6SM BR BKN010 BKN120 OVC280 18/17 A2971 RMK AO2 SLP054 T01780167 56007
0289722583139602009010309537+32847-096851FM-15+0149KDAL V0301705N00515003055MN0096565N5+01835+01675100515ADDAA101000095AU100001015AW1105GA1075+003055999GA2075+045725999GA3085+085345999GD13991+0030559GD23991+0457259GD34991+0853459GF108991999999999999999999MA1100585098815MW1101REMMET10901/03/09 03:53:00 METAR KDAL 030953Z 17010KT 6SM BR BKN010 BKN150 OVC280 18/17 A2970 RMK AO2 SLP051 T01830167
0251722583139602009010310537+32847-096851FM-15+0149KDAL V0301805N00465003055MN0096565N5+01835+01675100475ADDAA101000095AU100001015AW1105GA1075+003055999GA2085+004575999GD13991+0030559GD24991+0045759GF108991999999999999999999MA1100545098775MW1101REMMET10201/03/09 04:53:00 METAR KDAL 031053Z 18009KT 6SM BR BKN010 OVC015 18/17 A2969 RMK AO2 SLP047 T01830167
0271722583139602009010311537+32847-096851FM-15+0149KDAL V0301805N00415004275MN0096565N5+01895+01675100485ADDAA101000095AU100001015AW1105GA1085+004275999GD14991+0042759GF108991999999999999999999KA1999M+01891KA2999N+01721MA1100545098775MD1540064+9999MW1101REMMET11301/03/09 05:53:00 METAR KDAL 031153Z 18008KT 6SM BR OVC014 19/17 A2969 RMK AO2 SLP048 T01890167 10189 20172 55006
0225722583139602009010312537+32847-096851FM-15+0149KDAL V0301705N00365060965MN0144845N5+01835+01675100525ADDAA101000095GA1045+004275999GA2075+060965999GD12991+0042759GD23991+0609659GF107991999999999999999999MA1100585098815REMMET09901/03/09 06:53:00 METAR KDAL 031253Z 17007KT 9SM SCT014 BKN200 18/17 A2970 RMK AO2 SLP052 T01830167
0225722583139602009010313537+32847-096851FM-15+0149KDAL V0301805N004152200059N0128755N5+01835+01675100595ADDAA101000095GA1045+004275999GA2045+054865999GD12991+0042759GD22991+0548659GF104991999999999999999999MA1100645098875REMMET09901/03/09 07:53:00 METAR KDAL 031353Z 18008KT 8SM SCT014 SCT180 18/17 A2972 RMK AO2 SLP059 T01830167
0245722583139602009010314537+32847-096851FM-15+0149KDAL V0301805N004652200059N0112655N5+01945+01725100645ADDAA101000095GA1045+004275999GA2045+036585999GD12991+0042759GD22991+0365859GF104991999999999999999999MA1100715098945MD1340154+9999REMMET10501/03/09 08:53:00 METAR KDAL 031453Z 18009KT 7SM SCT014 SCT120 19/17 A2974 RMK AO2 SLP064 T01940172 53015
0226722583139602009010315537+32847-096851FM-15+0149KDAL V0301805N006252200059N0160935N5+02115+01725100645ADDAA101000095GA1025+004275999GA2045+036585999GD11991+0042759GD22991+0365859GF104991999999999999999999MA1100685098915REMMET10001/03/09 09:53:00 METAR KDAL 031553Z 18012KT 10SM FEW014 SCT120 21/17 A2973 RMK AO2 SLP064 T02110172
0237722583139602009010316537+32847-096851FM-15+0149KDAL V0301905N006252200059N0160935N5+02285+01725100635ADDAA101000095GA1025+004275999GA2045+036585999GD11991+0042759GD22991+0365859GF104991999999999999999999MA1100685098915OC100825REMMET10301/03/09 10:53:00 METAR KDAL 031653Z 19012G16KT 10SM FEW014 SCT120 23/17 A2973 RMK AO2 SLP063 T02280172
0246722583139602009010317537+32847-096851FM-15+0149KDAL V0302105N006252200059N0160935N5+02395+01675100555ADDAA101000095GA1025+012195999GD11991+0121959GF102991999999999999999999KA1999M+02391KA2999N+01831MA1100615098845MD1840084+9999REMMET11101/03/09 11:53:00 METAR KDAL 031753Z 21012KT 10SM FEW040 24/17 A2971 RMK AO2 SLP055 T02390167 10239 20183 58008
0188722583139602009010318537+32847-096851FM-15+0149KDAL V0302005N005152200059N0160935N5+02445+01615100445ADDAA101000095GA1045+012195999GD12991+0121959GF104991999999999999999999MA1100515098745REMMET09301/03/09 12:53:00 METAR KDAL 031853Z 20010KT 10SM SCT040 24/16 A2968 RMK AO2 SLP044 T02440161
0199722583139602009010319537+32847-096851FM-15+0149KDAL V0302105N006752200059N0160935N5+02565+01395100365ADDAA101000095GA1025+012195999GD11991+0121959GF102991999999999999999999MA1100445098675OC100825REMMET09601/03/09 13:53:00 METAR KDAL 031953Z 21013G16KT 10SM FEW040 26/14 A2966 RMK AO2 SLP036 T02560139
0208722583139602009010320537+32847-096851FM-15+0149KDAL V0302205N004652200059N0160935N5+02675+01395100325ADDAA101000095GA1025+015245999GD11991+0152459GF102991999999999999999999MA1100375098615MD1640224+9999REMMET09901/03/09 14:53:00 METAR KDAL 032053Z 22009KT 10SM FEW050 27/14 A2964 RMK AO2 SLP032 T02670139 56022
0188722583139602009010321537+32847-096851FM-15+0149KDAL V0302005N006252200059N0160935N5+02725+01285100335ADDAA101000095GA1025+015245999GD11991+0152459GF102991999999999999999999MA1100415098645REMMET09301/03/09 15:53:00 METAR KDAL 032153Z 20012KT 10SM FEW050 27/13 A2965 RMK AO2 SLP033 T02720128
0154722583139602009010322537+32847-096851FM-15+0149KDAL V0302005N004652200059N0160935N5+02675+01225100355ADDAA101000095GF100991999999999999999999MA1100415098645REMMET09001/03/09 16:53:00 METAR KDAL 032253Z 20009KT 10SM CLR 27/12 A2965 RMK AO2 SLP035 T02670122
0212722583139602009010323537+32847-096851FM-15+0149KDAL V0302005N003152200059N0160935N5+02565+01175100415ADDAA101000095GF100991999999999999999999KA1999M+02721KA2999N+02391MA1100475098715MD1340084+9999REMMET10801/03/09 17:53:00 METAR KDAL 032353Z 20006KT 10SM CLR 26/12 A2967 RMK AO2 SLP041 T02560117 10272 20239 53008
0154722583139602009010400537+32847-096851FM-15+0149KDAL V0301805N002652200059N0160935N5+02285+01175100495ADDAA101000095GF100991999999999999999999MA1100545098775REMMET09001/03/09 18:53:00 METAR KDAL 040053Z 18005KT 10SM CLR 23/12 A2969 RMK AO2 SLP049 T02280117
0154722583139602009010401537+32847-096851FM-15+0149KDAL V0301905N003652200059N0160935N5+02225+01115100575ADDAA101000095GF100991999999999999999999MA1100645098875REMMET09001/03/09 19:53:00 METAR KDAL 040153Z 19007KT 10SM CLR 22/11 A2972 RMK AO2 SLP057 T02220111
0174722583139602009010402537+32847-096851FM-15+0149KDAL V0301805N004152200059N0160935N5+02065+01175100635ADDAA101000095GF100991999999999999999999MA1100685098915MD1140214+9999REMMET09601/03/09 20:53:00 METAR KDAL 040253Z 18008KT 10SM CLR 21/12 A2973 RMK AO2 SLP063 T02060117 51021
0154722583139602009010403537+32847-096851FM-15+0149KDAL V0301905N003652200059N0160935N5+02175+01335100685ADDAA101000095GF100991999999999999999999MA1100755098975REMMET09001/03/09 21:53:00 METAR KDAL 040353Z 19007KT 10SM CLR 22/13 A2975 RMK AO2 SLP068 T02170133
0154722583139602009010404537+32847-096851FM-15+0149KDAL V0302005N003652200059N0160935N5+02225+01395100725ADDAA101000095GF100991999999999999999999MA1100785099015REMMET09001/03/09 22:53:00 METAR KDAL 040453Z 20007KT 10SM CLR 22/14 A2976 RMK AO2 SLP072 T02220139
0222722583139602009010405537+32847-096851FM-15+0149KDAL V0302505N002652200059N0160935N5+02005+01395100785ADDAA101000095GF100991999999999999999999KA1999M+02561KA2999N+01941MA1100855099085MD1140164+9999REMMET11801/03/09 23:53:00 METAR KDAL 040553Z 25005KT 10SM CLR 20/14 A2978 RMK AO2 SLP078 T02000139 10256 20194 402720172 51016
0934722583139602009010405596+32847-096851SOD  +0149KDAL V030999999999999999999999999999+99999+99999999999ADDAA124000095AJ100009199999999AN1024000099AX1015245KA1240M+02725KA2240N+01725MG1098834100304OE11240102820012215OE22240076019014085OE33240046599999995REMSOD77524 HR PRECIPITATION (IN): 0.00 WEATHER(CODE):1  24 HR MAX TEMP (F):81 24 HR MAX TEMP TIME (LST):1635 24 HR MIN TEMP (F):63 24 HR MIN TEMP TIME (LST):0238 AVERAGE STATION PRESSURE(D):29.185 MINIMUM SEA LEVEL PRESSURE:29.62 TIME OF OCCURRENCE:1457 PEAK WIND SPEED (MPH):23  PEAK WIND DIR (DEG):200 PEAK WIND TIME (LST):1221  FASTEST 2MIN SPEED (MPH):17 FASTEST 2MIN DIR (DEG):190 FASTEST 2MIN TIME (LST):1408 AVERAGE WIND SPEED (MPH):10.4 24 HR AVG TEMP (F):72 DEPART FROM NORMAL:  27 HEATING DEGREE DAYS:  0 COOLING DEGREE DAYS:  7 LATEST DAY MAX TEMP (0700-1900 LST): 81 LATEST NIGHT MIN TEMP(1900-0800 LST):63 HOURLY INCREMENTAL PRECIPITATION VALUES (IN):0.00 0.00 0.00 0.00 0.00 0.00 0.00 0.00 0.00 0.00 0.00 0.00 0.00 0.00 0.00 0.00 0.00 0.00 0.00 0.00 0.00 0.00 0.00 0.00
0154722583139602009010406537+32847-096851FM-15+0149KDAL V0302005N003652200059N0160935N5+01945+01395100795ADDAA101000095GF100991999999999999999999MA1100855099085REMMET09001/04/09 00:53:00 METAR KDAL 040653Z 20007KT 10SM CLR 19/14 A2978 RMK AO2 SLP079 T01940139
0154722583139602009010407537+32847-096851FM-15+0149KDAL V0303305N006252200059N0160935N5+01505+00675100975ADDAA101000095GF100991999999999999999999MA1101025099245REMMET09001/04/09 01:53:00 METAR KDAL 040753Z 33012KT 10SM CLR 15/07 A2983 RMK AO2 SLP097 T01500067
0210722583139602009010408537+32847-096851FM-15+0149KDAL V0303505N009352200059N0160935N5+00895+00285101255ADDAA101000095GF100991999999999999999999MA1101295099515MD1340454+9999OC101085REMMET12401/04/09 02:53:00 METAR KDAL 040853Z 35018G21KT 10SM CLR 09/03 A2991 RMK AO2 PK WND 34027/0817 PRESRR SLP125 T00890028 53045
0165722583139602009010409537+32847-096851FM-15+0149KDAL V0303605N006752200059N0160935N5+00615+00115101415ADDAA101000095GF100991999999999999999999MA1101465099685OC101085REMMET09301/04/09 03:53:00 METAR KDAL 040953Z 36013G21KT 10SM CLR 06/01 A2996 RMK AO2 SLP141 T00610011
0188722583139602009010410537+32847-096851FM-15+0149KDAL V0303505N006752200059N0160935N5+00445+00065101565ADDAA101000095GA1025+024385999GD11991+0243859GF102991999999999999999999MA1101595099815REMMET09301/04/09 04:53:00 METAR KDAL 041053Z 35013KT 10SM FEW080 04/01 A3000 RMK AO2 SLP156 T00440006
0215722583139602009010411107+32847-096851FM-16+0149KDAL V0303505N00935024385MN0160935N5+00405+00105999999ADDGA1045+005495999GA2075+024385999GD12991+0054959GD23991+0243859GF107991999999999999999999MA1101635099845OC101135REMMET09201/04/09 05:10:26 SPECI KDAL 041110Z 35018G22KT 10SM SCT018 BKN080 04/01 A3001 RMK AO2 (SJG)
0284722583139602009010411537+32847-096851FM-15+0149KDAL V0303505N00775024385MN0160935N5+00395+00005101695ADDAA101000095GA1045+005495999GA2075+024385999GD12991+0054959GD23991+0243859GF107991999999999999999999KA1999M+02001KA2999N+00391MA1101735099945MD1140424+9999REMMET11801/04/09 05:53:00 METAR KDAL 041153Z 35015KT 10SM SCT018 BKN080 04/00 A3004 RMK AO2 SLP169 T00390000 10200 20039 51042
0178722583139602009010412007+32847-096851FM-16+0149KDAL V0303405N00515005495MN0160935N5+00405-00105999999ADDGA1085+005495999GD14991+0054959GF108991999999999999999999MA1101735099945OC101035REMMET08601/04/09 06:00:26 SPECI KDAL 041200Z 34010G20KT 10SM OVC018 04/M01 A3004 RMK AO2 (SJG)
0238722583139602009010412537+32847-096851FM-15+0149KDAL V0303405N00985005495MN0160935N5+00285-00115101835ADDAA101000095GA1075+005495999GA2075+024385999GD13991+0054959GD23991+0243859GF107991999999999999999999MA1101865100085OC101185REMMET10401/04/09 06:53:00 METAR KDAL 041253Z 34019G23KT 10SM BKN018 BKN080 03/M01 A3008 RMK AO2 SLP183 T00281011
0202722583139602009010413537+32847-096851FM-15+0149KDAL V0303505N00725006105MN0112655N5+00225-00285101995ADDAA101000095GA1085+006105999GD14991+0061059GF108991999999999999999999MA1102035100245OC101135REMMET09901/04/09 07:53:00 METAR KDAL 041353Z 35014G22KT 7SM OVC020 02/M03 A3013 RMK AO2 SLP199 HZ T00221028
0211722583139602009010414537+32847-096851FM-15+0149KDAL V0303505N00825006715MN0112655N5+00175-00395102175ADDAA101000095GA1075+006715999GD13991+0067159GF107991999999999999999999MA1102205100415MD1340454+9999REMMET10201/04/09 08:53:00 METAR KDAL 041453Z 35016KT 7SM BKN022 02/M04 A3018 RMK AO2 SLP217 HZ T00171039 53045
0176722583139602009010415077+32847-096851FM-16+0149KDAL V0303505N007752200059N0128755N5+00205-00405999999ADDGA1045+007015999GD12991+0070159GF104991999999999999999999MA1102245100445OC101085REMMET08401/04/09 09:07:26 SPECI KDAL 041507Z 35015G21KT 8SM SCT023 02/M04 A3019 RMK AO2 (JG)
0238722583139602009010415537+32847-096851FM-15+0149KDAL V0303605N008252200059N0160935N5+00285-00445102285ADDAA101000095GA1025+007625999GA2045+076205999GD11991+0076259GD22991+0762059GF104991999999999999999999MA1102305100515OC101185REMMET10401/04/09 09:53:00 METAR KDAL 041553Z 36016G23KT 10SM FEW025 SCT250 03/M04 A3021 RMK AO2 SLP228 T00281044
0200722583139602009010416537+32847-096851FM-15+0149KDAL V0303605N00825076205MN0160935N5+00395-00445102355ADDAA101000095GA1075+076205999GD13991+0762059GF107991999999999999999999MA1102375100585OC101185REMMET09701/04/09 10:53:00 METAR KDAL 041653Z 36016G23KT 10SM BKN250 04/M04 A3023 RMK AO2 SLP235 T00391044
0258722583139602009010417537+32847-096851FM-15+0149KDAL V0303605N00725091445MN0160935N5+00505-00445102325ADDAA101000095GA1075+091445999GD13991+0914459GF107991999999999999999999KA1999M+00501KA2999N+00171MA1102345100545MD1040164+9999OC101135REMMET11501/04/09 11:53:00 METAR KDAL 041753Z 36014G22KT 10SM BKN300 05/M04 A3022 RMK AO2 SLP232 T00501044 10050 20017 50016
0227722583139602009010418537+32847-096851FM-15+0149KDAL V0303505N00625091445MN0160935N5+00615-00395102235ADDAA101000095GA1025+030485999GA2075+091445999GD11991+0304859GD23991+0914459GF107991999999999999999999MA1102275100485REMMET10101/04/09 12:53:00 METAR KDAL 041853Z 35012KT 10SM FEW100 BKN300 06/M04 A3020 RMK AO2 SLP223 T00611039
0200722583139602009010419537+32847-096851FM-15+0149KDAL V0303305N00885091445MN0160935N5+00725-00395102235ADDAA101000095GA1075+091445999GD13991+0914459GF107991999999999999999999MA1102245100445OC101085REMMET09701/04/09 13:53:00 METAR KDAL 041953Z 33017G21KT 10SM BKN300 07/M04 A3019 RMK AO2 SLP223 T00721039
0220722583139602009010420537+32847-096851FM-15+0149KDAL V0300105N00575091445MN0160935N5+00675-00395102245ADDAA101000095GA1075+091445999GD13991+0914459GF107991999999999999999999MA1102245100445MD1540104+9999OC101185REMMET10301/04/09 14:53:00 METAR KDAL 042053Z 01011G23KT 10SM BKN300 07/M04 A3019 RMK AO2 SLP224 T00671039 55010
0189722583139602009010421537+32847-096851FM-15+0149KDAL V0300105N00725091445MN0160935N5+00675-00445102285ADDAA101000095GA1075+091445999GD13991+0914459GF107991999999999999999999MA1102305100515REMMET09401/04/09 15:53:00 METAR KDAL 042153Z 01014KT 10SM BKN300 07/M04 A3021 RMK AO2 SLP228 T00671044
0189722583139602009010422537+32847-096851FM-15+0149KDAL V0303505N00725091445MN0160935N5+00565-00445102365ADDAA101000095GA1075+091445999GD13991+0914459GF107991999999999999999999MA1102375100585REMMET09401/04/09 16:53:00 METAR KDAL 042253Z 35014KT 10SM BKN300 06/M04 A3023 RMK AO2 SLP236 T00561044
0247722583139602009010423537+32847-096851FM-15+0149KDAL V0303505N00625091445MN0160935N5+00445-00445102455ADDAA101000095GA1075+091445999GD13991+0914459GF107991999999999999999999KA1999M+00781KA2999N+00441MA1102445100645MD1340204+9999REMMET11201/04/09 17:53:00 METAR KDAL 042353Z 35012KT 10SM BKN300 04/M04 A3025 RMK AO2 SLP245 T00441044 10078 20044 53020
0189722583139602009010500537+32847-096851FM-15+0149KDAL V0303605N00675091445MN0160935N5+00335-00505102555ADDAA101000095GA1075+091445999GD13991+0914459GF107991999999999999999999MA1102545100745REMMET09401/04/09 18:53:00 METAR KDAL 050053Z 36013KT 10SM BKN300 03/M05 A3028 RMK AO2 SLP255 T00331050
0189722583139602009010501537+32847-096851FM-15+0149KDAL V0303605N00575091445MN0160935N5+00225-00505102535ADDAA101000095GA1075+091445999GD13991+0914459GF107991999999999999999999MA1102515100715REMMET09401/04/09 19:53:00 METAR KDAL 050153Z 36011KT 10SM BKN300 02/M05 A3027 RMK AO2 SLP253 T00221050
0209722583139602009010502537+32847-096851FM-15+0149KDAL V0300105N00725091445MN0160935N5+00225-00725102625ADDAA101000095GA1075+091445999GD13991+0914459GF107991999999999999999999MA1102615100815MD1140164+9999REMMET10001/04/09 20:53:00 METAR KDAL 050253Z 01014KT 10SM BKN300 02/M07 A3030 RMK AO2 SLP262 T00221072 51016
0263722583139602009010503537+32847-096851FM-15+0149KDAL V0303505N00515014026MN0160935N5+00225-00675102625ADDAA101000095GA1071+014021999GA2081+024381999GD13991+0140269GD24991+0240869GF108991999999999999999999MA1102615100815REMMET10201/04/09 21:53:00 METAR KDAL 050353Z 35010KT 10SM BKN046 OVC0790 02/M07 A3030 RMK AO2 SLP262 T00221067EQDR01BKN0467SKY010R02BKN0467GAS010
0189722583139602009010504537+32847-096851FM-15+0149KDAL V0300105N00675022865MN0160935N5+00225-00725102615ADDAA101000095GA1085+022865999GD14991+0228659GF108991999999999999999999MA1102615100815REMMET09401/04/09 22:53:00 METAR KDAL 050453Z 01013KT 10SM OVC075 02/M07 A3030 RMK AO2 SLP261 T00221072
0295722583139602009010505537+32847-096851FM-15+0149KDAL V0300205N00415022865MN0160935N5+00225-00835102565ADDAA101000095GA1075+022865999GA2075+091445999GD13991+0228659GD23991+0914459GF107991999999999999999999KA1999M+00441KA2999N+00221MA1102545100745MD1840054+9999REMMET12901/04/09 23:53:00 METAR KDAL 050553Z 02008KT 10SM BKN075 BKN300 02/M08 A3028 RMK AO2 SLP256 T00221083 10044 20022 402000017 58005
0908722583139602009010505596+32847-096851SOD  +0149KDAL V030999999999999999999999999999+99999+99999999999ADDAA124000095AJ100009199999999AN1024000099KA1240M+02005KA2240N+00175MG1100284100784OE11240138634002175OE22240111835002185OE33240068899999995REMSOD75824 HR PRECIPITATION (IN): 0.00 24 HR MAX TEMP (F):68 24 HR MAX TEMP TIME (LST):0047 24 HR MIN TEMP (F):35 24 HR MIN TEMP TIME (LST):0857 AVERAGE STATION PRESSURE(D):29.613 MINIMUM SEA LEVEL PRESSURE:29.76 TIME OF OCCURRENCE:0112 PEAK WIND SPEED (MPH):31  PEAK WIND DIR (DEG):340 PEAK WIND TIME (LST):0217  FASTEST 2MIN SPEED (MPH):25 FASTEST 2MIN DIR (DEG):350 FASTEST 2MIN TIME (LST):0218 AVERAGE WIND SPEED (MPH):15.4 24 HR AVG TEMP (F):52 DEPART FROM NORMAL:   7 HEATING DEGREE DAYS: 13 COOLING DEGREE DAYS:  0 LATEST DAY MAX TEMP (0700-1900 LST): 46 LATEST NIGHT MIN TEMP(1900-0800 LST):36 HOURLY INCREMENTAL PRECIPITATION VALUES (IN):0.00 0.00 0.00 0.00 0.00 0.00 0.00 0.00 0.00 0.00 0.00 0.00 0.00 0.00 0.00 0.00 0.00 0.00 0.00 0.00 0.00 0.00 0.00 0.00
0242722583139602009010506077+32847-096851FM-16+0149KDAL V0303505N00365008235MN0160935N5+00205-00805999999ADDGA1075+008235999GA2075+022865999GA3085+091445999GD13991+0082359GD23991+0228659GD34991+0914459GF108991999999999999999999MA1102575100785REMMET09601/05/09 00:07:26 SPECI KDAL 050607Z 35007KT 10SM BKN027 BKN075 OVC300 02/M08 A3029 RMK AO2 (SW)
0242722583139602009010506337+32847-096851FM-16+0149KDAL V0303605N00365021345MN0160935N5+00205-00805999999ADDGA1045+008235999GA2075+021345999GA3085+025915999GD12991+0082359GD23991+0213459GD34991+0259159GF108991999999999999999999MA1102515100715REMMET09601/05/09 00:33:26 SPECI KDAL 050633Z 36007KT 10SM SCT027 BKN070 OVC085 02/M08 A3027 RMK AO2 (SW)
0265722583139602009010506537+32847-096851FM-15+0149KDAL V0300105N00465014945MN0160935N5+00225-00895102515ADDAA101000095GA1045+008235999GA2075+014945999GA3085+021345999GD12991+0082359GD23991+0149459GD34991+0213459GF108991999999999999999999MA1102515100715REMMET10801/05/09 00:53:00 METAR KDAL 050653Z 01009KT 10SM SCT027 BKN049 OVC070 02/M09 A3027 RMK AO2 SLP251 T00221089
0266722583139602009010507537+32847-096851FM-15+0149KDAL V0303605N00365010975MN0160935N5+00115-00565102525ADDAA101000595AU110020015AW1615GA1025+007925999GA2085+010975999GD11991+0079259GD24991+0109759GF108991999999999999999999MA1102515100715MW1611REMMET11701/05/09 01:53:00 METAR KDAL 050753Z 36007KT 10SM -RA FEW026 OVC036 01/M06 A3027 RMK AO2 SLP252 RAB19 P0002 T00111056
0238722583139602009010508537+32847-096851FM-15+0149KDAL V0303605N00465010365MN0160935N5+00175-00565102475ADDAA101000025AA203000591GA1085+010365999GD14991+0103659GF108991999999999999999999MA1102475100685MD1840094+9999REMMET11801/05/09 02:53:00 METAR KDAL 050853Z 36009KT 10SM OVC034 02/M06 A3026 RMK AO2 RAE01 SLP247 P0000 60002 T00171056 58009
0189722583139602009010509537+32847-096851FM-15+0149KDAL V0303605N00415009755MN0160935N5+00175-00675102425ADDAA101000095GA1085+009755999GD14991+0097559GF108991999999999999999999MA1102405100615REMMET09401/05/09 03:53:00 METAR KDAL 050953Z 36008KT 10SM OVC032 02/M07 A3024 RMK AO2 SLP242 T00171067
0166722583139602009010510187+32847-096851FM-16+0149KDAL V0303605N00365008235MN0160935N5+00205-00705999999ADDGA1085+008235999GD14991+0082359GF108991999999999999999999MA1102375100585REMMET08201/05/09 04:18:26 SPECI KDAL 051018Z 36007KT 10SM OVC027 02/M07 A3023 RMK AO2 (SW)
0189722583139602009010510537+32847-096851FM-15+0149KDAL V0303605N00365006105MN0160935N5+00175-00615102345ADDAA101000095GA1085+006105999GD14991+0061059GF108991999999999999999999MA1102345100545REMMET09401/05/09 04:53:00 METAR KDAL 051053Z 36007KT 10SM OVC020 02/M06 A3022 RMK AO2 SLP234 T00171061
0300722583139602009010511537+32847-096851FM-15+0149KDAL V0300105N00315006105MN0160935N5+00115-00505102305ADDAA101000095AA206000591AA324000591GA1085+006105999GD14991+0061059GF108991999999999999999999KA1999M+00221KA2999N+00111MA1102305100515MD1740174+9999REMMET12401/05/09 05:53:00 METAR KDAL 051153Z 01006KT 10SM OVC020 01/M05 A3021 RMK AO2 SLP230 60002 70002 T00111050 10022 20011 57017EQDQ01  00058PRCP24
0280722583139602009010512447+32847-096851FM-16+0149KDAL V0303305N00465005495MN0112655N5+00105-00305999999ADDAA101000021AU107000025AU210020035AW1615AW2905GA1085+005495095GD14991+0054959GF108991999999999999999999MA1102305100515MW1801MW2951REMMET13901/05/09 06:51:26 SPECI KDAL 051244Z 33009KT 7SM -TSRA OVC018CB 01/M03 A3021 RMK AO2 RAB32TSB44 OCNL LTGICCG SE-S TS SE-S MOV NE P0000 (SW)
0286722583139602009010512537+32847-096851FM-15+0149KDAL V0303105N00365005495MN0112655N5+00065-00285102345ADDAA101000395AU107000025AU210020035AW1615AW2905GA1085+005495095GD14991+0054959GF108991999999999999999999MA1102345100545MW1801MW2951REMMET14501/05/09 06:53:00 METAR KDAL 051253Z 31007KT 7SM -TSRA OVC018CB 01/M03 A3022 RMK AO2 SLP234 RAB32TSB44 OCNL LTGICCG E TS E MOV NE P0001 T00061028
0243722583139602009010513017+32847-096851FM-16+0149KDAL V0303605N00315006105MN0160935N5+00105-00305999999ADDAA101000021AU110020015AW1615GA1085+006105999GD14991+0061059GF108991999999999999999999MA1102305100515MW1611REMMET12501/05/09 07:04:26 SPECI KDAL 051301Z 36006KT 10SM -RA OVC020 01/M03 A3021 RMK AO2 TSE00 TS MOVD E CB DSNT E MOV NE P0000 (JM)
0237722583139602009010513537+32847-096851FM-15+0149KDAL V0303405N00365006715MN0144845N5+00065-00335102405ADDAA101000025AU110020015AW1615GA1085+006715999GD14991+0067159GF108991999999999999999999MA1102405100615MW1611REMMET11901/05/09 07:53:00 METAR KDAL 051353Z 34007KT 9SM -RA OVC022 01/M03 A3024 RMK AO2 TSE00 SLP240 TS MOVD E P0000 T00061033
0223722583139602009010514057+32847-096851FM-16+0149KDAL V0303305N00465006715MN0080475N5+00005-00305999999ADDAA101000391AU128020015AW1655GA1085+006715999GD14991+0067159GF108991999999999999999999MA1102405100615MW1671REMMET10501/05/09 08:07:26 SPECI KDAL 051405Z 33009KT 5SM FZRA OVC022 00/M03 A3024 RMK AO2 RAE04FZRAB04 P0001 (JM)
0288722583139602009010514207+32847-096851FM-16+0149KDAL V0303505N00315007015MN0080475N5+00005-00205999999ADDAA101001391AU118020015AU200001015AW1105AW2645GA1045+005795999GA2085+007015999GD12991+0057959GD24991+0070159GF108991999999999999999999MA1102375100585MW1101MW2661REMMET11601/05/09 08:20:26 SPECI KDAL 051420Z 35006KT 5SM -FZRA BR SCT019 OVC023 00/M02 A3023 RMK AO2 RAE04FZRAB04 P0005 (JM)
0337722583139602009010514537+32847-096851FM-15+0149KDAL V0303505N00415005795MN0080475N5+00005-00225102355ADDAA101002895AA203002891AU118020015AU200001015AW1105AW2645GA1075+005795999GA2085+013415999GD13991+0057959GD24991+0134159GF108991999999999999999999MA1102345100545MD1040054+9999MW1101MW2661REMMET14001/05/09 08:53:00 METAR KDAL 051453Z 35008KT 5SM -FZRA BR BKN019 OVC044 00/M02 A3022 RMK AO2 SLP235 RAE04FZRAB04 P0010 60011 T00001022 50005
0236722583139602009010514577+32847-096851FM-16+0149KDAL V0303605N00465005185MN0064375N5+00005-00205999999ADDAA101000021AU128020015AU200001015AW1105AW2655GA1085+005185999GD14991+0051859GF108991999999999999999999MA1102375100585MW1101MW2671REMMET09501/05/09 08:57:26 SPECI KDAL 051457Z 36009KT 4SM FZRA BR OVC017 00/M02 A3023 RMK AO2 P0000 (JM)
0238722583139602009010515057+32847-096851FM-16+0149KDAL V0303305N00415005185MN0048285N5-00105-00205999999ADDAA101000891AU118020015AU200001015AW1105AW2645GA1085+005185999GD14991+0051859GF108991999999999999999999MA1102375100585MW1101MW2661REMMET09701/05/09 09:05:26 SPECI KDAL 051505Z 33008KT 3SM -FZRA BR OVC017 M01/M02 A3023 RMK AO2 P0003 (JM)
0238722583139602009010515067+32847-096851FM-16+0149KDAL V0303305N00365005185MN0064375N5-00105-00205999999ADDAA101000891AU118020015AU200001015AW1105AW2645GA1085+005185999GD14991+0051859GF108991999999999999999999MA1102405100615MW1101MW2661REMMET09701/05/09 09:08:26 SPECI KDAL 051506Z 33007KT 4SM -FZRA BR OVC017 M01/M02 A3024 RMK AO2 P0003 (JM)
0276722583139602009010515137+32847-096851FM-16+0149KDAL V0303305N00415004885MN0064375N5-00105-00205999999ADDAA101001591AU118020015AU200001015AW1105AW2645GA1025+004275999GA2085+004885999GD11991+0042759GD24991+0048859GF108991999999999999999999MA1102375100585MW1101MW2661REMMET10401/05/09 09:13:26 SPECI KDAL 051513Z 33008KT 4SM -FZRA BR FEW014 OVC016 M01/M02 A3023 RMK AO2 P0006 (JM)
0238722583139602009010515287+32847-096851FM-16+0149KDAL V0303505N00315003965MN0096565N5-00105-00205999999ADDAA101001591AU118020015AU200001015AW1105AW2645GA1085+003965999GD14991+0039659GF108991999999999999999999MA1102305100515MW1101MW2661REMMET09701/05/09 09:28:26 SPECI KDAL 051528Z 35006KT 6SM -FZRA BR OVC013 M01/M02 A3021 RMK AO2 P0006 (JM)
0262722583139602009010515537+32847-096851FM-15+0149KDAL V0303405N00315004275MN0112655N5-00065-00225102325ADDAA101002395AU118020015AW1645GA1075+004275999GA2085+012195999GD13991+0042759GD24991+0121959GF108991999999999999999999MA1102305100515MW1661REMMET11301/05/09 09:53:00 METAR KDAL 051553Z 34006KT 7SM -FZRA BKN014 OVC040 M01/M02 A3021 RMK AO2 SLP232 P0010 T10061022
0249722583139602009010516047+32847-096851FM-16+0149KDAL V0303405N00315011585MN0112655N5+00005-00205999999ADDAA101000391AU118020015AW1645GA1045+004275999GA2085+011585999GD12991+0042759GD24991+0115859GF108991999999999999999999MA1102305100515MW1661REMMET10001/05/09 10:04:26 SPECI KDAL 051604Z 34006KT 7SM -FZRA SCT014 OVC038 00/M02 A3021 RMK AO2 P0001 (JM)
0229722583139602009010516387+32847-096851FM-16+0149KDAL V0303505N00315010975MN0160935N5+00005-00205999999ADDAA101000391GA1045+004575999GA2085+010975999GD12991+0045759GD24991+0109759GF108991999999999999999999MA1102245100445REMMET10301/05/09 10:38:26 SPECI KDAL 051638Z 35006KT 10SM SCT015 OVC036 00/M02 A3019 RMK AO2 FZRAE38 P0001 (JM)
0289722583139602009010516537+32847-096851FM-15+0149KDAL V0309999V00265011585MN0160935N5+00005-00175102245ADDAA101000395GA1025+004885999GA2045+008845999GA3085+011585999GD11991+0048859GD22991+0088459GD34991+0115859GF108991999999999999999999MA1102245100445REMMET13201/05/09 10:53:00 METAR KDAL 051653Z VRB05KT 10SM FEW016 SCT029 OVC038 00/M02 A3019 RMK AO2 SLP224 FZRAE38 SCT V BKN P0001 T00001017
0249722583139602009010517017+32847-096851FM-16+0149KDAL V0303505N00215008845MN0160935N5+00005-00205999999ADDGA1025+003965999GA2075+008845999GA3085+011585999GD11991+0039659GD23991+0088459GD34991+0115859GF108991999999999999999999MA1102175100385REMMET10301/05/09 11:01:26 SPECI KDAL 051701Z 35004KT 10SM FEW013 BKN029 OVC038 00/M02 A3017 RMK AO2 PRESFR (JM)
0295722583139602009010517267+32847-096851FM-16+0149KDAL V0303305N00265003965MN0112655N5+00005-00205999999ADDAA101000021AU118020015AW1645GA1075+003965999GA2075+008845999GA3085+011585999GD13991+0039659GD23991+0088459GD34991+0115859GF108991999999999999999999MA1102105100315MW1661REMMET11501/05/09 11:26:26 SPECI KDAL 051726Z 33005KT 7SM -FZRA BKN013 BKN029 OVC038 00/M02 A3015 RMK AO2 FZRAB26 P0000 (JM)
0308722583139602009010517487+32847-096851FM-16+0149KDAL V0303305N00265005495MN0112655N5+00005-00205999999ADDAA101000591AU118020015AW1645GA1045+003355999GA2075+005495999GA3085+008535999GD12991+0033559GD23991+0054959GD34991+0085359GF108991999999999999999999MA1102035100245MW1661REMMET12801/05/09 11:48:26 SPECI KDAL 051748Z 33005KT 7SM -FZRA SCT011 BKN018 OVC028 00/M02 A3013 RMK AO2 FZRAB26 PCPN VRY LGT P0002 (JM)
0382722583139602009010517537+32847-096851FM-15+0149KDAL V0303505N00265005495MN0112655N5+00005-00175102055ADDAA101000595AA206006191AU118020015AW1645GA1045+003355999GA2075+005495999GA3085+008535999GD12991+0033559GD23991+0054959GD34991+0085359GF108991999999999999999999KA1999M+00111KA2999N-00061MA1102035100245MD1640274+9999MW1661REMMET15101/05/09 11:53:00 METAR KDAL 051753Z 35005KT 7SM -FZRA SCT011 BKN018 OVC028 00/M02 A3013 RMK AO2 FZRAB26 SLP205 P0002 60024 T00001017 10011 21006 56027
0247722583139602009010518207+32847-096851FM-16+0149KDAL V0303105N00415004275MN0096565N5+00005-00205999999ADDAA101000021AU118020015AU200001015AW1105AW2645GA1085+004275999GD14991+0042759GF108991999999999999999999MA1102075100285MW1101MW2661REMMET10601/05/09 12:20:26 SPECI KDAL 051820Z 31008KT 6SM -FZRA BR OVC014 00/M02 A3014 RMK AO2 VIS E-S 4 P0000 (JM)
0274722583139602009010518447+32847-096851FM-16+0149KDAL V0303005N00465003055MN0048285N5+00005-00105999999ADDAA101000891AU128020015AU200001015AW1105AW2655GA1045+002135999GA2085+003055999GD12991+0021359GD24991+0030559GF108991999999999999999999MA1102105100315MW1101MW2671REMMET10201/05/09 12:44:26 SPECI KDAL 051844Z 30009KT 3SM FZRA BR SCT007 OVC010 00/M01 A3015 RMK AO2 P0003 (JM)
0241722583139602009010518516+32847-096851FM-16+0149KDAL V0303305N00365003355MN0040235N5+00005-00105999999ADDAU128020015AU200001015AW1105AW2655GA1045+002135999GA2085+003355999GD12991+0021359GD24991+0033559MA1101965100185REMMET11801/05/09 12:52:21 SPECI KDAL 051851Z 33007KT 2 1/2SM FZRA BR SCT007 OVC011 00/M01 A3011 RMK AO2 PRESFR P0006 FIBI (JM)
0315722583139602009010518537+32847-096851FM-15+0149KDAL V0303105N00365003355MN0040235N5+00005-00115101995ADDAA101002895AU128020015AU200001015AW1105AW2655GA1045+002135999GA2085+003355999GD12991+0021359GD24991+0033559GF108991999999999999999999MA1101965100185MW1101MW2671REMMET14301/05/09 12:53:00 METAR KDAL 051853Z 31007KT 2 1/2SM R13L/6000VP6000FT FZRA BR SCT007 OVC011 00/M01 A3011 RMK AO2 PRESFR SLP199 P0007 T00001011
0331722583139602009010518567+32847-096851FM-16+0149KDAL V0302905N00365003665MN0032195N5+00005-00105999999ADDAA101000591AU118020015AU200001015AW1105AW2645GA1045+002135999GA2075+003665999GA3085+006405999GD12991+0021359GD23991+0036659GD34991+0064059GF108991999999999999999999MA1102005100215MW1101MW2661REMMET12801/05/09 12:57:26 SPECI KDAL 051856Z 29007KT 2SM R13L/6000VP6000FT -FZRA BR SCT007 BKN012 OVC021 00/M01 A3012 RMK AO2 P0002 (JM)
0299722583139602009010519017+32847-096851FM-16+0149KDAL V0303105N00315002445MN0032195N5+00005-00205999999ADDAA101001091AU128020015AU200001015AW1105AW2655GA1075+002445999GA2085+003665999GD13991+0024459GD24991+0036659GF108991999999999999999999MA1101935100145MW1101MW2671REMMET12701/05/09 13:14:26 SPECI KDAL 051901Z 31006KT 2SM R13L/6000VP6000FT FZRA BR BKN008 OVC012 00/M02 A3010 RMK AO2 PRESFR P0004 (JM)
0305722583139602009010519077+32847-096851FM-16+0149KDAL V0309999C00005002445MN0040235N5-00105-00105999999ADDAA101001891AU128020015AU200001015AW1105AW2655GA1075+002445999GA2085+003665999GD13991+0024459GD24991+0036659GF108991999999999999999999MA1101835100045MW1101MW2671REMMET13301/05/09 13:07:26 SPECI KDAL 051907Z 00000KT 2 1/2SM FZRA BR BKN008 OVC012 M01/M01 A3007 RMK AO2 UPB01E02FZRAE01B03 PRESFR P0007 (JM)
0317722583139602009010519227+32847-096851FM-16+0149KDAL V0302805N00315002745MN0040235N5+00005-00105999999ADDAA101002391AU118020015AU200001015AW1105AW2645GA1075+002745999GA2075+006715999GA3085+016765999GD13991+0027459GD23991+0067159GD34991+0167659GF108991999999999999999999MA1101905100115MW1101MW2661REMMET11401/05/09 13:22:26 SPECI KDAL 051922Z 28006KT 2 1/2SM -FZRA BR BKN009 BKN022 OVC055 00/M01 A3009 RMK AO2 P0009 (JM)
0304722583139602009010519407+32847-096851FM-16+0149KDAL V0309999C00005002745MN0024145N5-00105-00105999999ADDAA101003891AU128020015AU200001015AW1105AW2655GA1045+001835999GA2085+002745999GD12991+0018359GD24991+0027459GF108991999999999999999999MA1101765099985MW1101MW2671REMMET13201/05/09 13:40:26 SPECI KDAL 051940Z 00000KT 1 1/2SM R13L/4500VP6000FT FZRA BR SCT006 OVC009 M01/M01 A3005 RMK AO2 PRESFR P0015 (JM)
0278722583139602009010519507+32847-096851FM-16+0149KDAL V0309999C00005002745MN0040235N5+00005-00105999999ADDAA101005691AU128020015AU200001015AW1105AW2655GA1075+002745999GA2085+005495999GD13991+0027459GD24991+0054959GF108991999999999999999999MA1101765099985MW1101MW2671REMMET10601/05/09 13:50:26 SPECI KDAL 051950Z 00000KT 2 1/2SM FZRA BR BKN009 OVC018 00/M01 A3005 RMK AO2 P0022 (JM)
0290722583139602009010519537+32847-096851FM-15+0149KDAL V0309999C00005002745MN0040235N5+00005-00115101815ADDAA101005395AU128020015AU200001015AW1105AW2655GA1075+002745999GA2085+005495999GD13991+0027459GD24991+0054959GF108991999999999999999999MA1101795100015MW1101MW2671REMMET11801/05/09 13:53:00 METAR KDAL 051953Z 00000KT 2 1/2SM FZRA BR BKN009 OVC018 00/M01 A3006 RMK AO2 SLP181 P0023 T00001011
0313722583139602009010520107+32847-096851FM-16+0149KDAL V0309999C00005002745MN0064375N5+00005-00105999999ADDAA101001591AU118020015AU200001015AW1105AW2645GA1045+001525999GA2075+002745999GA3085+006105999GD12991+0015259GD23991+0027459GD34991+0061059GF108991999999999999999999MA1101765099985MW1101MW2661REMMET11001/05/09 14:10:26 SPECI KDAL 052010Z 00000KT 4SM -FZRA BR SCT005 BKN009 OVC020 00/M01 A3005 RMK AO2 P0006 (JM)
0275722583139602009010520377+32847-096851FM-16+0149KDAL V0309999C00005003355MN0064375N5+00005-00105999999ADDAA101003391AU118020015AU200001015AW1105AW2645GA1045+001525999GA2085+003355999GD12991+0015259GD24991+0033559GF108991999999999999999999MA1101695099915MW1101MW2661REMMET10301/05/09 14:37:26 SPECI KDAL 052037Z 00000KT 4SM -FZRA BR SCT005 OVC011 00/M01 A3003 RMK AO2 P0013 (JM)
0249722583139602009010520507+32847-096851FM-16+0149KDAL V0309999C00005002745MN0128755N5+00005-00105999999ADDAA101003691AU118020015AW1645GA1045+001835999GA2085+002745999GD12991+0018359GD24991+0027459GF108991999999999999999999MA1101735099945MW1661REMMET10001/05/09 14:50:26 SPECI KDAL 052050Z 00000KT 8SM -FZRA SCT006 OVC009 00/M01 A3004 RMK AO2 P0014 (JM)
0298722583139602009010520537+32847-096851FM-15+0149KDAL V0309999C00005002745MN0128755N5+00005-00115101745ADDAA101003095AA203011291AU118020015AW1645GA1045+001835999GA2085+002745999GD12991+0018359GD24991+0027459GF108991999999999999999999MA1101735099945MD1640304+9999MW1661REMMET12401/05/09 14:53:00 METAR KDAL 052053Z 00000KT 8SM -FZRA SCT006 OVC009 00/M01 A3004 RMK AO2 SLP174 P0014 60044 T00001011 56030
0203722583139602009010521367+32847-096851FM-16+0149KDAL V0309999C00005002745MN0160935N5+00005-00105999999ADDAA101000391GA1085+002745999GD14991+0027459GF108991999999999999999999MA1101635099845REMMET10801/05/09 15:36:26 SPECI KDAL 052136Z 00000KT 10SM OVC009 00/M01 A3001 RMK AO2 FZRAE36 CIG 006V013 P0001 (MG)
0240722583139602009010521537+32847-096851FM-15+0149KDAL V0309999C00005002745MN0144845N5+00005-00115101625ADDAA101000395AU120090015AW1415GA1085+002745999GD14991+0027459GF108991999999999999999999MA1101635099845MW1401REMMET12201/05/09 15:53:00 METAR KDAL 052153Z 00000KT 9SM UP OVC009 00/M01 A3001 RMK AO2 FZRAE36 CIG 008V013 SLP162 P0001 T00001011
0265722583139602009010522537+32847-096851FM-15+0149KDAL V0309999C00005002135MN0080475N5+00065-00065101465ADDAA101001395AU110020015AU200001015AW1105AW2615GA1085+002135999GD14991+0021359GF108991999999999999999999MA1101465099685MW1101MW2611REMMET12401/05/09 16:53:00 METAR KDAL 052253Z 00000KT 5SM -RA BR OVC007 01/M01 A2996 RMK AO2 CIG 006V010 SLP146 RAB59 P0005 T00061006
0364722583139602009010523537+32847-096851FM-15+0149KDAL V0309999C00005002135MN0160935N5+00065-00065101415ADDAA101000025AA206012791GA1075+002135999GA2075+003965999GA3085+006715999GD13991+0021359GD23991+0039659GD34991+0067159GF108991999999999999999999KA1999M+00061KA2999N-00061MA1101395099615MD1640334+9999REMMET15601/05/09 17:53:00 METAR KDAL 052353Z 00000KT 10SM BKN007 BKN013 OVC022 01/M01 A2994 RMK AO2 RAE07 CIG 006V011 SLP141 P0000 60050 T00061006 10006 21006 56033
0242722583139602009010600117+32847-096851FM-16+0149KDAL V0309999C00005003665MN0160935N5+00105-00105999999ADDGA1045+002445999GA2075+003665999GA3085+007925999GD12991+0024459GD23991+0036659GD34991+0079259GF108991999999999999999999MA1101395099615REMMET09601/05/09 18:11:26 SPECI KDAL 060011Z 00000KT 10SM SCT008 BKN012 OVC026 01/M01 A2994 RMK AO2 (MG)
0183722583139602009010600516+32847-096851FM-16+0149KDAL V0309999C00005007325MN0160935N5+00105-00105999999ADDGA1025+003055999GA2085+007325999GD11991+0030559GD24991+0073259MA1101325099545REMMET09401/05/09 18:52:21 SPECI KDAL 060051Z 00000KT 10SM FEW010 OVC024 01/M01 A2992 RMK AO2 FIBI (MG)
0227722583139602009010600537+32847-096851FM-15+0149KDAL V0309999C00005007325MN0160935N5+00065-00065101365ADDAA101000095GA1025+003055999GA2085+007325999GD11991+0030559GD24991+0073259GF108991999999999999999999MA1101355099585REMMET10101/05/09 18:53:00 METAR KDAL 060053Z 00000KT 10SM FEW010 OVC024 01/M01 A2993 RMK AO2 SLP136 T00061006
0204722583139602009010601377+32847-096851FM-16+0149KDAL V0309999C00005006715MN0160935N5+00105-00105999999ADDGA1025+002745999GA2085+006715999GD11991+0027459GD24991+0067159GF108991999999999999999999MA1101295099515REMMET08901/05/09 19:37:26 SPECI KDAL 060137Z 00000KT 10SM FEW009 OVC022 01/M01 A2991 RMK AO2 (MG)
0227722583139602009010601537+32847-096851FM-15+0149KDAL V0309999C00005006715MN0160935N5+00065-00065101275ADDAA101000095GA1025+002745999GA2085+006715999GD11991+0027459GD24991+0067159GF108991999999999999999999MA1101255099485REMMET10101/05/09 19:53:00 METAR KDAL 060153Z 00000KT 10SM FEW009 OVC022 01/M01 A2990 RMK AO2 SLP127 T00061006
0203722583139602009010602127+32847-096851FM-16+0149KDAL V0309999C00005002745MN0160935N5+00105+00005999999ADDGA1075+002745999GA2085+007325999GD13991+0027459GD24991+0073259GF108991999999999999999999MA1101255099485REMMET08801/05/09 20:12:26 SPECI KDAL 060212Z 00000KT 10SM BKN009 OVC024 01/00 A2990 RMK AO2 (MG)
0208722583139602009010602537+32847-096851FM-15+0149KDAL V0309999C00005002745MN0160935N5+00115+00005101255ADDAA101000095GA1085+002745999GD14991+0027459GF108991999999999999999999MA1101225099445MD1640164+9999REMMET09901/05/09 20:53:00 METAR KDAL 060253Z 00000KT 10SM OVC009 01/00 A2989 RMK AO2 SLP125 T00110000 56016
0238722583139602009010603537+32847-096851FM-15+0149KDAL V0302005N00155002745MN0160935N5+00115+00005101175ADDAA101000095GA1075+002745999GA2075+007325999GD13991+0027459GD23991+0073259GF107991999999999999999999MA1101155099385REMMET11201/05/09 21:53:00 METAR KDAL 060353Z 20003KT 10SM BKN009 BKN024 01/00 A2987 RMK AO2 CIG 007V013 SLP117 T00110000
0264722583139602009010604537+32847-096851FM-15+0149KDAL V0309999C00005003965MN0160935N5+00115+00005101155ADDAA101000095GA1045+002135999GA2075+003965999GA3085+007625999GD12991+0021359GD23991+0039659GD34991+0076259GF108991999999999999999999MA1101125099345REMMET10701/05/09 22:53:00 METAR KDAL 060453Z 00000KT 10SM SCT007 BKN013 OVC025 01/00 A2986 RMK AO2 SLP115 T00110000
0253722583139602009010605067+32847-096851FM-16+0149KDAL V0302405N00155002745MN0160935N5+00105+00005999999ADDGA1075+002745999GA2075+003965999GA3085+007625999GD13991+0027459GD23991+0039659GD34991+0076259GF108991999999999999999999MA1101125099345REMMET10701/05/09 23:06:26 SPECI KDAL 060506Z 24003KT 10SM BKN009 BKN013 OVC025 01/00 A2986 RMK AO2 CIG 006V013 (SW)
0241722583139602009010605107+32847-096851FM-16+0149KDAL V0309999C00005007625MN0160935N5+00105+00005999999ADDGA1045+002745999GA2045+003965999GA3075+007625999GD12991+0027459GD22991+0039659GD33991+0076259GF107991999999999999999999MA1101125099345REMMET09501/05/09 23:10:26 SPECI KDAL 060510Z 00000KT 10SM SCT009 SCT013 BKN025 01/00 A2986 RMK AO2 (SW)
0241722583139602009010605467+32847-096851FM-16+0149KDAL V0302105N00155045725MN0160935N5+00105+00005999999ADDGA1025+002745999GA2045+007625999GA3085+045725999GD11991+0027459GD22991+0076259GD34991+0457259GF108991999999999999999999MA1101125099345REMMET09501/05/09 23:46:26 SPECI KDAL 060546Z 21003KT 10SM FEW009 SCT025 OVC150 01/00 A2986 RMK AO2 (SW)
0332722583139602009010605537+32847-096851FM-15+0149KDAL V0309999C00005045725MN0160935N5+00175+00005101105ADDAA101000095GA1025+002745999GA2045+007625999GA3085+045725999GD11991+0027459GD22991+0076259GD34991+0457259GF108991999999999999999999KA1999M+00171KA2999N+00061MA1101085099315MD1640144+9999REMMET13501/05/09 23:53:00 METAR KDAL 060553Z 00000KT 10SM FEW009 SCT025 OVC150 02/00 A2985 RMK AO2 SLP110 T00170000 10017 20006 400221006 56014
0945722583139602009010605596+32847-096851SOD  +0149KDAL V030999999999999999999999999999+99999+99999999999ADDAA124019395AJ100009199999999AN1024000099AX1035245AX2015245KA1240M+00225KA2240N-00055MG1100144101084OE11240071529012425OE22240058129012425OE33240020199999995REMSOD77724 HR PRECIPITATION (IN): 0.76 WEATHER(CODE):3,1  24 HR MAX TEMP (F):36 24 HR MAX TEMP TIME (LST):0140 24 HR MIN TEMP (F):31 24 HR MIN TEMP TIME (LST):1349 AVERAGE STATION PRESSURE(D):29.572 MINIMUM SEA LEVEL PRESSURE:29.85 TIME OF OCCURRENCE:2359 PEAK WIND SPEED (MPH):16  PEAK WIND DIR (DEG):290 PEAK WIND TIME (LST):1242  FASTEST 2MIN SPEED (MPH):13 FASTEST 2MIN DIR (DEG):290 FASTEST 2MIN TIME (LST):1242 AVERAGE WIND SPEED (MPH): 4.5 24 HR AVG TEMP (F):34 DEPART FROM NORMAL: -11 HEATING DEGREE DAYS: 31 COOLING DEGREE DAYS:  0 LATEST DAY MAX TEMP (0700-1900 LST): 33 LATEST NIGHT MIN TEMP(1900-0800 LST):32 HOURLY INCREMENTAL PRECIPITATION VALUES (IN):0.00 0.02T     0.00 0.00 0.00 0.01T     0.11 0.09 0.01 0.02 0.11 0.21 0.12 0.01 0.05T     0.00 0.00 0.00 0.00 0.00 0.00
0241722583139602009010606537+32847-096851FM-15+0149KDAL V0301805N00215033535MN0160935N5+00175+00065100985ADDAA101000025GA1025+007625999GA2085+033535999GD11991+0076259GD24991+0335359GF108991999999999999999999MA1100985099215REMMET11501/06/09 00:53:00 METAR KDAL 060653Z 18004KT 10SM FEW025 OVC110 02/01 A2982 RMK AO2 RAB41E53 SLP098 P0000 T00170006
0310722583139602009010607537+32847-096851FM-15+0149KDAL V0301605N00465027435MN0160935N5+00225+00065100845ADDAA101000025AU110020015AW1615GA1025+004575999GA2045+018295999GA3085+027435999GD11991+0045759GD22991+0182959GD34991+0274359GF108991999999999999999999MA1100855099085MW1611REMMET13001/06/09 01:53:00 METAR KDAL 060753Z 16009KT 10SM -RA FEW015 SCT060 OVC090 02/01 A2978 RMK AO2 PRESFR SLP084 RAB06 P0000 T00220006
0333722583139602009010608537+32847-096851FM-15+0149KDAL V0301605N00575027435MN0112655N5+00175+00115100825ADDAA101000896AA203000592AU110020015AW1615GA1025+007625999GA2045+021345999GA3085+027435999GD11991+0076259GD22991+0213459GD34991+0274359GF108991999999999999999999MA1100815099045MD1640284+9999MW1611REMMET12801/06/09 02:53:00 METAR KDAL 060853Z 16011KT 7SM -RA FEW025 SCT070 OVC090 02/01 A2977 RMK AO2 SLP082 P0002 60002 T00170011 56028
0258722583139602009010609537+32847-096851FM-15+0149KDAL V0301605N00465021345MN0128755N5+00225+00175100685ADDAA101001095AU110020015AW1615GA1025+007625999GA2085+021345999GD11991+0076259GD24991+0213459GF108991999999999999999999MA1100685098915MW1611REMMET10901/06/09 03:53:00 METAR KDAL 060953Z 16009KT 8SM -RA FEW025 OVC070 02/02 A2973 RMK AO2 SLP068 P0005 T00220017
0199722583139602009010610537+32847-096851FM-15+0149KDAL V0301705N00625027435MN0144845N5+00285+00175100615ADDAA101000595GA1085+027435999GD14991+0274359GF108991999999999999999999MA1100615098845REMMET10401/06/09 04:53:00 METAR KDAL 061053Z 17012KT 9SM OVC090 03/02 A2971 RMK AO2 SLP061 RAE41 P0002 T00280017
0337722583139602009010611537+32847-096851FM-15+0149KDAL V0301805N00315027435MN0160935N5+00335+00225100505ADDAA101000095AA206002391AA324021191GA1075+027435999GA2085+045725999GD13991+0274359GD24991+0457259GF108991999999999999999999KA1999M+00331KA2999N+00111MA1100515098745MD1640314+9999REMMET13001/06/09 05:53:00 METAR KDAL 061153Z 18006KT 10SM BKN090 OVC150 03/02 A2968 RMK AO2 SLP050 60009 70083 T00330022 10033 20011 56031EQDQ01  02118PRCP24
0226722583139602009010612537+32847-096851FM-15+0149KDAL V0301705N00365033535MN0160935N5+00335+00225100415ADDAA101000095GA1075+033535999GA2085+045725999GD13991+0335359GD24991+0457259GF108991999999999999999999MA1100415098645REMMET10001/06/09 06:53:00 METAR KDAL 061253Z 17007KT 10SM BKN110 OVC150 03/02 A2965 RMK AO2 SLP041 T00330022
0264722583139602009010613537+32847-096851FM-15+0149KDAL V0301705N00415060965MN0160935N5+00395+00285100395ADDAA101000095GA1025+002445999GA2045+033535999GA3075+060965999GD11991+0024459GD22991+0335359GD33991+0609659GF107991999999999999999999MA1100375098615REMMET10701/06/09 07:53:00 METAR KDAL 061353Z 17008KT 10SM FEW008 SCT110 BKN200 04/03 A2964 RMK AO2 SLP039 T00390028
0299722583139602009010614537+32847-096851FM-15+0149KDAL V0301805N00415030485MN0160935N5+00445+00335100475ADDAA101000095GA1025+003055999GA2045+022865999GA3075+030485999GD11991+0030559GD22991+0228659GD33991+0304859GD43991+0600019GF107991999999999999999999MA1100475098715MD1540034+9999REMMET11301/06/09 08:53:00 METAR KDAL 061453Z 18008KT 10SM FEW010 SCT075 BKN100 04/03 A2967 RMK AO2 SLP047 T00440033 55003
0279722583139602009010615537+32847-096851FM-15+0149KDAL V0301805N00465036585MN0160935N5+00565+00395100505ADDAA101000095GA1025+003665999GA2045+022865999GA3075+036585999GD11991+0036659GD22991+0228659GD33991+0365859GD43991+0600019GF107991999999999999999999MA1100515098745REMMET10701/06/09 09:53:00 METAR KDAL 061553Z 18009KT 10SM FEW012 SCT075 BKN120 06/04 A2968 RMK AO2 SLP050 T00560039
0226722583139602009010616537+32847-096851FM-15+0149KDAL V0301905N003652200059N0160935N5+00835+00505100435ADDAA101000095GA1025+036585999GA2045+060965999GD11991+0365859GD22991+0609659GF104991999999999999999999MA1100445098675REMMET10001/06/09 10:53:00 METAR KDAL 061653Z 19007KT 10SM FEW120 SCT200 08/05 A2966 RMK AO2 SLP043 T00830050
0246722583139602009010617537+32847-096851FM-15+0149KDAL V0302005N004652200059N0160935N5+01005+00505100315ADDAA101000095GA1025+036585999GD11991+0365859GF102991999999999999999999KA1999M+01061KA2999N+00331MA1100345098575MD1840144+9999REMMET11101/06/09 11:53:00 METAR KDAL 061753Z 20009KT 10SM FEW120 10/05 A2963 RMK AO2 SLP031 T01000050 10106 20033 58014
0188722583139602009010618537+32847-096851FM-15+0149KDAL V0302205N002152200059N0160935N5+01285+00505100145ADDAA101000095GA1025+024385999GD11991+0243859GF102991999999999999999999MA1100145098375REMMET09301/06/09 12:53:00 METAR KDAL 061853Z 22004KT 10SM FEW080 13/05 A2957 RMK AO2 SLP014 T01280050
0226722583139602009010619537+32847-096851FM-15+0149KDAL V0302405N004152200059N0160935N5+01565+00395100035ADDAA101000095GA1025+012195999GA2045+036585999GD11991+0121959GD22991+0365859GF104991999999999999999999MA1100075098315REMMET10001/06/09 13:53:00 METAR KDAL 061953Z 24008KT 10SM FEW040 SCT120 16/04 A2955 RMK AO2 SLP003 T01560039
0257722583139602009010620537+32847-096851FM-15+0149KDAL V0302505V005152200059N0160935N5+01725+00065100005ADDAA101000095GA1025+016765999GA2045+030485999GD11991+0167659GD22991+0304859GF104991999999999999999999MA1100035098275MD1640294+9999OC100825REMMET10901/06/09 14:53:00 METAR KDAL 062053Z 25010G16KT 10SM FEW055 SCT100 17/01 A2954 RMK AO2 SLP000 T01720006 56029
0275722583139602009010621537+32847-096851FM-15+0149KDAL V0302605N00625024385MN0160935N5+01675+00005100065ADDAA101000095GA1075+024385999GA2075+042675999GA3075+073155999GD13991+0243859GD23991+0426759GD33991+0731559GF107991999999999999999999MA1100105098345OC101035REMMET11001/06/09 15:53:00 METAR KDAL 062153Z 26012G20KT 10SM BKN080 BKN140 BKN240 17/00 A2956 RMK AO2 SLP006 T01670000
0301722583139602009010622537+32847-096851FM-15+0149KDAL V0303205N011352200059N0160935N5+01335-00065100285ADDAA101000095GA1025+030485999GA2045+042675999GA3045+073155999GD11991+0304859GD22991+0426759GD32991+0731559GF104991999999999999999999MA1100305098545OC101345REMMET13601/06/09 16:53:00 METAR KDAL 062253Z 32022G26KT 10SM FEW100 SCT140 SCT240 13/M01 A2962 RMK AO2 PK WND 32027/2241 PRESRR SLP028 T01331006
0352722583139602009010623537+32847-096851FM-15+0149KDAL V0303005N008852200059N0160935N5+00895-00505100545ADDAA101000095GA1025+030485999GA2045+042675999GA3045+073155999GD11991+0304859GD22991+0426759GD32991+0731559GF104991999999999999999999KA1999M+01781KA2999N+00891MA1100545098775MD1340524+9999OC101245REMMET14701/06/09 17:53:00 METAR KDAL 062353Z 30017G24KT 10SM FEW100 SCT140 SCT240 09/M05 A2969 RMK AO2 PK WND 32029/2315 SLP054 T00891050 10178 20089 53052
0227722583139602009010700537+32847-096851FM-15+0149KDAL V0303105N006252200059N0160935N5+00785-00725100745ADDAA101000095GA1025+042675999GA2045+073155999GD11991+0426759GD22991+0731559GF104991999999999999999999MA1100755098975REMMET10101/06/09 18:53:00 METAR KDAL 070053Z 31012KT 10SM FEW140 SCT240 08/M07 A2975 RMK AO2 SLP074 T00781072
0227722583139602009010701537+32847-096851FM-15+0149KDAL V0303205N00725073155MN0160935N5+00785-00895100855ADDAA101000095GA1025+042675999GA2075+073155999GD11991+0426759GD23991+0731559GF107991999999999999999999MA1100855099085REMMET10101/06/09 19:53:00 METAR KDAL 070153Z 32014KT 10SM FEW140 BKN240 08/M09 A2978 RMK AO2 SLP085 T00781089
0247722583139602009010702537+32847-096851FM-15+0149KDAL V0303205N004652200059N0160935N5+00725-00835100975ADDAA101000095GA1025+042675999GA2045+073155999GD11991+0426759GD22991+0731559GF104991999999999999999999MA1100985099215MD1140424+9999REMMET10701/06/09 20:53:00 METAR KDAL 070253Z 32009KT 10SM FEW140 SCT240 07/M08 A2982 RMK AO2 SLP097 T00721083 51042
0227722583139602009010703537+32847-096851FM-15+0149KDAL V0303205N00315073155MN0160935N5+00565-00725101055ADDAA101000095GA1025+042675999GA2075+073155999GD11991+0426759GD23991+0731559GF107991999999999999999999MA1101055099285REMMET10101/06/09 21:53:00 METAR KDAL 070353Z 32006KT 10SM FEW140 BKN240 06/M07 A2984 RMK AO2 SLP105 T00561072
0189722583139602009010704537+32847-096851FM-15+0149KDAL V0303205N001552200059N0160935N5+00505-00675101025ADDAA101000095GA1025+073155999GD11991+0731559GF102991999999999999999999MA1101055099285REMMET09401/06/09 22:53:00 METAR KDAL 070453Z 32003KT 10SM FEW240 05/M07 A2984 RMK AO2 SLP102 T00501067
0257722583139602009010705537+32847-096851FM-15+0149KDAL V0302505N002152200059N0160935N5+00615-00675101055ADDAA101000095GA1025+076205999GD11991+0762059GF102991999999999999999999KA1999M+00891KA2999N+00441MA1101055099285MD1140074+9999REMMET12201/06/09 23:53:00 METAR KDAL 070553Z 25004KT 10SM FEW250 06/M07 A2984 RMK AO2 SLP105 T00611067 10089 20044 401780011 51007
0908722583139602009010705596+32847-096851SOD  +0149KDAL V030999999999999999999999999999+99999+99999999999ADDAA124002395AJ100009199999999AN1024000099KA1240M+01785KA2240N+00115MG1098814099974OE11240147532017155OE22240134131017165OE33240046999999995REMSOD75824 HR PRECIPITATION (IN): 0.09 24 HR MAX TEMP (F):64 24 HR MAX TEMP TIME (LST):1504 24 HR MIN TEMP (F):34 24 HR MIN TEMP TIME (LST):0027 AVERAGE STATION PRESSURE(D):29.179 MINIMUM SEA LEVEL PRESSURE:29.52 TIME OF OCCURRENCE:1440 PEAK WIND SPEED (MPH):33  PEAK WIND DIR (DEG):320 PEAK WIND TIME (LST):1715  FASTEST 2MIN SPEED (MPH):30 FASTEST 2MIN DIR (DEG):310 FASTEST 2MIN TIME (LST):1716 AVERAGE WIND SPEED (MPH):10.5 24 HR AVG TEMP (F):49 DEPART FROM NORMAL:   4 HEATING DEGREE DAYS: 16 COOLING DEGREE DAYS:  0 LATEST DAY MAX TEMP (0700-1900 LST): 64 LATEST NIGHT MIN TEMP(1900-0800 LST):33 HOURLY INCREMENTAL PRECIPITATION VALUES (IN):    T     0.03 0.04 0.02 0.00 0.00 0.00 0.00 0.00 0.00 0.00 0.00 0.00 0.00 0.00 0.00 0.00 0.00 0.00 0.00 0.00 0.00 0.00
0155722583139602009010706537+32847-096851FM-15+0149KDAL V0302405N002652200059N0160935N5+00565-00615101025ADDAA101000095GF100991999999999999999999MA1101055099285REMMET09101/07/09 00:53:00 METAR KDAL 070653Z 24005KT 10SM CLR 06/M06 A2984 RMK AO2 SLP102 T00561061
0155722583139602009010707537+32847-096851FM-15+0149KDAL V0302205N001552200059N0160935N5+00505-00565101015ADDAA101000095GF100991999999999999999999MA1101055099285REMMET09101/07/09 01:53:00 METAR KDAL 070753Z 22003KT 10SM CLR 05/M06 A2984 RMK AO2 SLP101 T00501056
0175722583139602009010708537+32847-096851FM-15+0149KDAL V0301905N002152200059N0160935N5+00335-00565100975ADDAA101000095GF100991999999999999999999MA1100985099215MD1840074+9999REMMET09701/07/09 02:53:00 METAR KDAL 070853Z 19004KT 10SM CLR 03/M06 A2982 RMK AO2 SLP097 T00331056 58007
0155722583139602009010709537+32847-096851FM-15+0149KDAL V0302205N002152200059N0160935N5+00395-00445100985ADDAA101000095GF100991999999999999999999MA1101025099245REMMET09101/07/09 03:53:00 METAR KDAL 070953Z 22004KT 10SM CLR 04/M04 A2983 RMK AO2 SLP098 T00391044
0155722583139602009010710537+32847-096851FM-15+0149KDAL V0302305N002152200059N0160935N5+00335-00445100995ADDAA101000095GF100991999999999999999999MA1100985099215REMMET09101/07/09 04:53:00 METAR KDAL 071053Z 23004KT 10SM CLR 03/M04 A2982 RMK AO2 SLP099 T00331044
0213722583139602009010711537+32847-096851FM-15+0149KDAL V0309999C000052200059N0160935N5+00335-00445101025ADDAA101000095GF100991999999999999999999KA1999M+00611KA2999N+00221MA1101055099285MD1340054+9999REMMET10901/07/09 05:53:00 METAR KDAL 071153Z 00000KT 10SM CLR 03/M04 A2984 RMK AO2 SLP102 T00331044 10061 20022 53005
0189722583139602009010712537+32847-096851FM-15+0149KDAL V0309999V001552200059N0160935N5+00395-00335101045ADDAA101000095GA1025+045725999GD11991+0457259GF102991999999999999999999MA1101055099285REMMET09401/07/09 06:53:00 METAR KDAL 071253Z VRB03KT 10SM FEW150 04/M03 A2984 RMK AO2 SLP104 T00391033
0227722583139602009010713537+32847-096851FM-15+0149KDAL V0302105N001552200059N0160935N5+00395-00335101025ADDAA101000095GA1025+042675999GA2045+091445999GD11991+0426759GD22991+0914459GF104991999999999999999999MA1101055099285REMMET10101/07/09 07:53:00 METAR KDAL 071353Z 21003KT 10SM FEW140 SCT300 04/M03 A2984 RMK AO2 SLP102 T00391033
0209722583139602009010714537+32847-096851FM-15+0149KDAL V0302405N003652200059N0160935N5+00615-00335101075ADDAA101000095GA1025+091445999GD11991+0914459GF102991999999999999999999MA1101085099315MD1340044+9999REMMET10001/07/09 08:53:00 METAR KDAL 071453Z 24007KT 10SM FEW300 06/M03 A2985 RMK AO2 SLP107 T00611033 53004
0227722583139602009010715537+32847-096851FM-15+0149KDAL V0302505N003152200059N0160935N5+00835-00445101085ADDAA101000095GA1045+060965999GA2045+091445999GD12991+0609659GD22991+0914459GF104991999999999999999999MA1101085099315REMMET10101/07/09 09:53:00 METAR KDAL 071553Z 25006KT 10SM SCT200 SCT300 08/M04 A2985 RMK AO2 SLP108 T00831044
0189722583139602009010716537+32847-096851FM-15+0149KDAL V0302505N003152200059N0160935N5+01065-00505100975ADDAA101000095GA1025+060965999GD11991+0609659GF102991999999999999999999MA1100985099215REMMET09401/07/09 10:53:00 METAR KDAL 071653Z 25006KT 10SM FEW200 11/M05 A2982 RMK AO2 SLP097 T01061050
0247722583139602009010717537+32847-096851FM-15+0149KDAL V0302605V004152200059N0160935N5+01225-00505100955ADDAA101000095GA1025+060965999GD11991+0609659GF102991999999999999999999KA1999M+01221KA2999N+00331MA1100985099215MD1840104+9999REMMET11201/07/09 11:53:00 METAR KDAL 071753Z 26008KT 10SM FEW200 12/M05 A2982 RMK AO2 SLP095 T01221050 10122 20033 58010
0200722583139602009010718537+32847-096851FM-15+0149KDAL V0302705N004652200059N0160935N5+01395-00505100825ADDAA101000095GA1025+060965999GD11991+0609659GF102991999999999999999999MA1100855099085OC100725REMMET09701/07/09 12:53:00 METAR KDAL 071853Z 27009G14KT 10SM FEW200 14/M05 A2978 RMK AO2 SLP082 T01391050
0200722583139602009010719537+32847-096851FM-15+0149KDAL V0302605N003652200059N0160935N5+01505-00505100745ADDAA101000095GA1025+060965999GD11991+0609659GF102991999999999999999999MA1100785099015OC100725REMMET09701/07/09 13:53:00 METAR KDAL 071953Z 26007G14KT 10SM FEW200 15/M05 A2976 RMK AO2 SLP074 T01501050
0285722583139602009010720537+32847-096851FM-15+0149KDAL V0302505N003652200059N0160935N5+01675-00505100725ADDAA101000095GA1025+024385999GA2045+057915999GA3045+091445999GD11991+0243859GD22991+0579159GD32991+0914459GF104991999999999999999999MA1100755098975MD1640234+9999REMMET11401/07/09 14:53:00 METAR KDAL 072053Z 25007KT 10SM FEW080 SCT190 SCT300 17/M05 A2975 RMK AO2 SLP072 T01671050 56023
0265722583139602009010721537+32847-096851FM-15+0149KDAL V0302205N00315082305MN0160935N5+01725-00505100765ADDAA101000095GA1025+024385999GA2045+067065999GA3075+082305999GD11991+0243859GD22991+0670659GD33991+0823059GF107991999999999999999999MA1100785099015REMMET10801/07/09 15:53:00 METAR KDAL 072153Z 22006KT 10SM FEW080 SCT220 BKN270 17/M05 A2976 RMK AO2 SLP076 T01721050
0227722583139602009010722537+32847-096851FM-15+0149KDAL V0302305N00265082305MN0160935N5+01675-00445100765ADDAA101000095GA1045+067065999GA2075+082305999GD12991+0670659GD23991+0823059GF107991999999999999999999MA1100785099015REMMET10101/07/09 16:53:00 METAR KDAL 072253Z 23005KT 10SM SCT220 BKN270 17/M04 A2976 RMK AO2 SLP076 T01671044
0285722583139602009010723537+32847-096851FM-15+0149KDAL V0302105N00315085345MN0160935N5+01565-00395100795ADDAA101000095GA1045+067065999GA2075+085345999GD12991+0670659GD23991+0853459GF107991999999999999999999KA1999M+01781KA2999N+01221MA1100815099045MD1140074+9999REMMET11901/07/09 17:53:00 METAR KDAL 072353Z 21006KT 10SM SCT220 BKN280 16/M04 A2977 RMK AO2 SLP079 T01561039 10178 20122 51007
0227722583139602009010800537+32847-096851FM-15+0149KDAL V0302005N00215085345MN0160935N5+01395-00285100825ADDAA101000095GA1025+060965999GA2075+085345999GD11991+0609659GD23991+0853459GF107991999999999999999999MA1100855099085REMMET10101/07/09 18:53:00 METAR KDAL 080053Z 20004KT 10SM FEW200 BKN280 14/M03 A2978 RMK AO2 SLP082 T01391028
0227722583139602009010801537+32847-096851FM-15+0149KDAL V0302105N00315085345MN0160935N5+01335-00175100905ADDAA101000095GA1025+060965999GA2075+085345999GD11991+0609659GD23991+0853459GF107991999999999999999999MA1100915099145REMMET10101/07/09 19:53:00 METAR KDAL 080153Z 21006KT 10SM FEW200 BKN280 13/M02 A2980 RMK AO2 SLP090 T01331017
0247722583139602009010802537+32847-096851FM-15+0149KDAL V0302105N001552200059N0160935N5+01225-00115100935ADDAA101000095GA1025+060965999GA2045+085345999GD11991+0609659GD22991+0853459GF104991999999999999999999MA1100955099185MD1340144+9999REMMET10701/07/09 20:53:00 METAR KDAL 080253Z 21003KT 10SM FEW200 SCT280 12/M01 A2981 RMK AO2 SLP093 T01221011 53014
0227722583139602009010803537+32847-096851FM-15+0149KDAL V0309999C000052200059N0160935N5+01115-00175101005ADDAA101000095GA1025+060965999GA2045+085345999GD11991+0609659GD22991+0853459GF104991999999999999999999MA1101025099245REMMET10101/07/09 21:53:00 METAR KDAL 080353Z 00000KT 10SM FEW200 SCT280 11/M02 A2983 RMK AO2 SLP100 T01111017
0189722583139602009010804537+32847-096851FM-15+0149KDAL V0302005N002152200059N0160935N5+01115-00225101015ADDAA101000095GA1025+085345999GD11991+0853459GF102991999999999999999999MA1101055099285REMMET09401/07/09 22:53:00 METAR KDAL 080453Z 20004KT 10SM FEW280 11/M02 A2984 RMK AO2 SLP101 T01111022
0257722583139602009010805537+32847-096851FM-15+0149KDAL V0301905N001552200059N0160935N5+01005-00225101015ADDAA101000095GA1025+085345999GD11991+0853459GF102991999999999999999999KA1999M+01561KA2999N+00941MA1101055099285MD1140084+9999REMMET12201/07/09 23:53:00 METAR KDAL 080553Z 19003KT 10SM FEW280 10/M02 A2984 RMK AO2 SLP101 T01001022 10156 20094 401780022 51008
0908722583139602009010805596+32847-096851SOD  +0149KDAL V030999999999999999999999999999+99999+99999999999ADDAA124000095AJ100009199999999AN1024000099KA1240M+01785KA2240N+00225MG1099184100714OE11240076027014155OE22240058125014195OE33240024199999995REMSOD75824 HR PRECIPITATION (IN): 0.00 24 HR MAX TEMP (F):64 24 HR MAX TEMP TIME (LST):1548 24 HR MIN TEMP (F):36 24 HR MIN TEMP TIME (LST):0301 AVERAGE STATION PRESSURE(D):29.289 MINIMUM SEA LEVEL PRESSURE:29.74 TIME OF OCCURRENCE:1513 PEAK WIND SPEED (MPH):17  PEAK WIND DIR (DEG):270 PEAK WIND TIME (LST):1415  FASTEST 2MIN SPEED (MPH):13 FASTEST 2MIN DIR (DEG):250 FASTEST 2MIN TIME (LST):1419 AVERAGE WIND SPEED (MPH): 5.4 24 HR AVG TEMP (F):50 DEPART FROM NORMAL:   5 HEATING DEGREE DAYS: 15 COOLING DEGREE DAYS:  0 LATEST DAY MAX TEMP (0700-1900 LST): 64 LATEST NIGHT MIN TEMP(1900-0800 LST):36 HOURLY INCREMENTAL PRECIPITATION VALUES (IN):0.00 0.00 0.00 0.00 0.00 0.00 0.00 0.00 0.00 0.00 0.00 0.00 0.00 0.00 0.00 0.00 0.00 0.00 0.00 0.00 0.00 0.00 0.00 0.00
0189722583139602009010806537+32847-096851FM-15+0149KDAL V0309999C000052200059N0160935N5+00895-00115101005ADDAA101000095GA1025+076205999GD11991+0762059GF102991999999999999999999MA1101025099245REMMET09401/08/09 00:53:00 METAR KDAL 080653Z 00000KT 10SM FEW250 09/M01 A2983 RMK AO2 SLP100 T00891011
0188722583139602009010807537+32847-096851FM-15+0149KDAL V0309999C00005076205MN0160935N5+00675+00005101005ADDAA101000095GA1075+076205999GD13991+0762059GF107991999999999999999999MA1101025099245REMMET09301/08/09 01:53:00 METAR KDAL 080753Z 00000KT 10SM BKN250 07/00 A2983 RMK AO2 SLP100 T00670000
0209722583139602009010808537+32847-096851FM-15+0149KDAL V0309999C00005085345MN0160935N5+00725-00065101055ADDAA101000095GA1075+085345999GD13991+0853459GF107991999999999999999999MA1101085099315MD1340044+9999REMMET10001/08/09 02:53:00 METAR KDAL 080853Z 00000KT 10SM BKN280 07/M01 A2985 RMK AO2 SLP105 T00721006 53004
0188722583139602009010809537+32847-096851FM-15+0149KDAL V0309999C000052200059N0160935N5+00615+00005101105ADDAA101000095GA1025+085345999GD11991+0853459GF102991999999999999999999MA1101125099345REMMET09301/08/09 03:53:00 METAR KDAL 080953Z 00000KT 10SM FEW280 06/00 A2986 RMK AO2 SLP110 T00610000
0188722583139602009010810537+32847-096851FM-15+0149KDAL V0303405N002152200059N0160935N5+00445+00005101205ADDAA101000095GA1045+085345999GD12991+0853459GF104991999999999999999999MA1101225099445REMMET09301/08/09 04:53:00 METAR KDAL 081053Z 34004KT 10SM SCT280 04/00 A2989 RMK AO2 SLP120 T00440000
0247722583139602009010811537+32847-096851FM-15+0149KDAL V0309999C000052200059N0160935N5+00565-00065101255ADDAA101000095GA1025+076205999GD11991+0762059GF102991999999999999999999KA1999M+01001KA2999N+00391MA1101295099515MD1340194+9999REMMET11201/08/09 05:53:00 METAR KDAL 081153Z 00000KT 10SM FEW250 06/M01 A2991 RMK AO2 SLP125 T00561006 10100 20039 53019
0189722583139602009010812537+32847-096851FM-15+0149KDAL V0301805N002152200059N0160935N5+00395-00065101305ADDAA101000095GA1045+076205999GD12991+0762059GF104991999999999999999999MA1101325099545REMMET09401/08/09 06:53:00 METAR KDAL 081253Z 18004KT 10SM SCT250 04/M01 A2992 RMK AO2 SLP130 T00391006
0189722583139602009010813537+32847-096851FM-15+0149KDAL V0309999C000052200059N0160935N5+00505-00065101435ADDAA101000095GA1025+076205999GD11991+0762059GF102991999999999999999999MA1101465099685REMMET09401/08/09 07:53:00 METAR KDAL 081353Z 00000KT 10SM FEW250 05/M01 A2996 RMK AO2 SLP143 T00501006
0208722583139602009010814537+32847-096851FM-15+0149KDAL V0309999C000052200059N0160935N5+00785+00115101495ADDAA101000095GA1045+076205999GD12991+0762059GF104991999999999999999999MA1101525099745MD1340234+9999REMMET09901/08/09 08:53:00 METAR KDAL 081453Z 00000KT 10SM SCT250 08/01 A2998 RMK AO2 SLP149 T00780011 53023
0188722583139602009010815537+32847-096851FM-15+0149KDAL V0309999C000052200059N0160935N5+01175+00065101565ADDAA101000095GA1025+076205999GD11991+0762059GF102991999999999999999999MA1101595099815REMMET09301/08/09 09:53:00 METAR KDAL 081553Z 00000KT 10SM FEW250 12/01 A3000 RMK AO2 SLP156 T01170006
0188722583139602009010816537+32847-096851FM-15+0149KDAL V0309999C000052200059N0160935N5+01565+00115101535ADDAA101000095GA1025+076205999GD11991+0762059GF102991999999999999999999MA1101565099785REMMET09301/08/09 10:53:00 METAR KDAL 081653Z 00000KT 10SM FEW250 16/01 A2999 RMK AO2 SLP153 T01560011
0247722583139602009010817537+32847-096851FM-15+0149KDAL V0301005N002652200059N0160935N5+01945-00065101445ADDAA101000095GA1025+091445999GD11991+0914459GF102991999999999999999999KA1999M+01941KA2999N+00391MA1101495099715MD1840034+9999REMMET11201/08/09 11:53:00 METAR KDAL 081753Z 10005KT 10SM FEW300 19/M01 A2997 RMK AO2 SLP144 T01941006 10194 20039 58003
0155722583139602009010818537+32847-096851FM-15+0149KDAL V0301205N003652200059N0160935N5+02065-00175101355ADDAA101000095GF100991999999999999999999MA1101395099615REMMET09101/08/09 12:53:00 METAR KDAL 081853Z 12007KT 10SM CLR 21/M02 A2994 RMK AO2 SLP135 T02061017
0155722583139602009010819537+32847-096851FM-15+0149KDAL V0301005N002152200059N0160935N5+02115-00065101315ADDAA101000095GF100991999999999999999999MA1101355099585REMMET09101/08/09 13:53:00 METAR KDAL 081953Z 10004KT 10SM CLR 21/M01 A2993 RMK AO2 SLP131 T02111006
0174722583139602009010820537+32847-096851FM-15+0149KDAL V0300805N002152200059N0160935N5+02175+00005101285ADDAA101000095GF100991999999999999999999MA1101325099545MD1640154+9999REMMET09601/08/09 14:53:00 METAR KDAL 082053Z 08004KT 10SM CLR 22/00 A2992 RMK AO2 SLP128 T02170000 56015
0154722583139602009010821537+32847-096851FM-15+0149KDAL V0301105N003152200059N0160935N5+02285+00005101265ADDAA101000095GF100991999999999999999999MA1101295099515REMMET09001/08/09 15:53:00 METAR KDAL 082153Z 11006KT 10SM CLR 23/00 A2991 RMK AO2 SLP126 T02280000
0154722583139602009010822537+32847-096851FM-15+0149KDAL V0301205N003152200059N0160935N5+02175+00005101245ADDAA101000095GF100991999999999999999999MA1101295099515REMMET09001/08/09 16:53:00 METAR KDAL 082253Z 12006KT 10SM CLR 22/00 A2991 RMK AO2 SLP124 T02170000
0202722583139602009010823536+32847-096851FM-15+0149KDAL V0301405N002652200059N0160935N5+01725+00065101245ADDAA101000095GA1005+999999999GD10991+9999999MA1101295099515MD1540054+9999REMMET11901/08/09 17:53:26 METAR KDAL 082353Z 14005KT 10SM CLR 17/01 A2991 RMK AO2 SLP124 T01720006 10228 20172 55005 FIBI (DCG)
0154722583139602009010900537+32847-096851FM-15+0149KDAL V0300805N003152200059N0160935N5+01445+00225101285ADDAA101000095GF100991999999999999999999MA1101325099545REMMET09001/08/09 18:53:00 METAR KDAL 090053Z 08006KT 10SM CLR 14/02 A2992 RMK AO2 SLP128 T01440022
0183722583139602009010901536+32847-096851FM-15+0149KDAL V0301105N003152200059N0160935N5+01615+00225101305ADDAA101000095GA1025+012195999GD11991+0121959MA1101325099545REMMET11401/08/09 20:29:26 METAR KDAL 090153Z 11006KT 10SM FEW040 16/02 A2992 RMK AO2 SLP130 FU FEW040 T01610022 FIBI (DCG)
0190722583139602009010902536+32847-096851FM-15+0149KDAL V0301205N003152200059N0160935N5+01445+00225101315ADDAA101000095GA1005+999999999GD10991+9999999MA1101325099545MD1140064+9999REMMET10701/08/09 20:53:26 METAR KDAL 090253Z 12006KT 10SM CLR 14/02 A2992 RMK AO2 SLP131 T01440022 51006 FIBI (DCG)
0222722583139602009010903537+32847-096851FM-15+0149KDAL V0301205N004152200079N0160935N5+01335+00175999999ADDAA101000095GA1999+999999001GF100991999999999999999999MA1101325099545REMMET09101/08/09 21:53:00 METAR KDAL 090353Z 12008KT 10SM SKC 13/02 A2992 RMK  A02 FLP129 T01330017EQDQ01    003SCCGA1R01   SKC7SKY009R02   SKC7GAS009
0222722583139602009010904537+32847-096851FM-15+0149KDAL V0301305N003652200079N0160935N5+01065+00175101295ADDAA101000095GA1999+999999001GF100991999999999999999999MA1101325099545REMMET09101/08/09 22:53:00 METAR KDAL 090453Z 13007KT 10SM SKC 11/02 A2992 RMK  A02 SLP129 T01060017EQDQ01    003SCCGA1R01   SKC7SKY009R02   SKC7GAS009
0218722583139602009010905537+32847-096851FM-15+0149KDAL V0301305N004652200059N0160935N5+01065+00175101235ADDAA101000095GF100991999999999999999999KA1999M+01891KA2999N+01061MA1101255099485MD1840064+9999REMMET11401/08/09 23:53:00 METAR KDAL 090553Z 13009KT 10SM CLR 11/02 A2990 RMK SLP123 T01060017 10189 20106 402280039 58006
0996722583139602009010905596+32847-096851SOD  +0149KDAL V030999999999999999999999999999+99999+99999999999ADDAA124000095AJ100009599999999AL12400095AN1024000095KA1240M+02285KA2240N+00395MG1099534100984OE11240058113023235OE22240044713023595OE33240018899999995REMSOD80124 HR PRECIPITATION (IN):0.00  SNOW DEPTH (IN):0     24 HR SNOWFALL (IN):0.0  24 HR MAX TEMP (F):73 24 HR MAX TEMP TIME (LST):1626 24 HR MIN TEMP (F):39 24 HR MIN TEMP TIME (LST):0656 AVERAGE STATION PRESSURE:29.390 MINIMUM SEA LEVEL PRESSURE:29.82 TIME OF OCCURRENCE:0204 PEAK WIND SPEED (MPH):13  PEAK WIND DIR (DEG):130 PEAK WIND TIME (LST):2323  FASTEST 2MIN SPEED (MPH):10 FASTEST 2MIN DIR (DEG):130 FASTEST 2MIN TIME (LST):2359 AVERAGE WIND SPEED (MPH):4.2  24 HR AVG TEMP (F):56 DEPART FROM NORMAL:+11  HEATING DEGREE DAYS:9   COOLING DEGREE DAYS:0   LATEST DAY MAX TEMP (0700-1900 LST):73  LATEST NIGHT MIN TEMP(1900-0800 LST):39 HOURLY INCREMENTAL PRECIPITATION VALUES (IN):.00 0.00 0.00 0.00 0.00 0.00 0.00 0.00 0.00 0.00 0.00 0.00 0.00 0.00 0.00 0.00 0.00 0.00 0.00 0.00 0.00 0.00 0.00 0.00EQDR01     N7GJS072R02     N7GKS075
0151722583139602009010906537+32847-096851FM-15+0149KDAL V0301405N004652200059N0160935N5+01065+00175101205ADDAA101000095GF100991999999999999999999MA1101255099485REMMET08701/09/09 00:53:00 METAR KDAL 090653Z 14009KT 10SM CLR 11/02 A2990 RMK  SLP120 T01060017
0169722583139602009010907536+32847-096851FM-15+0149KDAL V0301605N004652200059N0160935N5+01225+00225101195ADDAA101000095GA1005+999999999GD10991+9999999MA1101225099445REMMET10001/09/09 01:53:26 METAR KDAL 090753Z 16009KT 10SM CLR 12/02 A2989 RMK AO2 SLP119 T01220022 FIBI (SW)
0189722583139602009010908536+32847-096851FM-15+0149KDAL V0301405N005152200059N0160935N5+01175+00505101185ADDAA101000095GA1005+999999999GD10991+9999999MA1101225099445MD1640044+9999REMMET10601/09/09 02:53:26 METAR KDAL 090853Z 14010KT 10SM CLR 12/05 A2989 RMK AO2 SLP118 T01170050 56004 FIBI (SW)
0202722583139602009010909537+32847-096851FM-15+0149KDAL V0301405N005152200059N0160935N5+0110A+0080A999999ADDAA101000095GA1025+003055999GD11991+0030559GF102991999999999999999999MA1101225099445REMMET07201/09/09 03:53:00 METAR KDAL 090953Z 14010KT 10SM FEW010 11/08 A2989 RMKEQDR01    117TMP046R02    087DPT046
0165722583139602009010910217+32847-096851FM-16+0149KDAL V0301505N00465003665MN0160935N5+01305+01105999999ADDGA1075+003665999GD13991+0036659GF107991999999999999999999MA1101225099445REMMET08101/09/09 04:21:26 SPECI KDAL 091021Z 15009KT 10SM BKN012 13/11 A2989 RMK AO2 (SW)
0187722583139602009010910537+32847-096851FM-15+0149KDAL V0301605N00415003055MN0112655N5+01395+01175101155ADDAA101000095GA1085+003055999GD14991+0030559GF108991999999999999999999MA1101195099415REMMET09201/09/09 04:53:00 METAR KDAL 091053Z 16008KT 7SM OVC010 14/12 A2988 RMK AO2 SLP115 T01390117
0164722583139602009010911157+32847-096851FM-16+0149KDAL V0301505N00415002445MN0112655N5+01505+01405999999ADDGA1085+002445999GD14991+0024459GF108991999999999999999999MA1101195099415REMMET08001/09/09 05:15:26 SPECI KDAL 091115Z 15008KT 7SM OVC008 15/14 A2988 RMK AO2 (SW)
0176722583139602009010911277+32847-096851FM-16+0149KDAL V0301505N00415003055MN0112655N5+01605+01405999999ADDGA1085+003055999GD14991+0030559GF108991999999999999999999MA1101155099385REMMET09201/09/09 05:27:26 SPECI KDAL 091127Z 15008KT 7SM OVC010 16/14 A2987 RMK AO2 CIG 007V012 (SW)
0271722583139602009010911537+32847-096851FM-15+0149KDAL V0301505N00465003055MN0096565N5+01565+01445101115ADDAA101000095AU100001015AW1105GA1085+003055999GD14991+0030559GF108991999999999999999999KA1999M+01561KA2999N+01061MA1101155099385MD1840074+9999MW1101REMMET11301/09/09 05:53:00 METAR KDAL 091153Z 15009KT 6SM BR OVC010 16/14 A2987 RMK AO2 SLP111 T01560144 10156 20106 58007
0187722583139602009010912537+32847-096851FM-15+0149KDAL V0301505N00465004275MN0144845N5+01615+01505101105ADDAA101000095GA1085+004275999GD14991+0042759GF108991999999999999999999MA1101155099385REMMET09201/09/09 06:53:00 METAR KDAL 091253Z 15009KT 9SM OVC014 16/15 A2987 RMK AO2 SLP110 T01610150
0225722583139602009010913537+32847-096851FM-15+0149KDAL V0301505N00515003665MN0112655N5+01725+01565101145ADDAA101000095GA1075+003665999GA2085+004885999GD13991+0036659GD24991+0048859GF108991999999999999999999MA1101195099415REMMET09901/09/09 07:53:00 METAR KDAL 091353Z 15010KT 7SM BKN012 OVC016 17/16 A2988 RMK AO2 SLP114 T01720156
0240722583139602009010914467+32847-096851FM-16+0149KDAL V0301605N00675005185MN0144845N5+01805+01605999999ADDGA1045+003665999GA2075+005185999GA3085+008845999GD12991+0036659GD23991+0051859GD34991+0088459GF108991999999999999999999MA1101195099415REMMET09401/09/09 08:46:26 SPECI KDAL 091446Z 16013KT 9SM SCT012 BKN017 OVC029 18/16 A2988 RMK AO2 (GR)
0294722583139602009010914537+32847-096851FM-15+0149KDAL V0301705N00725005795MN0144845N5+01835+01615101135ADDAA101000095GA1045+003665999GA2075+005795999GA3085+008845999GD12991+0036659GD23991+0057959GD34991+0088459GF108991999999999999999999MA1101195099415MD1040024+9999OC101035REMMET11501/09/09 08:53:00 METAR KDAL 091453Z 17014G20KT 9SM SCT012 BKN019 OVC029 18/16 A2988 RMK AO2 SLP113 T01830161 50002
0237722583139602009010915537+32847-096851FM-15+0149KDAL V0301805N00725005495MN0160935N5+01945+01615101165ADDAA101000095GA1075+005495999GA2085+007325999GD13991+0054959GD24991+0073259GF108991999999999999999999MA1101195099415OC101035REMMET10301/09/09 09:53:00 METAR KDAL 091553Z 18014G20KT 10SM BKN018 OVC024 19/16 A2988 RMK AO2 SLP116 T01940161
0237722583139602009010916537+32847-096851FM-15+0149KDAL V0302005N00825007325MN0160935N5+02115+01565101095ADDAA101000095GA1075+007325999GA2075+008535999GD13991+0073259GD23991+0085359GF107991999999999999999999MA1101125099345OC101245REMMET10301/09/09 10:53:00 METAR KDAL 091653Z 20016G24KT 10SM BKN024 BKN028 21/16 A2986 RMK AO2 SLP109 T02110156
0313722583139602009010917537+32847-096851FM-15+0149KDAL V0302105N00885010975MN0160935N5+02225+01445100995ADDAA101000095GA1045+008535999GA2075+010975999GD12991+0085359GD23991+0109759GF107991999999999999999999KA1999M+02221KA2999N+01561MA1101025099245MD1840144+9999OC101085REMMET13901/09/09 11:53:00 METAR KDAL 091753Z 21017G21KT 10SM SCT028 BKN036 22/14 A2983 RMK AO2 PK WND 19030/1720 SLP099 T02220144 10222 20156 58014
0255722583139602009010918537+32847-096851FM-15+0149KDAL V0302005N00885091445MN0160935N5+02335+01445100855ADDAA101000095GA1045+010675999GA2075+091445999GD12991+0106759GD23991+0914459GF107991999999999999999999MA1100885099115OC101345REMMET12101/09/09 12:53:00 METAR KDAL 091853Z 20017G26KT 10SM SCT035 BKN300 23/14 A2979 RMK AO2 PK WND 21027/1832 SLP085 T02330144
0255722583139602009010919537+32847-096851FM-15+0149KDAL V0301905N007752200059N0160935N5+02445+01445100775ADDAA101000095GA1045+011895999GA2045+091445999GD12991+0118959GD22991+0914459GF104991999999999999999999MA1100815099045OC101085REMMET12101/09/09 13:53:00 METAR KDAL 091953Z 19015G21KT 10SM SCT039 SCT300 24/14 A2977 RMK AO2 PK WND 18026/1920 SLP077 T02440144
0246722583139602009010920537+32847-096851FM-15+0149KDAL V0301805N009852200059N0160935N5+02565+01395100695ADDAA101000095GA1025+013115999GA2045+091445999GD11991+0131159GD22991+0914459GF104991999999999999999999MA1100755098975MD1640284+9999REMMET10601/09/09 14:53:00 METAR KDAL 092053Z 18019KT 10SM FEW043 SCT300 26/14 A2975 RMK AO2 SLP069 T02560139 56028
0237722583139602009010921537+32847-096851FM-15+0149KDAL V0302005N007752200059N0160935N5+02565+01335100635ADDAA101000095GA1025+013115999GA2045+091445999GD11991+0131159GD22991+0914459GF104991999999999999999999MA1100685098915OC101085REMMET10301/09/09 15:53:00 METAR KDAL 092153Z 20015G21KT 10SM FEW043 SCT300 26/13 A2973 RMK AO2 SLP063 T02560133
0237722583139602009010922537+32847-096851FM-15+0149KDAL V0302005N006252200059N0160935N5+02505+01335100625ADDAA101000095GA1025+013115999GA2045+091445999GD11991+0131159GD22991+0914459GF104991999999999999999999MA1100685098915OC100985REMMET10301/09/09 16:53:00 METAR KDAL 092253Z 20012G19KT 10SM FEW043 SCT300 25/13 A2973 RMK AO2 SLP062 T02500133
0257722583139602009010923537+32847-096851FM-15+0149KDAL V0302005N005152200059N0160935N5+02395+01335100675ADDAA101000095GA1045+091445999GD12991+0914459GF104991999999999999999999KA1999M+02561KA2999N+02171MA1100715098945MD1540024+9999OC100885REMMET11401/09/09 17:53:00 METAR KDAL 092353Z 20010G17KT 10SM SCT300 24/13 A2974 RMK AO2 SLP067 T02390133 10256 20217 55002
0188722583139602009011000537+32847-096851FM-15+0149KDAL V0301905N004652200059N0160935N5+02335+01335100715ADDAA101000095GA1025+091445999GD11991+0914459GF102991999999999999999999MA1100755098975REMMET09301/09/09 18:53:00 METAR KDAL 100053Z 19009KT 10SM FEW300 23/13 A2975 RMK AO2 SLP071 T02330133
0193722583139602009011001537+32847-096851FM-15+0149KDAL V0302005N005752200059N0160935N5+02285+01395100785ADDAA101000095GA1025+091445999GD11991+0914459GF102991999999999999999999MA1100815099045REMMET09801/09/09 19:53:26 METAR KDAL 100153Z 20011KT 10SM FEW300 23/14 A2977 RMK AO2 SLP078 T02280139 (MG)
0208722583139602009011002537+32847-096851FM-15+0149KDAL V0302005N004152200059N0160935N5+02285+01395100815ADDAA101000095GA1025+091445999GD11991+0914459GF102991999999999999999999MA1100885099115MD1240154+9999REMMET09901/09/09 20:53:00 METAR KDAL 100253Z 20008KT 10SM FEW300 23/14 A2979 RMK AO2 SLP081 T02280139 52015
0199722583139602009011003537+32847-096851FM-15+0149KDAL V0302105N007752200059N0160935N5+02225+01395100855ADDAA101000095GA1025+091445999GD11991+0914459GF102991999999999999999999MA1100915099145OC100985REMMET09601/09/09 21:53:00 METAR KDAL 100353Z 21015G19KT 10SM FEW300 22/14 A2980 RMK AO2 SLP085 T02220139
0195722583139602009011004537+32847-096851FM-15+0149KDAL V0309999V002652200059N0160935N5+02065+01395101045ADDAA101000095GA1025+012195999GD11991+0121959GF102991999999999999999999MA1101125099345REMMET10001/09/09 22:53:00 METAR KDAL 100453Z VRB05KT 10SM FEW040 21/14 A2986 RMK AO2 SLP104 PRESRR T02060139
