0305722583139602010010100197+32847-096851FM-16+0149KDAL V0303305N00515004275MN0096565N5+00405+00305999999ADDAA101000021AU110010015AU200001015AW1105AW2515GA1025+002445999GA2075+004275999GA3085+010365999GD11991+0024459GD23991+0042759GD34991+0103659GF108991999999999999999999MA1102615100815MW1101MW2511REMMET10212/31/09 18:19:01 SPECI KDAL 010019Z 33010KT 6SM -DZ BR FEW008 BKN014 OVC034 04/03 A3030 RMK AO2 P0000
0306722583139602010010100537+32847-096851FM-15+0149KDAL V0303505N00675003355MN0080475N5+00335+00175102685ADDAA101000025AU110020015AU200001015AW1105AW2615GA1075+003355999GA2085+012805999GD13991+0033559GD24991+0128059GF108991999999999999999999MA1102685100885MW1101MW2611OC101085REMMET12612/31/09 18:53:01 METAR KDAL 010053Z 35013G21KT 5SM -RA BR BKN011 OVC042 03/02 A3032 RMK AO2 DZE46RAB46 SLP268 P0000 T00330017
0210722583139602010010101537+32847-096851FM-15+0149KDAL V0303305N00575003665MN0112655N5+00335+00175102825ADDAA101000025GA1085+003665999GD14991+0036659GF108991999999999999999999MA1102815101015OC100985REMMET10712/31/09 19:53:01 METAR KDAL 010153Z 33011G19KT 7SM OVC012 03/02 A3036 RMK AO2 RAE49 SLP282 P0000 T00330017
0236722583139602010010102207+32847-096851FM-16+0149KDAL V0303305N00675012505MN0160935N5+00305+00105999999ADDGA1045+003665999GA2045+005185999GA3085+012505999GD12991+0036659GD22991+0051859GD34991+0125059GF108991999999999999999999MA1102885101085REMMET09012/31/09 20:20:01 SPECI KDAL 010220Z 33013KT 10SM SCT012 SCT017 OVC041 03/01 A3038 RMK AO2
0311722583139602010010102537+32847-096851FM-15+0149KDAL V0303205N00675014335MN0128755N5+00285+00005102915ADDAA101000095AA203000021GA1025+003355999GA2045+004885999GA3085+014335999GD11991+0033559GD22991+0048859GD34991+0143359GF108991999999999999999999MA1102915101115MD1140364+9999OC101185REMMET12112/31/09 20:53:01 METAR KDAL 010253Z 32013G23KT 8SM FEW011 SCT016 OVC047 03/00 A3039 RMK AO2 SLP291 60000 T00280000 51036
0237722583139602010010103537+32847-096851FM-15+0149KDAL V0303405N00725019815MN0128755N5+00285-00065102975ADDAA101000095GA1025+003665999GA2085+019815999GD11991+0036659GD24991+0198159GF108991999999999999999999MA1102955101145OC101035REMMET10312/31/09 21:53:02 METAR KDAL 010353Z 34014G20KT 8SM FEW012 OVC065 03/M01 A3040 RMK AO2 SLP297 T00281006
0189722583139602010010104537+32847-096851FM-15+0149KDAL V0303305N005752200059N0160935N5+00175-00115103055ADDAA101000095GA1025+021345999GD11991+0213459GF102991999999999999999999MA1103055101245REMMET09412/31/09 22:53:01 METAR KDAL 010453Z 33011KT 10SM FEW070 02/M01 A3043 RMK AO2 SLP305 T00171011
0240722583139602010010105537+32847-096851FM-15+0149KDAL V0303305N005152200059N0160935N5+00115-00175103095ADDAA101000095AA206000021GF100991999999999999999999KA1999M+00441KA2999N+00111MA1103085101285MD1140184+9999REMMET12512/31/09 23:53:02 METAR KDAL 010553Z 33010KT 10SM CLR 01/M02 A3044 RMK AO2 SLP309 60000 T00111017 10044 20011 400780011 51018
1022722583139602010010105596+32847-096851SOD  +0149KDAL V030999999999999999999999999999+99999+99999999999ADDAA124002395AJ100009599999999AL12400095AN1024000095AX1015245KA1240M+00785KA2240N+00115MG1100514101464OE11240116232020475OE22240089433020495OE33240037699999995REMSOD81824 HR PRECIPITATION (IN):0.09  SNOW DEPTH (IN):0     24 HR SNOWFALL (IN):0.0  WEATHER(CODE):1  24 HR MAX TEMP (F):46 24 HR MAX TEMP TIME (LST):1316 24 HR MIN TEMP (F):34 24 HR MIN TEMP TIME (LST):2359 AVERAGE STATION PRESSURE:29.680 MINIMUM SEA LEVEL PRESSURE:29.96 TIME OF OCCURRENCE:0219 PEAK WIND SPEED (MPH):26  PEAK WIND DIR (DEG):320 PEAK WIND TIME (LST):2047  FASTEST 2MIN SPEED (MPH):20 FASTEST 2MIN DIR (DEG):330 FASTEST 2MIN TIME (LST):2049 AVERAGE WIND SPEED (MPH):8.4  24 HR AVG TEMP (F):40 DEPART FROM NORMAL: -6  HEATING DEGREE DAYS:25  COOLING DEGREE DAYS:0   LATEST DAY MAX TEMP (0700-1900 LST):46  LATEST NIGHT MIN TEMP(1900-0800 LST):41 HOURLY INCREMENTAL PRECIPITATION VALUES (IN):.00 0.00 0.00 0.00 0.00 0.00 0.00 0.00 0.00 T    0.01 T    T    0.01 0.02 0.01 0.04 T    T    T    0.00 0.00 0.00 0.00EQDR01     N7GJS072R02     N7GKS075
1373722583139602010010105596+32847-096851SOM  +0149KDAL V030999999999999999999999999999+99999+99999999999ADDAB10059199AD10030290102999999999AE1099049029009AH1005001092405585AH2010001392406005AH3015002092406005AH4020002092406005AH5030002892406085AH6045003892406305AI1060004892406375AI2080005690120135AI3100006390120135AI4120007490120135AI5150008690120315AI6180009790121005AK1000022599999AM1004892424999999999AN1024005699KB1744N+01395KB2744M+11175KB3744A+06285KC1N9-00441005995KC2M9+02272399995KD1744H06655KD2744C00005KE1009009139009MH110010U101909MK1103452810339099862400539REMSOM813PCP MTOT:2.15 DEPNRM:-0.5 PCP GT 24HRS:1.19 DATE(S):1-2 DAYS W/PCP >=.01:8  DAYS W/PCP >=.10:3  DAYS W/ PCP >=.50:1 DAYS W/PCP >=1.00:0 MSDP AMTS W/DATE-TIME TAGS:MIN:5 0.04  24/0558 MIN:10 0.05  24/0600 MIN:15 0.08  24/0600 MIN:20 0.08  24/0600 MIN:30 0.11  24/0608 MIN:45 0.15  24/0630 MIN:60 0.19  24/0637 MIN:80 0.22  01/2013 MIN:100 0.25  01/2013 MIN:120 0.29  01/2013 MIN:150 0.34  01/2031 MIN:180 0.38  01/2100 AVG DLY MIN:34.5  AVG DLY MAX:52.1  AVG MLY TMP:43.3  DEP NORM:-4.7  MIN TMP:24 DATE(S):10 05 MAX TMP:73  DATE(S):23 DAYS MAX <=32:0 DAYS MAX >=90:0  DAYS MIN <=32:13 DAYS MIN  <=0:0  AVG STP:29.560 LWST SLP:29.46 DATE/TIME:240727 HGST SLP:30.55 DATE/TIME:281033 HDD MTH TOT:665 DEP NORM:+138 SEASON(JUL 1-JUN 30):927 DEP NORM:+50 CDD MTH TOT:0 DEP NORM:-5 SEASON(JAN 1-DEC 31):2853 DEP NORM:-25EQDR01  2.157ABP071R02  1.197ADP081R03     87AE1100R04     17AE2103R05     17AE3106
0161722583139602010010106537+32847-096851FM-15+0149KDAL V0303405N005152200059N0160935N5+00065-00225103115ADDAA101000095GF100991999999999999999999MA1103125101315REMMET09701/01/10 00:53:02 METAR KDAL 010653Z 34010KT 10SM CLR 01/M02 A3045 RMK AO2 SLP311 T00061022 (DCG)
0161722583139602010010107537+32847-096851FM-15+0149KDAL V0303405N004152200059N0160935N5+00005-00395103135ADDAA101000095GF100991999999999999999999MA1103125101315REMMET09701/01/10 01:53:02 METAR KDAL 010753Z 34008KT 10SM CLR 00/M04 A3045 RMK AO2 SLP313 T00001039 (DCG)
0182722583139602010010108537+32847-096851FM-15+0149KDAL V0303405N003152200059N0160935N5-00065-00395103155ADDAA101000095GF100991999999999999999999MA1103155101355MD1340054+9999REMMET10401/01/10 02:53:02 METAR KDAL 010853Z 34006KT 10SM CLR M01/M04 A3046 RMK AO2 SLP315 T10061039 53005 (DCG)
0162722583139602010010109537+32847-096851FM-15+0149KDAL V0303305N003152200059N0160935N5-00115-00445103155ADDAA101000095GF100991999999999999999999MA1103155101355REMMET09801/01/10 03:53:02 METAR KDAL 010953Z 33006KT 10SM CLR M01/M04 A3046 RMK AO2 SLP315 T10111044 (DCG)
0162722583139602010010110537+32847-096851FM-15+0149KDAL V0303305N002652200059N0160935N5-00175-00395103125ADDAA101000095GF100991999999999999999999MA1103125101315REMMET09801/01/10 04:53:02 METAR KDAL 011053Z 33005KT 10SM CLR M02/M04 A3045 RMK AO2 SLP312 T10171039 (DCG)
0237722583139602010010111537+32847-096851FM-15+0149KDAL V0303005N002652200059N0160935N5-00175-00395103135ADDAA101000095AA224002391GF100991999999999999999999KA1999M+00111KA2999N-00221MA1103125101315MD1540024+9999REMMET12201/01/10 05:53:02 METAR KDAL 011153Z 30005KT 10SM CLR M02/M04 A3045 RMK AO2 SLP313 70009 T10171039 10011 21022 55002 (DCG)
0162722583139602010010112537+32847-096851FM-15+0149KDAL V0303105N002152200059N0160935N5-00225-00445103245ADDAA101000095GF100991999999999999999999MA1103225101415REMMET09801/01/10 06:53:02 METAR KDAL 011253Z 31004KT 10SM CLR M02/M04 A3048 RMK AO2 SLP324 T10221044 (DCG)
0160722583139602010010113537+32847-096851FM-15+0149KDAL V0309999C000052200059N0128755N5-00175-00395103255ADDAA101000095GF100991999999999999999999MA1103255101455REMMET09601/01/10 07:53:02 METAR KDAL 011353Z 00000KT 8SM CLR M02/M04 A3049 RMK AO2 SLP325 T10171039 (JM)
0219722583139602010010114537+32847-096851FM-15+0149KDAL V0303205N001552200059N0112655N5-00065-00395103285ADDAA101000095GA1025+091445999GD11991+0914459GF102991999999999999999999MA1103255101455MD1140154+9999REMMET11001/01/10 08:53:02 METAR KDAL 011453Z 32003KT 7SM FEW300 M01/M04 A3049 RMK AO2 SLP328 HAZY T10061039 51015 (JM)
0194722583139602010010115537+32847-096851FM-15+0149KDAL V0309999C000052200059N0160935N5+00115-00335103345ADDAA101000095GA1045+091445999GD12991+0914459GF104991999999999999999999MA1103325101515REMMET09901/01/10 09:53:02 METAR KDAL 011553Z 00000KT 10SM SCT300 01/M03 A3051 RMK AO2 SLP334 T00111033 (JM)
0194722583139602010010116537+32847-096851FM-15+0149KDAL V0309999C000052200059N0160935N5+00285-00285103325ADDAA101000095GA1045+091445999GD12991+0914459GF104991999999999999999999MA1103325101515REMMET09901/01/10 10:53:02 METAR KDAL 011653Z 00000KT 10SM SCT300 03/M03 A3051 RMK AO2 SLP332 T00281028 (JM)
0252722583139602010010117537+32847-096851FM-15+0149KDAL V0309999C000052200059N0160935N5+00565-00225103195ADDAA101000095GA1025+091445999GD11991+0914459GF102991999999999999999999KA1999M+00561KA2999N-00281MA1103185101385MD1840094+9999REMMET11701/01/10 11:53:02 METAR KDAL 011753Z 00000KT 10SM FEW300 06/M02 A3047 RMK AO2 SLP319 T00561022 10056 21028 58009 (JM)
0232722583139602010010118537+32847-096851FM-15+0149KDAL V0309999C000052200059N0160935N5+00785-00445103005ADDAA101000095GA1025+054865999GA2045+091445999GD11991+0548659GD22991+0914459GF104991999999999999999999MA1102985101185REMMET10601/01/10 12:53:02 METAR KDAL 011853Z 00000KT 10SM FEW180 SCT300 08/M04 A3041 RMK AO2 SLP300 T00781044 (JM)
0194722583139602010010119537+32847-096851FM-15+0149KDAL V0309999C000052200059N0160935N5+00895-00505102885ADDAA101000095GA1025+054865999GD11991+0548659GF102991999999999999999999MA1102885101085REMMET09901/01/10 13:53:02 METAR KDAL 011953Z 00000KT 10SM FEW180 09/M05 A3038 RMK AO2 SLP288 T00891050 (JM)
0252722583139602010010120537+32847-096851FM-15+0149KDAL V0309999C000052200059N0160935N5+00945-00445102835ADDAA101000095GA1025+054865999GA2045+091445999GD11991+0548659GD22991+0914459GF104991999999999999999999MA1102815101015MD1640344+9999REMMET11201/01/10 14:53:02 METAR KDAL 012053Z 00000KT 10SM FEW180 SCT300 09/M04 A3036 RMK AO2 SLP283 T00941044 56034 (JM)
0194722583139602010010121537+32847-096851FM-15+0149KDAL V0309999C000052200059N0160935N5+01065-00395102835ADDAA101000095GA1025+091445999GD11991+0914459GF102991999999999999999999MA1102815101015REMMET09901/01/10 15:53:02 METAR KDAL 012153Z 00000KT 10SM FEW300 11/M04 A3036 RMK AO2 SLP283 T01061039 (MG)
0160722583139602010010122537+32847-096851FM-15+0149KDAL V0301305N001552200059N0160935N5+01005-00395102845ADDAA101000095GF100991999999999999999999MA1102845101045REMMET09601/01/10 16:53:02 METAR KDAL 012253Z 13003KT 10SM CLR 10/M04 A3037 RMK AO2 SLP284 T01001039 (MG)
0218722583139602010010123537+32847-096851FM-15+0149KDAL V0301305N002652200059N0160935N5+00725-00285102845ADDAA101000095GF100991999999999999999999KA1999M+01061KA2999N+00501MA1102845101045MD1040004+9999REMMET11401/01/10 17:53:02 METAR KDAL 012353Z 13005KT 10SM CLR 07/M03 A3037 RMK AO2 SLP284 T00721028 10106 20050 50000 (MG)
0155722583139602010010200537+32847-096851FM-15+0149KDAL V0301605N003652200059N0160935N5+00565-00225102855ADDAA101000095GF100991999999999999999999MA1102845101045REMMET09101/01/10 18:53:02 METAR KDAL 020053Z 16007KT 10SM CLR 06/M02 A3037 RMK AO2 SLP285 T00561022
0155722583139602010010201537+32847-096851FM-15+0149KDAL V0301405N002652200059N0160935N5+00565-00225102895ADDAA101000095GF100991999999999999999999MA1102885101085REMMET09101/01/10 19:53:02 METAR KDAL 020153Z 14005KT 10SM CLR 06/M02 A3038 RMK AO2 SLP289 T00561022
0175722583139602010010202537+32847-096851FM-15+0149KDAL V0301405N002652200059N0160935N5+00445-00225102895ADDAA101000095GF100991999999999999999999MA1102885101085MD1040054+9999REMMET09701/01/10 20:53:02 METAR KDAL 020253Z 14005KT 10SM CLR 04/M02 A3038 RMK AO2 SLP289 T00441022 50005
0155722583139602010010203537+32847-096851FM-15+0149KDAL V0301305N002652200059N0160935N5+00285-00285102875ADDAA101000095GF100991999999999999999999MA1102845101045REMMET09101/01/10 21:53:01 METAR KDAL 020353Z 13005KT 10SM CLR 03/M03 A3037 RMK AO2 SLP287 T00281028
0155722583139602010010204537+32847-096851FM-15+0149KDAL V0301205N002152200059N0160935N5+00335-00335102905ADDAA101000095GF100991999999999999999999MA1102885101085REMMET09101/01/10 22:53:01 METAR KDAL 020453Z 12004KT 10SM CLR 03/M03 A3038 RMK AO2 SLP290 T00331033
0223722583139602010010205537+32847-096851FM-15+0149KDAL V0309999C000052200059N0160935N5+00285-00285102895ADDAA101000095GF100991999999999999999999KA1999M+00721KA2999N+00221MA1102885101085MD1340014+9999REMMET11901/01/10 23:53:02 METAR KDAL 020553Z 00000KT 10SM CLR 03/M03 A3038 RMK AO2 SLP289 T00281028 10072 20022 401061028 53001
0939722583139602010010205596+32847-096851SOD  +0149KDAL V030999999999999999999999999999+99999+99999999999ADDAA124000095AJ100009199999999AN1024000099KA1240M+01065KA2240N-00275MG1101194102814OE11240076034001425OE22240062634001425OE33240017499999995REMSOD75424 HR PRECIPITATION (IN):0.00  24 HR MAX TEMP (F):51 24 HR MAX TEMP TIME (LST):1619 24 HR MIN TEMP (F):27 24 HR MIN TEMP TIME (LST):0743 AVERAGE STATION PRESSURE:29.880 MINIMUM SEA LEVEL PRESSURE:30.36 TIME OF OCCURRENCE:1738 PEAK WIND SPEED (MPH):17  PEAK WIND DIR (DEG):340 PEAK WIND TIME (LST):0142  FASTEST 2MIN SPEED (MPH):14 FASTEST 2MIN DIR (DEG):340 FASTEST 2MIN TIME (LST):0142 AVERAGE WIND SPEED (MPH):3.9  24 HR AVG TEMP (F):39 DEPART FROM NORMAL: -7  HEATING DEGREE DAYS:26  COOLING DEGREE DAYS:0   LATEST DAY MAX TEMP (0700-1900 LST):51  LATEST NIGHT MIN TEMP(1900-0800 LST):27 HOURLY INCREMENTAL PRECIPITATION VALUES (IN):.00 0.00 0.00 0.00 0.00 0.00 0.00 0.00 0.00 0.00 0.00 0.00 0.00 0.00 0.00 0.00 0.00 0.00 0.00 0.00 0.00 0.00 0.00 0.00EQDR01     N7GJS072R02     N7GKS075
0161722583139602010010206537+32847-096851FM-15+0149KDAL V0309999C000052200059N0160935N5+00225-00285102865ADDAA101000095GF100991999999999999999999MA1102845101045REMMET09701/02/10 00:53:02 METAR KDAL 020653Z 00000KT 10SM CLR 02/M03 A3037 RMK AO2 SLP286 T00221028 (ALA)
0161722583139602010010207537+32847-096851FM-15+0149KDAL V0301305N001552200059N0160935N5+00065-00335102815ADDAA101000095GF100991999999999999999999MA1102815101015REMMET09701/02/10 01:53:02 METAR KDAL 020753Z 13003KT 10SM CLR 01/M03 A3036 RMK AO2 SLP281 T00061033 (ALA)
0181722583139602010010208537+32847-096851FM-15+0149KDAL V0309999C000052200059N0160935N5+00065-00335102815ADDAA101000095GF100991999999999999999999MA1102815101015MD1540074+9999REMMET10301/02/10 02:53:02 METAR KDAL 020853Z 00000KT 10SM CLR 01/M03 A3036 RMK AO2 SLP281 T00061033 55007 (ALA)
0161722583139602010010209537+32847-096851FM-15+0149KDAL V0309999C000052200059N0160935N5+00065-00335102765ADDAA101000095GF100991999999999999999999MA1102745100945REMMET09701/02/10 03:53:02 METAR KDAL 020953Z 00000KT 10SM CLR 01/M03 A3034 RMK AO2 SLP276 T00061033 (ALA)
0161722583139602010010210537+32847-096851FM-15+0149KDAL V0309999C000052200059N0160935N5+00005-00335102765ADDAA101000095GF100991999999999999999999MA1102745100945REMMET09701/02/10 04:53:02 METAR KDAL 021053Z 00000KT 10SM CLR 00/M03 A3034 RMK AO2 SLP276 T00001033 (ALA)
0238722583139602010010211537+32847-096851FM-15+0149KDAL V0300605N002152200059N0160935N5+00005-00335102825ADDAA101000095GF100991999999999999999999KA1999M+00281KA2999N-00111MA1102815101015MD1340004+9999REMMET11501/02/10 05:53:02 METAR KDAL 021153Z 06004KT 10SM CLR 00/M03 A3036 RMK AO2 SLP282 T00001033 10028 21011 53000 (ALA)EQDQ01+000002APC3  
0161722583139602010010212537+32847-096851FM-15+0149KDAL V0300605N002652200059N0160935N5+00005-00285102885ADDAA101000095GF100991999999999999999999MA1102885101085REMMET09701/02/10 06:53:02 METAR KDAL 021253Z 06005KT 10SM CLR 00/M03 A3038 RMK AO2 SLP288 T00001028 (ALA)
0194722583139602010010213537+32847-096851FM-15+0149KDAL V0300505N003652200059N0160935N5+00005-00285102935ADDAA101000095GA1025+045725999GD11991+0457259GF102991999999999999999999MA1102915101115REMMET09901/02/10 07:53:02 METAR KDAL 021353Z 05007KT 10SM FEW150 00/M03 A3039 RMK AO2 SLP293 T00001028 (JM)
0214722583139602010010214537+32847-096851FM-15+0149KDAL V0300405N002652200059N0160935N5+00115-00285102965ADDAA101000095GA1025+045725999GD11991+0457259GF102991999999999999999999MA1102955101145MD1140134+9999REMMET10501/02/10 08:53:02 METAR KDAL 021453Z 04005KT 10SM FEW150 01/M03 A3040 RMK AO2 SLP296 T00111028 51013 (JM)
0194722583139602010010215537+32847-096851FM-15+0149KDAL V0301205N002652200059N0160935N5+00285-00285102985ADDAA101000095GA1025+045725999GD11991+0457259GF102991999999999999999999MA1102955101145REMMET09901/02/10 09:53:02 METAR KDAL 021553Z 12005KT 10SM FEW150 03/M03 A3040 RMK AO2 SLP298 T00281028 (JM)
0194722583139602010010216537+32847-096851FM-15+0149KDAL V0301305N001552200059N0160935N5+00565-00175102925ADDAA101000095GA1025+045725999GD11991+0457259GF102991999999999999999999MA1102915101115REMMET09901/02/10 10:53:02 METAR KDAL 021653Z 13003KT 10SM FEW150 06/M02 A3039 RMK AO2 SLP292 T00561017 (JM)
0252722583139602010010217537+32847-096851FM-15+0149KDAL V0301705N002152200059N0160935N5+00785-00115102775ADDAA101000095GA1025+051825999GD11991+0518259GF102991999999999999999999KA1999M+00781KA2999N-00061MA1102785100985MD1840184+9999REMMET11701/02/10 11:53:02 METAR KDAL 021753Z 17004KT 10SM FEW170 08/M01 A3035 RMK AO2 SLP277 T00781011 10078 21006 58018 (JM)
0194722583139602010010218537+32847-096851FM-15+0149KDAL V0301505N003152200059N0160935N5+00945-00065102645ADDAA101000095GA1025+054865999GD11991+0548659GF102991999999999999999999MA1102645100845REMMET09901/02/10 12:53:02 METAR KDAL 021853Z 15006KT 10SM FEW180 09/M01 A3031 RMK AO2 SLP264 T00941006 (JM)
0205722583139602010010219537+32847-096851FM-15+0149KDAL V0301505N004152200059N0160935N5+01115-00065102515ADDAA101000095GA1025+057915999GD11991+0579159GF102991999999999999999999MA1102515100715OC100775REMMET10201/02/10 13:53:02 METAR KDAL 021953Z 15008G15KT 10SM FEW190 11/M01 A3027 RMK AO2 SLP251 T01111006 (JM)
0252722583139602010010220537+32847-096851FM-15+0149KDAL V0301705V004152200059N0160935N5+01175-00115102435ADDAA101000095GA1025+015245999GA2045+060965999GD11991+0152459GD22991+0609659GF104991999999999999999999MA1102445100645MD1640324+9999REMMET11201/02/10 14:53:02 METAR KDAL 022053Z 17008KT 10SM FEW050 SCT200 12/M01 A3025 RMK AO2 SLP243 T01171011 56032 (JM)
0194722583139602010010221537+32847-096851FM-15+0149KDAL V0301605N003152200059N0160935N5+01115-00175102375ADDAA101000095GA1025+076205999GD11991+0762059GF102991999999999999999999MA1102375100585REMMET09901/02/10 15:53:02 METAR KDAL 022153Z 16006KT 10SM FEW250 11/M02 A3023 RMK AO2 SLP237 T01111017 (JM)
0194722583139602010010222537+32847-096851FM-15+0149KDAL V0301505N005752200059N0160935N5+01005-00225102325ADDAA101000095GA1025+076205999GD11991+0762059GF102991999999999999999999MA1102305100515REMMET09901/02/10 16:53:02 METAR KDAL 022253Z 15011KT 10SM FEW250 10/M02 A3021 RMK AO2 SLP232 T01001022 (MG)
0252722583139602010010223537+32847-096851FM-15+0149KDAL V0301505N004652200059N0160935N5+00835-00175102335ADDAA101000095GA1025+076205999GD11991+0762059GF102991999999999999999999KA1999M+01171KA2999N+00781MA1102345100545MD1540104+9999REMMET11701/02/10 17:53:02 METAR KDAL 022353Z 15009KT 10SM FEW250 08/M02 A3022 RMK AO2 SLP233 T00831017 10117 20078 55010 (MG)
0189722583139602010010300537+32847-096851FM-15+0149KDAL V0301205N003652200059N0160935N5+00675-00225102355ADDAA101000095GA1025+076205999GD11991+0762059GF102991999999999999999999MA1102345100545REMMET09401/02/10 18:53:01 METAR KDAL 030053Z 12007KT 10SM FEW250 07/M02 A3022 RMK AO2 SLP235 T00671022
0189722583139602010010301537+32847-096851FM-15+0149KDAL V0301105N002652200059N0160935N5+00675-00175102345ADDAA101000095GA1025+076205999GD11991+0762059GF102991999999999999999999MA1102345100545REMMET09401/02/10 19:53:02 METAR KDAL 030153Z 11005KT 10SM FEW250 07/M02 A3022 RMK AO2 SLP234 T00671017
0175722583139602010010302537+32847-096851FM-15+0149KDAL V0301105N003152200059N0160935N5+00615-00115102325ADDAA101000095GF100991999999999999999999MA1102305100515MD1840014+9999REMMET09701/02/10 20:53:02 METAR KDAL 030253Z 11006KT 10SM CLR 06/M01 A3021 RMK AO2 SLP232 T00611011 58001
0227722583139602010010303537+32847-096851FM-15+0149KDAL V0301305N004652200059N0160935N5+00395-00225102345ADDAA101000095GA1025+042675999GA2045+076205999GD11991+0426759GD22991+0762059GF104991999999999999999999MA1102345100545REMMET10101/02/10 21:53:02 METAR KDAL 030353Z 13009KT 10SM FEW140 SCT250 04/M02 A3022 RMK AO2 SLP234 T00391022
0189722583139602010010304537+32847-096851FM-15+0149KDAL V0301305N003152200059N0160935N5+00565-00225102335ADDAA101000095GA1025+076205999GD11991+0762059GF102991999999999999999999MA1102345100545REMMET09401/02/10 22:53:02 METAR KDAL 030453Z 13006KT 10SM FEW250 06/M02 A3022 RMK AO2 SLP233 T00561022
0257722583139602010010305537+32847-096851FM-15+0149KDAL V0301405N002652200059N0160935N5+00335-00225102385ADDAA101000095GA1025+076205999GD11991+0762059GF102991999999999999999999KA1999M+00831KA2999N+00331MA1102375100585MD1340064+9999REMMET12201/02/10 23:53:01 METAR KDAL 030553Z 14005KT 10SM FEW250 03/M02 A3023 RMK AO2 SLP238 T00331022 10083 20033 401171011 53006
0996722583139602010010305596+32847-096851SOD  +0149KDAL V030999999999999999999999999999+99999+99999999999ADDAA124000095AJ100009599999999AL12400095AN1024000095KA1240M+01175KA2240N-00105MG1100764102304OE11240076015017015OE22240062616017175OE33240025999999995REMSOD80124 HR PRECIPITATION (IN):0.00  SNOW DEPTH (IN):0     24 HR SNOWFALL (IN):0.0  24 HR MAX TEMP (F):53 24 HR MAX TEMP TIME (LST):1541 24 HR MIN TEMP (F):30 24 HR MIN TEMP TIME (LST):0537 AVERAGE STATION PRESSURE:29.755 MINIMUM SEA LEVEL PRESSURE:30.21 TIME OF OCCURRENCE:2210 PEAK WIND SPEED (MPH):17  PEAK WIND DIR (DEG):150 PEAK WIND TIME (LST):1701  FASTEST 2MIN SPEED (MPH):14 FASTEST 2MIN DIR (DEG):160 FASTEST 2MIN TIME (LST):1717 AVERAGE WIND SPEED (MPH):5.8  24 HR AVG TEMP (F):42 DEPART FROM NORMAL: -4  HEATING DEGREE DAYS:23  COOLING DEGREE DAYS:0   LATEST DAY MAX TEMP (0700-1900 LST):53  LATEST NIGHT MIN TEMP(1900-0800 LST):30 HOURLY INCREMENTAL PRECIPITATION VALUES (IN):.00 0.00 0.00 0.00 0.00 0.00 0.00 0.00 0.00 0.00 0.00 0.00 0.00 0.00 0.00 0.00 0.00 0.00 0.00 0.00 0.00 0.00 0.00 0.00EQDR01     N7GJS072R02     N7GKS075
0232722583139602010010306537+32847-096851FM-15+0149KDAL V0301005N002652200059N0160935N5+00335-00225102365ADDAA101000095GA1025+021345999GA2045+045725999GD11991+0213459GD22991+0457259GF104991999999999999999999MA1102375100585REMMET10601/03/10 00:53:02 METAR KDAL 030653Z 10005KT 10SM FEW070 SCT150 03/M02 A3023 RMK AO2 SLP236 T00331022 (MO)
0232722583139602010010307537+32847-096851FM-15+0149KDAL V0300905N002652200059N0160935N5+00285-00175102365ADDAA101000095GA1025+021345999GA2045+045725999GD11991+0213459GD22991+0457259GF104991999999999999999999MA1102375100585REMMET10601/03/10 01:53:02 METAR KDAL 030753Z 09005KT 10SM FEW070 SCT150 03/M02 A3023 RMK AO2 SLP236 T00281017 (MO)
0271722583139602010010308537+32847-096851FM-15+0149KDAL V0300905N003152200059N0160935N5+00285-00175102385ADDAA101000095GA1025+021345999GA2045+045725999GD11991+0213459GD22991+0457259GF104991999999999999999999MA1102375100585MD1340004+9999REMMET11201/03/10 02:53:02 METAR KDAL 030853Z 09006KT 10SM FEW070 SCT150 03/M02 A3023 RMK AO2 SLP238 T00281017 53000 (MO)EQDQ01+000032APCTEN
0194722583139602010010309537+32847-096851FM-15+0149KDAL V0301005N002652200059N0160935N5+00285-00115102375ADDAA101000095GA1025+021345999GD11991+0213459GF102991999999999999999999MA1102375100585REMMET09901/03/10 03:53:02 METAR KDAL 030953Z 10005KT 10SM FEW070 03/M01 A3023 RMK AO2 SLP237 T00281011 (MO)
0194722583139602010010310537+32847-096851FM-15+0149KDAL V0301305N003652200059N0160935N5+00175-00115102345ADDAA101000095GA1045+024385999GD12991+0243859GF104991999999999999999999MA1102345100545REMMET09901/03/10 04:53:02 METAR KDAL 031053Z 13007KT 10SM SCT080 02/M01 A3022 RMK AO2 SLP234 T00171011 (MO)
0252722583139602010010311537+32847-096851FM-15+0149KDAL V0301205N00265024385MN0160935N5+00175-00115102395ADDAA101000095GA1075+024385999GD13991+0243859GF107991999999999999999999KA1999M+00391KA2999N+00111MA1102375100585MD1540004+9999REMMET11701/03/10 05:53:02 METAR KDAL 031153Z 12005KT 10SM BKN080 02/M01 A3023 RMK AO2 SLP239 T00171011 10039 20011 55000 (MO)
0232722583139602010010312537+32847-096851FM-15+0149KDAL V0301005N00265024385MN0160935N5+00225-00065102425ADDAA101000095GA1025+016765999GA2075+024385999GD11991+0167659GD23991+0243859GF107991999999999999999999MA1102405100615REMMET10601/03/10 06:53:02 METAR KDAL 031253Z 10005KT 10SM FEW055 BKN080 02/M01 A3024 RMK AO2 SLP242 T00221006 (MO)
0232722583139602010010313537+32847-096851FM-15+0149KDAL V0301005N00465022865MN0160935N5+00285-00065102455ADDAA101000095GA1025+016765999GA2075+022865999GD11991+0167659GD23991+0228659GF107991999999999999999999MA1102445100645REMMET10601/03/10 07:53:02 METAR KDAL 031353Z 10009KT 10SM FEW055 BKN075 03/M01 A3025 RMK AO2 SLP245 T00281006 (JM)
0251722583139602010010314537+32847-096851FM-15+0149KDAL V0301305N00415022865MN0160935N5+00285+00005102505ADDAA101000095GA1025+015245999GA2085+022865999GD11991+0152459GD24991+0228659GF108991999999999999999999MA1102515100715MD1340104+9999REMMET11101/03/10 08:53:02 METAR KDAL 031453Z 13008KT 10SM FEW050 OVC075 03/00 A3027 RMK AO2 SLP250 T00280000 53010 (JM)
0241722583139602010010315197+32847-096851FM-16+0149KDAL V0301305N00365022865MN0160935N5+00305+00005999999ADDGA1025+002445999GA2045+014945999GA3085+022865999GD11991+0024459GD22991+0149459GD34991+0228659GF108991999999999999999999MA1102545100745REMMET09501/03/10 09:19:02 SPECI KDAL 031519Z 13007KT 10SM FEW008 SCT049 OVC075 03/00 A3028 RMK AO2 (JM)
0269722583139602010010315537+32847-096851FM-15+0149KDAL V0301405N00265010975MN0160935N5+00335+00005102605ADDAA101000095GA1025+002445999GA2075+010975999GA3085+022865999GD11991+0024459GD23991+0109759GD34991+0228659GF108991999999999999999999MA1102615100815REMMET11201/03/10 09:53:02 METAR KDAL 031553Z 14005KT 10SM FEW008 BKN036 OVC075 03/00 A3030 RMK AO2 SLP260 T00330000 (JM)
0269722583139602010010316537+32847-096851FM-15+0149KDAL V0301405N00265010975MN0160935N5+00395+00005102645ADDAA101000095GA1025+003355999GA2045+008845999GA3085+010975999GD11991+0033559GD22991+0088459GD34991+0109759GF108991999999999999999999MA1102645100845REMMET11201/03/10 10:53:02 METAR KDAL 031653Z 14005KT 10SM FEW011 SCT029 OVC036 04/00 A3031 RMK AO2 SLP264 T00390000 (JM)
0338722583139602010010317537+32847-096851FM-15+0149KDAL V0301405N00265009755MN0160935N5+00565+00065102565ADDAA101000095GA1025+004575999GA2045+008235999GA3085+009755999GD11991+0045759GD22991+0082359GD34991+0097559GF108991999999999999999999KA1999M+00561KA2999N+00171MA1102545100745MD1040064+9999REMMET14101/03/10 11:53:02 METAR KDAL 031753Z 14005KT 10SM FEW015 SCT027 OVC032 06/01 A3028 RMK AO2 SLP256 BINOVC OHD T00560006 10056 20017 50006 (JM)
0269722583139602010010318537+32847-096851FM-15+0149KDAL V0309999C00005009755MN0160935N5+00565+00065102495ADDAA101000095GA1025+006405999GA2075+009755999GA3085+015245999GD11991+0064059GD23991+0097559GD34991+0152459GF108991999999999999999999MA1102515100715REMMET11201/03/10 12:53:02 METAR KDAL 031853Z 00000KT 10SM FEW021 BKN032 OVC050 06/01 A3027 RMK AO2 SLP249 T00560006 (JM)
0269722583139602010010319537+32847-096851FM-15+0149KDAL V0309999C000052200059N0160935N5+00725+00115102455ADDAA101000095GA1025+010675999GA2045+012805999GA3045+019815999GD11991+0106759GD22991+0128059GD32991+0198159GF104991999999999999999999MA1102445100645REMMET11201/03/10 13:53:02 METAR KDAL 031953Z 00000KT 10SM FEW035 SCT042 SCT065 07/01 A3025 RMK AO2 SLP245 T00720011 (JM)
0241722583139602010010320117+32847-096851FM-16+0149KDAL V0303105N00265010675MN0160935N5+00705+00105999999ADDGA1045+007625999GA2075+010675999GA3075+012805999GD12991+0076259GD23991+0106759GD33991+0128059GF107991999999999999999999MA1102445100645REMMET09501/03/10 14:11:02 SPECI KDAL 032011Z 31005KT 10SM SCT025 BKN035 BKN042 07/01 A3025 RMK AO2 (JM)
0203722583139602010010320517+32847-096851FM-16+0149KDAL V0303605N00215008535MN0160935N5+00705+00105999999ADDGA1075+008535999GA2085+010675999GD13991+0085359GD24991+0106759GF108991999999999999999999MA1102475100685REMMET08801/03/10 14:51:02 SPECI KDAL 032051Z 36004KT 10SM BKN028 OVC035 07/01 A3026 RMK AO2 (JM)
0213722583139602010010320537+32847-096851FM-15+0149KDAL V0303605N00365008535MN0160935N5+00725+00115102485ADDAA101000095GA1085+008535999GD14991+0085359GF108991999999999999999999MA1102475100685MD1540084+9999REMMET10401/03/10 14:53:02 METAR KDAL 032053Z 36007KT 10SM OVC028 07/01 A3026 RMK AO2 SLP248 T00720011 55008 (JM)
0194722583139602010010321537+32847-096851FM-15+0149KDAL V0300305N00415008845MN0160935N5+00675+00115102545ADDAA101000095GA1085+008845999GD14991+0088459GF108991999999999999999999MA1102545100745REMMET09901/03/10 15:53:02 METAR KDAL 032153Z 03008KT 10SM OVC029 07/01 A3028 RMK AO2 SLP254 T00670011 (DCG)
0242722583139602010010322537+32847-096851FM-15+0149KDAL V0303605N00575006105MN0128755N5+00565+00065102615ADDAA101000095GA1075+006105999GA2085+008845999GD13991+0061059GD24991+0088459GF108991999999999999999999MA1102615100815OC100935REMMET10801/03/10 16:53:02 METAR KDAL 032253Z 36011G18KT 8SM BKN020 OVC029 06/01 A3030 RMK AO2 SLP261 T00560006 (DCG)
0290722583139602010010323537+32847-096851FM-15+0149KDAL V0303605N00575006715MN0160935N5+00445+00005102685ADDAA101000095GA1075+006715999GA2085+008235999GD13991+0067159GD24991+0082359GF108991999999999999999999KA1999M+00781KA2999N+00441MA1102685100885MD1140194+9999REMMET12401/03/10 17:53:02 METAR KDAL 032353Z 36011KT 10SM BKN022 OVC027 04/00 A3032 RMK AO2 SLP268 T00440000 10078 20044 51019 (DCG)
0188722583139602010010400537+32847-096851FM-15+0149KDAL V0303505N00515006105MN0160935N5+00395+00005102785ADDAA101000095GA1085+006105999GD14991+0061059GF108991999999999999999999MA1102785100985REMMET09301/03/10 18:53:02 METAR KDAL 040053Z 35010KT 10SM OVC020 04/00 A3035 RMK AO2 SLP278 T00390000
0189722583139602010010401537+32847-096851FM-15+0149KDAL V0300105N00575005795MN0160935N5+00335-00115102855ADDAA101000095GA1085+005795999GD14991+0057959GF108991999999999999999999MA1102845101045REMMET09401/03/10 19:53:02 METAR KDAL 040153Z 01011KT 10SM OVC019 03/M01 A3037 RMK AO2 SLP285 T00331011
0300722583139602010010402537+32847-096851FM-15+0149KDAL V0303605N00515007015MN0128755N5+00225-00175102945ADDAA101000095GA1025+004885999GA2085+007015999GD11991+0048859GD24991+0070159GF108991999999999999999999MA1102915101115MD1140254+9999REMMET16001/03/10 20:53:02 METAR KDAL 040253Z 36010KT 8SM FEW016 OVC023 02/M02 A3039 RMK AO2 SLP294 UA 0240Z F2TH 5 MI FINAL BASES OVC 048 LT RIME ICG IC T00221017 51025
0237722583139602010010403537+32847-096851FM-15+0149KDAL V0300105N00575007015MN0128755N5+00115-00335102995ADDAA101000095GA1025+005795999GA2085+007015999GD11991+0057959GD24991+0070159GF108991999999999999999999MA1102985101185OC100985REMMET10301/03/10 21:53:01 METAR KDAL 040353Z 01011G19KT 8SM FEW019 OVC023 01/M03 A3041 RMK AO2 SLP299 T00111033
0188722583139602010010404537+32847-096851FM-15+0149KDAL V0303405N00625006405MN0128755N5+00115-00395103035ADDAA101000095GA1085+006405999GD14991+0064059GF108991999999999999999999MA1103015101215REMMET09301/03/10 22:53:02 METAR KDAL 040453Z 34012KT 8SM OVC021 01/M04 A3042 RMK AO2 SLP303 T00111039
0256722583139602010010405537+32847-096851FM-15+0149KDAL V0303405N00575006405MN0128755N5+00005-00505103075ADDAA101000095GA1085+006405999GD14991+0064059GF108991999999999999999999KA1999M+00441KA2999N+00001MA1103055101245MD1140134+9999REMMET12101/03/10 23:53:02 METAR KDAL 040553Z 34011KT 8SM OVC021 00/M05 A3043 RMK AO2 SLP307 T00001050 10044 20000 400780000 51013
0996722583139602010010405596+32847-096851SOD  +0149KDAL V030999999999999999999999999999+99999+99999999999ADDAA124000095AJ100009599999999AL12400095AN1024000095KA1240M+00785KA2240N+00005MG1100864102344OE11240102834019365OE22240080536020285OE33240036799999995REMSOD80124 HR PRECIPITATION (IN):0.00  SNOW DEPTH (IN):0     24 HR SNOWFALL (IN):0.0  24 HR MAX TEMP (F):46 24 HR MAX TEMP TIME (LST):1510 24 HR MIN TEMP (F):32 24 HR MIN TEMP TIME (LST):2359 AVERAGE STATION PRESSURE:29.785 MINIMUM SEA LEVEL PRESSURE:30.22 TIME OF OCCURRENCE:0529 PEAK WIND SPEED (MPH):23  PEAK WIND DIR (DEG):340 PEAK WIND TIME (LST):1936  FASTEST 2MIN SPEED (MPH):18 FASTEST 2MIN DIR (DEG):360 FASTEST 2MIN TIME (LST):2028 AVERAGE WIND SPEED (MPH):8.2  24 HR AVG TEMP (F):39 DEPART FROM NORMAL: -6  HEATING DEGREE DAYS:26  COOLING DEGREE DAYS:0   LATEST DAY MAX TEMP (0700-1900 LST):46  LATEST NIGHT MIN TEMP(1900-0800 LST):34 HOURLY INCREMENTAL PRECIPITATION VALUES (IN):.00 0.00 0.00 0.00 0.00 0.00 0.00 0.00 0.00 0.00 0.00 0.00 0.00 0.00 0.00 0.00 0.00 0.00 0.00 0.00 0.00 0.00 0.00 0.00EQDR01     N7GJS072R02     N7GKS075
0203722583139602010010406387+32847-096851FM-16+0149KDAL V0303605N00675009755MN0128755N5+00005-00605999999ADDGA1045+007625999GA2085+009755999GD12991+0076259GD24991+0097559GF108991999999999999999999MA1103085101285REMMET08801/04/10 00:38:02 SPECI KDAL 040638Z 36013KT 8SM SCT025 OVC032 00/M06 A3044 RMK AO2 (SW)
0232722583139602010010406537+32847-096851FM-15+0149KDAL V0303605N00575009755MN0128755N5-00065-00675103075ADDAA101000095GA1045+007625999GA2085+009755999GD12991+0076259GD24991+0097559GF108991999999999999999999MA1103055101245REMMET10601/04/10 00:53:02 METAR KDAL 040653Z 36011KT 8SM SCT025 OVC032 M01/M07 A3043 RMK AO2 SLP307 T10061067 (SW)
0194722583139602010010407537+32847-096851FM-15+0149KDAL V0303405N00415010365MN0128755N5-00065-00675103105ADDAA101000095GA1085+010365999GD14991+0103659GF108991999999999999999999MA1103085101285REMMET09901/04/10 01:53:02 METAR KDAL 040753Z 34008KT 8SM OVC034 M01/M07 A3044 RMK AO2 SLP310 T10061067 (SW)
0252722583139602010010408537+32847-096851FM-15+0149KDAL V0303305N00465010975MN0128755N5-00065-00675103135ADDAA101000095GA1025+008235999GA2085+010975999GD11991+0082359GD24991+0109759GF108991999999999999999999MA1103125101315MD1340064+9999REMMET11201/04/10 02:53:02 METAR KDAL 040853Z 33009KT 8SM FEW027 OVC036 M01/M07 A3045 RMK AO2 SLP313 T10061067 53006 (SW)
0195722583139602010010409537+32847-096851FM-15+0149KDAL V0303105N003652200059N0160935N5-00115-00615103135ADDAA101000095GA1025+007925999GD11991+0079259GF102991999999999999999999MA1103125101315REMMET10001/04/10 03:53:02 METAR KDAL 040953Z 31007KT 10SM FEW026 M01/M06 A3045 RMK AO2 SLP313 T10111061 (SW)
0195722583139602010010410537+32847-096851FM-15+0149KDAL V0303505N005152200059N0160935N5-00175-00615103135ADDAA101000095GA1045+010065999GD12991+0100659GF104991999999999999999999MA1103125101315REMMET10001/04/10 04:53:02 METAR KDAL 041053Z 35010KT 10SM SCT033 M02/M06 A3045 RMK AO2 SLP313 T10171061 (SW)
0253722583139602010010411537+32847-096851FM-15+0149KDAL V0303505N005152200059N0160935N5-00225-00675103175ADDAA101000095GA1025+010065999GD11991+0100659GF102991999999999999999999KA1999M+00001KA2999N-00221MA1103155101355MD1340034+9999REMMET11801/04/10 05:53:02 METAR KDAL 041153Z 35010KT 10SM FEW033 M02/M07 A3046 RMK AO2 SLP317 T10221067 10000 21022 53003 (SW)
0195722583139602010010412537+32847-096851FM-15+0149KDAL V0303505N003152200059N0160935N5-00285-00725103285ADDAA101000095GA1025+010065999GD11991+0100659GF102991999999999999999999MA1103255101455REMMET10001/04/10 06:53:02 METAR KDAL 041253Z 35006KT 10SM FEW033 M03/M07 A3049 RMK AO2 SLP328 T10281072 (SW)
0233722583139602010010413537+32847-096851FM-15+0149KDAL V0303605N002152200059N0160935N5-00285-00725103295ADDAA101000095GA1025+010065999GA2045+039625999GD11991+0100659GD22991+0396259GF104991999999999999999999MA1103255101455REMMET10701/04/10 07:53:02 METAR KDAL 041353Z 36004KT 10SM FEW033 SCT130 M03/M07 A3049 RMK AO2 SLP329 T10281072 (GR)
0215722583139602010010414537+32847-096851FM-15+0149KDAL V0303505N006752200059N0160935N5-00175-00785103395ADDAA101000095GA1045+007325999GD12991+0073259GF104991999999999999999999MA1103355101555MD1240214+9999REMMET10601/04/10 08:53:02 METAR KDAL 041453Z 35013KT 10SM SCT024 M02/M08 A3052 RMK AO2 SLP339 T10171078 52021 (GR)
0195722583139602010010415537+32847-096851FM-15+0149KDAL V0303605N006752200059N0160935N5-00065-00785103465ADDAA101000095GA1025+007325999GD11991+0073259GF102991999999999999999999MA1103425101615REMMET10001/04/10 09:53:02 METAR KDAL 041553Z 36013KT 10SM FEW024 M01/M08 A3054 RMK AO2 SLP346 T10061078 (GR)
0194722583139602010010416537+32847-096851FM-15+0149KDAL V0300105N006752200059N0160935N5+00065-00725103465ADDAA101000095GA1025+009145999GD11991+0091459GF102991999999999999999999MA1103455101655REMMET09901/04/10 10:53:02 METAR KDAL 041653Z 01013KT 10SM FEW030 01/M07 A3055 RMK AO2 SLP346 T00061072 (GR)
0263722583139602010010417537+32847-096851FM-15+0149KDAL V0303205N007252200059N0160935N5+00115-00675103435ADDAA101000095GA1045+009145999GD12991+0091459GF104991999999999999999999KA1999M+00111KA2999N-00281MA1103425101615MD1040044+9999OC100985REMMET12001/04/10 11:53:02 METAR KDAL 041753Z 32014G19KT 10SM SCT030 01/M07 A3054 RMK AO2 SLP343 T00111067 10011 21028 50004 (GR)
0194722583139602010010418537+32847-096851FM-15+0149KDAL V0303505N004152200059N0160935N5+00175-00615103325ADDAA101000095GA1025+009755999GD11991+0097559GF102991999999999999999999MA1103285101485REMMET09901/04/10 12:53:02 METAR KDAL 041853Z 35008KT 10SM FEW032 02/M06 A3050 RMK AO2 SLP332 T00171061 (GR)
0205722583139602010010419537+32847-096851FM-15+0149KDAL V0303205N005152200059N0160935N5+00285-00615103225ADDAA101000095GA1045+009755999GD12991+0097559GF104991999999999999999999MA1103225101415OC100775REMMET10201/04/10 13:53:02 METAR KDAL 041953Z 32010G15KT 10SM SCT032 03/M06 A3048 RMK AO2 SLP322 T00281061 (GR)
0224722583139602010010420537+32847-096851FM-15+0149KDAL V0303205N007252200059N0128755N5+00285-00615103205ADDAA101000095GA1025+009755999GD11991+0097559GF102991999999999999999999MA1103185101385MD1640224+9999OC100985REMMET10701/04/10 14:53:02 METAR KDAL 042053Z 32014G19KT 8SM FEW032 03/M06 A3047 RMK AO2 SLP320 T00281061 56022 (GR)
0194722583139602010010421537+32847-096851FM-15+0149KDAL V0303205N004152200059N0128755N5+00285-00615103205ADDAA101000095GA1025+010065999GD11991+0100659GF102991999999999999999999MA1103185101385REMMET09901/04/10 15:53:02 METAR KDAL 042153Z 32008KT 8SM FEW033 03/M06 A3047 RMK AO2 SLP320 T00281061 (DCG)
0194722583139602010010422537+32847-096851FM-15+0149KDAL V0303605N003652200059N0128755N5+00285-00565103215ADDAA101000095GA1025+010065999GD11991+0100659GF102991999999999999999999MA1103185101385REMMET09901/04/10 16:53:02 METAR KDAL 042253Z 36007KT 8SM FEW033 03/M06 A3047 RMK AO2 SLP321 T00281056 (DCG)
0252722583139602010010423537+32847-096851FM-15+0149KDAL V0303605N003652200059N0128755N5+00175-00565103205ADDAA101000095GA1025+010065999GD11991+0100659GF102991999999999999999999KA1999M+00281KA2999N+00111MA1103185101385MD1840014+9999REMMET11701/04/10 17:53:02 METAR KDAL 042353Z 36007KT 8SM FEW033 02/M06 A3047 RMK AO2 SLP320 T00171056 10028 20011 58001 (DCG)
0154722583139602010010500537+32847-096851FM-15+0149KDAL V0300205N002152200059N0128755N5+00115-00615103245ADDAA101000095GF100991999999999999999999MA1103225101415REMMET09001/04/10 18:53:02 METAR KDAL 050053Z 02004KT 8SM CLR 01/M06 A3048 RMK AO2 SLP324 T00111061
0155722583139602010010501537+32847-096851FM-15+0149KDAL V0300205N003152200059N0160935N5+00065-00615103245ADDAA101000095GF100991999999999999999999MA1103225101415REMMET09101/04/10 19:53:02 METAR KDAL 050153Z 02006KT 10SM CLR 01/M06 A3048 RMK AO2 SLP324 T00061061
0176722583139602010010502537+32847-096851FM-15+0149KDAL V0300105N001552200059N0160935N5-00065-00615103295ADDAA101000095GF100991999999999999999999MA1103255101455MD1340094+9999REMMET09801/04/10 20:53:01 METAR KDAL 050253Z 01003KT 10SM CLR M01/M06 A3049 RMK AO2 SLP329 T10061061 53009
0156722583139602010010503537+32847-096851FM-15+0149KDAL V0300205N001552200059N0160935N5-00065-00675103295ADDAA101000095GF100991999999999999999999MA1103255101455REMMET09201/04/10 21:53:01 METAR KDAL 050353Z 02003KT 10SM CLR M01/M07 A3049 RMK AO2 SLP329 T10061067
0156722583139602010010504537+32847-096851FM-15+0149KDAL V0309999C000052200059N0160935N5-00115-00675103295ADDAA101000095GF100991999999999999999999MA1103255101455REMMET09201/04/10 22:53:01 METAR KDAL 050453Z 00000KT 10SM CLR M01/M07 A3049 RMK AO2 SLP329 T10111067
0224722583139602010010505537+32847-096851FM-15+0149KDAL V0309999C000052200059N0160935N5-00115-00675103285ADDAA101000095GF100991999999999999999999KA1999M+00171KA2999N-00171MA1103255101455MD1740014+9999REMMET12001/04/10 23:53:02 METAR KDAL 050553Z 00000KT 10SM CLR M01/M07 A3049 RMK AO2 SLP328 T10111067 10017 21017 400281028 57001
0996722583139602010010505596+32847-096851SOD  +0149KDAL V030999999999999999999999999999+99999+99999999999ADDAA124000095AJ100009599999999AL12400095AN1024000095KA1240M+00285KA2240N-00275MG1101424103054OE11240125203011595OE22240080535009275OE33240040299999995REMSOD80124 HR PRECIPITATION (IN):0.00  SNOW DEPTH (IN):0     24 HR SNOWFALL (IN):0.0  24 HR MAX TEMP (F):37 24 HR MAX TEMP TIME (LST):1707 24 HR MIN TEMP (F):27 24 HR MIN TEMP TIME (LST):0756 AVERAGE STATION PRESSURE:29.950 MINIMUM SEA LEVEL PRESSURE:30.43 TIME OF OCCURRENCE:0122 PEAK WIND SPEED (MPH):28  PEAK WIND DIR (DEG):30  PEAK WIND TIME (LST):1159  FASTEST 2MIN SPEED (MPH):18 FASTEST 2MIN DIR (DEG):350 FASTEST 2MIN TIME (LST):0927 AVERAGE WIND SPEED (MPH):9.0  24 HR AVG TEMP (F):32 DEPART FROM NORMAL:-13  HEATING DEGREE DAYS:33  COOLING DEGREE DAYS:0   LATEST DAY MAX TEMP (0700-1900 LST):37  LATEST NIGHT MIN TEMP(1900-0800 LST):27 HOURLY INCREMENTAL PRECIPITATION VALUES (IN):.00 0.00 0.00 0.00 0.00 0.00 0.00 0.00 0.00 0.00 0.00 0.00 0.00 0.00 0.00 0.00 0.00 0.00 0.00 0.00 0.00 0.00 0.00 0.00EQDR01     N7GJS072R02     N7GKS075
0161722583139602010010506537+32847-096851FM-15+0149KDAL V0309999C000052200059N0160935N5-00225-00675103285ADDAA101000095GF100991999999999999999999MA1103255101455REMMET09701/05/10 00:53:02 METAR KDAL 050653Z 00000KT 10SM CLR M02/M07 A3049 RMK AO2 SLP328 T10221067 (SW)
0161722583139602010010507537+32847-096851FM-15+0149KDAL V0300405N002152200059N0160935N5-00335-00675103265ADDAA101000095GF100991999999999999999999MA1103255101455REMMET09701/05/10 01:53:02 METAR KDAL 050753Z 04004KT 10SM CLR M03/M07 A3049 RMK AO2 SLP326 T10331067 (SW)
0181722583139602010010508537+32847-096851FM-15+0149KDAL V0309999C000052200059N0160935N5-00285-00725103285ADDAA101000095GF100991999999999999999999MA1103255101455MD1540014+9999REMMET10301/05/10 02:53:02 METAR KDAL 050853Z 00000KT 10SM CLR M03/M07 A3049 RMK AO2 SLP328 T10281072 55001 (SW)
0161722583139602010010509537+32847-096851FM-15+0149KDAL V0309999C000052200059N0160935N5-00445-00725103295ADDAA101000095GF100991999999999999999999MA1103255101455REMMET09701/05/10 03:53:02 METAR KDAL 050953Z 00000KT 10SM CLR M04/M07 A3049 RMK AO2 SLP329 T10441072 (SW)
0161722583139602010010510537+32847-096851FM-15+0149KDAL V0300505N002152200059N0160935N5-00445-00725103245ADDAA101000095GF100991999999999999999999MA1103225101415REMMET09701/05/10 04:53:02 METAR KDAL 051053Z 05004KT 10SM CLR M04/M07 A3048 RMK AO2 SLP324 T10441072 (SW)
0219722583139602010010511537+32847-096851FM-15+0149KDAL V0300605N001552200059N0160935N5-00395-00785103265ADDAA101000095GF100991999999999999999999KA1999M-00111KA2999N-00501MA1103255101455MD1540024+9999REMMET11501/05/10 05:53:02 METAR KDAL 051153Z 06003KT 10SM CLR M04/M08 A3049 RMK AO2 SLP326 T10391078 11011 21050 55002 (SW)
0161722583139602010010512537+32847-096851FM-15+0149KDAL V0300705N002152200059N0160935N5-00445-00835103305ADDAA101000095GF100991999999999999999999MA1103255101455REMMET09701/05/10 06:53:02 METAR KDAL 051253Z 07004KT 10SM CLR M04/M08 A3049 RMK AO2 SLP330 T10441083 (SW)
0195722583139602010010513537+32847-096851FM-15+0149KDAL V0300705N001552200059N0160935N5-00445-00785103315ADDAA101000095GA1025+076205999GD11991+0762059GF102991999999999999999999MA1103285101485REMMET10001/05/10 07:53:02 METAR KDAL 051353Z 07003KT 10SM FEW250 M04/M08 A3050 RMK AO2 SLP331 T10441078 (JM)
0215722583139602010010514537+32847-096851FM-15+0149KDAL V0300505N001552200059N0160935N5-00175-00725103395ADDAA101000095GA1025+076205999GD11991+0762059GF102991999999999999999999MA1103355101555MD1340124+9999REMMET10601/05/10 08:53:02 METAR KDAL 051453Z 05003KT 10SM FEW250 M02/M07 A3052 RMK AO2 SLP339 T10171072 53012 (JM)
0195722583139602010010515537+32847-096851FM-15+0149KDAL V0300405N001552200059N0160935N5-00065-00785103405ADDAA101000095GA1025+076205999GD11991+0762059GF102991999999999999999999MA1103395101585REMMET10001/05/10 09:53:02 METAR KDAL 051553Z 04003KT 10SM FEW250 M01/M08 A3053 RMK AO2 SLP340 T10061078 (JM)
0194722583139602010010516537+32847-096851FM-15+0149KDAL V0300905N001552200059N0160935N5+00065-00835103365ADDAA101000095GA1045+076205999GD12991+0762059GF104991999999999999999999MA1103325101515REMMET09901/05/10 10:53:02 METAR KDAL 051653Z 09003KT 10SM SCT250 01/M08 A3051 RMK AO2 SLP336 T00061083 (JM)
0290722583139602010010517537+32847-096851FM-15+0149KDAL V0309999V00215073155MN0160935N5+00175-00835103215ADDAA101000095GA1025+051825999GA2075+073155999GD11991+0518259GD23991+0731559GF107991999999999999999999KA1999M+00171KA2999N-00501MA1103185101385MD1840174+9999REMMET12401/05/10 11:53:02 METAR KDAL 051753Z VRB04KT 10SM FEW170 BKN240 02/M08 A3047 RMK AO2 SLP321 T00171083 10017 21050 58017 (JM)
0217722583139602010010518537+32847-096851FM-15+0149KDAL V0309999C00005073155MN0160935N5+00225-00725103065ADDAA101000095GA1075+073155999GD13991+0731559GF107991999999999999999999MA1103055101245REMMET12201/05/10 12:53:02 METAR KDAL 051853Z 00000KT 10SM BKN240 02/M07 A3043 RMK AO2 RAB04E17UPB17E19 SLP306 P0000 T00221072 (JM)
0232722583139602010010519537+32847-096851FM-15+0149KDAL V0301705N00215073155MN0160935N5+00335-00675102945ADDAA101000095GA1075+073155999GA2075+091445999GD13991+0731559GD23991+0914459GF107991999999999999999999MA1102915101115REMMET10601/05/10 13:53:02 METAR KDAL 051953Z 17004KT 10SM BKN240 BKN300 03/M07 A3039 RMK AO2 SLP294 T00331067 (JM)
0269722583139602010010520537+32847-096851FM-15+0149KDAL V0309999C00005091445MN0160935N5+00445-00615102875ADDAA101000095AA203000021GA1045+073155999GA2075+091445999GD12991+0731559GD23991+0914459GF107991999999999999999999MA1102845101045MD1640334+9999REMMET11801/05/10 14:53:02 METAR KDAL 052053Z 00000KT 10SM SCT240 BKN300 04/M06 A3037 RMK AO2 SLP287 60000 T00441061 56033 (JM)
0237722583139602010010521537+32847-096851FM-15+0149KDAL V0301305N002152200059N0128755N5+00445-00615102835ADDAA101000095GA1025+073155999GA2045+091445999GD11991+0731559GD22991+0914459GF104991999999999999999999MA1102815101015REMMET11101/05/10 15:53:02 METAR KDAL 052153Z 13004KT 8SM FEW240 SCT300 04/M06 A3036 RMK AO2 SLP283 HAZY T00441061 (DCG)
0199722583139602010010522537+32847-096851FM-15+0149KDAL V0301005N003652200059N0128755N5+00445-00615102775ADDAA101000095GA1025+091445999GD11991+0914459GF102991999999999999999999MA1102745100945REMMET10401/05/10 16:53:02 METAR KDAL 052253Z 10007KT 8SM FEW300 04/M06 A3034 RMK AO2 SLP277 HAZY T00441061 (DCG)
0223722583139602010010523537+32847-096851FM-15+0149KDAL V0301005N003152200059N0128755N5+00285-00615102735ADDAA101000095GF100991999999999999999999KA1999M+00501KA2999N+00171MA1102715100915MD1640154+9999REMMET11901/05/10 17:53:02 METAR KDAL 052353Z 10006KT 8SM CLR 03/M06 A3033 RMK AO2 SLP273 HAZY T00281061 10050 20017 56015 (DCG)
0155722583139602010010600537+32847-096851FM-15+0149KDAL V0301105N003152200059N0160935N5+00225-00505102745ADDAA101000095GF100991999999999999999999MA1102715100915REMMET09101/05/10 18:53:02 METAR KDAL 060053Z 11006KT 10SM CLR 02/M05 A3033 RMK AO2 SLP274 T00221050
0155722583139602010010601537+32847-096851FM-15+0149KDAL V0301105N003152200059N0160935N5+00175-00505102735ADDAA101000095GF100991999999999999999999MA1102715100915REMMET09101/05/10 19:53:02 METAR KDAL 060153Z 11006KT 10SM CLR 02/M05 A3033 RMK AO2 SLP273 T00171050
0175722583139602010010602537+32847-096851FM-15+0149KDAL V0301105N004152200059N0160935N5+00115-00565102745ADDAA101000095GF100991999999999999999999MA1102715100915MD1140014+9999REMMET09701/05/10 20:53:02 METAR KDAL 060253Z 11008KT 10SM CLR 01/M06 A3033 RMK AO2 SLP274 T00111056 51001
0155722583139602010010603537+32847-096851FM-15+0149KDAL V0301405N003152200059N0160935N5+00005-00565102705ADDAA101000095GF100991999999999999999999MA1102685100885REMMET09101/05/10 21:53:01 METAR KDAL 060353Z 14006KT 10SM CLR 00/M06 A3032 RMK AO2 SLP270 T00001056
0155722583139602010010604537+32847-096851FM-15+0149KDAL V0301305N003652200059N0160935N5+00005-00565102665ADDAA101000095GF100991999999999999999999MA1102645100845REMMET09101/05/10 22:53:02 METAR KDAL 060453Z 13007KT 10SM CLR 00/M06 A3031 RMK AO2 SLP266 T00001056
0223722583139602010010605537+32847-096851FM-15+0149KDAL V0301205N003152200059N0160935N5+00005-00565102635ADDAA101000095GF100991999999999999999999KA1999M+00281KA2999N-00061MA1102615100815MD1640094+9999REMMET11901/05/10 23:53:02 METAR KDAL 060553Z 12006KT 10SM CLR 00/M06 A3030 RMK AO2 SLP263 T00001056 10028 21006 400501050 56009
1012722583139602010010605596+32847-096851SOD  +0149KDAL V030999999999999999999999999999+99999+99999999999ADDAA124000091AJ100009599999999AL12400095AN1024000095KA1240M+00505KA2240N-00495MG1101124102614OE11240058111020435OE22240040213022525OE33240019799999995REMSOD80124 HR PRECIPITATION (IN):0.00  SNOW DEPTH (IN):0     24 HR SNOWFALL (IN):0.0  24 HR MAX TEMP (F):41 24 HR MAX TEMP TIME (LST):1636 24 HR MIN TEMP (F):23 24 HR MIN TEMP TIME (LST):0707 AVERAGE STATION PRESSURE:29.860 MINIMUM SEA LEVEL PRESSURE:30.30 TIME OF OCCURRENCE:2359 PEAK WIND SPEED (MPH):13  PEAK WIND DIR (DEG):110 PEAK WIND TIME (LST):2043  FASTEST 2MIN SPEED (MPH):9  FASTEST 2MIN DIR (DEG):130 FASTEST 2MIN TIME (LST):2252 AVERAGE WIND SPEED (MPH):4.4  24 HR AVG TEMP (F):32 DEPART FROM NORMAL:-13  HEATING DEGREE DAYS:33  COOLING DEGREE DAYS:0   LATEST DAY MAX TEMP (0700-1900 LST):41  LATEST NIGHT MIN TEMP(1900-0800 LST):23 HOURLY INCREMENTAL PRECIPITATION VALUES (IN):.00 0.00 0.00 0.00 0.00 0.00 0.00 0.00 0.00 0.00 0.00 0.00 0.00 0.00 0.00 0.00 0.00 0.00 0.00 0.00 0.00 0.00 0.00 0.00EQDR01  0.007AAP092R02     N7GJS072R03     N7GKS075
0160722583139602010010606537+32847-096851FM-15+0149KDAL V0301205N003652200059N0160935N5+00005-00565102605ADDAA101000095GF100991999999999999999999MA1102575100785REMMET09601/06/10 00:53:02 METAR KDAL 060653Z 12007KT 10SM CLR 00/M06 A3029 RMK AO2 SLP260 T00001056 (SW)
0160722583139602010010607537+32847-096851FM-15+0149KDAL V0301305N004152200059N0160935N5+00005-00565102525ADDAA101000095GF100991999999999999999999MA1102515100715REMMET09601/06/10 01:53:02 METAR KDAL 060753Z 13008KT 10SM CLR 00/M06 A3027 RMK AO2 SLP252 T00001056 (SW)
0180722583139602010010608537+32847-096851FM-15+0149KDAL V0301205N004152200059N0160935N5+00005-00505102475ADDAA101000095GF100991999999999999999999MA1102475100685MD1840164+9999REMMET10201/06/10 02:53:02 METAR KDAL 060853Z 12008KT 10SM CLR 00/M05 A3026 RMK AO2 SLP247 T00001050 58016 (SW)
0194722583139602010010609537+32847-096851FM-15+0149KDAL V0301205N00415015245MN0160935N5+00005-00445102415ADDAA101000095GA1075+015245999GD13991+0152459GF107991999999999999999999MA1102405100615REMMET09901/06/10 03:53:02 METAR KDAL 060953Z 12008KT 10SM BKN050 00/M04 A3024 RMK AO2 SLP241 T00001044 (SW)
0194722583139602010010610537+32847-096851FM-15+0149KDAL V0301505N00575014635MN0160935N5+00175-00335102345ADDAA101000095GA1085+014635999GD14991+0146359GF108991999999999999999999MA1102345100545REMMET09901/06/10 04:53:02 METAR KDAL 061053Z 15011KT 10SM OVC048 02/M03 A3022 RMK AO2 SLP234 T00171033 (SW)
0252722583139602010010611537+32847-096851FM-15+0149KDAL V0301505N00365014635MN0160935N5+00225-00335102345ADDAA101000095GA1085+014635999GD14991+0146359GF108991999999999999999999KA1999M+00221KA2999N-00061MA1102345100545MD1540134+9999REMMET11701/06/10 05:53:02 METAR KDAL 061153Z 15007KT 10SM OVC048 02/M03 A3022 RMK AO2 SLP234 T00221033 10022 21006 55013 (SW)
0194722583139602010010612537+32847-096851FM-15+0149KDAL V0301405N00465016765MN0160935N5+00225-00285102345ADDAA101000095GA1085+016765999GD14991+0167659GF108991999999999999999999MA1102345100545REMMET09901/06/10 06:53:02 METAR KDAL 061253Z 14009KT 10SM OVC055 02/M03 A3022 RMK AO2 SLP234 T00221028 (SW)
0194722583139602010010613537+32847-096851FM-15+0149KDAL V0301505N00465012505MN0160935N5+00225-00285102345ADDAA101000095GA1085+012505999GD14991+0125059GF108991999999999999999999MA1102345100545REMMET09901/06/10 07:53:02 METAR KDAL 061353Z 15009KT 10SM OVC041 02/M03 A3022 RMK AO2 SLP234 T00221028 (JM)
0214722583139602010010614537+32847-096851FM-15+0149KDAL V0301605N00625010675MN0160935N5+00285-00225102285ADDAA101000095GA1085+010675999GD14991+0106759GF108991999999999999999999MA1102275100485MD1840064+9999REMMET10501/06/10 08:53:02 METAR KDAL 061453Z 16012KT 10SM OVC035 03/M02 A3020 RMK AO2 SLP228 T00281022 58006 (JM)
0194722583139602010010615537+32847-096851FM-15+0149KDAL V0301605N00575010675MN0160935N5+00395-00175102245ADDAA101000095GA1085+010675999GD14991+0106759GF108991999999999999999999MA1102245100445REMMET09901/06/10 09:53:02 METAR KDAL 061553Z 16011KT 10SM OVC035 04/M02 A3019 RMK AO2 SLP224 T00391017 (JM)
0205722583139602010010616537+32847-096851FM-15+0149KDAL V0301605N00625009755MN0160935N5+00505-00115102205ADDAA101000095GA1085+009755999GD14991+0097559GF108991999999999999999999MA1102205100415OC100885REMMET10201/06/10 10:53:02 METAR KDAL 061653Z 16012G17KT 10SM OVC032 05/M01 A3018 RMK AO2 SLP220 T00501011 (JM)
0204722583139602010010617107+32847-096851FM-16+0149KDAL V0301605N00465008535MN0160935N5+00505-00105999999ADDGA1025+007325999GA2085+008535999GD11991+0073259GD24991+0085359GF108991999999999999999999MA1102175100385REMMET08901/06/10 11:10:02 SPECI KDAL 061710Z 16009KT 10SM FEW024 OVC028 05/M01 A3017 RMK AO2 (JM)
0203722583139602010010617427+32847-096851FM-16+0149KDAL V0301605N00415005795MN0160935N5+00605+00005999999ADDGA1075+005795999GA2085+007625999GD13991+0057959GD24991+0076259GF108991999999999999999999MA1102135100345REMMET08801/06/10 11:42:02 SPECI KDAL 061742Z 16008KT 10SM BKN019 OVC025 06/00 A3016 RMK AO2 (JM)
0289722583139602010010617537+32847-096851FM-15+0149KDAL V0301505N00415005795MN0160935N5+00565+00005102105ADDAA101000095GA1075+005795999GA2085+007625999GD13991+0057959GD24991+0076259GF108991999999999999999999KA1999M+00611KA2999N+00171MA1102105100315MD1840184+9999REMMET12301/06/10 11:53:02 METAR KDAL 061753Z 15008KT 10SM BKN019 OVC025 06/00 A3015 RMK AO2 SLP210 T00560000 10061 20017 58018 (JM)
0238722583139602010010618537+32847-096851FM-15+0149KDAL V0301505N00625006405MN0160935N5+00675+00065101905ADDAA101000095GA1025+005495999GA2085+006405999GD11991+0054959GD24991+0064059GF108991999999999999999999MA1101905100115REMMET11201/06/10 12:53:02 METAR KDAL 061853Z 15012KT 10SM FEW018 OVC021 07/01 A3009 RMK AO2 PRESFR SLP190 T00670006 (JM)
0193722583139602010010619537+32847-096851FM-15+0149KDAL V0301605N00575007015MN0160935N5+00725+00115101775ADDAA101000095GA1085+007015999GD14991+0070159GF108991999999999999999999MA1101765099985REMMET09801/06/10 13:53:02 METAR KDAL 061953Z 16011KT 10SM OVC023 07/01 A3005 RMK AO2 SLP177 T00720011 (JM)
0213722583139602010010620537+32847-096851FM-15+0149KDAL V0301405N00575007015MN0160935N5+00785+00115101725ADDAA101000095GA1085+007015999GD14991+0070159GF108991999999999999999999MA1101735099945MD1640364+9999REMMET10401/06/10 14:53:02 METAR KDAL 062053Z 14011KT 10SM OVC023 08/01 A3004 RMK AO2 SLP172 T00780011 56036 (JM)
0198722583139602010010621537+32847-096851FM-15+0149KDAL V0301405N00465006405MN0112655N5+00785+00175101675ADDAA101000095GA1085+006405999GD14991+0064059GF108991999999999999999999MA1101665099885REMMET10301/06/10 15:53:02 METAR KDAL 062153Z 14009KT 7SM OVC021 08/02 A3002 RMK AO2 SLP167 HAZY T00780017 (DCG)
0198722583139602010010622537+32847-096851FM-15+0149KDAL V0301505N00575006405MN0128755N5+00835+00285101575ADDAA101000095GA1085+006405999GD14991+0064059GF108991999999999999999999MA1101565099785REMMET10301/06/10 16:53:02 METAR KDAL 062253Z 15011KT 8SM OVC021 08/03 A2999 RMK AO2 SLP157 HAZY T00830028 (DCG)
0289722583139602010010623537+32847-096851FM-15+0149KDAL V0301705N00515005795MN0112655N5+00895+00445101545ADDAA101000095GA1075+005795999GA2085+010675999GD13991+0057959GD24991+0106759GF108991999999999999999999KA1999M+00891KA2999N+00561MA1101525099745MD1640184+9999REMMET12301/06/10 17:53:02 METAR KDAL 062353Z 17010KT 7SM BKN019 OVC035 09/04 A2998 RMK AO2 SLP154 T00890044 10089 20056 56018 (DCG)
0268722583139602010010700537+32847-096851FM-15+0149KDAL V0301705N00465005795MN0112655N5+00895+00615101715ADDAA101000095GA1045+003965999GA2075+005795999GA3085+012195999GD12991+0039659GD23991+0057959GD34991+0121959GF108991999999999999999999MA1101735099945REMMET11101/06/10 18:53:02 METAR KDAL 070053Z 17009KT 7SM SCT013 BKN019 OVC040 09/06 A3004 RMK AO2 SLP171 HAZY T00890061
0202722583139602010010701017+32847-096851FM-16+0149KDAL V0301605N00415003965MN0112655N5+00905+00605999999ADDGA1075+003965999GA2085+005795999GD13991+0039659GD24991+0057959GF108991999999999999999999MA1101735099945REMMET08701/06/10 19:01:02 SPECI KDAL 070101Z 16008KT 7SM BKN013 OVC019 09/06 A3004 RMK AO2 HAZY
0202722583139602010010701427+32847-096851FM-16+0149KDAL V0301705N00265002745MN0080475N5+00905+00705999999ADDAU100001015AW1105GA1085+002745999GD14991+0027459GF108991999999999999999999MA1101795100015MW1101REMMET09501/06/10 19:42:02 SPECI KDAL 070142Z 17005KT 5SM BR OVC009 09/07 A3006 RMK AO2 CIG 008V011 HAZY
0230722583139602010010701537+32847-096851FM-15+0149KDAL V0301705N00415002745MN0080475N5+00895+00725101795ADDAA101000095AU100001015AW1105GA1085+002745999GD14991+0027459GF108991999999999999999999MA1101795100015MW1101REMMET11201/06/10 19:53:02 METAR KDAL 070153Z 17008KT 5SM BR OVC009 09/07 A3006 RMK AO2 CIG 007V011 SLP179 HAZY T00890072
0233722583139602010010702537+32847-096851FM-15+0149KDAL V0301705N00215002135MN0080475N5+00835+00725101835ADDAA101000095AU100001015AW1105GA1085+002135999GD14991+0021359GF108991999999999999999999MA1101835100045MD1140294+9999MW1101REMMET10101/06/10 20:53:02 METAR KDAL 070253Z 17004KT 5SM BR OVC007 08/07 A3007 RMK AO2 SLP183 T00830072 51029
0213722583139602010010703537+32847-096851FM-15+0149KDAL V0301205N00415001525MN0048285N5+00785+00675101855ADDAA101000095AU100001015AW1105GA1085+001525999GD14991+0015259GF108991999999999999999999MA1101865100085MW1101REMMET09501/06/10 21:53:02 METAR KDAL 070353Z 12008KT 3SM BR OVC005 08/07 A3008 RMK AO2 SLP185 T00780067
0213722583139602010010704537+32847-096851FM-15+0149KDAL V0301305N00315001525MN0048285N5+00725+00615101865ADDAA101000095AU100001015AW1105GA1085+001525999GD14991+0015259GF108991999999999999999999MA1101865100085MW1101REMMET09501/06/10 22:53:01 METAR KDAL 070453Z 13006KT 3SM BR OVC005 07/06 A3008 RMK AO2 SLP186 T00720061
0281722583139602010010705537+32847-096851FM-15+0149KDAL V0300205N00155001525MN0048285N5+00725+00675101925ADDAA101000025AU100001015AW1105GA1085+001525999GD14991+0015259GF108991999999999999999999KA1999M+00941KA2999N+00721MA1101935100145MD1340104+9999MW1101REMMET12301/06/10 23:53:02 METAR KDAL 070553Z 02003KT 3SM BR OVC005 07/07 A3010 RMK AO2 SLP192 T00720067 10094 20072 400941006 53010
1067722583139602010010705596+32847-096851SOD  +0149KDAL V030999999999999999999999999999+99999+99999999999ADDAA124000091AJ100009599999999AL12400095AN1024000095AX1016246KA1240M+00945KA2240N-00055MG1100174101494OE11240093914008255OE22240071516017115OE33240045699999995REMSOD81524 HR PRECIPITATION (IN):T     SNOW DEPTH (IN):0     24 HR SNOWFALL (IN):0.0  WEATHER(CODE):1  24 HR MAX TEMP (F):49 24 HR MAX TEMP TIME (LST):1811 24 HR MIN TEMP (F):31 24 HR MIN TEMP TIME (LST):0349 AVERAGE STATION PRESSURE:29.580 MINIMUM SEA LEVEL PRESSURE:29.97 TIME OF OCCURRENCE:1738 PEAK WIND SPEED (MPH):21  PEAK WIND DIR (DEG):140 PEAK WIND TIME (LST):0825  FASTEST 2MIN SPEED (MPH):16 FASTEST 2MIN DIR (DEG):160 FASTEST 2MIN TIME (LST):1711 AVERAGE WIND SPEED (MPH):10.2 24 HR AVG TEMP (F):40 DEPART FROM NORMAL: -5  HEATING DEGREE DAYS:25  COOLING DEGREE DAYS:0   LATEST DAY MAX TEMP (0700-1900 LST):49  LATEST NIGHT MIN TEMP(1900-0800 LST):31 HOURLY INCREMENTAL PRECIPITATION VALUES (IN):.00 0.00 0.00 0.00 0.00 0.00 0.00 0.00 0.00 0.00 0.00 0.00 0.00 0.00 0.00 0.00 0.00 0.00 0.00 0.00 0.00 0.00 0.00 TEQDQ01  00002PRCP24R01     T7AAP092R02     17AXW092R03     N7GJS072R04     N7GKS075
0246722583139602010010706127+32847-096851FM-16+0149KDAL V0303605N00365001525MN0040235N5+00805+00705999999ADDAA101000021AU110020015AU200001015AW1105AW2615GA1085+001525999GD14991+0015259GF108991999999999999999999MA1101965100185MW1101MW2611REMMET10501/07/10 00:12:02 SPECI KDAL 070612Z 36007KT 2 1/2SM -RA BR OVC005 08/07 A3011 RMK AO2 RAB0556 P0000 (SW)
0283722583139602010010706507+32847-096851FM-16+0149KDAL V0303605N01035002135MN0048285N5+00405+00305999999ADDAA101000891AU110020015AU200001015AW1105AW2615GA1085+002135999GD14991+0021359GF108991999999999999999999MA1102075100285MW1101MW2611OC101345REMMET13401/07/10 00:50:02 SPECI KDAL 070650Z 36020G26KT 3SM -RA BR OVC007 04/03 A3014 RMK AO2 PK WND 35027/0637 RAB0556 CIG 003V011 P0003 (SW)
0300722583139602010010706537+32847-096851FM-15+0149KDAL V0303605N00885002135MN0048285N5+00395+00225102075ADDAA101000895AU110020015AU200001015AW1105AW2615GA1085+002135999GD14991+0021359GF108991999999999999999999MA1102075100285MW1101MW2611OC101345REMMET15101/07/10 00:53:02 METAR KDAL 070653Z 36017G26KT 3SM -RA BR OVC007 04/02 A3014 RMK AO2 PK WND 35027/0637 RAB0556 CIG 003V011 SLP207 P0003 T00390022 (SW)
0212722583139602010010707516+32847-096851FM-16+0149KDAL V0303605N00775003355MN0096565N5+00305+00205999999ADDAU110020015AU200001015AW1105AW2615GA1085+003355999GD14991+0033559MA1102175100385OC101135REMMET11201/07/10 01:51:02 SPECI KDAL 070751Z 36015G22KT 6SM -RA BR OVC011 03/02 A3017 RMK AO2 SNB0655E07 P0002 FIBI (SW)
0273722583139602010010707537+32847-096851FM-15+0149KDAL V0303605N00885003355MN0096565N5+00285+00175102195ADDAA101000595AU110020015AU200001015AW1105AW2615GA1085+003355999GD14991+0033559GF108991999999999999999999MA1102205100415MW1101MW2611OC101185REMMET12401/07/10 01:53:02 METAR KDAL 070753Z 36017G23KT 6SM -RA BR OVC011 03/02 A3018 RMK AO2 SNB0655E07 SLP219 P0002 T00280017 (SW)
0278722583139602010010708437+32847-096851FM-16+0149KDAL V0303605N00885003965MN0040235N5+00205+00105999999ADDAA101000021AU110030015AU200001015AW1105AW2715GA1085+003965999GD14991+0039659GF108991999999999999999999MA1102305100515MW1101MW2711OC101495REMMET12901/07/10 02:43:02 SPECI KDAL 070843Z 36017G29KT 2 1/2SM -SN BR OVC013 02/01 A3021 RMK AO2 PK WND 35029/0836 RAE30SNB30 P0000 (SW)
0351722583139602010010708537+32847-096851FM-15+0149KDAL V0303605N00985003965MN0040235N5+00175+00065102315ADDAA101000025AA203001391AU110030015AU200001015AW1105AW2715GA1085+003965999GD14991+0039659GF108991999999999999999999MA1102305100515MD1140374+9999MW1101MW2711OC101395REMMET15801/07/10 02:53:02 METAR KDAL 070853Z 36019G27KT 2 1/2SM -SN BR OVC013 02/01 A3021 RMK AO2 PK WND 35029/0836 RAE30SNB30 SLP231 P0000 60005 T00170006 51037 (SW)EQDQ01  00138PRCP03
0296722583139602010010709457+32847-096851FM-16+0149KDAL V0303505N01085003355MN0080475N5-00105-00205999999ADDAA101000021AU110010025AU220030035AU300001015AW1105AW2515AW3715GA1085+003355999GD14991+0033559GF108991999999999999999999MA1102515100715MW1101MW2511MW3711OC101495REMMET12401/07/10 03:45:02 SPECI KDAL 070945Z 35021G29KT 5SM -DZSN BR OVC011 M01/M02 A3027 RMK AO2 PK WND 35032/0930 DZB08 P0000 (SW)
0313722583139602010010709537+32847-096851FM-15+0149KDAL V0303505N01035003355MN0080475N5-00065-00225102535ADDAA101000025AU110010025AU220030035AU300001015AW1105AW2515AW3715GA1085+003355999GD14991+0033559GF108991999999999999999999MA1102515100715MW1101MW2511MW3711OC101705REMMET14101/07/10 03:53:02 METAR KDAL 070953Z 35020G33KT 5SM -DZSN BR OVC011 M01/M02 A3027 RMK AO2 PK WND 35033/0951 DZB08 SLP253 P0000 T10061022 (SW)
0285722583139602010010710007+32847-096851FM-16+0149KDAL V0303605N00825003965MN0080475N5-00105-00305999999ADDAA101000021AU118010015AU200001015AW1105AW2545GA1085+003965999GD14991+0039659GF108991999999999999999999MA1102545100745MW1101MW2561OC101705REMMET13601/07/10 04:00:02 SPECI KDAL 071000Z 36016G33KT 5SM -FZDZ BR OVC013 M01/M03 A3028 RMK AO2 PK WND 35031/0956 DZE00FZDZB00SNE00 P0000 (SW)
0285722583139602010010710227+32847-096851FM-16+0149KDAL V0303605N00885004575MN0096565N5-00105-00305999999ADDAA101000021AU118010015AU200001015AW1105AW2545GA1085+004575999GD14991+0045759GF108991999999999999999999MA1102575100785MW1101MW2561OC101345REMMET13601/07/10 04:22:02 SPECI KDAL 071022Z 36017G26KT 6SM -FZDZ BR OVC015 M01/M03 A3029 RMK AO2 PK WND 35031/0956 DZE00FZDZB00SNE00 P0000 (SW)
0323722583139602010010710507+32847-096851FM-16+0149KDAL V0303605N00985004275MN0096565N5-00205-00405999999ADDAA101000021AU118010015AU200001015AW1105AW2545GA1075+004275999GA2085+006405999GD13991+0042759GD24991+0064059GF108991999999999999999999MA1102645100845MW1101MW2561OC101545REMMET14301/07/10 04:50:02 SPECI KDAL 071050Z 36019G30KT 6SM -FZDZ BR BKN014 OVC021 M02/M04 A3031 RMK AO2 PK WND 35034/1027 DZE00FZDZB00SNE00 P0000 (SW)
0340722583139602010010710537+32847-096851FM-15+0149KDAL V0303605N01035004885MN0080475N5-00175-00395102665ADDAA101000025AU118010015AU200001015AW1105AW2545GA1075+004885999GA2085+006405999GD13991+0048859GD24991+0064059GF108991999999999999999999MA1102645100845MW1101MW2561OC101545REMMET16001/07/10 04:53:02 METAR KDAL 071053Z 36020G30KT 5SM -FZDZ BR BKN016 OVC021 M02/M04 A3031 RMK AO2 PK WND 35034/1027 DZE00FZDZB00SNE00 SLP266 P0000 T10171039 (SW)
0338722583139602010010711467+32847-096851FM-16+0149KDAL V0303505N00725003965MN0080475N5-00305-00405999999ADDAA101000021AU118010025AU220030035AU300001015AW1105AW2545AW3715GA1075+003965999GA2085+005795999GD13991+0039659GD24991+0057959GF108991999999999999999999MA1102785100985MW1101MW2561MW3731OC101135REMMET13501/07/10 05:46:02 SPECI KDAL 071146Z 35014G22KT 5SM -FZDZSN BR BKN013 OVC019 M03/M04 A3035 RMK AO2 PK WND 35029/1122 SNB1056 P0000 (SW)
0451722583139602010010711537+32847-096851FM-15+0149KDAL V0303505N00775003965MN0080475N5-00285-00445102835ADDAA101000025AA206001391AA324001391AU118010025AU220030035AU300001015AW1105AW2545AW3715GA1085+003965999GD14991+0039659GF108991999999999999999999KA1999M+00781KA2999N-00281MA1102815101015MD1340284+9999MW1101MW2561MW3731OC101185REMMET18201/07/10 05:53:02 METAR KDAL 071153Z 35015G23KT 5SM -FZDZSN BR OVC013 M03/M04 A3036 RMK AO2 PK WND 35029/1122 SNB1056 SLP283 P0000 60005 70005 931000 T10281044 10078 21028 53028 (SW)EQDQ01  00138PRCP06Q02  00138PRCP24
0263722583139602010010712177+32847-096851FM-16+0149KDAL V0303505N00825006715MN0112655N5-00305-00705999999ADDAA101000021GA1045+003965999GA2085+006715999GD12991+0039659GD24991+0067159GF108991999999999999999999MA1102885101085OC101345REMMET12901/07/10 06:17:02 SPECI KDAL 071217Z 35016G26KT 7SM SCT013 OVC022 M03/M07 A3038 RMK AO2 PK WND 35028/1158 FZDZE16SNE16 P0000 (SW)
0290722583139602010010712337+32847-096851FM-16+0149KDAL V0303605N00675015245MN0128755N5-00305-00705999999ADDAA101000021GA1045+006715999GA2045+010975999GA3085+015245999GD12991+0067159GD22991+0109759GD34991+0152459GF108991999999999999999999MA1102885101085REMMET13301/07/10 06:33:02 SPECI KDAL 071233Z 36013KT 8SM SCT022 SCT036 OVC050 M03/M07 A3038 RMK AO2 PK WND 35028/1222 FZDZE16SNE16 P0000 (SW)
0263722583139602010010712477+32847-096851FM-16+0149KDAL V0303405N00825006715MN0144845N5-00305-00705999999ADDAA101000021GA1075+006715999GA2085+015245999GD13991+0067159GD24991+0152459GF108991999999999999999999MA1102915101115OC101135REMMET12901/07/10 06:47:02 SPECI KDAL 071247Z 34016G22KT 9SM BKN022 OVC050 M03/M07 A3039 RMK AO2 PK WND 35028/1222 FZDZE16SNE16 P0000 (SW)
0280722583139602010010712537+32847-096851FM-15+0149KDAL V0303505N00825006715MN0144845N5-00335-00725102955ADDAA101000025GA1075+006715999GA2085+015245999GD13991+0067159GD24991+0152459GF108991999999999999999999MA1102955101145OC101135REMMET14601/07/10 06:53:02 METAR KDAL 071253Z 35016G22KT 9SM BKN022 OVC050 M03/M07 A3040 RMK AO2 PK WND 35028/1222 FZDZE16SNE16 SLP295 P0000 T10331072 (SW)
0234722583139602010010713167+32847-096851FM-16+0149KDAL V0303605N00985015245MN0160935N5-00405-00905999999ADDGA1045+007325999GA2085+015245999GD12991+0073259GD24991+0152459GF108991999999999999999999MA1102985101185OC101395REMMET11101/07/10 07:16:02 SPECI KDAL 071316Z 36019G27KT 10SM SCT024 OVC050 M04/M09 A3041 RMK AO2 PK WND 35034/1300 (SW)
0234722583139602010010713517+32847-096851FM-16+0149KDAL V0303605N01135007925MN0160935N5-00405-00905999999ADDGA1075+007925999GA2085+019815999GD13991+0079259GD24991+0198159GF108991999999999999999999MA1103055101245OC101495REMMET11101/07/10 07:51:02 SPECI KDAL 071351Z 36022G29KT 10SM BKN026 OVC065 M04/M09 A3043 RMK AO2 PK WND 35034/1300 (SW)
0317722583139602010010713537+32847-096851FM-15+0149KDAL V0303405N00985007925MN0160935N5-00395-00945103055ADDAA101000095GA1075+007925999GA2075+018295999GA3085+021345999GD13991+0079259GD23991+0182959GD34991+0213459GF108991999999999999999999MA1103055101245OC101495REMMET15201/07/10 07:53:02 METAR KDAL 071353Z 34019G29KT 10SM BKN026 BKN060 OVC070 M04/M09 A3043 RMK AO2 PK WND 35034/1300 SLP305 BINOVC NW-N HRZN T10391094 (SW)
0292722583139602010010714067+32847-096851FM-16+0149KDAL V0303505N00985018295MN0160935N5-00405-00905999999ADDGA1045+007925999GA2075+018295999GA3085+022865999GD12991+0079259GD23991+0182959GD34991+0228659GF108991999999999999999999MA1103055101245OC101395REMMET13801/07/10 08:06:02 SPECI KDAL 071406Z 35019G27KT 10SM SCT026 BKN060 OVC075 M04/M09 A3043 RMK AO2 PK WND 36027/1403 BINOVC OHD AND NW-N (SW)
0357722583139602010010714537+32847-096851FM-15+0149KDAL V0303405N00625021345MN0160935N5-00445-01005103175ADDAA101000095AA203000021GA1025+008235999GA2045+019815999GA3075+021345999GD11991+0082359GD22991+0198159GD33991+0213459GF107991999999999999999999MA1103155101355MD1340214+9999OC101185REMMET16701/07/10 08:53:02 METAR KDAL 071453Z 34012G23KT 10SM FEW027 SCT065 BKN070 M04/M10 A3046 RMK AO2 PK WND 35028/1408 SLP317 BINOVC OHD AND NW-N 60000 T10441100 53021 (JM)
0300722583139602010010715537+32847-096851FM-15+0149KDAL V0303405N00935060965MN0160935N5-00445-01175103325ADDAA101000095GA1025+008235999GA2045+022865999GA3075+060965999GD11991+0082359GD22991+0228659GD33991+0609659GF107991999999999999999999MA1103325101515OC101295REMMET13501/07/10 09:53:02 METAR KDAL 071553Z 34018G25KT 10SM FEW027 SCT075 BKN200 M04/M12 A3051 RMK AO2 PK WND 34029/1543 SLP332 T10441117 (JM)
0300722583139602010010716537+32847-096851FM-15+0149KDAL V0303405N009352200059N0160935N5-00335-01115103375ADDAA101000095GA1025+010065999GA2045+042675999GA3045+060965999GD11991+0100659GD22991+0426759GD32991+0609659GF104991999999999999999999MA1103355101555OC101345REMMET13501/07/10 10:53:02 METAR KDAL 071653Z 34018G26KT 10SM FEW033 SCT140 SCT200 M03/M11 A3052 RMK AO2 PK WND 35027/1559 SLP337 T10331111 (JM)
0337722583139602010010717537+32847-096851FM-15+0149KDAL V0303505N008852200059N0160935N5-00225-01175103325ADDAA101000095AA206000021GA1025+042675999GA2045+060965999GD11991+0426759GD22991+0609659GF104991999999999999999999KA1999M-00221KA2999N-00441MA1103285101485MD1040154+9999OC101345REMMET15201/07/10 11:53:02 METAR KDAL 071753Z 35017G26KT 10SM FEW140 SCT200 M02/M12 A3050 RMK AO2 PK WND 32026/1747 SLP332 60000 T10221117 11022 21044 50015 (JM)
0262722583139602010010718537+32847-096851FM-15+0149KDAL V0303305N007752200059N0160935N5-00175-01225103215ADDAA101000095GA1025+036585999GA2045+060965999GD11991+0365859GD22991+0609659GF104991999999999999999999MA1103185101385OC101295REMMET12801/07/10 12:53:02 METAR KDAL 071853Z 33015G25KT 10SM FEW120 SCT200 M02/M12 A3047 RMK AO2 PK WND 32028/1830 SLP321 T10171122 (JM)
0262722583139602010010719537+32847-096851FM-15+0149KDAL V0303305N011352200059N0160935N5-00115-01285103155ADDAA101000095GA1025+036585999GA2045+060965999GD11991+0365859GD22991+0609659GF104991999999999999999999MA1103155101355OC101445REMMET12801/07/10 13:53:02 METAR KDAL 071953Z 33022G28KT 10SM FEW120 SCT200 M01/M13 A3046 RMK AO2 PK WND 33031/1919 SLP315 T10111128 (JM)
0282722583139602010010720537+32847-096851FM-15+0149KDAL V0303505N008852200059N0160935N5-00065-01395103115ADDAA101000095GA1025+036585999GA2045+060965999GD11991+0365859GD22991+0609659GF104991999999999999999999MA1103085101285MD1640214+9999OC101295REMMET13401/07/10 14:53:02 METAR KDAL 072053Z 35017G25KT 10SM FEW120 SCT200 M01/M14 A3044 RMK AO2 PK WND 32028/2017 SLP311 T10061139 56021 (JM)
0299722583139602010010721537+32847-096851FM-15+0149KDAL V0303505N009352200059N0160935N5+00005-01445103115ADDAA101000095GA1025+033535999GA2045+039625999GA3045+060965999GD11991+0335359GD22991+0396259GD32991+0609659GF104991999999999999999999MA1103085101285OC101185REMMET13401/07/10 15:53:02 METAR KDAL 072153Z 35018G23KT 10SM FEW110 SCT130 SCT200 00/M14 A3044 RMK AO2 PK WND 01028/2107 SLP311 T00001144 (MG)
0224722583139602010010722537+32847-096851FM-15+0149KDAL V0303605N008852200059N0160935N5-00115-01505103155ADDAA101000095GA1045+076205999GD12991+0762059GF104991999999999999999999MA1103125101315OC101185REMMET12101/07/10 16:53:02 METAR KDAL 072253Z 36017G23KT 10SM SCT250 M01/M15 A3045 RMK AO2 PK WND 35026/2236 SLP315 T10111150 (MG)
0264722583139602010010723537+32847-096851FM-15+0149KDAL V0303505N010352200059N0160935N5-00225-01505103225ADDAA101000095GA1045+076205999GD12991+0762059GF104991999999999999999999KA1999M+00001KA2999N-00221MA1103185101385MD1340094+9999OC101295REMMET12101/07/10 17:53:02 METAR KDAL 072353Z 35020G25KT 10SM SCT250 M02/M15 A3047 RMK AO2 SLP322 T10221150 10000 21022 53009 (MG)
0201722583139602010010800537+32847-096851FM-15+0149KDAL V0303605N006752200059N0160935N5-00285-01565103245ADDAA101000095GA1045+076205999GD12991+0762059GF104991999999999999999999MA1103225101415OC101085REMMET09801/07/10 18:53:02 METAR KDAL 080053Z 36013G21KT 10SM SCT250 M03/M16 A3048 RMK AO2 SLP324 T10281156
0201722583139602010010801537+32847-096851FM-15+0149KDAL V0303505N008852200059N0160935N5-00335-01615103355ADDAA101000095GA1025+091445999GD11991+0914459GF102991999999999999999999MA1103325101515OC101135REMMET09801/07/10 19:53:02 METAR KDAL 080153Z 35017G22KT 10SM FEW300 M03/M16 A3051 RMK AO2 SLP335 T10331161
0248722583139602010010802537+32847-096851FM-15+0149KDAL V0303605N007752200059N0160935N5-00395-01615103435ADDAA101000095GA1025+030485999GA2045+042675999GD11991+0304859GD22991+0426759GF104991999999999999999999MA1103395101585MD1340214+9999REMMET10801/07/10 20:53:01 METAR KDAL 080253Z 36015KT 10SM FEW100 SCT140 M04/M16 A3053 RMK AO2 SLP343 T10391161 53021
0228722583139602010010803537+32847-096851FM-15+0149KDAL V0303505N00575060965MN0160935N5-00445-01615103495ADDAA101000095GA1045+042675999GA2075+060965999GD12991+0426759GD23991+0609659GF107991999999999999999999MA1103455101655REMMET10201/07/10 21:53:01 METAR KDAL 080353Z 35011KT 10SM SCT140 BKN200 M04/M16 A3055 RMK AO2 SLP349 T10441161
0228722583139602010010804537+32847-096851FM-15+0149KDAL V0303505N00515060965MN0160935N5-00445-01615103545ADDAA101000095GA1045+042675999GA2075+060965999GD12991+0426759GD23991+0609659GF107991999999999999999999MA1103495101685REMMET10201/07/10 22:53:02 METAR KDAL 080453Z 35010KT 10SM SCT140 BKN200 M04/M16 A3056 RMK AO2 SLP354 T10441161
0307722583139602010010805537+32847-096851FM-15+0149KDAL V0303505N00675045725MN0160935N5-00505-01615103605ADDAA101000095GA1075+045725999GA2075+060965999GD13991+0457259GD23991+0609659GF107991999999999999999999KA1999M-00221KA2999N-00501MA1103565101755MD1340164+9999OC101035REMMET13301/07/10 23:53:02 METAR KDAL 080553Z 35013G20KT 10SM BKN150 BKN200 M05/M16 A3058 RMK AO2 SLP360 T10501161 11022 21050 400781050 53016
1081722583139602010010805596+32847-096851SOD  +0149KDAL V030999999999999999999999999999+99999+99999999999ADDAA124001395AJ100009599999999AL12400035AN1024000035AX1016246AX2066246KA1240M+00781KA2240N-00495MG1101394101964OE11240174335007005OE22240129634007015OE33240084999999995REMSOD82024 HR PRECIPITATION (IN):0.05  SNOW DEPTH (IN):0     24 HR SNOWFALL (IN):T    WEATHER(CODE):1,6  24 HR MAX TEMP (F):46 24 HR MAX TEMP TIME (LST):0032 24 HR MIN TEMP (F):23 24 HR MIN TEMP TIME (LST):2359 AVERAGE STATION PRESSURE:29.940 MINIMUM SEA LEVEL PRESSURE:30.11 TIME OF OCCURRENCE:0022 PEAK WIND SPEED (MPH):39  PEAK WIND DIR (DEG):350 PEAK WIND TIME (LST):0700  FASTEST 2MIN SPEED (MPH):29 FASTEST 2MIN DIR (DEG):340 FASTEST 2MIN TIME (LST):0701 AVERAGE WIND SPEED (MPH):19.0 24 HR AVG TEMP (F):35 DEPART FROM NORMAL:-10  HEATING DEGREE DAYS:30  COOLING DEGREE DAYS:0   LATEST DAY MAX TEMP (0700-1900 LST):32  LATEST NIGHT MIN TEMP(1900-0800 LST):25 HOURLY INCREMENTAL PRECIPITATION VALUES (IN):.03 0.02 T    T    T    T    T    0.00 0.00 0.00 0.00 0.00 0.00 0.00 0.00 0.00 0.00 0.00 0.00 0.00 0.00 0.00 0.00 0.00EQDR01   1,67AXW093R02   1,67AXW093R03     N7GJS072R04     N7GKS075R05    467KAX004
0233722583139602010010806537+32847-096851FM-15+0149KDAL V0303505N00825060965MN0160935N5-00565-01675103585ADDAA101000095GA1045+042675999GA2085+060965999GD12991+0426759GD24991+0609659GF108991999999999999999999MA1103565101755REMMET10701/08/10 00:53:02 METAR KDAL 080653Z 35016KT 10SM SCT140 OVC200 M06/M17 A3058 RMK AO2 SLP358 T10561167 (SW)
0233722583139602010010807537+32847-096851FM-15+0149KDAL V0303605N00775060965MN0160935N5-00565-01615103595ADDAA101000095GA1045+042675999GA2085+060965999GD12991+0426759GD24991+0609659GF108991999999999999999999MA1103565101755REMMET10701/08/10 01:53:02 METAR KDAL 080753Z 36015KT 10SM SCT140 OVC200 M06/M16 A3058 RMK AO2 SLP359 T10561161 (SW)
0264722583139602010010808537+32847-096851FM-15+0149KDAL V0303605N00825060965MN0160935N5-00675-01565103625ADDAA101000095GA1025+042675999GA2085+060965999GD11991+0426759GD24991+0609659GF108991999999999999999999MA1103595101785MD1340034+9999OC101085REMMET11601/08/10 02:53:02 METAR KDAL 080853Z 36016G21KT 10SM FEW140 OVC200 M07/M16 A3059 RMK AO2 SLP362 T10671156 53003 (SW)
0233722583139602010010809537+32847-096851FM-15+0149KDAL V0303305N00575042675MN0160935N5-00725-01505103695ADDAA101000095GA1075+042675999GA2085+060965999GD13991+0426759GD24991+0609659GF108991999999999999999999MA1103665101855REMMET10701/08/10 03:53:02 METAR KDAL 080953Z 33011KT 10SM BKN140 OVC200 M07/M15 A3061 RMK AO2 SLP369 T10721150 (SW)
0233722583139602010010810537+32847-096851FM-15+0149KDAL V0303505N00515060965MN0160935N5-00725-01565103675ADDAA101000095GA1025+042675999GA2075+060965999GD11991+0426759GD23991+0609659GF107991999999999999999999MA1103625101815REMMET10701/08/10 04:53:02 METAR KDAL 081053Z 35010KT 10SM FEW140 BKN200 M07/M16 A3060 RMK AO2 SLP367 T10721156 (SW)
0302722583139602010010811537+32847-096851FM-15+0149KDAL V0303305N00675067065MN0160935N5-00785-01505103715ADDAA101000095GA1025+042675999GA2075+067065999GD11991+0426759GD23991+0670659GF107991999999999999999999KA1999M-00501KA2999N-00781MA1103665101855MD1140074+9999OC101035REMMET12801/08/10 05:53:02 METAR KDAL 081153Z 33013G20KT 10SM FEW140 BKN220 M08/M15 A3061 RMK AO2 SLP371 T10781150 11050 21078 51007 (SW)
0233722583139602010010812537+32847-096851FM-15+0149KDAL V0303205N00625073155MN0160935N5-00835-01505103785ADDAA101000095GA1025+042675999GA2075+073155999GD11991+0426759GD23991+0731559GF107991999999999999999999MA1103735101915REMMET10701/08/10 06:53:02 METAR KDAL 081253Z 32012KT 10SM FEW140 BKN240 M08/M15 A3063 RMK AO2 SLP378 T10831150 (SW)
0233722583139602010010813537+32847-096851FM-15+0149KDAL V0303205N00625073155MN0160935N5-00835-01565103825ADDAA101000095GA1025+042675999GA2075+073155999GD11991+0426759GD23991+0731559GF107991999999999999999999MA1103765101955REMMET10701/08/10 07:53:02 METAR KDAL 081353Z 32012KT 10SM FEW140 BKN240 M08/M16 A3064 RMK AO2 SLP382 T10831156 (WF)
0264722583139602010010814537+32847-096851FM-15+0149KDAL V0303205N00825073155MN0160935N5-00835-01565103855ADDAA101000095GA1025+042675999GA2075+073155999GD11991+0426759GD23991+0731559GF107991999999999999999999MA1103795101985MD1140144+9999OC101085REMMET11601/08/10 08:53:02 METAR KDAL 081453Z 32016G21KT 10SM FEW140 BKN240 M08/M16 A3065 RMK AO2 SLP385 T10831156 51014 (WF)
0233722583139602010010815537+32847-096851FM-15+0149KDAL V0303205N00775076205MN0160935N5-00785-01565103925ADDAA101000095GA1025+042675999GA2075+076205999GD11991+0426759GD23991+0762059GF107991999999999999999999MA1103865102055REMMET10701/08/10 09:53:02 METAR KDAL 081553Z 32015KT 10SM FEW140 BKN250 M08/M16 A3067 RMK AO2 SLP392 T10781156 (WF)
0244722583139602010010816537+32847-096851FM-15+0149KDAL V0303405N00675076205MN0160935N5-00615-01565103915ADDAA101000095GA1025+042675999GA2075+076205999GD11991+0426759GD23991+0762059GF107991999999999999999999MA1103865102055OC101035REMMET11001/08/10 10:53:02 METAR KDAL 081653Z 34013G20KT 10SM FEW140 BKN250 M06/M16 A3067 RMK AO2 SLP391 T10611156 (WF)
0302722583139602010010817537+32847-096851FM-15+0149KDAL V0303305N00625076205MN0160935N5-00505-01505103815ADDAA101000095GA1025+042675999GA2075+076205999GD11991+0426759GD23991+0762059GF107991999999999999999999KA1999M-00501KA2999N-00831MA1103765101955MD1840044+9999OC101035REMMET12801/08/10 11:53:02 METAR KDAL 081753Z 33012G20KT 10SM FEW140 BKN250 M05/M15 A3064 RMK AO2 SLP381 T10501150 11050 21083 58004 (WF)
0244722583139602010010818537+32847-096851FM-15+0149KDAL V0303505N00675076205MN0160935N5-00335-01505103665ADDAA101000095GA1025+042675999GA2075+076205999GD11991+0426759GD23991+0762059GF107991999999999999999999MA1103625101815OC100985REMMET11001/08/10 12:53:02 METAR KDAL 081853Z 35013G19KT 10SM FEW140 BKN250 M03/M15 A3060 RMK AO2 SLP366 T10331150 (WF)
0233722583139602010010819537+32847-096851FM-15+0149KDAL V0303505N00575067065MN0160935N5-00225-01445103545ADDAA101000095GA1025+042675999GA2075+067065999GD11991+0426759GD23991+0670659GF107991999999999999999999MA1103495101685REMMET10701/08/10 13:53:02 METAR KDAL 081953Z 35011KT 10SM FEW140 BKN220 M02/M14 A3056 RMK AO2 SLP354 T10221144 (WF)
0226722583139602010010820537+32847-096851FM-15+0149KDAL V0303305N00625067065MN0160935N5-00175-01445103515ADDAA101000095GA1075+067065999GD13991+0670659GF107991999999999999999999MA1103455101655MD1640294+9999OC101035REMMET10901/08/10 14:53:02 METAR KDAL 082053Z 33012G20KT 10SM BKN220 M02/M14 A3055 RMK AO2 SLP351 T10171144 56029 (WF)
0195722583139602010010821537+32847-096851FM-15+0149KDAL V0303305N005752200059N0160935N5-00175-01445103475ADDAA101000095GA1045+067065999GD12991+0670659GF104991999999999999999999MA1103425101615REMMET10001/08/10 15:53:02 METAR KDAL 082153Z 33011KT 10SM SCT220 M02/M14 A3054 RMK AO2 SLP347 T10171144 (MG)
0195722583139602010010822537+32847-096851FM-15+0149KDAL V0303405N005152200059N0160935N5-00225-01445103465ADDAA101000095GA1025+067065999GD11991+0670659GF102991999999999999999999MA1103425101615REMMET10001/08/10 16:53:02 METAR KDAL 082253Z 34010KT 10SM FEW220 M02/M14 A3054 RMK AO2 SLP346 T10221144 (MG)
0253722583139602010010823537+32847-096851FM-15+0149KDAL V0303405N004152200059N0160935N5-00335-01445103495ADDAA101000095GA1025+067065999GD11991+0670659GF102991999999999999999999KA1999M-00111KA2999N-00501MA1103455101655MD1540034+9999REMMET11801/08/10 17:53:02 METAR KDAL 082353Z 34008KT 10SM FEW220 M03/M14 A3055 RMK AO2 SLP349 T10331144 11011 21050 55003 (MG)
0156722583139602010010900537+32847-096851FM-15+0149KDAL V0303405N003652200059N0160935N5-00335-01395103525ADDAA101000095GF100991999999999999999999MA1103495101685REMMET09201/08/10 18:53:01 METAR KDAL 090053Z 34007KT 10SM CLR M03/M14 A3056 RMK AO2 SLP352 T10331139
0156722583139602010010901537+32847-096851FM-15+0149KDAL V0303505N003152200059N0160935N5-00395-01395103565ADDAA101000095GF100991999999999999999999MA1103525101715REMMET09201/08/10 19:53:01 METAR KDAL 090153Z 35006KT 10SM CLR M04/M14 A3057 RMK AO2 SLP356 T10391139
0176722583139602010010902537+32847-096851FM-15+0149KDAL V0309999C000052200059N0160935N5-00505-01395103645ADDAA101000095GF100991999999999999999999MA1103595101785MD1340134+9999REMMET09801/08/10 20:53:01 METAR KDAL 090253Z 00000KT 10SM CLR M05/M14 A3059 RMK AO2 SLP364 T10501139 53013
0156722583139602010010903537+32847-096851FM-15+0149KDAL V0309999C000052200059N0160935N5-00505-01335103605ADDAA101000095GF100991999999999999999999MA1103565101755REMMET09201/08/10 21:53:01 METAR KDAL 090353Z 00000KT 10SM CLR M05/M13 A3058 RMK AO2 SLP360 T10501133
0156722583139602010010904537+32847-096851FM-15+0149KDAL V0303405N001552200059N0160935N5-00615-01395103605ADDAA101000095GF100991999999999999999999MA1103565101755REMMET09201/08/10 22:53:02 METAR KDAL 090453Z 34003KT 10SM CLR M06/M14 A3058 RMK AO2 SLP360 T10611139
0224722583139602010010905537+32847-096851FM-15+0149KDAL V0303405N002152200059N0160935N5-00725-01395103565ADDAA101000095GF100991999999999999999999KA1999M-00281KA2999N-00721MA1103525101715MD1840064+9999REMMET12001/08/10 23:53:02 METAR KDAL 090553Z 34004KT 10SM CLR M07/M14 A3057 RMK AO2 SLP356 T10721139 11028 21072 410111083 58006
0996722583139602010010905596+32847-096851SOD  +0149KDAL V030999999999999999999999999999+99999+99999999999ADDAA124000095AJ100009599999999AL12400095AN1024000095KA1240M-00105KA2240N-00825MG1101784103454OE11240116232008545OE22240093932008555OE33240052899999995REMSOD80124 HR PRECIPITATION (IN):0.00  SNOW DEPTH (IN):0     24 HR SNOWFALL (IN):0.0  24 HR MAX TEMP (F):30 24 HR MAX TEMP TIME (LST):1527 24 HR MIN TEMP (F):17 24 HR MIN TEMP TIME (LST):0947 AVERAGE STATION PRESSURE:30.055 MINIMUM SEA LEVEL PRESSURE:30.55 TIME OF OCCURRENCE:1734 PEAK WIND SPEED (MPH):26  PEAK WIND DIR (DEG):320 PEAK WIND TIME (LST):0854  FASTEST 2MIN SPEED (MPH):21 FASTEST 2MIN DIR (DEG):320 FASTEST 2MIN TIME (LST):0855 AVERAGE WIND SPEED (MPH):11.8 24 HR AVG TEMP (F):24 DEPART FROM NORMAL:-21  HEATING DEGREE DAYS:41  COOLING DEGREE DAYS:0   LATEST DAY MAX TEMP (0700-1900 LST):30  LATEST NIGHT MIN TEMP(1900-0800 LST):17 HOURLY INCREMENTAL PRECIPITATION VALUES (IN):.00 0.00 0.00 0.00 0.00 0.00 0.00 0.00 0.00 0.00 0.00 0.00 0.00 0.00 0.00 0.00 0.00 0.00 0.00 0.00 0.00 0.00 0.00 0.00EQDR01     N7GJS072R02     N7GKS075
0161722583139602010010906537+32847-096851FM-15+0149KDAL V0309999C000052200059N0160935N5-00725-01285103505ADDAA101000095GF100991999999999999999999MA1103455101655REMMET09701/09/10 00:53:02 METAR KDAL 090653Z 00000KT 10SM CLR M07/M13 A3055 RMK AO2 SLP350 T10721128 (MO)
0161722583139602010010907537+32847-096851FM-15+0149KDAL V0309999C000052200059N0160935N5-00675-01285103515ADDAA101000095GF100991999999999999999999MA1103455101655REMMET09701/09/10 01:53:02 METAR KDAL 090753Z 00000KT 10SM CLR M07/M13 A3055 RMK AO2 SLP351 T10671128 (MO)
0181722583139602010010908537+32847-096851FM-15+0149KDAL V0309999C000052200059N0160935N5-00785-01285103475ADDAA101000095GF100991999999999999999999MA1103425101615MD1640094+9999REMMET10301/09/10 02:53:02 METAR KDAL 090853Z 00000KT 10SM CLR M08/M13 A3054 RMK AO2 SLP347 T10781128 56009 (MO)
0161722583139602010010909537+32847-096851FM-15+0149KDAL V0309999C000052200059N0160935N5-00785-01335103515ADDAA101000095GF100991999999999999999999MA1103455101655REMMET09701/09/10 03:53:02 METAR KDAL 090953Z 00000KT 10SM CLR M08/M13 A3055 RMK AO2 SLP351 T10781133 (MO)
0161722583139602010010910537+32847-096851FM-15+0149KDAL V0309999C000052200059N0160935N5-00835-01335103475ADDAA101000095GF100991999999999999999999MA1103425101615REMMET09701/09/10 04:53:02 METAR KDAL 091053Z 00000KT 10SM CLR M08/M13 A3054 RMK AO2 SLP347 T10831133 (MO)
0219722583139602010010911537+32847-096851FM-15+0149KDAL V0309999C000052200059N0160935N5-00945-01285103455ADDAA101000095GF100991999999999999999999KA1999M-00611KA2999N-01001MA1103395101585MD1840024+9999REMMET11501/09/10 05:53:02 METAR KDAL 091153Z 00000KT 10SM CLR M09/M13 A3053 RMK AO2 SLP345 T10941128 11061 21100 58002 (MO)
0161722583139602010010912537+32847-096851FM-15+0149KDAL V0309999C000052200059N0160935N5-00895-01285103515ADDAA101000095GF100991999999999999999999MA1103455101655REMMET09701/09/10 06:53:02 METAR KDAL 091253Z 00000KT 10SM CLR M09/M13 A3055 RMK AO2 SLP351 T10891128 (MO)
0161722583139602010010913537+32847-096851FM-15+0149KDAL V0309999C000052200059N0160935N5-00895-01225103565ADDAA101000095GF100991999999999999999999MA1103525101715REMMET09701/09/10 07:53:02 METAR KDAL 091353Z 00000KT 10SM CLR M09/M12 A3057 RMK AO2 SLP356 T10891122 (MO)
0181722583139602010010914537+32847-096851FM-15+0149KDAL V0300705N002652200059N0160935N5-00675-01175103605ADDAA101000095GF100991999999999999999999MA1103565101755MD1140154+9999REMMET10301/09/10 08:53:02 METAR KDAL 091453Z 07005KT 10SM CLR M07/M12 A3058 RMK AO2 SLP360 T10671117 51015 TSNO
0162722583139602010010915537+32847-096851FM-15+0149KDAL V0309999V002652200059N0160935N5-00445-01335103625ADDAA101000095GF100991999999999999999999MA1103565101755REMMET09801/09/10 09:53:02 METAR KDAL 091553Z VRB05KT 10SM CLR M04/M13 A3058 RMK AO2 SLP362 T10441133 (KAP)
0162722583139602010010916537+32847-096851FM-15+0149KDAL V0300505N001552200059N0160935N5-00225-01445103635ADDAA101000095GF100991999999999999999999MA1103595101785REMMET09801/09/10 10:53:02 METAR KDAL 091653Z 05003KT 10SM CLR M02/M14 A3059 RMK AO2 SLP363 T10221144 (KAP)
0220722583139602010010917537+32847-096851FM-15+0149KDAL V0300105N002152200059N0160935N5-00115-01445103585ADDAA101000095GF100991999999999999999999KA1999M-00061KA2999N-00941MA1103565101755MD1840014+9999REMMET11601/09/10 11:53:02 METAR KDAL 091753Z 01004KT 10SM CLR M01/M14 A3058 RMK AO2 SLP358 T10111144 11006 21094 58001 (KAP)
0161722583139602010010918537+32847-096851FM-15+0149KDAL V0309999V001552200059N0160935N5+00065-01505103455ADDAA101000095GF100991999999999999999999MA1103425101615REMMET09701/09/10 12:53:02 METAR KDAL 091853Z VRB03KT 10SM CLR 01/M15 A3054 RMK AO2 SLP345 T00061150 (KAP)
0161722583139602010010919537+32847-096851FM-15+0149KDAL V0303305N001552200059N0160935N5+00175-01505103355ADDAA101000095GF100991999999999999999999MA1103325101515REMMET09701/09/10 13:53:02 METAR KDAL 091953Z 33003KT 10SM CLR 02/M15 A3051 RMK AO2 SLP335 T00171150 (KAP)
0238722583139602010010920537+32847-096851FM-15+0149KDAL V0300205N002652200059N0160935N5+00335-01445103355ADDAA101000095AA203000021GF100991999999999999999999MA1103325101515MD1640234+9999REMMET11401/09/10 14:53:02 METAR KDAL 092053Z 02005KT 10SM CLR 03/M14 A3051 RMK AO2 SLP335 P0000 60000 T00331144 56023 (MG)EQDQ01  00002PRCP03Q02  00008PRCP03
0160722583139602010010921537+32847-096851FM-15+0149KDAL V0300705N002152200059N0160935N5+00285-01445103345ADDAA101000095GF100991999999999999999999MA1103285101485REMMET09601/09/10 15:53:02 METAR KDAL 092153Z 07004KT 10SM CLR 03/M14 A3050 RMK AO2 SLP334 T00281144 (MG)
0160722583139602010010922537+32847-096851FM-15+0149KDAL V0300305N003652200059N0160935N5+00225-01395103385ADDAA101000095GF100991999999999999999999MA1103355101555REMMET09601/09/10 16:53:02 METAR KDAL 092253Z 03007KT 10SM CLR 02/M14 A3052 RMK AO2 SLP338 T00221139 (MG)
0218722583139602010010923537+32847-096851FM-15+0149KDAL V0300805N001552200059N0160935N5+00065-01335103445ADDAA101000095GF100991999999999999999999KA1999M+00331KA2999N-00111MA1103395101585MD1340084+9999REMMET11401/09/10 17:53:02 METAR KDAL 092353Z 08003KT 10SM CLR 01/M13 A3053 RMK AO2 SLP344 T00061133 10033 21011 53008 (MG)
0156722583139602010011000537+32847-096851FM-15+0149KDAL V0300605N001552200059N0160935N5-00065-01225103525ADDAA101000095GF100991999999999999999999MA1103495101685REMMET09201/09/10 18:53:01 METAR KDAL 100053Z 06003KT 10SM CLR M01/M12 A3056 RMK AO2 SLP352 T10061122
0156722583139602010011001537+32847-096851FM-15+0149KDAL V0300505N001552200059N0160935N5-00175-01175103595ADDAA101000095GF100991999999999999999999MA1103565101755REMMET09201/09/10 19:53:01 METAR KDAL 100153Z 05003KT 10SM CLR M02/M12 A3058 RMK AO2 SLP359 T10171117
0176722583139602010011002537+32847-096851FM-15+0149KDAL V0300605N002152200059N0160935N5-00225-01115103645ADDAA101000095GF100991999999999999999999MA1103595101785MD1140204+9999REMMET09801/09/10 20:53:01 METAR KDAL 100253Z 06004KT 10SM CLR M02/M11 A3059 RMK AO2 SLP364 T10221111 51020
0156722583139602010011003537+32847-096851FM-15+0149KDAL V0300505N001552200059N0160935N5-00335-01115103665ADDAA101000095GF100991999999999999999999MA1103625101815REMMET09201/09/10 21:53:02 METAR KDAL 100353Z 05003KT 10SM CLR M03/M11 A3060 RMK AO2 SLP366 T10331111
0156722583139602010011004537+32847-096851FM-15+0149KDAL V0300705N002652200059N0160935N5-00395-01115103705ADDAA101000095GF100991999999999999999999MA1103665101855REMMET09201/09/10 22:53:02 METAR KDAL 100453Z 07005KT 10SM CLR M04/M11 A3061 RMK AO2 SLP370 T10391111
0224722583139602010011005537+32847-096851FM-15+0149KDAL V0300605N002652200059N0160935N5-00445-01175103715ADDAA101000095GF100991999999999999999999KA1999M+00061KA2999N-00441MA1103665101855MD1140074+9999REMMET12001/09/10 23:53:02 METAR KDAL 100553Z 06005KT 10SM CLR M04/M12 A3061 RMK AO2 SLP371 T10441117 10006 21044 400331100 51007
0996722583139602010011005596+32847-096851SOD  +0149KDAL V030999999999999999999999999999+99999+99999999999ADDAA124000095AJ100009599999999AL12400095AN1024000095KA1240M+00335KA2240N-00995MG1101684103324OE11240067105015405OE22240044704016005OE33240013999999995REMSOD80124 HR PRECIPITATION (IN):0.00  SNOW DEPTH (IN):0     24 HR SNOWFALL (IN):0.0  24 HR MAX TEMP (F):38 24 HR MAX TEMP TIME (LST):1525 24 HR MIN TEMP (F):14 24 HR MIN TEMP TIME (LST):0533 AVERAGE STATION PRESSURE:30.025 MINIMUM SEA LEVEL PRESSURE:30.51 TIME OF OCCURRENCE:1602 PEAK WIND SPEED (MPH):15  PEAK WIND DIR (DEG):50  PEAK WIND TIME (LST):1540  FASTEST 2MIN SPEED (MPH):10 FASTEST 2MIN DIR (DEG):40  FASTEST 2MIN TIME (LST):1600 AVERAGE WIND SPEED (MPH):3.1  24 HR AVG TEMP (F):26 DEPART FROM NORMAL:-19  HEATING DEGREE DAYS:39  COOLING DEGREE DAYS:0   LATEST DAY MAX TEMP (0700-1900 LST):38  LATEST NIGHT MIN TEMP(1900-0800 LST):14 HOURLY INCREMENTAL PRECIPITATION VALUES (IN):.00 0.00 0.00 0.00 0.00 0.00 0.00 0.00 0.00 0.00 0.00 0.00 0.00 0.00 0.00 0.00 0.00 0.00 0.00 0.00 0.00 0.00 0.00 0.00EQDR01     N7GJS072R02     N7GKS075
0161722583139602010011006537+32847-096851FM-15+0149KDAL V0309999C000052200059N0160935N5-00395-01225103725ADDAA101000095GF100991999999999999999999MA1103695101885REMMET09701/10/10 00:53:02 METAR KDAL 100653Z 00000KT 10SM CLR M04/M12 A3062 RMK AO2 SLP372 T10391122 (MO)
0161722583139602010011007537+32847-096851FM-15+0149KDAL V0309999C000052200059N0160935N5-00445-01175103705ADDAA101000095GF100991999999999999999999MA1103695101885REMMET09701/10/10 01:53:02 METAR KDAL 100753Z 00000KT 10SM CLR M04/M12 A3062 RMK AO2 SLP370 T10441117 (MO)
0181722583139602010011008537+32847-096851FM-15+0149KDAL V0309999C000052200059N0160935N5-00565-01175103745ADDAA101000095GF100991999999999999999999MA1103735101915MD1340044+9999REMMET10301/10/10 02:53:02 METAR KDAL 100853Z 00000KT 10SM CLR M06/M12 A3063 RMK AO2 SLP374 T10561117 53004 (MO)
0161722583139602010011009537+32847-096851FM-15+0149KDAL V0303505N001552200059N0160935N5-00615-01175103755ADDAA101000095GF100991999999999999999999MA1103735101915REMMET09701/10/10 03:53:02 METAR KDAL 100953Z 35003KT 10SM CLR M06/M12 A3063 RMK AO2 SLP375 T10611117 (MO)
0161722583139602010011010537+32847-096851FM-15+0149KDAL V0309999C000052200059N0160935N5-00675-01175103765ADDAA101000095GF100991999999999999999999MA1103735101915REMMET09701/10/10 04:53:02 METAR KDAL 101053Z 00000KT 10SM CLR M07/M12 A3063 RMK AO2 SLP376 T10671117 (MO)
0219722583139602010011011537+32847-096851FM-15+0149KDAL V0309999C000052200059N0160935N5-00675-01115103755ADDAA101000095GF100991999999999999999999KA1999M-00391KA2999N-00721MA1103735101915MD1440004+9999REMMET11501/10/10 05:53:02 METAR KDAL 101153Z 00000KT 10SM CLR M07/M11 A3063 RMK AO2 SLP375 T10671111 11039 21072 54000 (MO)
0161722583139602010011012537+32847-096851FM-15+0149KDAL V0309999C000052200059N0160935N5-00725-01115103805ADDAA101000095GF100991999999999999999999MA1103765101955REMMET09701/10/10 06:53:02 METAR KDAL 101253Z 00000KT 10SM CLR M07/M11 A3064 RMK AO2 SLP380 T10721111 (MO)
0162722583139602010011013537+32847-096851FM-15+0149KDAL V0309999C000052200059N0160935N5-00675-01065103885ADDAA101000095GF100991999999999999999999MA1103835102015REMMET09801/10/10 07:53:02 METAR KDAL 101353Z 00000KT 10SM CLR M07/M11 A3066 RMK AO2 SLP388 T10671106 (KAP)
0182722583139602010011014537+32847-096851FM-15+0149KDAL V0309999C000052200059N0160935N5-00505-00895103935ADDAA101000095GF100991999999999999999999MA1103895102085MD1340184+9999REMMET10401/10/10 08:53:02 METAR KDAL 101453Z 00000KT 10SM CLR M05/M09 A3068 RMK AO2 SLP393 T10501089 53018 (KAP)
0162722583139602010011015537+32847-096851FM-15+0149KDAL V0301405N002152200059N0160935N5-00285-00895103965ADDAA101000095GF100991999999999999999999MA1103935102115REMMET09801/10/10 09:53:02 METAR KDAL 101553Z 14004KT 10SM CLR M03/M09 A3069 RMK AO2 SLP396 T10281089 (KAP)
0162722583139602010011016537+32847-096851FM-15+0149KDAL V0301505N002652200059N0160935N5-00065-00895103965ADDAA101000095GF100991999999999999999999MA1103935102115REMMET09801/10/10 10:53:02 METAR KDAL 101653Z 15005KT 10SM CLR M01/M09 A3069 RMK AO2 SLP396 T10061089 (KAP)
0219722583139602010011017537+32847-096851FM-15+0149KDAL V0301705N002652200059N0160935N5+00175-01005103845ADDAA101000095GF100991999999999999999999KA1999M+00171KA2999N-00781MA1103835102015MD1840084+9999REMMET11501/10/10 11:53:02 METAR KDAL 101753Z 17005KT 10SM CLR 02/M10 A3066 RMK AO2 SLP384 T00171100 10017 21078 58008 (KAP)
0161722583139602010011018537+32847-096851FM-15+0149KDAL V0301505N003652200059N0160935N5+00335-01065103675ADDAA101000095GF100991999999999999999999MA1103665101855REMMET09701/10/10 12:53:02 METAR KDAL 101853Z 15007KT 10SM CLR 03/M11 A3061 RMK AO2 SLP367 T00331106 (KAP)
0161722583139602010011019537+32847-096851FM-15+0149KDAL V0301705N002652200059N0160935N5+00505-01065103525ADDAA101000095GF100991999999999999999999MA1103495101685REMMET09701/10/10 13:53:02 METAR KDAL 101953Z 17005KT 10SM CLR 05/M11 A3056 RMK AO2 SLP352 T00501106 (KAP)
0181722583139602010011020537+32847-096851FM-15+0149KDAL V0301705N001552200059N0160935N5+00615-01065103445ADDAA101000095GF100991999999999999999999MA1103425101615MD1640394+9999REMMET10301/10/10 14:53:02 METAR KDAL 102053Z 17003KT 10SM CLR 06/M11 A3054 RMK AO2 SLP344 T00611106 56039 (KAP)
0160722583139602010011021537+32847-096851FM-15+0149KDAL V0301805N003152200059N0160935N5+00675-01005103425ADDAA101000095GF100991999999999999999999MA1103395101585REMMET09601/10/10 15:53:02 METAR KDAL 102153Z 18006KT 10SM CLR 07/M10 A3053 RMK AO2 SLP342 T00671100 (MG)
0160722583139602010011022537+32847-096851FM-15+0149KDAL V0301705N004152200059N0160935N5+00615-00945103405ADDAA101000095GF100991999999999999999999MA1103395101585REMMET09601/10/10 16:53:02 METAR KDAL 102253Z 17008KT 10SM CLR 06/M09 A3053 RMK AO2 SLP340 T00611094 (MG)
0218722583139602010011023537+32847-096851FM-15+0149KDAL V0301605N003652200059N0160935N5+00445-00895103365ADDAA101000095GF100991999999999999999999KA1999M+00671KA2999N+00111MA1103355101555MD1840074+9999REMMET11401/10/10 17:53:02 METAR KDAL 102353Z 16007KT 10SM CLR 04/M09 A3052 RMK AO2 SLP336 T00441089 10067 20011 58007 (MG)
0155722583139602010011100537+32847-096851FM-15+0149KDAL V0301705N004152200059N0160935N5+00395-00835103365ADDAA101000095GF100991999999999999999999MA1103325101515REMMET09101/10/10 18:53:01 METAR KDAL 110053Z 17008KT 10SM CLR 04/M08 A3051 RMK AO2 SLP336 T00391083
0155722583139602010011101537+32847-096851FM-15+0149KDAL V0301705N004652200059N0160935N5+00285-00835103365ADDAA101000095GF100991999999999999999999MA1103325101515REMMET09101/10/10 19:53:01 METAR KDAL 110153Z 17009KT 10SM CLR 03/M08 A3051 RMK AO2 SLP336 T00281083
0175722583139602010011102537+32847-096851FM-15+0149KDAL V0301805N003652200059N0160935N5+00115-00835103365ADDAA101000095GF100991999999999999999999MA1103325101515MD1640024+9999REMMET09701/10/10 20:53:01 METAR KDAL 110253Z 18007KT 10SM CLR 01/M08 A3051 RMK AO2 SLP336 T00111083 56002
0170722583139602010011103536+32847-096851FM-15+0149KDAL V0301705N004152200059N0160935N5+00175-00835103365ADDAA101000095GA1005+999999999GD10991+9999999MA1103325101515REMMET10101/10/10 21:53:03 METAR KDAL 110353Z 17008KT 10SM CLR 02/M08 A3051 RMK AO2 SLP336 T00171083 FIBI (MG)
0155722583139602010011104537+32847-096851FM-15+0149KDAL V0301705N003152200059N0160935N5+00005-00835103345ADDAA101000095GF100991999999999999999999MA1103325101515REMMET09101/10/10 22:53:02 METAR KDAL 110453Z 17006KT 10SM CLR 00/M08 A3051 RMK AO2 SLP334 T00001083
0223722583139602010011105537+32847-096851FM-15+0149KDAL V0301805N003652200059N0160935N5+00005-00835103325ADDAA101000095GF100991999999999999999999KA1999M+00441KA2999N-00061MA1103325101515MD1840024+9999REMMET11901/10/10 23:53:02 METAR KDAL 110553Z 18007KT 10SM CLR 00/M08 A3051 RMK AO2 SLP332 T00001083 10044 21006 400671078 58002
