0188722583139602006010100537+32847-096851FM-15+0149KDAL V0201605N00515091445MN0160935N5+02005+00005100545ADDAA101000095GA1075+091445999GD13991+0914459GF107991999999999999999999MA1100585098815REMMET09312/31/05 18:53:00 METAR KDAL 010053Z 16010KT 10SM BKN300 20/00 A2970 RMK AO2 SLP054 T02000000
0188722583139602006010101537+32847-096851FM-15+0149KDAL V0201705N00575091445MN0160935N5+01945+00065100525ADDAA101000095GA1075+091445999GD13991+0914459GF107991999999999999999999MA1100545098775REMMET09312/31/05 19:53:00 METAR KDAL 010153Z 17011KT 10SM BKN300 19/01 A2969 RMK AO2 SLP052 T01940006
0174722583139602006010102537+32847-096851FM-15+0149KDAL V0201705N005752200059N0160935N5+01895+00175100535ADDAA101000095GF100991999999999999999999MA1100585098815MD1540014+9999REMMET09612/31/05 20:53:00 METAR KDAL 010253Z 17011KT 10SM CLR 19/02 A2970 RMK AO2 SLP053 T01890017 55001
0154722583139602006010103537+32847-096851FM-15+0149KDAL V0201805N005752200059N0160935N5+01835+00445100515ADDAA101000095GF100991999999999999999999MA1100545098775REMMET09012/31/05 21:53:00 METAR KDAL 010353Z 18011KT 10SM CLR 18/04 A2969 RMK AO2 SLP051 T01830044
0154722583139602006010104537+32847-096851FM-15+0149KDAL V0202005N004652200059N0160935N5+01895+00725100515ADDAA101000095GF100991999999999999999999MA1100545098775REMMET09012/31/05 22:53:00 METAR KDAL 010453Z 20009KT 10SM CLR 19/07 A2969 RMK AO2 SLP051 T01890072
0222722583139602006010105537+32847-096851FM-15+0149KDAL V0201805N004652200059N0160935N5+01675+00785100465ADDAA101000095GF100991999999999999999999KA1999M+02331KA2999N+00331MA1100515098745MD1840064+9999REMMET11812/31/05 23:53:00 METAR KDAL 010553Z 18009KT 10SM CLR 17/08 A2968 RMK AO2 SLP046 T01670078 10206 20167 402330033 58006
0879722583139602006010105596+32847-096851SOD  +0149KDAL V020999999999999999999999999999+99999+99999999999ADDAA124000095KA1240M+02335KA2240N+00335MG1099154100444OE11240111818012015OE22240093918012035OE33240041699999995REMSOD75824 HR PRECIPITATION (IN): 0.00 24 HR MAX TEMP (F):74 24 HR MAX TEMP TIME (LST):1556 24 HR MIN TEMP (F):38 24 HR MIN TEMP TIME (LST):0650 AVERAGE STATION PRESSURE(D):29.279 MINIMUM SEA LEVEL PRESSURE:29.66 TIME OF OCCURRENCE:2357 PEAK WIND SPEED (MPH):25  PEAK WIND DIR (DEG):180 PEAK WIND TIME (LST):1201  FASTEST 2MIN SPEED (MPH):21 FASTEST 2MIN DIR (DEG):180 FASTEST 2MIN TIME (LST):1203 AVERAGE WIND SPEED (MPH): 9.3 24 HR AVG TEMP (F):56 DEPART FROM NORMAL:  10 HEATING DEGREE DAYS:  9 COOLING DEGREE DAYS:  0 LATEST DAY MAX TEMP (0700-1900 LST): 74 LATEST NIGHT MIN TEMP(1900-0800 LST):38 HOURLY INCREMENTAL PRECIPITATION VALUES (IN):0.00 0.00 0.00 0.00 0.00 0.00 0.00 0.00 0.00 0.00 0.00 0.00 0.00 0.00 0.00 0.00 0.00 0.00 0.00 0.00 0.00 0.00 0.00 0.00
1157722583139602006010105596+32847-096851SOM  +0149KDAL V020999999999999999999999999999+99999+99999999999ADDAB10010295AD10006992020999999995AE1035015005005AH1005000592011175AH2010000592012275AH3015000892011245AH4020001092011325AH5030001392011395AH6045001892011395AI1060002092012065AI2080002592012275AI3100003092012275AI4120003692012275AI5150004392012185AI6180005192012275KB1744N+03335KB2744M+15895KB3744A+09615KC1N9-00880899995KC2M9+03110399995KD1744H04705KD2744C00075MH1100174101964MK1103730810395100412715325REMSOM743PCP MTOT:0.40 DEPNRM:-2.2 PCP GT 24HRS:0.27 DATE(S):20 DAYS W/PCP >=.01:3  DAYS W/PCP >=.10:1  DAYS W/ PCP >=.50:0 DAYS W/PCP >=1.00:0 MSDP AMTS W/DATE-TIME TAGS:MIN:5 0.02  20/1117 MIN:10 0.02  20/1227 MIN:15 0.03  20/1124 MIN:20 0.04  20/1132 MIN:30 0.05  20/1139 MIN:45 0.07  20/1139 MIN:60 0.08  20/1206 MIN:80 0.10  20/1227 MIN:100 0.12  20/1227 MIN:120 0.14  20/1227 MIN:150 0.17  20/1218 MIN:180 0.20  20/1227 AVG DLY MIN:38.0  AVG DLY MAX:60.6  AVG MLY TMP:49.3  DEP NORM:1.3   MIN TMP:16 DATE(S):08 MAX TMP:88  DATE(S):03 AVG STP:29.580 LWST SLP:29.65 DATE/TIME:271532 HGST SLP:30.63 DATE/TIME:081039 HDD MTH TOT:470 DEP NORM:-57 SEASON(JUL 1-JUN 30):705 DEP NORM:-172 CDD MTH TOT:7 DEP NORM:+2 SEASON(JAN 1-DEC 31):120 DEP NORM:-2758
0159722583139602006010106537+32847-096851FM-15+0149KDAL V0301905N005152200059N0160935N5+01615+00835100425ADDAA101000095GF100991999999999999999999MA1100475098715REMMET09501/01/06 00:53:26 METAR KDAL 010653Z 19010KT 10SM CLR 16/08 A2967 RMK AO2 SLP042 T01610083 (PH)
0159722583139602006010107537+32847-096851FM-15+0149KDAL V0301805N004652200059N0160935N5+01565+00835100425ADDAA101000095GF100991999999999999999999MA1100475098715REMMET09501/01/06 01:53:26 METAR KDAL 010753Z 18009KT 10SM CLR 16/08 A2967 RMK AO2 SLP042 T01560083 (PH)
0190722583139602006010108537+32847-096851FM-15+0149KDAL V0302005N005652200059N0160935N5+01835+01115100395ADDAA101000095GF100991999999999999999999MA1100445098675MD1640054+9999OC100925REMMET10401/01/06 02:53:26 METAR KDAL 010853Z 20011G18KT 10SM CLR 18/11 A2966 RMK AO2 SLP039 T01830111 56005 (PH)
0192722583139602006010109537+32847-096851FM-15+0149KDAL V0302005N005152200059N0144845N5+01725+01225100355ADDAA101000095GA1045+091445999GD12991+0914459GF104991999999999999999999MA1100415098645REMMET09701/01/06 03:53:26 METAR KDAL 010953Z 20010KT 9SM SCT300 17/12 A2965 RMK AO2 SLP035 T01720122 (PH)
0192722583139602006010110537+32847-096851FM-15+0149KDAL V0301905N006152200059N0112655N5+01675+01335100335ADDAA101000095GA1045+091445999GD12991+0914459GF104991999999999999999999MA1100375098615REMMET09701/01/06 04:53:26 METAR KDAL 011053Z 19012KT 7SM SCT300 17/13 A2964 RMK AO2 SLP033 T01670133 (PH)
0233722583139602006010111377+32847-096851FM-16+0149KDAL V0301905N00465005185MN0096565N5+01705+01405999999ADDAU100007015GA1075+005185999GA2075+091445999GD13991+0051859GD23991+0914459GF107991999999999999999999MA1100415098645MW1055OC100925REMMET09301/01/06 05:37:26 SPECI KDAL 011137Z 19009G18KT 6SM HZ BKN017 BKN300 17/14 A2965 RMK AO2 (PH)
0305722583139602006010111537+32847-096851FM-15+0149KDAL V0302005N00615005185MN0112655N5+01725+01445100335ADDAA101000095GA1075+005185999GA2075+091445999GD13991+0051859GD23991+0914459GF107991999999999999999999KA1999M+01831KA2999N+01501MA1100375098615MD1640074+9999MW1051OC100875REMMET12501/01/06 05:55:26 METAR KDAL 011153Z 20012G17KT 7SM BKN017 BKN300 17/14 A2964 RMK AO2 SLP033 T01720144 10183 20150 56007 (PH)
0192722583139602006010112537+32847-096851FM-15+0149KDAL V0301905N00615005185MN0112655N5+01785+01445100335ADDAA101000095GA1075+005185999GD13991+0051859GF107991999999999999999999MA1100375098615REMMET09701/01/06 06:53:26 METAR KDAL 011253Z 19012KT 7SM BKN017 18/14 A2964 RMK AO2 SLP033 T01780144 (PH)
0250722583139602006010113537+32847-096851FM-15+0149KDAL V0301905N00615076205MN0096565N5+01785+01505100305ADDAA101000095AU100007015GA1025+005185999GA2075+076205999GD11991+0051859GD23991+0762059GF107991999999999999999999MA1100345098575MW1055REMMET10701/01/06 07:54:26 METAR KDAL 011353Z 19012KT 6SM HZ FEW017 BKN250 18/15 A2963 RMK AO2 SLP030 T01780150 (KH)
0261722583139602006010114537+32847-096851FM-15+0149KDAL V0301905N007152200059N0112655N5+02005+01505100305ADDAA101000095GA1025+042675999GA2045+076205999GD11991+0426759GD22991+0762059GF104991999999999999999999MA1100375098615MD1540024+9999OC101025REMMET11301/01/06 08:53:26 METAR KDAL 011453Z 19014G20KT 7SM FEW140 SCT250 20/15 A2964 RMK AO2 SLP030 T02000150 55002 (KH)
0241722583139602006010115537+32847-096851FM-15+0149KDAL V0302005N00565076205MN0128755N5+02005+01395100305ADDAA101000095GA1025+042675999GA2085+076205999GD11991+0426759GD24991+0762059GF108991999999999999999999MA1100375098615OC101075REMMET10701/01/06 09:53:26 METAR KDAL 011553Z 20011G21KT 8SM FEW140 OVC250 20/14 A2964 RMK AO2 SLP030 T02000139 (KH)
0242722583139602006010116537+32847-096851FM-15+0149KDAL V0302105N00615076205MN0160935N5+02175+01335100255ADDAA101000095GA1025+042675999GA2085+076205999GD11991+0426759GD24991+0762059GF108991999999999999999999MA1100305098545OC101125REMMET10801/01/06 10:53:26 METAR KDAL 011653Z 21012G22KT 10SM FEW140 OVC250 22/13 A2962 RMK AO2 SLP025 T02170133 (KH)
0255722583139602006010117536+32847-096851FM-15+0149KDAL V0302105N00665076205MN0160935N5+02395+01175100095ADDAA101000095GA1045+045725999GA2085+076205999GD12991+0457259GD24991+0762059MA1100175098415MD1840204+9999OC100975REMMET13301/01/06 11:53:26 METAR KDAL 011753Z 21013G19KT 10SM SCT150 OVC250 24/12 A2958 RMK AO2 PRESFR SLP009 T02390117 10239 20172 58020 (KH)
0242722583139602006010118537+32847-096851FM-15+0149KDAL V0302305N00565076205MN0160935N5+02615+00835099995ADDAA101000095GA1045+045725999GA2085+076205999GD12991+0457259GD24991+0762059GF108991999999999999999999MA1100075098315OC101175REMMET10801/01/06 12:53:26 METAR KDAL 011853Z 23011G23KT 10SM SCT150 OVC250 26/08 A2955 RMK AO2 SLP999 T02610083 (KH)
0242722583139602006010119537+32847-096851FM-15+0149KDAL V0302305N00565076205MN0160935N5+02615+00565099895ADDAA101000095GA1045+045725999GA2085+076205999GD12991+0457259GD24991+0762059GF108991999999999999999999MA1099975098215OC101025REMMET10801/01/06 13:53:26 METAR KDAL 011953Z 23011G20KT 10SM SCT150 OVC250 26/06 A2952 RMK AO2 SLP989 T02610056 (KH)
0214722583139602006010120537+32847-096851FM-15+0149KDAL V0302105N00465045725MN0160935N5+02675-00065099825ADDAA101000095GA1085+045725999GD14991+0457259GF108991999999999999999999MA1099905098145MD1640264+9999REMMET10501/01/06 14:53:26 METAR KDAL 012053Z 21009KT 10SM OVC150 27/M01 A2950 RMK AO2 SLP982 T02671006 56026 (KH)
0194722583139602006010121537+32847-096851FM-15+0149KDAL V0302105N00515045725MN0160935N5+02785+00005099835ADDAA101000095GA1075+045725999GD13991+0457259GF107991999999999999999999MA1099905098145REMMET09901/01/06 15:54:26 METAR KDAL 012153Z 21010KT 10SM BKN150 28/00 A2950 RMK AO2 SLP983 T02780000 (MGT)
0195722583139602006010122537+32847-096851FM-15+0149KDAL V0302105N005152200059N0160935N5+02725-00175099805ADDAA101000095GA1045+045725999GD12991+0457259GF104991999999999999999999MA1099865098115REMMET10001/01/06 16:53:26 METAR KDAL 012253Z 21010KT 10SM SCT150 27/M02 A2949 RMK AO2 SLP980 T02721017 (MGT)
0253722583139602006010123537+32847-096851FM-15+0149KDAL V0302105N00365021345MN0160935N5+02615-00565099875ADDAA101000095GA1075+021345999GD13991+0213459GF107991999999999999999999KA1999M+02781KA2999N+02391MA1099935098175MD1340044+9999REMMET11801/01/06 17:53:26 METAR KDAL 012353Z 21007KT 10SM BKN070 26/M06 A2951 RMK AO2 SLP987 T02611056 10278 20239 53004 (MGT)
0195722583139602006010200537+32847-096851FM-15+0149KDAL V0302205N00315021345MN0160935N5+02445-00565099955ADDAA101000095GA1085+021345999GD14991+0213459GF108991999999999999999999MA1100005098245REMMET10001/01/06 18:53:26 METAR KDAL 020053Z 22006KT 10SM OVC070 24/M06 A2953 RMK AO2 SLP995 T02441056 (MGT)
0195722583139602006010201537+32847-096851FM-15+0149KDAL V0302705N00315021345MN0160935N5+02335-00565100095ADDAA101000095GA1085+021345999GD14991+0213459GF108991999999999999999999MA1100145098375REMMET10001/01/06 19:53:26 METAR KDAL 020153Z 27006KT 10SM OVC070 23/M06 A2957 RMK AO2 SLP009 T02331056 (MGT)
0278722583139602006010202537+32847-096851FM-15+0149KDAL V0302905N00265021345MN0080475N5+02395-00945100235ADDAA101000095AU100003015AW1055GA1045+006105999GA2085+021345999GD12991+0061059GD24991+0213459GF108991999999999999999999MA1100305098545MD1340364+9999MW1041REMMET11501/01/06 20:53:26 METAR KDAL 020253Z 29005KT 5SM FU SCT020 OVC070 24/M09 A2962 RMK AO2 SLP023 T02391094 53036 (MGT)
0258722583139602006010203537+32847-096851FM-15+0149KDAL V0302405N00205021345MN0080475N5+02285-00945100285ADDAA101000095AU100003015AW1055GA1025+007015999GA2085+021345999GD11991+0070159GD24991+0213459GF108991999999999999999999MA1100345098575MW1041REMMET10901/01/06 21:53:26 METAR KDAL 020353Z 24004KT 5SM FU FEW023 OVC070 23/M09 A2963 RMK AO2 SLP028 T02281094 (MGT)
0230722583139602006010204537+32847-096851FM-15+0149KDAL V0302605N00265021345MN0048285N5+02175-00945100375ADDAA101000095AU100003015AW1055GA1075+021345999GD13991+0213459GF107991999999999999999999MA1100445098675MW1041REMMET11201/01/06 22:53:26 METAR KDAL 020453Z 26005KT 3SM FU BKN070 22/M09 A2966 RMK AO2 SFC VIS 5 SLP037 T02171094 (MGT)
0257722583139602006010205537+32847-096851FM-15+0149KDAL V0302805N003152200059N0048285N5+02115-00895100465ADDAA101000095AU100007015GF100991999999999999999999KA1999M+02781KA2999N+01501MA1100515098745MD1340224+9999MW1055REMMET13601/01/06 23:56:26 METAR KDAL 020553Z 28006KT 3SM HZ CLR 21/M09 A2968 RMK AO2 SFC VIS 5 SLP046 T02111089 10261 20211 402780150 53022 (SW)
0899722583139602006010205596+32847-096851SOD  +0149KDAL V030999999999999999999999999999+99999+99999999999ADDAA124000095AJ100009199999999AN1024000099AX1085245KA1024M+02785KA2024N+01505MG1098489099804OE11240125221012255OE22240093922014305OE33240048799999995REMSOD74024 HR PRECIPITATION (IN): 0.00 WEATHER(CODE):8  24 HR MAX TEMP (F):82 24 HR MAX TEMP TIME (LST):1642 24 HR MIN TEMP (F):59 24 HR MIN TEMP TIME (LST):0218 MINIMUM SEA LEVEL PRESSURE:29.47 TIME OF OCCURRENCE:1705 PEAK WIND SPEED (MPH):28  PEAK WIND DIR (DEG):210 PEAK WIND TIME (LST):1225  FASTEST 2MIN SPEED (MPH):21 FASTEST 2MIN DIR (DEG):220 FASTEST 2MIN TIME (LST):1430 AVERAGE WIND SPEED (MPH):10.9 24 HR AVG TEMP (F):71 DEPART FROM NORMAL:  25 HEATING DEGREE DAYS:  0 COOLING DEGREE DAYS:  6 LATEST DAY MAX TEMP (0700-1900 LST): 82 LATEST NIGHT MIN TEMP(1900-0800 LST):59 HOURLY INCREMENTAL PRECIPITATION VALUES (IN):0.00 0.00 0.00 0.00 0.00 0.00 0.00 0.00 0.00 0.00 0.00 0.00 0.00 0.00 0.00 0.00 0.00 0.00 0.00 0.00 0.00 0.00 0.00 0.00
0179722583139602006010206537+32847-096851FM-15+0149KDAL V0303005N003152200059N0080475N5+01895-00785100595ADDAA101000095AU100007015GF100991999999999999999999MA1100645098875MW1055REMMET09801/02/06 00:53:26 METAR KDAL 020653Z 30006KT 5SM HZ CLR 19/M08 A2972 RMK AO2 SLP059 T01891078 (SW)
0179722583139602006010207537+32847-096851FM-15+0149KDAL V0302805N003652200059N0096565N5+01785-00725100685ADDAA101000095AU100007015GF100991999999999999999999MA1100755098975MW1055REMMET09801/02/06 01:53:26 METAR KDAL 020753Z 28007KT 6SM HZ CLR 18/M07 A2975 RMK AO2 SLP068 T01781072 (SW)
0179722583139602006010208537+32847-096851FM-15+0149KDAL V0302905N003652200059N0128755N5+01725-00115100775ADDAA101000095GF100991999999999999999999MA1100815099045MD1140304+9999REMMET10101/02/06 02:53:26 METAR KDAL 020853Z 29007KT 8SM CLR 17/M01 A2977 RMK AO2 SLP077 T01721011 51030 (SW)
0159722583139602006010209537+32847-096851FM-15+0149KDAL V0303005N004652200059N0160935N5+01615+00115100885ADDAA101000095GF100991999999999999999999MA1100955099185REMMET09501/02/06 03:53:26 METAR KDAL 020953Z 30009KT 10SM CLR 16/01 A2981 RMK AO2 SLP088 T01610011 (SW)
0159722583139602006010210537+32847-096851FM-15+0149KDAL V0303005N006152200059N0160935N5+01565+00225100935ADDAA101000095GF100991999999999999999999MA1100985099215REMMET09501/02/06 04:53:26 METAR KDAL 021053Z 30012KT 10SM CLR 16/02 A2982 RMK AO2 SLP093 T01560022 (SW)
0217722583139602006010211537+32847-096851FM-15+0149KDAL V0303005N005152200059N0160935N5+01505+00285101005ADDAA101000095GF100991999999999999999999KA1999M+02111KA2999N+01501MA1101055099285MD1140234+9999REMMET11301/02/06 05:53:26 METAR KDAL 021153Z 30010KT 10SM CLR 15/03 A2984 RMK AO2 SLP100 T01500028 10211 20150 51023 (SW)
0159722583139602006010212537+32847-096851FM-15+0149KDAL V0303005N005152200059N0160935N5+01445+00285101135ADDAA101000095GF100991999999999999999999MA1101195099415REMMET09501/02/06 06:53:26 METAR KDAL 021253Z 30010KT 10SM CLR 14/03 A2988 RMK AO2 SLP113 T01440028 (GR)
0193722583139602006010213537+32847-096851FM-15+0149KDAL V0303005N003152200059N0160935N5+01335+00335101215ADDAA101000095GA1025+091445999GD11991+0914459GF102991999999999999999999MA1101255099485REMMET09801/02/06 07:53:26 METAR KDAL 021353Z 30006KT 10SM FEW300 13/03 A2990 RMK AO2 SLP121 T01330033 (GR)
0213722583139602006010214537+32847-096851FM-15+0149KDAL V0302905N003652200059N0160935N5+01505+00285101365ADDAA101000095GA1025+091445999GD11991+0914459GF102991999999999999999999MA1101425099645MD1340354+9999REMMET10401/02/06 08:53:26 METAR KDAL 021453Z 29007KT 10SM FEW300 15/03 A2995 RMK AO2 SLP136 T01500028 53035 (GR)
0193722583139602006010215537+32847-096851FM-15+0149KDAL V0303205N006652200059N0160935N5+01675+00225101485ADDAA101000095GA1025+091445999GD11991+0914459GF102991999999999999999999MA1101525099745REMMET09801/02/06 09:53:26 METAR KDAL 021553Z 32013KT 10SM FEW300 17/02 A2998 RMK AO2 SLP148 T01670022 (GR)
0193722583139602006010216537+32847-096851FM-15+0149KDAL V0303005N005152200059N0160935N5+01725+00225101525ADDAA101000095GA1045+091445999GD12991+0914459GF104991999999999999999999MA1101565099785REMMET09801/02/06 10:53:26 METAR KDAL 021653Z 30010KT 10SM SCT300 17/02 A2999 RMK AO2 SLP152 T01720022 (GR)
0251722583139602006010217537+32847-096851FM-15+0149KDAL V0302805N006152200059N0160935N5+01835+00175101495ADDAA101000095GA1025+091445999GD11991+0914459GF102991999999999999999999KA1999M+01831KA2999N+01331MA1101525099745MD1040134+9999REMMET11601/02/06 11:53:26 METAR KDAL 021753Z 28012KT 10SM FEW300 18/02 A2998 RMK AO2 SLP149 T01830017 10183 20133 50013 (GR)
0193722583139602006010218537+32847-096851FM-15+0149KDAL V0303005N005652200059N0160935N5+02005+00175101405ADDAA101000095GA1025+091445999GD11991+0914459GF102991999999999999999999MA1101465099685REMMET09801/02/06 12:53:26 METAR KDAL 021853Z 30011KT 10SM FEW300 20/02 A2996 RMK AO2 SLP140 T02000017 (GR)
0193722583139602006010219537+32847-096851FM-15+0149KDAL V0303005N005152200059N0160935N5+02115+00065101385ADDAA101000095GA1025+091445999GD11991+0914459GF102991999999999999999999MA1101425099645REMMET09801/02/06 13:53:26 METAR KDAL 021953Z 30010KT 10SM FEW300 21/01 A2995 RMK AO2 SLP138 T02110006 (GR)
0225722583139602006010220537+32847-096851FM-15+0149KDAL V0302905N004152200059N0160935N5+02225-00065101405ADDAA101000095GA1025+091445999GD11991+0914459GF102991999999999999999999MA1101465099685MD1540084+9999OC100925REMMET10801/02/06 14:53:26 METAR KDAL 022053Z 29008G18KT 10SM FEW300 22/M01 A2996 RMK AO2 SLP140 T02221006 55008 (KH)
0194722583139602006010221537+32847-096851FM-15+0149KDAL V0303205N005152200059N0160935N5+02225-00115101425ADDAA101000095GA1045+091445999GD12991+0914459GF104991999999999999999999MA1101495099715REMMET09901/02/06 15:53:26 METAR KDAL 022153Z 32010KT 10SM SCT300 22/M01 A2997 RMK AO2 SLP142 T02221011 (KH)
0194722583139602006010222537+32847-096851FM-15+0149KDAL V0303105N004152200059N0160935N5+02175-00115101465ADDAA101000095GA1045+091445999GD12991+0914459GF104991999999999999999999MA1101525099745REMMET09901/02/06 16:53:26 METAR KDAL 022253Z 31008KT 10SM SCT300 22/M01 A2998 RMK AO2 SLP146 T02171011 (KH)
0252722583139602006010223537+32847-096851FM-15+0149KDAL V0303005N002652200059N0160935N5+02005-00115101495ADDAA101000095GA1045+091445999GD12991+0914459GF104991999999999999999999KA1999M+02221KA2999N+01831MA1101565099785MD1340094+9999REMMET11701/02/06 17:53:26 METAR KDAL 022353Z 30005KT 10SM SCT300 20/M01 A2999 RMK AO2 SLP149 T02001011 10222 20183 53009 (KH)
0194722583139602006010300537+32847-096851FM-15+0149KDAL V0302905N003152200059N0160935N5+01835-00065101585ADDAA101000095GA1025+091445999GD11991+0914459GF102991999999999999999999MA1101635099845REMMET09901/02/06 18:53:26 METAR KDAL 030053Z 29006KT 10SM FEW300 18/M01 A3001 RMK AO2 SLP158 T01831006 (KH)
0194722583139602006010301537+32847-096851FM-15+0149KDAL V0303205N003152200059N0160935N5+01565-00115101585ADDAA101000095GA1045+091445999GD12991+0914459GF104991999999999999999999MA1101635099845REMMET09901/02/06 19:53:26 METAR KDAL 030153Z 32006KT 10SM SCT300 16/M01 A3001 RMK AO2 SLP158 T01561011 (KH)
0214722583139602006010302537+32847-096851FM-15+0149KDAL V0303505N002652200059N0160935N5+01565-00115101595ADDAA101000095GA1025+091445999GD11991+0914459GF102991999999999999999999MA1101635099845MD1140084+9999REMMET10501/02/06 20:53:26 METAR KDAL 030253Z 35005KT 10SM FEW300 16/M01 A3001 RMK AO2 SLP159 T01561011 51008 (KH)
0165722583139602006010302534+32833-096850FM-16+0152KDAL V0203501N002612200019N0160931N1+01601-00101101591ADDGD11991+0900019GF102991999999999999999999MA1101631999999MD1110081+9999REMMET083SPECI KDAL 030253Z 35005KT 10SM FEW300 16/M01 A3001 RMK AO2 SLP159 T01561011 51008;
0194722583139602006010303537+32847-096851FM-15+0149KDAL V0309999C000052200059N0160935N5+01335-00065101575ADDAA101000095GA1025+091445999GD11991+0914459GF102991999999999999999999MA1101635099845REMMET09901/02/06 21:53:26 METAR KDAL 030353Z 00000KT 10SM FEW300 13/M01 A3001 RMK AO2 SLP157 T01331006 (KH)
0159722583139602006010304537+32847-096851FM-15+0149KDAL V0301705N001552200059N0160935N5+01065+00005101655ADDAA101000095GF100991999999999999999999MA1101695099915REMMET09501/02/06 22:53:26 METAR KDAL 030453Z 17003KT 10SM CLR 11/00 A3003 RMK AO2 SLP165 T01060000 (KH)
0227722583139602006010305537+32847-096851FM-15+0149KDAL V0309999C000052200059N0160935N5+00945+00115101615ADDAA101000095GF100991999999999999999999KA1999M+02221KA2999N+00941MA1101665099885MD1040024+9999REMMET12301/02/06 23:53:26 METAR KDAL 030553Z 00000KT 10SM CLR 09/01 A3002 RMK AO2 SLP161 T00940011 10200 20094 402220094 50002 (KH)
0899722583139602006010305596+32847-096851SOD  +0149KDAL V030999999999999999999999999999+99999+99999999999ADDAA124000095AJ100009199999999AN1024000099AX1085245KA1024M+02225KA2024N+00945MG1099569100474OE11240098329015215OE22240076031014575OE33240038999999995REMSOD74024 HR PRECIPITATION (IN): 0.00 WEATHER(CODE):8  24 HR MAX TEMP (F):72 24 HR MAX TEMP TIME (LST):1634 24 HR MIN TEMP (F):49 24 HR MIN TEMP TIME (LST):2359 MINIMUM SEA LEVEL PRESSURE:29.67 TIME OF OCCURRENCE:0001 PEAK WIND SPEED (MPH):22  PEAK WIND DIR (DEG):290 PEAK WIND TIME (LST):1521  FASTEST 2MIN SPEED (MPH):17 FASTEST 2MIN DIR (DEG):310 FASTEST 2MIN TIME (LST):1457 AVERAGE WIND SPEED (MPH): 8.7 24 HR AVG TEMP (F):61 DEPART FROM NORMAL:  15 HEATING DEGREE DAYS:  4 COOLING DEGREE DAYS:  0 LATEST DAY MAX TEMP (0700-1900 LST): 72 LATEST NIGHT MIN TEMP(1900-0800 LST):56 HOURLY INCREMENTAL PRECIPITATION VALUES (IN):0.00 0.00 0.00 0.00 0.00 0.00 0.00 0.00 0.00 0.00 0.00 0.00 0.00 0.00 0.00 0.00 0.00 0.00 0.00 0.00 0.00 0.00 0.00 0.00
0159722583139602006010306537+32847-096851FM-15+0149KDAL V0309999C000052200059N0160935N5+01005+00065101615ADDAA101000095GF100991999999999999999999MA1101665099885REMMET09501/03/06 00:53:26 METAR KDAL 030653Z 00000KT 10SM CLR 10/01 A3002 RMK AO2 SLP161 T01000006 (KH)
0159722583139602006010307537+32847-096851FM-15+0149KDAL V0301805N001552200059N0160935N5+01005+00225101635ADDAA101000095GF100991999999999999999999MA1101665099885REMMET09501/03/06 01:53:26 METAR KDAL 030753Z 18003KT 10SM CLR 10/02 A3002 RMK AO2 SLP163 T01000022 (KH)
0179722583139602006010308537+32847-096851FM-15+0149KDAL V0309999C000052200059N0160935N5+00835+00115101665ADDAA101000095GF100991999999999999999999MA1101695099915MD1340064+9999REMMET10101/03/06 02:53:26 METAR KDAL 030853Z 00000KT 10SM CLR 08/01 A3003 RMK AO2 SLP166 T00830011 53006 (KH)
0159722583139602006010309537+32847-096851FM-15+0149KDAL V0309999C000052200059N0160935N5+00725+00175101605ADDAA101000095GF100991999999999999999999MA1101665099885REMMET09501/03/06 03:53:26 METAR KDAL 030953Z 00000KT 10SM CLR 07/02 A3002 RMK AO2 SLP160 T00720017 (KH)
0193722583139602006010310537+32847-096851FM-15+0149KDAL V0309999C000052200059N0160935N5+00835+00005101625ADDAA101000095GA1025+042675999GD11991+0426759GF102991999999999999999999MA1101665099885REMMET09801/03/06 04:53:26 METAR KDAL 031053Z 00000KT 10SM FEW140 08/00 A3002 RMK AO2 SLP162 T00830000 (KH)
0217722583139602006010311537+32847-096851FM-15+0149KDAL V0309999C000052200059N0160935N5+00785+00115101715ADDAA101000095GF100991999999999999999999KA1999M+01001KA2999N+00611MA1101735099945MD1340044+9999REMMET11301/03/06 05:53:26 METAR KDAL 031153Z 00000KT 10SM CLR 08/01 A3004 RMK AO2 SLP171 T00780011 10100 20061 53004 (KH)
0159722583139602006010312537+32847-096851FM-15+0149KDAL V0309999C000052200059N0160935N5+00785+00065101765ADDAA101000095GF100991999999999999999999MA1101795100015REMMET09501/03/06 06:53:26 METAR KDAL 031253Z 00000KT 10SM CLR 08/01 A3006 RMK AO2 SLP176 T00780006 (GR)
0193722583139602006010313537+32847-096851FM-15+0149KDAL V0309999C000052200059N0160935N5+00675+00115101805ADDAA101000095GA1025+091445999GD11991+0914459GF102991999999999999999999MA1101835100045REMMET09801/03/06 07:53:26 METAR KDAL 031353Z 00000KT 10SM FEW300 07/01 A3007 RMK AO2 SLP180 T00670011 (GR)
0213722583139602006010314537+32847-096851FM-15+0149KDAL V0301805N004152200059N0160935N5+01395+00115101765ADDAA101000095GA1025+091445999GD11991+0914459GF102991999999999999999999MA1101795100015MD1040064+9999REMMET10401/03/06 08:53:26 METAR KDAL 031453Z 18008KT 10SM FEW300 14/01 A3006 RMK AO2 SLP176 T01390011 50006 (GR)
0193722583139602006010315537+32847-096851FM-15+0149KDAL V0301605N004652200059N0160935N5+01675+00005101845ADDAA101000095GA1025+091445999GD11991+0914459GF102991999999999999999999MA1101865100085REMMET09801/03/06 09:53:26 METAR KDAL 031553Z 16009KT 10SM FEW300 17/00 A3008 RMK AO2 SLP184 T01670000 (GR)
0160722583139602006010316537+32847-096851FM-15+0149KDAL V0301705N007152200059N0160935N5+02115-00115101775ADDAA101000095GF100991999999999999999999MA1101795100015REMMET09601/03/06 10:53:26 METAR KDAL 031653Z 17014KT 10SM CLR 21/M01 A3006 RMK AO2 SLP177 T02111011 (GR)
0218722583139602006010317537+32847-096851FM-15+0149KDAL V0301705N005652200059N0160935N5+02335-00175101615ADDAA101000095GF100991999999999999999999KA1999M+02331KA2999N+00611MA1101665099885MD1840154+9999REMMET11401/03/06 11:53:26 METAR KDAL 031753Z 17011KT 10SM CLR 23/M02 A3002 RMK AO2 SLP161 T02331017 10233 20061 58015 (GR)
0160722583139602006010318537+32847-096851FM-15+0149KDAL V0301605N005652200059N0160935N5+02565-00175101435ADDAA101000095GF100991999999999999999999MA1101495099715REMMET09601/03/06 12:53:26 METAR KDAL 031853Z 16011KT 10SM CLR 26/M02 A2997 RMK AO2 SLP143 T02561017 (GR)
0160722583139602006010319537+32847-096851FM-15+0149KDAL V0301905N005152200059N0160935N5+02725-00225101315ADDAA101000095GF100991999999999999999999MA1101355099585REMMET09601/03/06 13:53:26 METAR KDAL 031953Z 19010KT 10SM CLR 27/M02 A2993 RMK AO2 SLP131 T02721022 (GR)
0180722583139602006010320537+32847-096851FM-15+0149KDAL V0302005N003652200059N0160935N5+02835-00395101255ADDAA101000095GF100991999999999999999999MA1101295099515MD1640344+9999REMMET10201/03/06 14:53:26 METAR KDAL 032053Z 20007KT 10SM CLR 28/M04 A2991 RMK AO2 SLP125 T02831039 56034 (GR)
0160722583139602006010321537+32847-096851FM-15+0149KDAL V0302105N004152200059N0160935N5+02835-00395101235ADDAA101000095GF100991999999999999999999MA1101295099515REMMET09601/03/06 15:53:26 METAR KDAL 032153Z 21008KT 10SM CLR 28/M04 A2991 RMK AO2 SLP123 T02831039 (MG)
0160722583139602006010322537+32847-096851FM-15+0149KDAL V0301805N006152200059N0160935N5+02725-00335101215ADDAA101000095GF100991999999999999999999MA1101255099485REMMET09601/03/06 16:53:26 METAR KDAL 032253Z 18012KT 10SM CLR 27/M03 A2990 RMK AO2 SLP121 T02721033 (MG)
0252722583139602006010323537+32847-096851FM-15+0149KDAL V0301705N005152200059N0160935N5+02505-00225101235ADDAA101000095GA1025+091445999GD11991+0914459GF102991999999999999999999KA1999M+02831KA2999N+02331MA1101255099485MD1540034+9999REMMET11701/03/06 17:53:26 METAR KDAL 032353Z 17010KT 10SM FEW300 25/M02 A2990 RMK AO2 SLP123 T02501022 10283 20233 55003 (MG)
0194722583139602006010400537+32847-096851FM-15+0149KDAL V0301805N003652200059N0160935N5+02285-00225101245ADDAA101000095GA1025+091445999GD11991+0914459GF102991999999999999999999MA1101295099515REMMET09901/03/06 18:53:26 METAR KDAL 040053Z 18007KT 10SM FEW300 23/M02 A2991 RMK AO2 SLP124 T02281022 (MG)
0160722583139602006010401537+32847-096851FM-15+0149KDAL V0301705N005652200059N0160935N5+02285-00175101275ADDAA101000095GF100991999999999999999999MA1101325099545REMMET09601/03/06 19:53:26 METAR KDAL 040153Z 17011KT 10SM CLR 23/M02 A2992 RMK AO2 SLP127 T02281017 (MG)
0180722583139602006010402537+32847-096851FM-15+0149KDAL V0301705N005652200059N0160935N5+02225-00115101235ADDAA101000095GF100991999999999999999999MA1101295099515MD1040014+9999REMMET10201/03/06 20:53:26 METAR KDAL 040253Z 17011KT 10SM CLR 22/M01 A2991 RMK AO2 SLP123 T02221011 50001 (MG)
0159722583139602006010403537+32847-096851FM-15+0149KDAL V0301905N004652200059N0160935N5+02335+00115101215ADDAA101000095GF100991999999999999999999MA1101255099485REMMET09501/03/06 21:53:26 METAR KDAL 040353Z 19009KT 10SM CLR 23/01 A2990 RMK AO2 SLP121 T02330011 (MG)
0159722583139602006010404537+32847-096851FM-15+0149KDAL V0301705N004152200059N0160935N5+02005+00175101215ADDAA101000095GF100991999999999999999999MA1101295099515REMMET09501/03/06 22:53:26 METAR KDAL 040453Z 17008KT 10SM CLR 20/02 A2991 RMK AO2 SLP121 T02000017 (MG)
0261722583139602006010405537+32847-096851FM-15+0149KDAL V0302105N004652200059N0160935N5+02115+00225101275ADDAA101000095GA1025+076205999GD11991+0762059GF102991999999999999999999KA1999M+02831KA2999N+00611MA1101325099545MD1340054+9999REMMET12601/03/06 23:53:26 METAR KDAL 040553Z 21009KT 10SM FEW250 21/02 A2992 RMK AO2 SLP127 T02110022 10250 20200 402830061 53005 (SW)
0873722583139602006010405596+32847-096851SOD  +0149KDAL V030999999999999999999999999999+99999+99999999999ADDAA124000095AJ100009199999999AN1024000099KA1024M+02835KA2024N+00615MG1099739101194OE11240093917011205OE22240076017011225OE33240034099999995REMSOD72324 HR PRECIPITATION (IN): 0.00 24 HR MAX TEMP (F):83 24 HR MAX TEMP TIME (LST):1621 24 HR MIN TEMP (F):43 24 HR MIN TEMP TIME (LST):0801 MINIMUM SEA LEVEL PRESSURE:29.88 TIME OF OCCURRENCE:2302 PEAK WIND SPEED (MPH):21  PEAK WIND DIR (DEG):170 PEAK WIND TIME (LST):1120  FASTEST 2MIN SPEED (MPH):17 FASTEST 2MIN DIR (DEG):170 FASTEST 2MIN TIME (LST):1122 AVERAGE WIND SPEED (MPH): 7.6 24 HR AVG TEMP (F):63 DEPART FROM NORMAL:  18 HEATING DEGREE DAYS:  2 COOLING DEGREE DAYS:  0 LATEST DAY MAX TEMP (0700-1900 LST): 83 LATEST NIGHT MIN TEMP(1900-0800 LST):43 HOURLY INCREMENTAL PRECIPITATION VALUES (IN):0.00 0.00 0.00 0.00 0.00 0.00 0.00 0.00 0.00 0.00 0.00 0.00 0.00 0.00 0.00 0.00 0.00 0.00 0.00 0.00 0.00 0.00 0.00 0.00
0193722583139602006010406537+32847-096851FM-15+0149KDAL V0302105N00415076205MN0160935N5+02005+00175101295ADDAA101000095GA1075+076205999GD13991+0762059GF107991999999999999999999MA1101355099585REMMET09801/04/06 00:53:26 METAR KDAL 040653Z 21008KT 10SM BKN250 20/02 A2993 RMK AO2 SLP129 T02000017 (SW)
0193722583139602006010407537+32847-096851FM-15+0149KDAL V0302105N001552200059N0160935N5+01725+00225101395ADDAA101000095GA1045+076205999GD12991+0762059GF104991999999999999999999MA1101465099685REMMET09801/04/06 01:53:26 METAR KDAL 040753Z 21003KT 10SM SCT250 17/02 A2996 RMK AO2 SLP139 T01720022 (SW)
0213722583139602006010408537+32847-096851FM-15+0149KDAL V0302405N00155076205MN0160935N5+01725+00225101415ADDAA101000095GA1075+076205999GD13991+0762059GF107991999999999999999999MA1101465099685MD1340144+9999REMMET10401/04/06 02:53:26 METAR KDAL 040853Z 24003KT 10SM BKN250 17/02 A2996 RMK AO2 SLP141 T01720022 53014 (SW)
0193722583139602006010409537+32847-096851FM-15+0149KDAL V0302205N00155076205MN0160935N5+01565+00225101435ADDAA101000095GA1075+076205999GD13991+0762059GF107991999999999999999999MA1101495099715REMMET09801/04/06 03:53:26 METAR KDAL 040953Z 22003KT 10SM BKN250 16/02 A2997 RMK AO2 SLP143 T01560022 (SW)
0193722583139602006010410537+32847-096851FM-15+0149KDAL V0309999C00005076205MN0160935N5+01445+00225101465ADDAA101000095GA1075+076205999GD13991+0762059GF107991999999999999999999MA1101525099745REMMET09801/04/06 04:53:26 METAR KDAL 041053Z 00000KT 10SM BKN250 14/02 A2998 RMK AO2 SLP146 T01440022 (SW)
0251722583139602006010411537+32847-096851FM-15+0149KDAL V0309999C00005076205MN0160935N5+01175+00285101595ADDAA101000095GA1075+076205999GD13991+0762059GF107991999999999999999999KA1999M+02171KA2999N+01111MA1101635099845MD1340174+9999REMMET11601/04/06 05:55:26 METAR KDAL 041153Z 00000KT 10SM BKN250 12/03 A3001 RMK AO2 SLP159 T01170028 10217 20111 53017 (SW)
0232722583139602006010412537+32847-096851FM-15+0149KDAL V0303305N00415076205MN0160935N5+01445-00115101705ADDAA101000095GA1045+039625999GA2075+076205999GD12991+0396259GD23991+0762059GF107991999999999999999999MA1101765099985REMMET10601/04/06 06:53:26 METAR KDAL 041253Z 33008KT 10SM SCT130 BKN250 14/M01 A3005 RMK AO2 SLP170 T01441011 (GR)
0232722583139602006010413537+32847-096851FM-15+0149KDAL V0303305N00515091445MN0160935N5+01445-00395101805ADDAA101000095GA1045+039625999GA2085+091445999GD12991+0396259GD24991+0914459GF108991999999999999999999MA1101865100085REMMET10601/04/06 07:53:26 METAR KDAL 041353Z 33010KT 10SM SCT130 OVC300 14/M04 A3008 RMK AO2 SLP180 T01441039 (GR)
0290722583139602006010414537+32847-096851FM-15+0149KDAL V0303405N00565060965MN0160935N5+01565-00285101925ADDAA101000095GA1025+039625999GA2075+060965999GA3085+091445999GD11991+0396259GD23991+0609659GD34991+0914459GF108991999999999999999999MA1101965100185MD1340334+9999REMMET11901/04/06 08:53:26 METAR KDAL 041453Z 34011KT 10SM FEW130 BKN200 OVC300 16/M03 A3011 RMK AO2 SLP192 T01561028 53033 (GR)
0232722583139602006010415537+32847-096851FM-15+0149KDAL V0303505N00515091445MN0160935N5+01675-00175102035ADDAA101000095GA1025+039625999GA2085+091445999GD11991+0396259GD24991+0914459GF108991999999999999999999MA1102075100285REMMET10601/04/06 09:53:26 METAR KDAL 041553Z 35010KT 10SM FEW130 OVC300 17/M02 A3014 RMK AO2 SLP203 T01671017 (GR)
0231722583139602006010416537+32847-096851FM-15+0149KDAL V0303605N00615091445MN0160935N5+01725+00005102105ADDAA101000095GA1045+039625999GA2085+091445999GD12991+0396259GD24991+0914459GF108991999999999999999999MA1102135100345REMMET10501/04/06 10:53:26 METAR KDAL 041653Z 36012KT 10SM SCT130 OVC300 17/00 A3016 RMK AO2 SLP210 T01720000 (GR)
0289722583139602006010417537+32847-096851FM-15+0149KDAL V0303405N00515091445MN0160935N5+01785+00065102045ADDAA101000095GA1045+039625999GA2085+091445999GD12991+0396259GD24991+0914459GF108991999999999999999999KA1999M+01781KA2999N+01171MA1102105100315MD1040114+9999REMMET12301/04/06 11:53:26 METAR KDAL 041753Z 34010KT 10SM SCT130 OVC300 18/01 A3015 RMK AO2 SLP204 T01780006 10178 20117 50011 (GR)
0269722583139602006010418537+32847-096851FM-15+0149KDAL V0303305N00465045725MN0160935N5+01895+00065101945ADDAA101000095GA1025+036585999GA2075+045725999GA3085+091445999GD11991+0365859GD23991+0457259GD34991+0914459GF108991999999999999999999MA1102005100215REMMET11201/04/06 12:53:26 METAR KDAL 041853Z 33009KT 10SM FEW120 BKN150 OVC300 19/01 A3012 RMK AO2 SLP194 T01890006 (GR)
0231722583139602006010419537+32847-096851FM-15+0149KDAL V0303405N00515045725MN0160935N5+01895+00065101855ADDAA101000095GA1075+045725999GA2085+091445999GD13991+0457259GD24991+0914459GF108991999999999999999999MA1101905100115REMMET10501/04/06 13:53:26 METAR KDAL 041953Z 34010KT 10SM BKN150 OVC300 19/01 A3009 RMK AO2 SLP185 T01890006 (GR)
0251722583139602006010420537+32847-096851FM-15+0149KDAL V0303205N00465045725MN0160935N5+01835+00115101915ADDAA101000095GA1075+045725999GA2085+091445999GD13991+0457259GD24991+0914459GF108991999999999999999999MA1101965100185MD1540134+9999REMMET11101/04/06 14:53:26 METAR KDAL 042053Z 32009KT 10SM BKN150 OVC300 18/01 A3011 RMK AO2 SLP191 T01830011 55013 (GR)
0231722583139602006010421537+32847-096851FM-15+0149KDAL V0303305N00415045725MN0160935N5+01785+00065101935ADDAA101000095GA1075+045725999GA2075+091445999GD13991+0457259GD23991+0914459GF107991999999999999999999MA1101965100185REMMET10501/04/06 15:53:26 METAR KDAL 042153Z 33008KT 10SM BKN150 BKN300 18/01 A3011 RMK AO2 SLP193 T01780006 (GR)
0231722583139602006010422537+32847-096851FM-15+0149KDAL V0303405N00365045725MN0160935N5+01725+00065101925ADDAA101000095GA1075+045725999GA2075+091445999GD13991+0457259GD23991+0914459GF107991999999999999999999MA1101965100185REMMET10501/04/06 16:53:26 METAR KDAL 042253Z 34007KT 10SM BKN150 BKN300 17/01 A3011 RMK AO2 SLP192 T01720006 (KH)
0289722583139602006010423537+32847-096851FM-15+0149KDAL V0303405N00315045725MN0160935N5+01565+00115102005ADDAA101000095GA1075+045725999GA2075+091445999GD13991+0457259GD23991+0914459GF107991999999999999999999KA1999M+01941KA2999N+01561MA1102035100245MD1340074+9999REMMET12301/04/06 17:53:26 METAR KDAL 042353Z 34006KT 10SM BKN150 BKN300 16/01 A3013 RMK AO2 SLP200 T01560011 10194 20156 53007 (KH)
0159722583139602006010500537+32847-096851FM-15+0149KDAL V0303505N002052200059N0160935N5+01445+00115101985ADDAA101000095GF100991999999999999999999MA1102035100245REMMET09501/04/06 18:53:26 METAR KDAL 050053Z 35004KT 10SM CLR 14/01 A3013 RMK AO2 SLP198 T01440011 (KH)
0159722583139602006010501537+32847-096851FM-15+0149KDAL V0303505N002652200059N0160935N5+01285+00115102045ADDAA101000095GF100991999999999999999999MA1102075100285REMMET09501/04/06 19:53:26 METAR KDAL 050153Z 35005KT 10SM CLR 13/01 A3014 RMK AO2 SLP204 T01280011 (KH)
0179722583139602006010502537+32847-096851FM-15+0149KDAL V0303605N003152200059N0160935N5+01115+00115102085ADDAA101000095GF100991999999999999999999MA1102105100315MD1340084+9999REMMET10101/04/06 20:53:26 METAR KDAL 050253Z 36006KT 10SM CLR 11/01 A3015 RMK AO2 SLP208 T01110011 53008 (KH)
0159722583139602006010503537+32847-096851FM-15+0149KDAL V0303505N003652200059N0160935N5+01115+00065102165ADDAA101000095GF100991999999999999999999MA1102205100415REMMET09501/04/06 21:53:26 METAR KDAL 050353Z 35007KT 10SM CLR 11/01 A3018 RMK AO2 SLP216 T01110006 (KH)
0160722583139602006010504537+32847-096851FM-15+0149KDAL V0303405N003652200059N0160935N5+01005-00065102185ADDAA101000095GF100991999999999999999999MA1102205100415REMMET09601/04/06 22:53:26 METAR KDAL 050453Z 34007KT 10SM CLR 10/M01 A3018 RMK AO2 SLP218 T01001006 (SW)
0228722583139602006010505537+32847-096851FM-15+0149KDAL V0303405N004152200059N0160935N5+00945-00065102225ADDAA101000095GF100991999999999999999999KA1999M+02111KA2999N+00941MA1102275100485MD1140144+9999REMMET12401/04/06 23:53:26 METAR KDAL 050553Z 34008KT 10SM CLR 09/M01 A3020 RMK AO2 SLP222 T00941006 10150 20094 402110094 51014 (SW)
0873722583139602006010505596+32847-096851SOD  +0149KDAL V030999999999999999999999999999+99999+99999999999ADDAA124000095AJ100009199999999AN1024000099KA1024M+02115KA2024N+00945MG1100109101254OE11240098301011325OE22240076001011395OE33240035399999995REMSOD72324 HR PRECIPITATION (IN): 0.00 24 HR MAX TEMP (F):70 24 HR MAX TEMP TIME (LST):0011 24 HR MIN TEMP (F):49 24 HR MIN TEMP TIME (LST):2359 MINIMUM SEA LEVEL PRESSURE:29.90 TIME OF OCCURRENCE:0000 PEAK WIND SPEED (MPH):22  PEAK WIND DIR (DEG): 10 PEAK WIND TIME (LST):1132  FASTEST 2MIN SPEED (MPH):17 FASTEST 2MIN DIR (DEG): 10 FASTEST 2MIN TIME (LST):1139 AVERAGE WIND SPEED (MPH): 7.9 24 HR AVG TEMP (F):60 DEPART FROM NORMAL:  15 HEATING DEGREE DAYS:  5 COOLING DEGREE DAYS:  0 LATEST DAY MAX TEMP (0700-1900 LST): 67 LATEST NIGHT MIN TEMP(1900-0800 LST):52 HOURLY INCREMENTAL PRECIPITATION VALUES (IN):0.00 0.00 0.00 0.00 0.00 0.00 0.00 0.00 0.00 0.00 0.00 0.00 0.00 0.00 0.00 0.00 0.00 0.00 0.00 0.00 0.00 0.00 0.00 0.00
0160722583139602006010506537+32847-096851FM-15+0149KDAL V0303305N003152200059N0160935N5+00835-00115102225ADDAA101000095GF100991999999999999999999MA1102245100445REMMET09601/05/06 00:53:26 METAR KDAL 050653Z 33006KT 10SM CLR 08/M01 A3019 RMK AO2 SLP222 T00831011 (SW)
0160722583139602006010507537+32847-096851FM-15+0149KDAL V0303405N002652200059N0160935N5+00785-00115102245ADDAA101000095GF100991999999999999999999MA1102275100485REMMET09601/05/06 01:53:26 METAR KDAL 050753Z 34005KT 10SM CLR 08/M01 A3020 RMK AO2 SLP224 T00781011 (SW)
0180722583139602006010508537+32847-096851FM-15+0149KDAL V0303305N003652200059N0160935N5+00725-00175102305ADDAA101000095GF100991999999999999999999MA1102345100545MD1340074+9999REMMET10201/05/06 02:53:26 METAR KDAL 050853Z 33007KT 10SM CLR 07/M02 A3022 RMK AO2 SLP230 T00721017 53007 (SW)
0160722583139602006010509537+32847-096851FM-15+0149KDAL V0303405N004152200059N0160935N5+00675-00115102375ADDAA101000095GF100991999999999999999999MA1102405100615REMMET09601/05/06 03:53:26 METAR KDAL 050953Z 34008KT 10SM CLR 07/M01 A3024 RMK AO2 SLP237 T00671011 (SW)
0160722583139602006010510537+32847-096851FM-15+0149KDAL V0303405N004152200059N0160935N5+00675-00115102365ADDAA101000095GF100991999999999999999999MA1102375100585REMMET09601/05/06 04:53:26 METAR KDAL 051053Z 34008KT 10SM CLR 07/M01 A3023 RMK AO2 SLP236 T00671011 (SW)
0218722583139602006010511537+32847-096851FM-15+0149KDAL V0303505N004152200059N0160935N5+00565-00115102475ADDAA101000095GF100991999999999999999999KA1999M+00941KA2999N+00561MA1102515100715MD1340164+9999REMMET11401/05/06 05:53:26 METAR KDAL 051153Z 35008KT 10SM CLR 06/M01 A3027 RMK AO2 SLP247 T00561011 10094 20056 53016 (SW)
0155722583139602006010512537+32847-096851FM-15+0149KDAL V0303305N003152200059N0160935N5+00565-00065102545ADDAA101000095GF100991999999999999999999MA1102575100785REMMET09101/05/06 06:53:26 METAR KDAL 051253Z 33006KT 10SM CLR 06/M01 A3029 RMK AO2 SLP254 T00561006
0159722583139602006010513537+32847-096851FM-15+0149KDAL V0303205N002052200059N0160935N5+00505+00005102605ADDAA101000095GF100991999999999999999999MA1102615100815REMMET09501/05/06 07:53:26 METAR KDAL 051353Z 32004KT 10SM CLR 05/00 A3030 RMK AO2 SLP260 T00500000 (KH)
0214722583139602006010514537+32847-096851FM-15+0149KDAL V0303305N004652200059N0160935N5+00835-00115102735ADDAA101000095GA1025+045725999GD11991+0457259GF102991999999999999999999MA1102745100945MD1340264+9999REMMET10501/05/06 08:53:26 METAR KDAL 051453Z 33009KT 10SM FEW150 08/M01 A3034 RMK AO2 SLP273 T00831011 53026 (KH)
0160722583139602006010515537+32847-096851FM-15+0149KDAL V0303505N006652200059N0160935N5+01175-00175102775ADDAA101000095GF100991999999999999999999MA1102785100985REMMET09601/05/06 09:53:26 METAR KDAL 051553Z 35013KT 10SM CLR 12/M02 A3035 RMK AO2 SLP277 T01171017 (KH)
0160722583139602006010516537+32847-096851FM-15+0149KDAL V0303305N006152200059N0160935N5+01285-00115102775ADDAA101000095GF100991999999999999999999MA1102785100985REMMET09601/05/06 10:53:26 METAR KDAL 051653Z 33012KT 10SM CLR 13/M01 A3035 RMK AO2 SLP277 T01281011 (KH)
0229722583139602006010517537+32847-096851FM-15+0149KDAL V0303305N005652200059N0160935N5+01505-00115102705ADDAA101000095GF100991999999999999999999KA1999M+01501KA2999N+00501MA1102745100945MD1840024+9999OC100775REMMET11701/05/06 11:53:26 METAR KDAL 051753Z 33011G15KT 10SM CLR 15/M01 A3034 RMK AO2 SLP270 T01501011 10150 20050 58002 (KH)
0171722583139602006010518537+32847-096851FM-15+0149KDAL V0303305N007752200059N0160935N5+01725-00285102595ADDAA101000095GF100991999999999999999999MA1102615100815OC101125REMMET09901/05/06 12:53:26 METAR KDAL 051853Z 33015G22KT 10SM CLR 17/M03 A3030 RMK AO2 SLP259 T01721028 (KH)
0189722583139602006010519537+32847-096851FM-15+0149KDAL V0303405N009752200059N0160935N5+01725-00445102555ADDAA101000095GF100991999999999999999999MA1102575100785OC101385REMMET11701/05/06 13:53:26 METAR KDAL 051953Z 34019G27KT 10SM CLR 17/M04 A3029 RMK AO2 PK WND 33029/1936 SLP255 T01721044 (KH)
0209722583139602006010520537+32847-096851FM-15+0149KDAL V0303505N009252200059N0160935N5+01725-00565102505ADDAA101000095GF100991999999999999999999MA1102545100745MD1640204+9999OC101585REMMET12301/05/06 14:53:26 METAR KDAL 052053Z 35018G31KT 10SM CLR 17/M06 A3028 RMK AO2 PK WND 34031/2050 SLP250 T01721056 56020 (PH)
0189722583139602006010521537+32847-096851FM-15+0149KDAL V0303405N009252200059N0160935N5+01725-00675102505ADDAA101000095GF100991999999999999999999MA1102545100745OC101385REMMET11701/05/06 15:53:26 METAR KDAL 052153Z 34018G27KT 10SM CLR 17/M07 A3028 RMK AO2 PK WND 34028/2139 SLP250 T01721067 (PH)
0189722583139602006010522537+32847-096851FM-15+0149KDAL V0303405N009752200059N0160935N5+01615-00615102505ADDAA101000095GF100991999999999999999999MA1102545100745OC101175REMMET11701/05/06 16:53:26 METAR KDAL 052253Z 34019G23KT 10SM CLR 16/M06 A3028 RMK AO2 PK WND 34027/2204 SLP250 T01611061 (PH)
0218722583139602006010523537+32847-096851FM-15+0149KDAL V0303405N004652200059N0160935N5+01445-00505102545ADDAA101000095GF100991999999999999999999KA1999M+01781KA2999N+01441MA1102545100745MD1340034+9999REMMET11401/05/06 17:53:26 METAR KDAL 052353Z 34009KT 10SM CLR 14/M05 A3028 RMK AO2 SLP254 T01441050 10178 20144 53003 (PH)
0160722583139602006010600537+32847-096851FM-15+0149KDAL V0303405N003652200059N0160935N5+01335-00395102555ADDAA101000095GF100991999999999999999999MA1102575100785REMMET09601/05/06 18:53:26 METAR KDAL 060053Z 34007KT 10SM CLR 13/M04 A3029 RMK AO2 SLP255 T01331039 (PH)
0160722583139602006010601537+32847-096851FM-15+0149KDAL V0303305N004652200059N0160935N5+01335-00505102585ADDAA101000095GF100991999999999999999999MA1102615100815REMMET09601/05/06 19:53:26 METAR KDAL 060153Z 33009KT 10SM CLR 13/M05 A3030 RMK AO2 SLP258 T01331050 (PH)
0180722583139602006010602537+32847-096851FM-15+0149KDAL V0303105N002052200059N0160935N5+01115-00445102605ADDAA101000095GF100991999999999999999999MA1102615100815MD1340064+9999REMMET10201/05/06 20:53:26 METAR KDAL 060253Z 31004KT 10SM CLR 11/M04 A3030 RMK AO2 SLP260 T01111044 53006 (PH)
0160722583139602006010603537+32847-096851FM-15+0149KDAL V0303105N004152200059N0160935N5+01065-00445102635ADDAA101000095GF100991999999999999999999MA1102645100845REMMET09601/05/06 21:53:26 METAR KDAL 060353Z 31008KT 10SM CLR 11/M04 A3031 RMK AO2 SLP263 T01061044 (PH)
0160722583139602006010604537+32847-096851FM-15+0149KDAL V0303205N003652200059N0160935N5+01005-00445102665ADDAA101000095GF100991999999999999999999MA1102685100885REMMET09601/05/06 22:53:26 METAR KDAL 060453Z 32007KT 10SM CLR 10/M04 A3032 RMK AO2 SLP266 T01001044 (KH)
0228722583139602006010605537+32847-096851FM-15+0149KDAL V0303405N005152200059N0160935N5+01005-00565102665ADDAA101000095GF100991999999999999999999KA1999M+01781KA2999N+00501MA1102685100885MD1140074+9999REMMET12401/05/06 23:53:26 METAR KDAL 060553Z 34010KT 10SM CLR 10/M06 A3032 RMK AO2 SLP266 T01001056 10144 20094 401780050 51007 (KH)
0873722583139602006010605596+32847-096851SOD  +0149KDAL V030999999999999999999999999999+99999+99999999999ADDAA124000095AJ100009199999999AN1024000099KA1024M+01785KA2024N+00505MG1100789102204OE11240160934014505OE22240125233013365OE33240051499999995REMSOD72324 HR PRECIPITATION (IN): 0.00 24 HR MAX TEMP (F):64 24 HR MAX TEMP TIME (LST):1505 24 HR MIN TEMP (F):41 24 HR MIN TEMP TIME (LST):0757 MINIMUM SEA LEVEL PRESSURE:30.18 TIME OF OCCURRENCE:0132 PEAK WIND SPEED (MPH):36  PEAK WIND DIR (DEG):340 PEAK WIND TIME (LST):1450  FASTEST 2MIN SPEED (MPH):28 FASTEST 2MIN DIR (DEG):330 FASTEST 2MIN TIME (LST):1336 AVERAGE WIND SPEED (MPH):11.5 24 HR AVG TEMP (F):53 DEPART FROM NORMAL:   8 HEATING DEGREE DAYS: 12 COOLING DEGREE DAYS:  0 LATEST DAY MAX TEMP (0700-1900 LST): 64 LATEST NIGHT MIN TEMP(1900-0800 LST):41 HOURLY INCREMENTAL PRECIPITATION VALUES (IN):0.00 0.00 0.00 0.00 0.00 0.00 0.00 0.00 0.00 0.00 0.00 0.00 0.00 0.00 0.00 0.00 0.00 0.00 0.00 0.00 0.00 0.00 0.00 0.00
0160722583139602006010606537+32847-096851FM-15+0149KDAL V0303305N004152200059N0160935N5+00895-00565102635ADDAA101000095GF100991999999999999999999MA1102685100885REMMET09601/06/06 00:53:26 METAR KDAL 060653Z 33008KT 10SM CLR 09/M06 A3032 RMK AO2 SLP263 T00891056 (KH)
0160722583139602006010607537+32847-096851FM-15+0149KDAL V0303205N003652200059N0160935N5+00785-00565102655ADDAA101000095GF100991999999999999999999MA1102685100885REMMET09601/06/06 01:53:26 METAR KDAL 060753Z 32007KT 10SM CLR 08/M06 A3032 RMK AO2 SLP265 T00781056 (KH)
0182722583139602006010608537+32847-096851FM-15+0149KDAL V0303205N003652200059N0160935N5+00725-00615102705ADDAA101000095GF100991999999999999999999MA1102715100915MD1340044+9999REMMET10401/06/06 02:53:26 METAR KDAL 060853Z 32007KT 10SM CLR 07/M06 A3033 RMK AO2 SLP270 T00721061 53004 $ (KH)
0162722583139602006010609537+32847-096851FM-15+0149KDAL V0303205N003652200059N0160935N5+00615-00615102755ADDAA101000095GF100991999999999999999999MA1102785100985REMMET09801/06/06 03:53:26 METAR KDAL 060953Z 32007KT 10SM CLR 06/M06 A3035 RMK AO2 SLP275 T00611061 $ (KH)
0162722583139602006010610537+32847-096851FM-15+0149KDAL V0303205N003652200059N0160935N5+00505-00615102765ADDAA101000095GF100991999999999999999999MA1102785100985REMMET09801/06/06 04:53:26 METAR KDAL 061053Z 32007KT 10SM CLR 05/M06 A3035 RMK AO2 SLP276 T00501061 $ (KH)
0220722583139602006010611537+32847-096851FM-15+0149KDAL V0303105N003152200059N0160935N5+00505-00615102765ADDAA101000095GF100991999999999999999999KA1999M+01001KA2999N+00501MA1102785100985MD1140054+9999REMMET11601/06/06 05:53:26 METAR KDAL 061153Z 31006KT 10SM CLR 05/M06 A3035 RMK AO2 SLP276 T00501061 10100 20050 51005 $ (KH)
0162722583139602006010612537+32847-096851FM-15+0149KDAL V0303005N003652200059N0160935N5+00505-00615102835ADDAA101000095GF100991999999999999999999MA1102845101045REMMET09801/06/06 06:53:26 METAR KDAL 061253Z 30007KT 10SM CLR 05/M06 A3037 RMK AO2 SLP283 T00501061 $ (KH)
0194722583139602006010613537+32847-096851FM-15+0149KDAL V0303205N004152200059N0160935N5+00445-00615102845ADDAA101000095GA1025+091445999GD11991+0914459GF102991999999999999999999MA1102845101045REMMET09901/06/06 07:57:26 METAR KDAL 061353Z 32008KT 10SM FEW300 04/M06 A3037 RMK AO2 SLP284 T00441061 (KH)
0214722583139602006010614537+32847-096851FM-15+0149KDAL V0303405N003652200059N0160935N5+00615-00615102905ADDAA101000095GA1025+091445999GD11991+0914459GF102991999999999999999999MA1102915101115MD1140144+9999REMMET10501/06/06 08:53:26 METAR KDAL 061453Z 34007KT 10SM FEW300 06/M06 A3039 RMK AO2 SLP290 T00611061 51014 (MG)
0196722583139602006010615537+32847-096851FM-15+0149KDAL V0303605N005152200059N0160935N5+00835-00505102925ADDAA101000095GA1025+091445999GD11991+0914459GF102991999999999999999999MA1102955101145REMMET10101/06/06 09:53:26 METAR KDAL 061553Z 36010KT 10SM FEW300 08/M05 A3040 RMK AO2 SLP292 T00831050 $ (MG)
0196722583139602006010616537+32847-096851FM-15+0149KDAL V0303605N004652200059N0160935N5+01005-00565102915ADDAA101000095GA1025+091445999GD11991+0914459GF102991999999999999999999MA1102955101145REMMET10101/06/06 10:53:26 METAR KDAL 061653Z 36009KT 10SM FEW300 10/M06 A3040 RMK AO2 SLP291 T01001056 $ (MG)
0254722583139602006010617537+32847-096851FM-15+0149KDAL V0303505N004152200059N0160935N5+01225-00615102785ADDAA101000095GA1025+091445999GD11991+0914459GF102991999999999999999999KA1999M+01221KA2999N+00391MA1102815101015MD1840114+9999REMMET11901/06/06 11:53:26 METAR KDAL 061753Z 35008KT 10SM FEW300 12/M06 A3036 RMK AO2 SLP278 T01221061 10122 20039 58011 $ (MG)
0196722583139602006010618537+32847-096851FM-15+0149KDAL V0303105N004652200059N0160935N5+01225-00675102655ADDAA101000095GA1025+091445999GD11991+0914459GF102991999999999999999999MA1102685100885REMMET10101/06/06 12:53:26 METAR KDAL 061853Z 31009KT 10SM FEW300 12/M07 A3032 RMK AO2 SLP265 T01221067 $ (MG)
0162722583139602006010619537+32847-096851FM-15+0149KDAL V0303305N003152200059N0160935N5+01335-00725102535ADDAA101000095GF100991999999999999999999MA1102545100745REMMET09801/06/06 13:53:26 METAR KDAL 061953Z 33006KT 10SM CLR 13/M07 A3028 RMK AO2 SLP253 T01331072 $ (MG)
0180722583139602006010620537+32847-096851FM-15+0149KDAL V0309999V002052200059N0160935N5+01445-00835102435ADDAA101000095GF100991999999999999999999MA1102445100645MD1640354+9999REMMET10201/06/06 14:53:26 METAR KDAL 062053Z VRB04KT 10SM CLR 14/M08 A3025 RMK AO2 SLP243 T01441083 56035 (MG)
0160722583139602006010621537+32847-096851FM-15+0149KDAL V0302805N002052200059N0160935N5+01445-00835102385ADDAA101000095GF100991999999999999999999MA1102405100615REMMET09601/06/06 15:53:26 METAR KDAL 062153Z 28004KT 10SM CLR 14/M08 A3024 RMK AO2 SLP238 T01441083 (MG)
0160722583139602006010622537+32847-096851FM-15+0149KDAL V0309999C000052200059N0160935N5+01445-00835102335ADDAA101000095GF100991999999999999999999MA1102345100545REMMET09601/06/06 16:53:26 METAR KDAL 062253Z 00000KT 10SM CLR 14/M08 A3022 RMK AO2 SLP233 T01441083 (MG)
0218722583139602006010623537+32847-096851FM-15+0149KDAL V0301505N002052200059N0160935N5+01115-00785102325ADDAA101000095GF100991999999999999999999KA1999M+01501KA2999N+01111MA1102345100545MD1640124+9999REMMET11401/06/06 17:53:26 METAR KDAL 062353Z 15004KT 10SM CLR 11/M08 A3022 RMK AO2 SLP232 T01111078 10150 20111 56012 (MG)
0160722583139602006010700537+32847-096851FM-15+0149KDAL V0301505N002052200059N0160935N5+01115-00725102315ADDAA101000095GF100991999999999999999999MA1102305100515REMMET09601/06/06 18:53:26 METAR KDAL 070053Z 15004KT 10SM CLR 11/M07 A3021 RMK AO2 SLP231 T01111072 (KH)
0160722583139602006010701537+32847-096851FM-15+0149KDAL V0301505N003152200059N0160935N5+01005-00675102275ADDAA101000095GF100991999999999999999999MA1102275100485REMMET09601/06/06 19:53:26 METAR KDAL 070153Z 15006KT 10SM CLR 10/M07 A3020 RMK AO2 SLP227 T01001067 (KH)
0180722583139602006010702537+32847-096851FM-15+0149KDAL V0301805N003652200059N0160935N5+00945-00725102195ADDAA101000095GF100991999999999999999999MA1102205100415MD1840134+9999REMMET10201/06/06 20:53:26 METAR KDAL 070253Z 18007KT 10SM CLR 09/M07 A3018 RMK AO2 SLP219 T00941072 58013 (KH)
0160722583139602006010703537+32847-096851FM-15+0149KDAL V0301805N004152200059N0160935N5+00895-00725102135ADDAA101000095GF100991999999999999999999MA1102135100345REMMET09601/06/06 21:53:26 METAR KDAL 070353Z 18008KT 10SM CLR 09/M07 A3016 RMK AO2 SLP213 T00891072 (KH)
0160722583139602006010704537+32847-096851FM-15+0149KDAL V0301805N004652200059N0160935N5+00785-00785102105ADDAA101000095GF100991999999999999999999MA1102135100345REMMET09601/06/06 22:53:26 METAR KDAL 070453Z 18009KT 10SM CLR 08/M08 A3016 RMK AO2 SLP210 T00781078 (KH)
0228722583139602006010705537+32847-096851FM-15+0149KDAL V0301605N004152200059N0160935N5+00895-00785102065ADDAA101000095GF100991999999999999999999KA1999M+01501KA2999N+00391MA1102075100285MD1640124+9999REMMET12401/06/06 23:53:26 METAR KDAL 070553Z 16008KT 10SM CLR 09/M08 A3014 RMK AO2 SLP206 T00891078 10133 20078 401500039 56012 (SW)
0873722583139602006010705596+32847-096851SOD  +0149KDAL V030999999999999999999999999999+99999+99999999999ADDAA124000095AJ100009199999999AN1024000099KA1024M+01505KA2024N+00395MG1100789102074OE11240071533013325OE22240062634013355OE33240034499999995REMSOD72324 HR PRECIPITATION (IN): 0.00 24 HR MAX TEMP (F):59 24 HR MAX TEMP TIME (LST):1651 24 HR MIN TEMP (F):39 24 HR MIN TEMP TIME (LST):0626 MINIMUM SEA LEVEL PRESSURE:30.14 TIME OF OCCURRENCE:2359 PEAK WIND SPEED (MPH):16  PEAK WIND DIR (DEG):330 PEAK WIND TIME (LST):1332  FASTEST 2MIN SPEED (MPH):14 FASTEST 2MIN DIR (DEG):340 FASTEST 2MIN TIME (LST):1335 AVERAGE WIND SPEED (MPH): 7.7 24 HR AVG TEMP (F):49 DEPART FROM NORMAL:   4 HEATING DEGREE DAYS: 16 COOLING DEGREE DAYS:  0 LATEST DAY MAX TEMP (0700-1900 LST): 59 LATEST NIGHT MIN TEMP(1900-0800 LST):39 HOURLY INCREMENTAL PRECIPITATION VALUES (IN):0.00 0.00 0.00 0.00 0.00 0.00 0.00 0.00 0.00 0.00 0.00 0.00 0.00 0.00 0.00 0.00 0.00 0.00 0.00 0.00 0.00 0.00 0.00 0.00
0160722583139602006010706537+32847-096851FM-15+0149KDAL V0301605N004152200059N0160935N5+00895-00835102005ADDAA101000095GF100991999999999999999999MA1102005100215REMMET09601/07/06 00:53:26 METAR KDAL 070653Z 16008KT 10SM CLR 09/M08 A3012 RMK AO2 SLP200 T00891083 (SW)
0160722583139602006010707537+32847-096851FM-15+0149KDAL V0301605N004152200059N0160935N5+00785-00785101935ADDAA101000095GF100991999999999999999999MA1101935100145REMMET09601/07/06 01:53:26 METAR KDAL 070753Z 16008KT 10SM CLR 08/M08 A3010 RMK AO2 SLP193 T00781078 (SW)
0180722583139602006010708537+32847-096851FM-15+0149KDAL V0301505N002652200059N0160935N5+00615-00785101875ADDAA101000095GF100991999999999999999999MA1101905100115MD1640194+9999REMMET10201/07/06 02:53:26 METAR KDAL 070853Z 15005KT 10SM CLR 06/M08 A3009 RMK AO2 SLP187 T00611078 56019 (SW)
0160722583139602006010709537+32847-096851FM-15+0149KDAL V0301605N002652200059N0160935N5+00675-00785101785ADDAA101000095GF100991999999999999999999MA1101795100015REMMET09601/07/06 03:53:26 METAR KDAL 070953Z 16005KT 10SM CLR 07/M08 A3006 RMK AO2 SLP178 T00671078 (SW)
0160722583139602006010710537+32847-096851FM-15+0149KDAL V0301505N002652200059N0160935N5+00675-00785101765ADDAA101000095GF100991999999999999999999MA1101765099985REMMET09601/07/06 04:53:26 METAR KDAL 071053Z 15005KT 10SM CLR 07/M08 A3005 RMK AO2 SLP176 T00671078 (SW)
0218722583139602006010711537+32847-096851FM-15+0149KDAL V0301305N002052200059N0160935N5+00395-00675101755ADDAA101000095GF100991999999999999999999KA1999M+00891KA2999N+00331MA1101765099985MD1640134+9999REMMET11401/07/06 05:53:26 METAR KDAL 071153Z 13004KT 10SM CLR 04/M07 A3005 RMK AO2 SLP175 T00391067 10089 20033 56013 (SW)
0160722583139602006010712537+32847-096851FM-15+0149KDAL V0301305N002052200059N0160935N5+00285-00675101745ADDAA101000095GF100991999999999999999999MA1101765099985REMMET09601/07/06 06:53:26 METAR KDAL 071253Z 13004KT 10SM CLR 03/M07 A3005 RMK AO2 SLP174 T00281067 (KH)
0160722583139602006010713537+32847-096851FM-15+0149KDAL V0301205N002652200059N0160935N5+00335-00675101765ADDAA101000095GF100991999999999999999999MA1101765099985REMMET09601/07/06 07:53:26 METAR KDAL 071353Z 12005KT 10SM CLR 03/M07 A3005 RMK AO2 SLP176 T00331067 (KH)
0180722583139602006010714537+32847-096851FM-15+0149KDAL V0301405N002052200059N0160935N5+00785-00565101805ADDAA101000095GF100991999999999999999999MA1101835100045MD1340074+9999REMMET10201/07/06 08:53:26 METAR KDAL 071453Z 14004KT 10SM CLR 08/M06 A3007 RMK AO2 SLP180 T00781056 53007 (KH)
0160722583139602006010715537+32847-096851FM-15+0149KDAL V0301805N002652200059N0160935N5+01175-00615101805ADDAA101000095GF100991999999999999999999MA1101835100045REMMET09601/07/06 09:53:26 METAR KDAL 071553Z 18005KT 10SM CLR 12/M06 A3007 RMK AO2 SLP180 T01171061 (KH)
0160722583139602006010716537+32847-096851FM-15+0149KDAL V0301805N002652200059N0160935N5+01505-00565101745ADDAA101000095GF100991999999999999999999MA1101765099985REMMET09601/07/06 10:53:26 METAR KDAL 071653Z 18005KT 10SM CLR 15/M06 A3005 RMK AO2 SLP174 T01501056 (KH)
0218722583139602006010717537+32847-096851FM-15+0149KDAL V0302105N003152200059N0160935N5+01895-00615101635ADDAA101000095GF100991999999999999999999KA1999M+01941KA2999N+00221MA1101665099885MD1840164+9999REMMET11401/07/06 11:53:26 METAR KDAL 071753Z 21006KT 10SM CLR 19/M06 A3002 RMK AO2 SLP163 T01891061 10194 20022 58016 (KH)
0194722583139602006010718537+32847-096851FM-15+0149KDAL V0301905N003152200059N0160935N5+02335-00675101425ADDAA101000095GA1025+091445999GD11991+0914459GF102991999999999999999999MA1101465099685REMMET09901/07/06 12:53:26 METAR KDAL 071853Z 19006KT 10SM FEW300 23/M07 A2996 RMK AO2 SLP142 T02331067 (KH)
0194722583139602006010719537+32847-096851FM-15+0149KDAL V0302205N004652200059N0160935N5+02565-00785101275ADDAA101000095GA1025+091445999GD11991+0914459GF102991999999999999999999MA1101325099545REMMET09901/07/06 13:53:26 METAR KDAL 071953Z 22009KT 10SM FEW300 26/M08 A2992 RMK AO2 SLP127 T02561078 (KH)
0225722583139602006010720537+32847-096851FM-15+0149KDAL V0302105N00465091445MN0160935N5+02675-00895101175ADDAA101000095GA1075+091445999GD13991+0914459GF107991999999999999999999MA1101225099445MD1640444+9999OC100925REMMET10801/07/06 14:53:26 METAR KDAL 072053Z 21009G18KT 10SM BKN300 27/M09 A2989 RMK AO2 SLP117 T02671089 56044 (KH)
0194722583139602006010721537+32847-096851FM-15+0149KDAL V0302005N00565091445MN0160935N5+02785-00945101125ADDAA101000095GA1075+091445999GD13991+0914459GF107991999999999999999999MA1101155099385REMMET09901/07/06 15:53:26 METAR KDAL 072153Z 20011KT 10SM BKN300 28/M09 A2987 RMK AO2 SLP112 T02781094 (KH)
0194722583139602006010722537+32847-096851FM-15+0149KDAL V0302105N005652200059N0160935N5+02725-00945101095ADDAA101000095GA1025+091445999GD11991+0914459GF102991999999999999999999MA1101125099345REMMET09901/07/06 16:53:26 METAR KDAL 072253Z 21011KT 10SM FEW300 27/M09 A2986 RMK AO2 SLP109 T02721094 (KH)
0218722583139602006010723537+32847-096851FM-15+0149KDAL V0302005N005152200059N0160935N5+02505-00835101105ADDAA101000095GF100991999999999999999999KA1999M+02781KA2999N+01891MA1101155099385MD1540074+9999REMMET11401/07/06 17:53:26 METAR KDAL 072353Z 20010KT 10SM CLR 25/M08 A2987 RMK AO2 SLP110 T02501083 10278 20189 55007 (KH)
0160722583139602006010800537+32847-096851FM-15+0149KDAL V0301805N007152200059N0160935N5+02225-00725101085ADDAA101000095GF100991999999999999999999MA1101125099345REMMET09601/07/06 18:53:26 METAR KDAL 080053Z 18014KT 10SM CLR 22/M07 A2986 RMK AO2 SLP108 T02221072 (KH)
0160722583139602006010801537+32847-096851FM-15+0149KDAL V0301905N006152200059N0160935N5+02175-00675101065ADDAA101000095GF100991999999999999999999MA1101085099315REMMET09601/07/06 19:53:26 METAR KDAL 080153Z 19012KT 10SM CLR 22/M07 A2985 RMK AO2 SLP106 T02171067 (KH)
0180722583139602006010802537+32847-096851FM-15+0149KDAL V0301905N006652200059N0160935N5+02005-00675101055ADDAA101000095GF100991999999999999999999MA1101085099315MD1640054+9999REMMET10201/07/06 20:53:26 METAR KDAL 080253Z 19013KT 10SM CLR 20/M07 A2985 RMK AO2 SLP105 T02001067 56005 (KH)
0171722583139602006010803537+32847-096851FM-15+0149KDAL V0302005N006152200059N0160935N5+02065-00725100995ADDAA101000095GF100991999999999999999999MA1101025099245OC100975REMMET09901/07/06 21:53:26 METAR KDAL 080353Z 20012G19KT 10SM CLR 21/M07 A2983 RMK AO2 SLP099 T02061072 (PH)
0171722583139602006010804537+32847-096851FM-15+0149KDAL V0302105N006152200059N0160935N5+02115-00675100935ADDAA101000095GF100991999999999999999999MA1100985099215OC101175REMMET09901/07/06 22:53:26 METAR KDAL 080453Z 21012G23KT 10SM CLR 21/M07 A2982 RMK AO2 SLP093 T02111067 (PH)
0228722583139602006010805537+32847-096851FM-15+0149KDAL V0302005N006652200059N0160935N5+02005-00565100925ADDAA101000095GF100991999999999999999999KA1999M+02781KA2999N+00221MA1100985099215MD1640104+9999REMMET12401/07/06 23:53:26 METAR KDAL 080553Z 20013KT 10SM CLR 20/M06 A2982 RMK AO2 SLP092 T02001056 10250 20194 402780022 56010 (PH)
0873722583139602006010805596+32847-096851SOD  +0149KDAL V030999999999999999999999999999+99999+99999999999ADDAA124000095AJ100009199999999AN1024000099KA1024M+02785KA2024N+00225MG1099709100914OE11240116222022475OE22240080521022485OE33240042099999995REMSOD72324 HR PRECIPITATION (IN): 0.00 24 HR MAX TEMP (F):82 24 HR MAX TEMP TIME (LST):1611 24 HR MIN TEMP (F):36 24 HR MIN TEMP TIME (LST):0747 MINIMUM SEA LEVEL PRESSURE:29.80 TIME OF OCCURRENCE:2359 PEAK WIND SPEED (MPH):26  PEAK WIND DIR (DEG):220 PEAK WIND TIME (LST):2247  FASTEST 2MIN SPEED (MPH):18 FASTEST 2MIN DIR (DEG):210 FASTEST 2MIN TIME (LST):2248 AVERAGE WIND SPEED (MPH): 9.4 24 HR AVG TEMP (F):59 DEPART FROM NORMAL:  14 HEATING DEGREE DAYS:  6 COOLING DEGREE DAYS:  0 LATEST DAY MAX TEMP (0700-1900 LST): 82 LATEST NIGHT MIN TEMP(1900-0800 LST):36 HOURLY INCREMENTAL PRECIPITATION VALUES (IN):0.00 0.00 0.00 0.00 0.00 0.00 0.00 0.00 0.00 0.00 0.00 0.00 0.00 0.00 0.00 0.00 0.00 0.00 0.00 0.00 0.00 0.00 0.00 0.00
0171722583139602006010806537+32847-096851FM-15+0149KDAL V0302005N005652200059N0160935N5+01785-00505100905ADDAA101000095GF100991999999999999999999MA1100955099185OC101025REMMET09901/08/06 00:53:26 METAR KDAL 080653Z 20011G20KT 10SM CLR 18/M05 A2981 RMK AO2 SLP090 T01781050 (PH)
0171722583139602006010807537+32847-096851FM-15+0149KDAL V0302105N006652200059N0160935N5+01725-00505100895ADDAA101000095GF100991999999999999999999MA1100955099185OC100975REMMET09901/08/06 01:53:26 METAR KDAL 080753Z 21013G19KT 10SM CLR 17/M05 A2981 RMK AO2 SLP089 T01721050 (PH)
0180722583139602006010808537+32847-096851FM-15+0149KDAL V0302105N005152200059N0160935N5+01615-00445100855ADDAA101000095GF100991999999999999999999MA1100915099145MD1840064+9999REMMET10201/08/06 02:53:26 METAR KDAL 080853Z 21010KT 10SM CLR 16/M04 A2980 RMK AO2 SLP085 T01611044 58006 (PH)
0171722583139602006010809537+32847-096851FM-15+0149KDAL V0302005N006152200059N0160935N5+01615-00445100845ADDAA101000095GF100991999999999999999999MA1100915099145OC100875REMMET09901/08/06 03:53:26 METAR KDAL 080953Z 20012G17KT 10SM CLR 16/M04 A2980 RMK AO2 SLP084 T01611044 (PH)
0171722583139602006010810537+32847-096851FM-15+0149KDAL V0302005N004152200059N0160935N5+01565-00445100775ADDAA101000095GF100991999999999999999999MA1100855099085OC100825REMMET09901/08/06 04:53:26 METAR KDAL 081053Z 20008G16KT 10SM CLR 16/M04 A2978 RMK AO2 SLP077 T01561044 (PH)
0218722583139602006010811537+32847-096851FM-15+0149KDAL V0302305N004152200059N0160935N5+01395-00225100855ADDAA101000095GF100991999999999999999999KA1999M+02001KA2999N+01391MA1100915099145MD1540014+9999REMMET11401/08/06 05:53:26 METAR KDAL 081153Z 23008KT 10SM CLR 14/M02 A2980 RMK AO2 SLP085 T01391022 10200 20139 55001 (PH)
0194722583139602006010812537+32847-096851FM-15+0149KDAL V0302105N003652200059N0160935N5+01285-00225100895ADDAA101000095GA1025+076205999GD11991+0762059GF102991999999999999999999MA1100955099185REMMET09901/08/06 06:53:26 METAR KDAL 081253Z 21007KT 10SM FEW250 13/M02 A2981 RMK AO2 SLP089 T01281022 (KH)
0194722583139602006010813537+32847-096851FM-15+0149KDAL V0302005N00415076205MN0160935N5+01335-00225100965ADDAA101000095GA1075+076205999GD13991+0762059GF107991999999999999999999MA1101025099245REMMET09901/08/06 07:53:26 METAR KDAL 081353Z 20008KT 10SM BKN250 13/M02 A2983 RMK AO2 SLP096 T01331022 (KH)
0214722583139602006010814537+32847-096851FM-15+0149KDAL V0302105N00565091445MN0160935N5+01445-00225101015ADDAA101000095GA1075+091445999GD13991+0914459GF107991999999999999999999MA1101055099285MD1240154+9999REMMET10501/08/06 08:53:26 METAR KDAL 081453Z 21011KT 10SM BKN300 14/M02 A2984 RMK AO2 SLP101 T01441022 52015 (KH)
0194722583139602006010815537+32847-096851FM-15+0149KDAL V0302105N00515091445MN0160935N5+01615-00175101045ADDAA101000095GA1085+091445999GD14991+0914459GF108991999999999999999999MA1101085099315REMMET09901/08/06 09:53:26 METAR KDAL 081553Z 21010KT 10SM OVC300 16/M02 A2985 RMK AO2 SLP104 T01611017 (KH)
0194722583139602006010816537+32847-096851FM-15+0149KDAL V0302105N00565091445MN0160935N5+01895-00225101005ADDAA101000095GA1085+091445999GD14991+0914459GF108991999999999999999999MA1101055099285REMMET09901/08/06 10:53:26 METAR KDAL 081653Z 21011KT 10SM OVC300 19/M02 A2984 RMK AO2 SLP100 T01891022 (KH)
0290722583139602006010817537+32847-096851FM-15+0149KDAL V0302105N00515091445MN0160935N5+02115-00285100915ADDAA101000095GA1025+045725999GA2085+091445999GD11991+0457259GD24991+0914459GF108991999999999999999999KA1999M+02111KA2999N+01281MA1100985099215MD1840084+9999REMMET12401/08/06 11:53:26 METAR KDAL 081753Z 21010KT 10SM FEW150 OVC300 21/M03 A2982 RMK AO2 SLP091 T02111028 10211 20128 58008 (KH)
0232722583139602006010818537+32847-096851FM-15+0149KDAL V0302105N00465091445MN0160935N5+02335-00285100825ADDAA101000095GA1025+045725999GA2085+091445999GD11991+0457259GD24991+0914459GF108991999999999999999999MA1100885099115REMMET10601/08/06 12:53:26 METAR KDAL 081853Z 21009KT 10SM FEW150 OVC300 23/M03 A2979 RMK AO2 SLP082 T02331028 (KH)
0232722583139602006010819537+32847-096851FM-15+0149KDAL V0302205N00465076205MN0160935N5+02445-00285100805ADDAA101000095GA1045+045725999GA2075+076205999GD12991+0457259GD23991+0762059GF107991999999999999999999MA1100855099085REMMET10601/08/06 13:53:26 METAR KDAL 081953Z 22009KT 10SM SCT150 BKN250 24/M03 A2978 RMK AO2 SLP080 T02441028 (KH)
0252722583139602006010820537+32847-096851FM-15+0149KDAL V0302105N00465076205MN0160935N5+02615-00335100825ADDAA101000095GA1045+045725999GA2075+076205999GD12991+0457259GD23991+0762059GF107991999999999999999999MA1100885099115MD1540094+9999REMMET11201/08/06 14:53:26 METAR KDAL 082053Z 21009KT 10SM SCT150 BKN250 26/M03 A2979 RMK AO2 SLP082 T02611033 55009 (MG)
0232722583139602006010821537+32847-096851FM-15+0149KDAL V0302305N00315045725MN0160935N5+02615-00335100875ADDAA101000095GA1075+045725999GA2075+076205999GD13991+0457259GD23991+0762059GF107991999999999999999999MA1100915099145REMMET10601/08/06 15:53:26 METAR KDAL 082153Z 23006KT 10SM BKN150 BKN250 26/M03 A2980 RMK AO2 SLP087 T02611033 (MG)
0232722583139602006010822537+32847-096851FM-15+0149KDAL V0300105N00205045725MN0160935N5+02445-00615100925ADDAA101000095GA1075+045725999GA2075+076205999GD13991+0457259GD23991+0762059GF107991999999999999999999MA1100985099215REMMET10601/08/06 16:53:26 METAR KDAL 082253Z 01004KT 10SM BKN150 BKN250 24/M06 A2982 RMK AO2 SLP092 T02441061 (MG)
0290722583139602006010823537+32847-096851FM-15+0149KDAL V0309999C00005076205MN0160935N5+02175-00395100975ADDAA101000095GA1045+045725999GA2075+076205999GD12991+0457259GD23991+0762059GF107991999999999999999999KA1999M+02611KA2999N+02111MA1101025099245MD1140144+9999REMMET12401/08/06 17:53:26 METAR KDAL 082353Z 00000KT 10SM SCT150 BKN250 22/M04 A2983 RMK AO2 SLP097 T02171039 10261 20211 51014 (MG)
0232722583139602006010900537+32847-096851FM-15+0149KDAL V0309999C00005076205MN0160935N5+02005-00335101105ADDAA101000095GA1045+045725999GA2075+076205999GD12991+0457259GD23991+0762059GF107991999999999999999999MA1101155099385REMMET10601/08/06 18:53:26 METAR KDAL 090053Z 00000KT 10SM SCT150 BKN250 20/M03 A2987 RMK AO2 SLP110 T02001033 (MG)
0232722583139602006010901537+32847-096851FM-15+0149KDAL V0309999C000052200059N0160935N5+01785-00225101155ADDAA101000095GA1025+045725999GA2045+076205999GD11991+0457259GD22991+0762059GF104991999999999999999999MA1101195099415REMMET10601/08/06 19:53:26 METAR KDAL 090153Z 00000KT 10SM FEW150 SCT250 18/M02 A2988 RMK AO2 SLP115 T01781022 (MG)
0180722583139602006010902537+32847-096851FM-15+0149KDAL V0300705N003152200059N0160935N5+01445-00065101185ADDAA101000095GF100991999999999999999999MA1101225099445MD1140204+9999REMMET10201/08/06 20:53:26 METAR KDAL 090253Z 07006KT 10SM CLR 14/M01 A2989 RMK AO2 SLP118 T01441006 51020 (MG)
0160722583139602006010903537+32847-096851FM-15+0149KDAL V0309999C000052200059N0160935N5+01445-00225101245ADDAA101000095GF100991999999999999999999MA1101295099515REMMET09601/08/06 21:53:26 METAR KDAL 090353Z 00000KT 10SM CLR 14/M02 A2991 RMK AO2 SLP124 T01441022 (MG)
0159722583139602006010904537+32847-096851FM-15+0149KDAL V0309999C000052200059N0160935N5+01225+00005101275ADDAA101000095GF100991999999999999999999MA1101325099545REMMET09501/08/06 22:53:26 METAR KDAL 090453Z 00000KT 10SM CLR 12/00 A2992 RMK AO2 SLP127 T01220000 (MG)
0227722583139602006010905537+32847-096851FM-15+0149KDAL V0303105N002052200059N0160935N5+01065+00065101295ADDAA101000095GF100991999999999999999999KA1999M+02611KA2999N+01061MA1101325099545MD1140114+9999REMMET12301/08/06 23:53:26 METAR KDAL 090553Z 31004KT 10SM CLR 11/01 A2992 RMK AO2 SLP129 T01060006 10222 20106 402610106 51011 (SW)
0873722583139602006010905596+32847-096851SOD  +0149KDAL V030999999999999999999999999999+99999+99999999999ADDAA124000095AJ100009199999999AN1024000099KA1024M+02615KA2024N+01065MG1099259100754OE11240102820003365OE22240076021001495OE33240035899999995REMSOD72324 HR PRECIPITATION (IN): 0.00 24 HR MAX TEMP (F):79 24 HR MAX TEMP TIME (LST):1607 24 HR MIN TEMP (F):51 24 HR MIN TEMP TIME (LST):2356 MINIMUM SEA LEVEL PRESSURE:29.75 TIME OF OCCURRENCE:1443 PEAK WIND SPEED (MPH):23  PEAK WIND DIR (DEG):200 PEAK WIND TIME (LST):0336  FASTEST 2MIN SPEED (MPH):17 FASTEST 2MIN DIR (DEG):210 FASTEST 2MIN TIME (LST):0149 AVERAGE WIND SPEED (MPH): 8.0 24 HR AVG TEMP (F):65 DEPART FROM NORMAL:  20 HEATING DEGREE DAYS:  0 COOLING DEGREE DAYS:  0 LATEST DAY MAX TEMP (0700-1900 LST): 79 LATEST NIGHT MIN TEMP(1900-0800 LST):55 HOURLY INCREMENTAL PRECIPITATION VALUES (IN):0.00 0.00 0.00 0.00 0.00 0.00 0.00 0.00 0.00 0.00 0.00 0.00 0.00 0.00 0.00 0.00 0.00 0.00 0.00 0.00 0.00 0.00 0.00 0.00
0160722583139602006010906537+32847-096851FM-15+0149KDAL V0309999C000052200059N0160935N5+01065-00115101315ADDAA101000095GF100991999999999999999999MA1101355099585REMMET09601/09/06 00:53:26 METAR KDAL 090653Z 00000KT 10SM CLR 11/M01 A2993 RMK AO2 SLP131 T01061011 (SW)
0159722583139602006010907537+32847-096851FM-15+0149KDAL V0309999C000052200059N0160935N5+00895+00065101395ADDAA101000095GF100991999999999999999999MA1101425099645REMMET09501/09/06 01:53:26 METAR KDAL 090753Z 00000KT 10SM CLR 09/01 A2995 RMK AO2 SLP139 T00890006 (SW)
0180722583139602006010908537+32847-096851FM-15+0149KDAL V0301205N001552200059N0160935N5+00895-00065101395ADDAA101000095GF100991999999999999999999MA1101465099685MD1140114+9999REMMET10201/09/06 02:53:26 METAR KDAL 090853Z 12003KT 10SM CLR 09/M01 A2996 RMK AO2 SLP139 T00891006 51011 (SW)
0159722583139602006010909537+32847-096851FM-15+0149KDAL V0309999C000052200059N0160935N5+00785+00175101425ADDAA101000095GF100991999999999999999999MA1101465099685REMMET09501/09/06 03:53:26 METAR KDAL 090953Z 00000KT 10SM CLR 08/02 A2996 RMK AO2 SLP142 T00780017 (SW)
0159722583139602006010910537+32847-096851FM-15+0149KDAL V0301505N001552200059N0160935N5+00785+00175101405ADDAA101000095GF100991999999999999999999MA1101465099685REMMET09501/09/06 04:53:26 METAR KDAL 091053Z 15003KT 10SM CLR 08/02 A2996 RMK AO2 SLP140 T00780017 (SW)
0217722583139602006010911537+32847-096851FM-15+0149KDAL V0309999C000052200059N0160935N5+00725+00225101425ADDAA101000095GF100991999999999999999999KA1999M+01171KA2999N+00671MA1101465099685MD1340014+9999REMMET11301/09/06 05:53:26 METAR KDAL 091153Z 00000KT 10SM CLR 07/02 A2996 RMK AO2 SLP142 T00720022 10117 20067 53001 (SW)
0195722583139602006010912537+32847-096851FM-15+0149KDAL V0301405N004152200059N0160935N5+00725+00505101455ADDAA101000095GA1025+091445999GD11991+0914459GF102991999999999999999999MA1101495099715REMMET10001/09/06 06:53:26 METAR KDAL 091253Z 14008KT 10SM FEW300 07/05 A2997 RMK AO2 SLP145 T00720050 $ (GR)
0195722583139602006010913537+32847-096851FM-15+0149KDAL V0301205N001552200059N0160935N5+00835+00675101555ADDAA101000095GA1045+091445999GD12991+0914459GF104991999999999999999999MA1101595099815REMMET10001/09/06 07:53:26 METAR KDAL 091353Z 12003KT 10SM SCT300 08/07 A3000 RMK AO2 SLP155 T00830067 $ (GR)
0205722583139602006010914177+32847-096851FM-16+0149KDAL V0309999C00005091445MN0160935N5+00905+00805999999ADDGA1025+002745999GA2075+091445999GD11991+0027459GD23991+0914459GF107991999999999999999999MA1101635099845REMMET09001/09/06 08:17:26 SPECI KDAL 091417Z 00000KT 10SM FEW009 BKN300 09/08 A3001 RMK AO2 $ (GR)
0261722583139602006010914537+32847-096851FM-15+0149KDAL V0303305N00155091445MN0144845N5+01005+00785101665ADDAA101000095GA1025+002745999GA2075+091445999GD11991+0027459GD23991+0914459GF107991999999999999999999MA1101695099915MD1340234+9999REMMET12101/09/06 08:53:26 METAR KDAL 091453Z 33003KT 9SM FEW009 BKN300 10/08 A3003 RMK AO2 SLP166 VIS SE 5 T01000078 53023 $ (GR)
0232722583139602006010915537+32847-096851FM-15+0149KDAL V0303305N00205091445MN0144845N5+01285+00895101755ADDAA101000095GA1025+003665999GA2075+091445999GD11991+0036659GD23991+0914459GF107991999999999999999999MA1101795100015REMMET10601/09/06 09:53:26 METAR KDAL 091553Z 33004KT 9SM FEW012 BKN300 13/09 A3006 RMK AO2 SLP175 T01280089 $ (GR)
0204722583139602006010916407+32847-096851FM-16+0149KDAL V0309999C00005003355MN0128755N5+01405+01005999999ADDGA1075+003355999GA2075+091445999GD13991+0033559GD23991+0914459GF107991999999999999999999MA1101835100045REMMET08901/09/06 10:40:26 SPECI KDAL 091640Z 00000KT 8SM BKN011 BKN300 14/10 A3007 RMK AO2 $ (GR)
0232722583139602006010916537+32847-096851FM-15+0149KDAL V0301305N00205091445MN0112655N5+01445+01065101775ADDAA101000095GA1045+003355999GA2075+091445999GD12991+0033559GD23991+0914459GF107991999999999999999999MA1101795100015REMMET10601/09/06 10:53:26 METAR KDAL 091653Z 13004KT 7SM SCT011 BKN300 14/11 A3006 RMK AO2 SLP177 T01440106 $ (GR)
0252722583139602006010917537+32847-096851FM-15+0149KDAL V0309999V00155091445MN0112655N5+01675+01115101715ADDAA101000095GA1085+091445999GD14991+0914459GF108991999999999999999999KA1999M+01671KA2999N+00611MA1101735099945MD1040054+9999REMMET11701/09/06 11:53:26 METAR KDAL 091753Z VRB03KT 7SM OVC300 17/11 A3004 RMK AO2 SLP171 T01670111 10167 20061 50005 $ (KH)
0232722583139602006010918537+32847-096851FM-15+0149KDAL V0309999V001552200059N0128755N5+01835+01175101645ADDAA101000095GA1025+009145999GA2045+091445999GD11991+0091459GD22991+0914459GF104991999999999999999999MA1101695099915REMMET10601/09/06 12:53:26 METAR KDAL 091853Z VRB03KT 8SM FEW030 SCT300 18/12 A3003 RMK AO2 SLP164 T01830117 $ (KH)
0158722583139602006010919537+32847-096851FM-15+0149KDAL V0303505N002652200059N0144845N5+01945+01115101585ADDAA101000095GF100991999999999999999999MA1101635099845REMMET09401/09/06 13:53:26 METAR KDAL 091953Z 35005KT 9SM CLR 19/11 A3001 RMK AO2 SLP158 T01940111 (KH)
0212722583139602006010920537+32847-096851FM-15+0149KDAL V0303305N003152200059N0144845N5+02065+01115101545ADDAA101000095GA1025+091445999GD11991+0914459GF102991999999999999999999MA1101595099815MD1640164+9999REMMET10301/09/06 14:53:26 METAR KDAL 092053Z 33006KT 9SM FEW300 21/11 A3000 RMK AO2 SLP154 T02060111 56016 (KH)
0193722583139602006010921537+32847-096851FM-15+0149KDAL V0303305N004652200059N0160935N5+02005+01005101625ADDAA101000095GA1025+030485999GD11991+0304859GF102991999999999999999999MA1101665099885REMMET09801/09/06 15:53:26 METAR KDAL 092153Z 33009KT 10SM FEW100 20/10 A3002 RMK AO2 SLP162 T02000100 (KH)
0193722583139602006010922537+32847-096851FM-15+0149KDAL V0303605N003652200059N0160935N5+01895+01005101705ADDAA101000095GA1045+033535999GD12991+0335359GF104991999999999999999999MA1101735099945REMMET09801/09/06 16:53:26 METAR KDAL 092253Z 36007KT 10SM SCT110 19/10 A3004 RMK AO2 SLP170 T01890100 (KH)
0289722583139602006010923537+32847-096851FM-15+0149KDAL V0303505N00515091445MN0160935N5+01505+00445101865ADDAA101000095GA1045+018295999GA2085+091445999GD12991+0182959GD24991+0914459GF108991999999999999999999KA1999M+02111KA2999N+01501MA1101865100085MD1340294+9999REMMET12301/09/06 17:53:26 METAR KDAL 092353Z 35010KT 10SM SCT060 OVC300 15/04 A3008 RMK AO2 SLP186 T01500044 10211 20150 53029 (KH)
0242722583139602006011000537+32847-096851FM-15+0149KDAL V0303405N00825076205MN0160935N5+01285+00285102045ADDAA101000095GA1025+018295999GA2085+076205999GD11991+0182959GD24991+0762059GF108991999999999999999999MA1102075100285OC101075REMMET10801/09/06 18:53:26 METAR KDAL 100053Z 34016G21KT 10SM FEW060 OVC250 13/03 A3014 RMK AO2 SLP204 T01280028 (KH)
0204722583139602006011001537+32847-096851FM-15+0149KDAL V0303105N00825076205MN0160935N5+01115+00005102185ADDAA101000095GA1085+076205999GD14991+0762059GF108991999999999999999999MA1102205100415OC101075REMMET10101/09/06 19:53:26 METAR KDAL 100153Z 31016G21KT 10SM OVC250 11/00 A3018 RMK AO2 SLP218 T01110000 (KH)
0251722583139602006011002537+32847-096851FM-15+0149KDAL V0303205N00715019815MN0144845N5+01005-00065102255ADDAA101000095GA1075+019815999GA2085+076205999GD13991+0198159GD24991+0762059GF108991999999999999999999MA1102275100485MD1140394+9999REMMET11101/09/06 20:53:26 METAR KDAL 100253Z 32014KT 9SM BKN065 OVC250 10/M01 A3020 RMK AO2 SLP225 T01001006 51039 (PH)
0242722583139602006011003537+32847-096851FM-15+0149KDAL V0303005N007752200059N0144845N5+00895-00065102315ADDAA101000095GA1025+024385999GA2045+076205999GD11991+0243859GD22991+0762059GF104991999999999999999999MA1102345100545OC101125REMMET10801/09/06 21:53:26 METAR KDAL 100353Z 30015G22KT 9SM FEW080 SCT250 09/M01 A3022 RMK AO2 SLP231 T00891006 (PH)
0231722583139602006011004537+32847-096851FM-15+0149KDAL V0303105N005652200059N0160935N5+00785+00005102385ADDAA101000095GA1025+024385999GA2045+076205999GD11991+0243859GD22991+0762059GF104991999999999999999999MA1102405100615REMMET10501/09/06 22:53:26 METAR KDAL 100453Z 31011KT 10SM FEW080 SCT250 08/00 A3024 RMK AO2 SLP238 T00780000 (KH)
0238722583139602006011005537+32847-096851FM-15+0149KDAL V0303105N009252200059N0160935N5+00725+00005102405ADDAA101000095GF100991999999999999999999KA1999M+02111KA2999N+00611MA1102445100645MD1140164+9999OC101175REMMET12601/09/06 23:53:26 METAR KDAL 100553Z 31018G23KT 10SM CLR 07/00 A3025 RMK AO2 SLP240 T00720000 10150 20072 402110061 51016 (KH)
0981722583139602006011005596+32847-096851SOD  +0149KDAL V030999999999999999999999999999+99999+99999999999ADDAA124000095AJ100009199999999AN1024000099AX1086246KA1024M+02115KA2024N+00615MG1100084101294OE11240129631020005OE22240111832020015OE33240034499999995REMSOD77124 HR PRECIPITATION (IN):0.00  WEATHER(CODE):8  24 HR MAX TEMP (F):70 24 HR MAX TEMP TIME (LST):1528 24 HR MIN TEMP (F):43 24 HR MIN TEMP TIME (LST):0643 AVERAGE STATION PRESSURE:29.555 MINIMUM SEA LEVEL PRESSURE:29.91 TIME OF OCCURRENCE:0026 PEAK WIND SPEED (MPH):29  PEAK WIND DIR (DEG):310 PEAK WIND TIME (LST):2000  FASTEST 2MIN SPEED (MPH):25 FASTEST 2MIN DIR (DEG):320 FASTEST 2MIN TIME (LST):2001 AVERAGE WIND SPEED (MPH):7.7  24 HR AVG TEMP (F):57 DEPART FROM NORMAL:+12  HEATING DEGREE DAYS:8   COOLING DEGREE DAYS:0   LATEST DAY MAX TEMP (0700-1900 LST):70  LATEST NIGHT MIN TEMP(1900-0800 LST):43 HOURLY INCREMENTAL PRECIPITATION VALUES (IN):.00 0.00 0.00 0.00 0.00 0.00 0.00 0.00 0.00 0.00 0.00 0.00 0.00 0.00 0.00 0.00 0.00 0.00 0.00 0.00 0.00 0.00 0.00 0.00EQDR01     87AXW093R02     N7GJS072R03     N7GKS075
0242722583139602006011006537+32847-096851FM-15+0149KDAL V0303105N007752200059N0160935N5+00675+00065102455ADDAA101000095GA1025+030485999GA2045+076205999GD11991+0304859GD22991+0762059GF104991999999999999999999MA1102475100685OC101225REMMET10801/10/06 00:53:26 METAR KDAL 100653Z 31015G24KT 10SM FEW100 SCT250 07/01 A3026 RMK AO2 SLP245 T00670006 (KH)
0159722583139602006011007537+32847-096851FM-15+0149KDAL V0303105N006652200059N0160935N5+00615+00115102445ADDAA101000095GF100991999999999999999999MA1102475100685REMMET09501/10/06 01:53:26 METAR KDAL 100753Z 31013KT 10SM CLR 06/01 A3026 RMK AO2 SLP244 T00610011 (KH)
0193722583139602006011008237+32847-096851FM-16+0149KDAL V0303005N00825006405MN0144845N5+00605+00105999999ADDGA1075+006405999GD13991+0064059GF107991999999999999999999MA1102515100715OC101335REMMET10101/10/06 02:23:26 SPECI KDAL 100823Z 30016G26KT 9SM BKN021 06/01 A3027 RMK AO2 PK WND 31026/0815 (KH)
0230722583139602006011008537+32847-096851FM-15+0149KDAL V0303005N00615006405MN0144845N5+00615+00065102505ADDAA101000095GA1085+006405999GD14991+0064059GF108991999999999999999999MA1102545100745MD1340094+9999REMMET12101/10/06 02:53:26 METAR KDAL 100853Z 30012KT 9SM OVC021 06/01 A3028 RMK AO2 PK WND 31026/0815 SLP250 T00610006 53009 (KH)
0242722583139602006011009537+32847-096851FM-15+0149KDAL V0303005N00775007925MN0160935N5+00565+00005102505ADDAA101000095GA1075+007925999GA2085+009455999GD13991+0079259GD24991+0094559GF108991999999999999999999MA1102545100745OC101025REMMET10801/10/06 03:53:26 METAR KDAL 100953Z 30015G20KT 10SM BKN026 OVC031 06/00 A3028 RMK AO2 SLP250 T00560000 (KH)
0212722583139602006011010537+32847-096851FM-15+0149KDAL V0303105N007152200059N0160935N5+00505-00175102515ADDAA101000095GA1045+007925999GD12991+0079259GF104991999999999999999999MA1102545100745REMMET11701/10/06 04:54:26 METAR KDAL 101053Z 31014KT 10SM SCT026 05/M02 A3028 RMK AO2 PK WND 31028/1009 SLP251 T00501017 (KH)
0252722583139602006011011537+32847-096851FM-15+0149KDAL V0303005N006152200059N0160935N5+00395-00175102545ADDAA101000095GA1025+007925999GD11991+0079259GF102991999999999999999999KA1999M+00721KA2999N+00391MA1102575100785MD1340034+9999REMMET11701/10/06 05:53:26 METAR KDAL 101153Z 30012KT 10SM FEW026 04/M02 A3029 RMK AO2 SLP254 T00391017 10072 20039 53003 (KH)
0166722583139602006011011557+32847-096851FM-16+0149KDAL V0303005N00615007015MN0160935N5+00405-00205999999ADDGA1075+007015999GD13991+0070159GF107991999999999999999999MA1102575100785REMMET08201/10/06 05:55:26 SPECI KDAL 101155Z 30012KT 10SM BKN023 04/M02 A3029 RMK AO2 (KH)
0232722583139602006011012537+32847-096851FM-15+0149KDAL V0303105N00515091445MN0160935N5+00395-00175102605ADDAA101000095GA1045+007015999GA2075+091445999GD12991+0070159GD23991+0914459GF107991999999999999999999MA1102615100815REMMET10601/10/06 06:53:26 METAR KDAL 101253Z 31010KT 10SM SCT023 BKN300 04/M02 A3030 RMK AO2 SLP260 T00391017 (GR)
0232722583139602006011013537+32847-096851FM-15+0149KDAL V0302905N006152200059N0160935N5+00335-00175102645ADDAA101000095GA1025+007015999GA2045+091445999GD11991+0070159GD22991+0914459GF104991999999999999999999MA1102645100845REMMET10601/10/06 07:53:26 METAR KDAL 101353Z 29012KT 10SM FEW023 SCT300 03/M02 A3031 RMK AO2 SLP264 T00331017 (GR)
0271722583139602006011014537+32847-096851FM-15+0149KDAL V0303205N006652200059N0160935N5+00335-00175102675ADDAA101000095GA1025+007015999GA2045+091445999GD11991+0070159GD22991+0914459GF104991999999999999999999MA1102685100885MD1140114+9999REMMET11201/10/06 09:02:26 METAR KDAL 101453Z 32013KT 10SM FEW023 SCT300 03/M02 A3032 RMK AO2 SLP267 T00331017 51011 (GR)EQDQ01+000000PRSWMA
0194722583139602006011015537+32847-096851FM-15+0149KDAL V0303005N005152200059N0160935N5+00505-00175102695ADDAA101000095GA1025+007015999GD11991+0070159GF102991999999999999999999MA1102715100915REMMET09901/10/06 09:53:26 METAR KDAL 101553Z 30010KT 10SM FEW023 05/M02 A3033 RMK AO2 SLP269 T00501017 (GR)
0160722583139602006011016537+32847-096851FM-15+0149KDAL V0303005N005652200059N0160935N5+00675-00175102675ADDAA101000095GF100991999999999999999999MA1102685100885REMMET09601/10/06 10:53:26 METAR KDAL 101653Z 30011KT 10SM CLR 07/M02 A3032 RMK AO2 SLP267 T00671017 (GR)
0208722583139602006011017536+32847-096851FM-15+0149KDAL V0303105N005152200059N0160935N5+00835-00175102565ADDAA101000095GA1005+999999999GD10991+9999999MA1102575100785MD1840114+9999OC100825REMMET11701/10/06 11:53:26 METAR KDAL 101753Z 31010G16KT 10SM CLR 08/M02 A3029 RMK AO2 SLP256 T00831017 10089 20028 58011 (GR)
0165722583139602006011018536+32847-096851FM-15+0149KDAL V0303105N004652200059N0160935N5+01005-00115102425ADDAA101000095GA1005+999999999GD10991+9999999MA1102445100645REMMET09601/10/06 12:53:26 METAR KDAL 101853Z 31009KT 10SM CLR 10/M01 A3025 RMK AO2 SLP242 T01001011 (GR)
0194722583139602006011019537+32847-096851FM-15+0149KDAL V0303105N004152200059N0160935N5+01115-00175102305ADDAA101000095GA1025+091445999GD11991+0914459GF102991999999999999999999MA1102305100515REMMET09901/10/06 13:53:26 METAR KDAL 101953Z 31008KT 10SM FEW300 11/M02 A3021 RMK AO2 SLP230 T01111017 (GR)
0188722583139602006011020536+32847-096851FM-15+0149KDAL V0302905N003152200059N0160935N5+01225-00225102195ADDAA101000095GA1025+091445999GD11991+0914459MA1102205100415MD1640354+9999REMMET10501/10/06 14:53:26 METAR KDAL 102053Z 29006KT 10SM FEW300 12/M02 A3018 RMK AO2 SLP219 T01221022 56035 (MG)
0194722583139602006011021537+32847-096851FM-15+0149KDAL V0303005N002052200059N0160935N5+01285-00335102165ADDAA101000095GA1025+091445999GD11991+0914459GF102991999999999999999999MA1102175100385REMMET09901/10/06 15:53:26 METAR KDAL 102153Z 30004KT 10SM FEW300 13/M03 A3017 RMK AO2 SLP216 T01281033 (MG)
0194722583139602006011022537+32847-096851FM-15+0149KDAL V0302805N002652200059N0160935N5+01285-00445102145ADDAA101000095GA1025+091445999GD11991+0914459GF102991999999999999999999MA1102175100385REMMET09901/10/06 16:53:26 METAR KDAL 102253Z 28005KT 10SM FEW300 13/M04 A3017 RMK AO2 SLP214 T01281044 (MG)
0252722583139602006011023537+32847-096851FM-15+0149KDAL V0309999C000052200059N0160935N5+01175-00395102115ADDAA101000095GA1025+091445999GD11991+0914459GF102991999999999999999999KA1999M+01331KA2999N+00831MA1102105100315MD1840094+9999REMMET11701/10/06 17:53:26 METAR KDAL 102353Z 00000KT 10SM FEW300 12/M04 A3015 RMK AO2 SLP211 T01171039 10133 20083 58009 (MG)
0194722583139602006011100537+32847-096851FM-15+0149KDAL V0302105N001552200059N0160935N5+01115-00445102115ADDAA101000095GA1025+091445999GD11991+0914459GF102991999999999999999999MA1102135100345REMMET09901/10/06 18:53:26 METAR KDAL 110053Z 21003KT 10SM FEW300 11/M04 A3016 RMK AO2 SLP211 T01111044 (MG)
0196722583139602006011101537+32847-096851FM-15+0149KDAL V0309999C000052200059N0160935N5+00675-00225102125ADDAA101000095GA1025+091445999GD11991+0914459GF102991999999999999999999MA1102135100345REMMET10101/10/06 19:53:26 METAR KDAL 110153Z 00000KT 10SM FEW300 07/M02 A3016 RMK AO2 SLP212 T00671022 $ (MG)
0216722583139602006011102537+32847-096851FM-15+0149KDAL V0309999C000052200059N0160935N5+00675-00285102115ADDAA101000095GA1025+091445999GD11991+0914459GF102991999999999999999999MA1102105100315MD1840004+9999REMMET10701/10/06 20:53:26 METAR KDAL 110253Z 00000KT 10SM FEW300 07/M03 A3015 RMK AO2 SLP211 T00671028 58000 $ (MG)
0162722583139602006011103537+32847-096851FM-15+0149KDAL V0301305N002652200059N0160935N5+00725-00335102155ADDAA101000095GF100991999999999999999999MA1102175100385REMMET09801/10/06 21:53:26 METAR KDAL 110353Z 13005KT 10SM CLR 07/M03 A3017 RMK AO2 SLP215 T00721033 $ (MG)
0162722583139602006011104537+32847-096851FM-15+0149KDAL V0301605N004152200059N0160935N5+00615-00335102125ADDAA101000095GF100991999999999999999999MA1102135100345REMMET09801/10/06 22:53:26 METAR KDAL 110453Z 16008KT 10SM CLR 06/M03 A3016 RMK AO2 SLP212 T00611033 $ (MG)
0230722583139602006011105537+32847-096851FM-15+0149KDAL V0301705N004152200059N0160935N5+00725-00395102125ADDAA101000095GF100991999999999999999999KA1999M+01331KA2999N+00281MA1102135100345MD1040014+9999REMMET12601/10/06 23:53:26 METAR KDAL 110553Z 17008KT 10SM CLR 07/M04 A3016 RMK AO2 SLP212 T00721039 10117 20044 401330028 50001 $ (SW)
0939722583139602006011105596+32847-096851SOD  +0149KDAL V030999999999999999999999999999+99999+99999999999ADDAA124000095AJ100009199999999AN1024000099KA1024M+01335KA2024N+00285MG1100544102074OE11240143131004095OE22240107330002165OE33240043499999995REMSOD75424 HR PRECIPITATION (IN):0.00  24 HR MAX TEMP (F):56 24 HR MAX TEMP TIME (LST):1607 24 HR MIN TEMP (F):37 24 HR MIN TEMP TIME (LST):0806 AVERAGE STATION PRESSURE:29.690 MINIMUM SEA LEVEL PRESSURE:30.14 TIME OF OCCURRENCE:1817 PEAK WIND SPEED (MPH):32  PEAK WIND DIR (DEG):310 PEAK WIND TIME (LST):0409  FASTEST 2MIN SPEED (MPH):24 FASTEST 2MIN DIR (DEG):300 FASTEST 2MIN TIME (LST):0216 AVERAGE WIND SPEED (MPH):9.7  24 HR AVG TEMP (F):47 DEPART FROM NORMAL: +2  HEATING DEGREE DAYS:18  COOLING DEGREE DAYS:0   LATEST DAY MAX TEMP (0700-1900 LST):56  LATEST NIGHT MIN TEMP(1900-0800 LST):38 HOURLY INCREMENTAL PRECIPITATION VALUES (IN):.00 0.00 0.00 0.00 0.00 0.00 0.00 0.00 0.00 0.00 0.00 0.00 0.00 0.00 0.00 0.00 0.00 0.00 0.00 0.00 0.00 0.00 0.00 0.00EQDR01     N7GJS072R02     N7GKS075
0123722583139602006011106534+32833-096850FM-15+0152KDAL V0201601N004112200019N0160931N1+00701-00401102061ADDGF100991999999999999999999MA1102071999999REMMET070KDAL 110653Z 16008KT 10SM CLR 07/M04 A3014 RMK AO2 SLP206 T00721039 /;
0123722583139602006011107534+32833-096850FM-15+0152KDAL V0201801N004612200019N0160931N1+00701-00401102031ADDGF100991999999999999999999MA1102031999999REMMET070KDAL 110753Z 18009KT 10SM CLR 07/M04 A3013 RMK AO2 SLP203 T00671039 /;
0143722583139602006011108534+32833-096850FM-15+0152KDAL V0201601N004112200019N0160931N1+00701-00401101971ADDGF100991999999999999999999MA1102001999999MD1810141+9999REMMET076KDAL 110853Z 16008KT 10SM CLR 07/M04 A3012 RMK AO2 SLP197 T00671039 58014 /;
0123722583139602006011109534+32833-096850FM-15+0152KDAL V0201401N004112200019N0160931N1+00401-00401101911ADDGF100991999999999999999999MA1101931999999REMMET070KDAL 110953Z 14008KT 10SM CLR 04/M04 A3010 RMK AO2 SLP191 T00441039 /;
0123722583139602006011110534+32833-096850FM-15+0152KDAL V0201401N004612200019N0160931N1+00401-00401101851ADDGF100991999999999999999999MA1101861999999REMMET070KDAL 111053Z 14009KT 10SM CLR 04/M04 A3008 RMK AO2 SLP185 T00391039 /;
0181722583139602006011111534+32833-096850FM-15+0152KDAL V0201401N004612200019N0160931N1+00301-00401101871ADDGF100991999999999999999999KA1999M+00721KA2999N+00281MA1101861999999MD1510111+9999REMMET088KDAL 111153Z 14009KT 10SM CLR 03/M04 A3008 RMK AO2 SLP187 T00281039 10072 20028 55011 /;
0123722583139602006011112534+32833-096850FM-15+0152KDAL V0201501N004112200019N0160931N1+00401-00401101891ADDGF100991999999999999999999MA1101901999999REMMET070KDAL 111253Z 15008KT 10SM CLR 04/M04 A3009 RMK AO2 SLP189 T00391039 /;
0123722583139602006011113534+32833-096850FM-15+0152KDAL V0201601N004612200019N0160931N1+00501-00401101881ADDGF100991999999999999999999MA1101901999999REMMET070KDAL 111353Z 16009KT 10SM CLR 05/M04 A3009 RMK AO2 SLP188 T00501039 /;
0143722583139602006011114534+32833-096850FM-15+0152KDAL V0201601N004112200019N0160931N1+00701-00301101911ADDGF100991999999999999999999MA1101931999999MD1310041+9999REMMET076KDAL 111453Z 16008KT 10SM CLR 07/M03 A3010 RMK AO2 SLP191 T00671033 53004 /;
0123722583139602006011115534+32833-096850FM-15+0152KDAL V0201501N003612200019N0160931N1+00901-00301101891ADDGF100991999999999999999999MA1101901999999REMMET070KDAL 111553Z 15007KT 10SM CLR 09/M03 A3009 RMK AO2 SLP189 T00891033 /;
0181722583139602006011117534+32833-096850FM-15+0152KDAL V0202301N004112200019N0160931N1+01601-00301101651ADDGF100991999999999999999999KA1999M+01611KA2999N+00281MA1101691999999MD1810231+9999REMMET088KDAL 111753Z 23008KT 10SM CLR 16/M03 A3003 RMK AO2 SLP165 T01561033 10161 20028 58023 /;
0141722583139602006011118534+32833-096850FM-15+0152KDAL V0201801N007212200019N0160931N1+01801-00401101481ADDGF100991999999999999999999MA1101521999999OC100871REMMET080KDAL 111853Z 18014G17KT 10SM CLR 18/M04 A2998 RMK AO2 PRESFR SLP148 T01781044 /;
0191722583139602006011119537+32847-096851FM-15+0149KDAL V0301905N004652200019N0160935N5+01945-00445999999ADDAA101000095MA1101395099615OC100825REMMET09401/11/06 13:53:26 METAR KDAL 111953Z 19009G16KT 10SM 19/M04 A2994 RMK AO2 SLPNO T01941044 TSNOEQDR01      7SKY009R02      7GAS009Q01+000000PRSWMA
0159722583139602006011120537+32847-096851FM-15+0149KDAL V0302105N006152200059N0160935N5+02065-00445999999ADDAA101000095GF100991999999999999999999MA1101295099515REMMET09501/11/06 14:57:26 METAR KDAL 112053Z 21012KT 10SM CLR 21/M04 A2991 RMK AO2 SLPNO T02061044 (GR)
0159722583139602006011121537+32847-096851FM-15+0149KDAL V0301805N005652200059N0160935N5+02115-00445999999ADDAA101000095GF100991999999999999999999MA1101255099485REMMET09501/11/06 15:53:26 METAR KDAL 112153Z 18011KT 10SM CLR 21/M04 A2990 RMK AO2 SLPNO T02111044 (KH)
0170722583139602006011122537+32847-096851FM-15+0149KDAL V0301905N007152200059N0160935N5+02065-00395999999ADDAA101000095GF100991999999999999999999MA1101225099445OC101075REMMET09801/11/06 16:53:26 METAR KDAL 112253Z 19014G21KT 10SM CLR 21/M04 A2989 RMK AO2 SLPNO T02061039 (KH)
0179722583139602006011123537+32847-096851FM-15+0149KDAL V0301705N005652200059N0160935N5+01895-00225999999ADDAA101000095GF100991999999999999999999MA1101255099485MD1540064+9999REMMET10101/11/06 17:53:26 METAR KDAL 112353Z 17011KT 10SM CLR 19/M02 A2990 RMK AO2 SLPNO T01891022 55006 (KH)
0159722583139602006011200537+32847-096851FM-15+0149KDAL V0301605N006652200059N0160935N5+01785-00225999999ADDAA101000095GF100991999999999999999999MA1101255099485REMMET09501/11/06 18:53:26 METAR KDAL 120053Z 16013KT 10SM CLR 18/M02 A2990 RMK AO2 SLPNO T01781022 (KH)
0159722583139602006011201537+32847-096851FM-15+0149KDAL V0301605N006652200059N0160935N5+01675-00225999999ADDAA101000095GF100991999999999999999999MA1101255099485REMMET09501/11/06 19:53:26 METAR KDAL 120153Z 16013KT 10SM CLR 17/M02 A2990 RMK AO2 SLPNO T01671022 (KH)
0179722583139602006011202537+32847-096851FM-15+0149KDAL V0301605N005652200059N0160935N5+01505-00175999999ADDAA101000095GF100991999999999999999999MA1101225099445MD1840014+9999REMMET10101/11/06 20:53:26 METAR KDAL 120253Z 16011KT 10SM CLR 15/M02 A2989 RMK AO2 SLPNO T01501017 58001 (KH)
0159722583139602006011203537+32847-096851FM-15+0149KDAL V0301705N005152200059N0160935N5+01395-00065999999ADDAA101000095GF100991999999999999999999MA1101225099445REMMET09501/11/06 21:53:26 METAR KDAL 120353Z 17010KT 10SM CLR 14/M01 A2989 RMK AO2 SLPNO T01391006 (KH)
0158722583139602006011204537+32847-096851FM-15+0149KDAL V0301605N005152200059N0160935N5+01335+00115999999ADDAA101000095GF100991999999999999999999MA1101195099415REMMET09401/11/06 22:53:26 METAR KDAL 120453Z 16010KT 10SM CLR 13/01 A2988 RMK AO2 SLPNO T01330011 (KH)
0226722583139602006011205537+32847-096851FM-15+0149KDAL V0301705N005152200059N0160935N5+01335+00285999999ADDAA101000095GF100991999999999999999999KA1999M+02171KA2999N+01331MA1101195099415MD1840064+9999REMMET12201/11/06 23:53:26 METAR KDAL 120553Z 17010KT 10SM CLR 13/03 A2988 RMK AO2 SLPNO T01330028 10189 20133 402170133 58006 (PH)
0721722583139602006011205596+32847-096851SOD  +0149KDAL V030999999999999999999999999999+99999+99999999999ADDAA124000095AJ100009199999999AN1024000099KA1024M+02175KA2024N+00281MG1100079999999OE11240107317016485OE22240093918016005REMSOD55524 HR PRECIPITATION (IN):0.00  24 HR MAX TEMP (F):71 24 HR MAX TEMP TIME (LST):1602 24 HR MIN TEMP (F):55 24 HR MIN TEMP TIME (LST):2357 PEAK WIND SPEED (MPH):24  PEAK WIND DIR (DEG):170 PEAK WIND TIME (LST):1648  FASTEST 2MIN SPEED (MPH):21 FASTEST 2MIN DIR (DEG):180 FASTEST 2MIN TIME (LST):1600 24 HR AVG TEMP (F):63 DEPART FROM NORMAL:+18  HEATING DEGREE DAYS:2   COOLING DEGREE DAYS:0   HOURLY INCREMENTAL PRECIPITATION VALUES (IN):    M    M    M    M    M    M    M    M    M    M    M    M    0.00 0.00 0.00 0.00 0.00 0.00 0.00 0.00 0.00 0.00 0.00EQDR01     N7GJS072R02     N7GKS075
0158722583139602006011206537+32847-096851FM-15+0149KDAL V0301705N006152200059N0160935N5+01285+00395999999ADDAA101000095GF100991999999999999999999MA1101125099345REMMET09401/12/06 00:53:26 METAR KDAL 120653Z 17012KT 10SM CLR 13/04 A2986 RMK AO2 SLPNO T01280039 (PH)
0192722583139602006011207537+32847-096851FM-15+0149KDAL V0301805N00565076205MN0160935N5+01285+00615999999ADDAA101000095GA1085+076205999GD14991+0762059GF108991999999999999999999MA1101085099315REMMET09701/12/06 01:53:26 METAR KDAL 120753Z 18011KT 10SM OVC250 13/06 A2985 RMK AO2 SLPNO T01280061 (PH)
0213722583139602006011208537+32847-096851FM-15+0149KDAL V0301805N00515076205MN0160935N5+01225+00725101025ADDAA101000095GA1085+076205999GD14991+0762059GF108991999999999999999999MA1101055099285MD1640114+9999REMMET10401/12/06 02:53:26 METAR KDAL 120853Z 18010KT 10SM OVC250 12/07 A2984 RMK AO2 SLP102 T01220072 56011 (PH)
0193722583139602006011209537+32847-096851FM-15+0149KDAL V0301705N00515076205MN0160935N5+01225+00785101005ADDAA101000095GA1085+076205999GD14991+0762059GF108991999999999999999999MA1101055099285REMMET09801/12/06 03:53:26 METAR KDAL 120953Z 17010KT 10SM OVC250 12/08 A2984 RMK AO2 SLP100 T01220078 (PH)
0193722583139602006011210537+32847-096851FM-15+0149KDAL V0301805N00465076205MN0160935N5+01225+00835100955ADDAA101000095GA1075+076205999GD13991+0762059GF107991999999999999999999MA1100985099215REMMET09801/12/06 04:53:26 METAR KDAL 121053Z 18009KT 10SM BKN250 12/08 A2982 RMK AO2 SLP095 T01220083 (PH)
0251722583139602006011211537+32847-096851FM-15+0149KDAL V0301705N00515076205MN0160935N5+01225+00895100955ADDAA101000095GA1075+076205999GD13991+0762059GF107991999999999999999999KA1999M+01331KA2999N+01221MA1100985099215MD1640064+9999REMMET11601/12/06 05:53:26 METAR KDAL 121153Z 17010KT 10SM BKN250 12/09 A2982 RMK AO2 SLP095 T01220089 10133 20122 56006 (PH)
0193722583139602006011212537+32847-096851FM-15+0149KDAL V0301805N00415076205MN0160935N5+01175+00945100985ADDAA101000095GA1075+076205999GD13991+0762059GF107991999999999999999999MA1101025099245REMMET09801/12/06 06:53:26 METAR KDAL 121253Z 18008KT 10SM BKN250 12/09 A2983 RMK AO2 SLP098 T01170094 (PH)
0230722583139602006011213537+32847-096851FM-15+0149KDAL V0302005N00365076205MN0144845N5+01285+01065101005ADDAA101000095GA1025+003665999GA2075+076205999GD11991+0036659GD23991+0762059GF107991999999999999999999MA1101055099285REMMET10401/12/06 07:53:26 METAR KDAL 121353Z 20007KT 9SM FEW012 BKN250 13/11 A2984 RMK AO2 SLP100 T01280106 (KH)
0251722583139602006011214537+32847-096851FM-15+0149KDAL V0302105N00415076205MN0160935N5+01615+01225100995ADDAA101000095GA1025+004575999GA2085+076205999GD11991+0045759GD24991+0762059GF108991999999999999999999MA1101055099285MD1040044+9999REMMET11101/12/06 08:53:26 METAR KDAL 121453Z 21008KT 10SM FEW015 OVC250 16/12 A2984 RMK AO2 SLP099 T01610122 50004 (KH)
0231722583139602006011215516+32847-096851FM-16+0149KDAL V0302105N00615007325MN0160935N5+01905+01305999999ADDGA1075+007325999GA2075+042675999GA3085+076205999GD13991+0073259GD23991+0426759GD34991+0762059MA1101025099245OC101075REMMET10301/12/06 09:52:21 SPECI KDAL 121551Z 21012G21KT 10SM BKN024 BKN140 OVC250 19/13 A2983 RMK AO2 FIBI (KH)
0280722583139602006011215537+32847-096851FM-15+0149KDAL V0302005N00615007325MN0160935N5+01895+01335100965ADDAA101000095GA1075+007325999GA2075+042675999GA3085+076205999GD13991+0073259GD23991+0426759GD34991+0762059GF108991999999999999999999MA1101025099245OC101075REMMET11501/12/06 09:53:26 METAR KDAL 121553Z 20012G21KT 10SM BKN024 BKN140 OVC250 19/13 A2983 RMK AO2 SLP096 T01890133 (KH)
0252722583139602006011216157+32847-096851FM-16+0149KDAL V0302105N00775076205MN0160935N5+01905+01305999999ADDGA1045+007625999GA2045+030485999GA3085+076205999GD12991+0076259GD22991+0304859GD34991+0762059GF108991999999999999999999MA1100985099215OC101075REMMET09801/12/06 10:15:26 SPECI KDAL 121615Z 21015G21KT 10SM SCT025 SCT100 OVC250 19/13 A2982 RMK AO2 (KH)
