0160722583139602008010100537+32847-096851FM-15+0149KDAL V0303605N005752200059N0160935N5+01005-01065102585ADDAA101000095GF100991999999999999999999MA1102615100815REMMET09612/31/07 18:53:26 METAR KDAL 010053Z 36011KT 10SM CLR 10/M11 A3030 RMK AO2 SLP258 T01001106 (MG)
0127722583139602008010100534+32833-096850FM-16+0148KDAL V0203601N005712200019N0160931N1+01001-01101102581ADDGF100991999999999999999999MA1102611999999REMMET074SPECI KDAL 010053Z 36011KT 10SM CLR 10/M11 A3030 RMK AO2 SLP258 T01001106;
0160722583139602008010101537+32847-096851FM-15+0149KDAL V0303505N002652200059N0160935N5+00785-01005102745ADDAA101000095GF100991999999999999999999MA1102745100945REMMET09612/31/07 19:53:26 METAR KDAL 010153Z 35005KT 10SM CLR 08/M10 A3034 RMK AO2 SLP274 T00781100 (MG)
0180722583139602008010102537+32847-096851FM-15+0149KDAL V0303505N003152200059N0160935N5+00615-00895102895ADDAA101000095GF100991999999999999999999MA1102915101115MD1140454+9999REMMET10212/31/07 20:53:26 METAR KDAL 010253Z 35006KT 10SM CLR 06/M09 A3039 RMK AO2 SLP289 T00611089 51045 (MG)
0160722583139602008010103537+32847-096851FM-15+0149KDAL V0303505N002652200059N0160935N5+00505-00785103055ADDAA101000095GF100991999999999999999999MA1103055101245REMMET09612/31/07 21:53:26 METAR KDAL 010353Z 35005KT 10SM CLR 05/M08 A3043 RMK AO2 SLP305 T00501078 (MG)
0160722583139602008010104537+32847-096851FM-15+0149KDAL V0303505N003152200059N0160935N5+00395-00725103175ADDAA101000095GF100991999999999999999999MA1103185101385REMMET09612/31/07 22:53:26 METAR KDAL 010453Z 35006KT 10SM CLR 04/M07 A3047 RMK AO2 SLP317 T00391072 (MG)
0228722583139602008010105537+32847-096851FM-15+0149KDAL V0303405N003652200059N0160935N5+00445-00785103255ADDAA101000095GF100991999999999999999999KA1999M+01111KA2999N+00391MA1103255101455MD1140364+9999REMMET12412/31/07 23:53:26 METAR KDAL 010553Z 34007KT 10SM CLR 04/M08 A3049 RMK AO2 SLP325 T00441078 10111 20039 401500028 51036 (SW)
0996722583139602008010105596+32847-096851SOD  +0149KDAL V030999999999999999999999999999+99999+99999999999ADDAA124000095AJ100009599999999AL12400095AN1024000095KA1240M+01505KA2240N+00285MG1100464101294OE11240129635012345OE22240107334015055OE33240044799999995REMSOD80124 HR PRECIPITATION (IN):0.00  SNOW DEPTH (IN):0     24 HR SNOWFALL (IN):0.0  24 HR MAX TEMP (F):59 24 HR MAX TEMP TIME (LST):1432 24 HR MIN TEMP (F):37 24 HR MIN TEMP TIME (LST):0151 AVERAGE STATION PRESSURE:29.665 MINIMUM SEA LEVEL PRESSURE:29.91 TIME OF OCCURRENCE:0637 PEAK WIND SPEED (MPH):29  PEAK WIND DIR (DEG):350 PEAK WIND TIME (LST):1234  FASTEST 2MIN SPEED (MPH):24 FASTEST 2MIN DIR (DEG):340 FASTEST 2MIN TIME (LST):1505 AVERAGE WIND SPEED (MPH):10.0 24 HR AVG TEMP (F):48 DEPART FROM NORMAL: +2  HEATING DEGREE DAYS:17  COOLING DEGREE DAYS:0   LATEST DAY MAX TEMP (0700-1900 LST):59  LATEST NIGHT MIN TEMP(1900-0800 LST):37 HOURLY INCREMENTAL PRECIPITATION VALUES (IN):.00 0.00 0.00 0.00 0.00 0.00 0.00 0.00 0.00 0.00 0.00 0.00 0.00 0.00 0.00 0.00 0.00 0.00 0.00 0.00 0.00 0.00 0.00 0.00EQDR01     N7GJS072R02     N7GKS075
1309722583139602008010105596+32847-096851SOM  +0149KDAL V030999999999999999999999999999+99999+99999999999ADDAB10049895AD10020391415999999999AE1085065005005AH1005002391115275AH2010002891116465AH3015003691116505AH4020004191116545AH5030004691116565AH6045005691501095AI1060006391501135AI2080007491501135AI3100007991501385AI4120008191502025AI5150008991502085AI6180009191502085AK1000099999999AM1000099999999999999AN1024000099KB1744N+03335KB2744M+15395KB3744A+09395KC1N9-00382399995KC2M9+02660799995KD1744H04985KD2744C00055KE1005005075005MH1100084101964MK1103730309539100472201539REMSOM813PCP MTOT:1.96 DEPNRM:-0.6 PCP GT 24HRS:0.80 DATE(S):14-15 DAYS W/PCP >=.01:8  DAYS W/PCP >=.10:6  DAYS W/ PCP >=.50:0 DAYS W/PCP >=1.00:0 MSDP AMTS W/DATE-TIME TAGS:MIN:5 0.09  11/1527 MIN:10 0.11  11/1646 MIN:15 0.14  11/1650 MIN:20 0.16  11/1654 MIN:30 0.18  11/1656 MIN:45 0.22  15/0109 MIN:60 0.25  15/0113 MIN:80 0.29  15/0113 MIN:100 0.31  15/0138 MIN:120 0.32  15/0202 MIN:150 0.35  15/0208 MIN:180 0.36  15/0208 AVG DLY MIN:38.0  AVG DLY MAX:59.7  AVG MLY TMP:48.9  DEP NORM:0.9   MIN TMP:25 DATE(S):23 MAX TMP:80  DATE(S):07 DAYS MAX <=32:0 DAYS MAX >=90:0  DAYS MIN <=32:7  DAYS MIN  <=0:0  AVG STP:29.555 LWST SLP:29.66 DATE/TIME:220147 HGST SLP:30.64 DATE/TIME:030950 HDD MTH TOT:498 DEP NORM:-29 SEASON(JUL 1-JUN 30):753 DEP NORM:-124 CDD MTH TOT:5 DEP NORM: 0 SEASON(JAN 1-DEC 31):776 DEP NORM:-2102EQDR01  0.807ADP081
0160722583139602008010106537+32847-096851FM-15+0149KDAL V0303505N002152200059N0160935N5+00285-00725103335ADDAA101000095GF100991999999999999999999MA1103325101515REMMET09601/01/08 00:53:26 METAR KDAL 010653Z 35004KT 10SM CLR 03/M07 A3051 RMK AO2 SLP333 T00281072 (SW)
0160722583139602008010107537+32847-096851FM-15+0149KDAL V0309999C000052200059N0160935N5+00225-00675103395ADDAA101000095GF100991999999999999999999MA1103395101585REMMET09601/01/08 01:53:26 METAR KDAL 010753Z 00000KT 10SM CLR 02/M07 A3053 RMK AO2 SLP339 T00221067 (SW)
0180722583139602008010108537+32847-096851FM-15+0149KDAL V0309999C000052200059N0160935N5+00175-00615103485ADDAA101000095GF100991999999999999999999MA1103495101685MD1340224+9999REMMET10201/01/08 02:53:26 METAR KDAL 010853Z 00000KT 10SM CLR 02/M06 A3056 RMK AO2 SLP348 T00171061 53022 (SW)
0160722583139602008010109537+32847-096851FM-15+0149KDAL V0303305N001552200059N0160935N5+00065-00675103595ADDAA101000095GF100991999999999999999999MA1103595101785REMMET09601/01/08 03:53:26 METAR KDAL 010953Z 33003KT 10SM CLR 01/M07 A3059 RMK AO2 SLP359 T00061067 (SW)
0160722583139602008010110537+32847-096851FM-15+0149KDAL V0303105N001552200059N0160935N5+00005-00675103655ADDAA101000095GF100991999999999999999999MA1103665101855REMMET09601/01/08 04:53:26 METAR KDAL 011053Z 31003KT 10SM CLR 00/M07 A3061 RMK AO2 SLP365 T00001067 (SW)
0219722583139602008010111537+32847-096851FM-15+0149KDAL V0303105N002652200059N0160935N5-00065-00725103755ADDAA101000095GF100991999999999999999999KA1999M+00441KA2999N-00061MA1103735101915MD1140264+9999REMMET11501/01/08 05:53:26 METAR KDAL 011153Z 31005KT 10SM CLR M01/M07 A3063 RMK AO2 SLP375 T10061072 10044 21006 51026 (SW)
0161722583139602008010112537+32847-096851FM-15+0149KDAL V0303205N003152200059N0160935N5-00175-00725103885ADDAA101000095GF100991999999999999999999MA1103865102055REMMET09701/01/08 06:53:26 METAR KDAL 011253Z 32006KT 10SM CLR M02/M07 A3067 RMK AO2 SLP388 T10171072 (SW)
0195722583139602008010113537+32847-096851FM-15+0149KDAL V0303105N002652200059N0160935N5-00115-00675104005ADDAA101000095GA1025+076205999GD11991+0762059GF102991999999999999999999MA1103965102155REMMET10001/01/08 07:53:26 METAR KDAL 011353Z 31005KT 10SM FEW250 M01/M07 A3070 RMK AO2 SLP400 T10111067 (JM)
0180722583139602008010114537+32847-096851FM-15+0149KDAL V0303205N004152200059N0160935N5+00115-00615104095ADDAA101000095GF100991999999999999999999MA1104065102255MD1140334+9999REMMET10201/01/08 08:53:26 METAR KDAL 011453Z 32008KT 10SM CLR 01/M06 A3073 RMK AO2 SLP409 T00111061 51033 (JM)
0160722583139602008010115537+32847-096851FM-15+0149KDAL V0303105N002652200059N0160935N5+00285-00615104195ADDAA101000095GF100991999999999999999999MA1104205102385REMMET09601/01/08 09:53:26 METAR KDAL 011553Z 31005KT 10SM CLR 03/M06 A3077 RMK AO2 SLP419 T00281061 (JM)
0160722583139602008010116537+32847-096851FM-15+0149KDAL V0303205N004652200059N0160935N5+00565-00615104215ADDAA101000095GF100991999999999999999999MA1104205102385REMMET09601/01/08 10:53:26 METAR KDAL 011653Z 32009KT 10SM CLR 06/M06 A3077 RMK AO2 SLP421 T00561061 (JM)
0218722583139602008010117537+32847-096851FM-15+0149KDAL V0303305N005752200059N0160935N5+00785-00725104165ADDAA101000095GF100991999999999999999999KA1999M+00781KA2999N-00171MA1104175102355MD1040084+9999REMMET11401/01/08 11:53:26 METAR KDAL 011753Z 33011KT 10SM CLR 08/M07 A3076 RMK AO2 SLP416 T00781072 10078 21017 50008 (JM)
0171722583139602008010118537+32847-096851FM-15+0149KDAL V0303405N007752200059N0160935N5+00945-00835104075ADDAA101000095GF100991999999999999999999MA1104065102255OC100985REMMET09901/01/08 12:53:26 METAR KDAL 011853Z 34015G19KT 10SM CLR 09/M08 A3073 RMK AO2 SLP407 T00941083 (JM)
0160722583139602008010119537+32847-096851FM-15+0149KDAL V0303305N008252200059N0160935N5+00945-00945103995ADDAA101000095GF100991999999999999999999MA1104005102185REMMET09601/01/08 13:53:26 METAR KDAL 011953Z 33016KT 10SM CLR 09/M09 A3071 RMK AO2 SLP399 T00941094 (JM)
0209722583139602008010120537+32847-096851FM-15+0149KDAL V0303405N007252200059N0160935N5+01005-00895103975ADDAA101000095GF100991999999999999999999MA1103965102155MD1640194+9999OC101035REMMET12301/01/08 14:53:26 METAR KDAL 012053Z 34014G20KT 10SM CLR 10/M09 A3070 RMK AO2 PK WND 01028/2001 SLP397 T01001089 56019 (JM)
0171722583139602008010121537+32847-096851FM-15+0149KDAL V0303405N007752200059N0160935N5+00945-01065104015ADDAA101000095GF100991999999999999999999MA1104005102185OC101135REMMET09901/01/08 15:53:26 METAR KDAL 012153Z 34015G22KT 10SM CLR 09/M11 A3071 RMK AO2 SLP401 T00941106 (MG)
0171722583139602008010122537+32847-096851FM-15+0149KDAL V0303505N007252200059N0160935N5+00835-01115104025ADDAA101000095GF100991999999999999999999MA1104005102185OC100935REMMET09901/01/08 16:53:26 METAR KDAL 012253Z 35014G18KT 10SM CLR 08/M11 A3071 RMK AO2 SLP402 T00831111 (MG)
0218722583139602008010123537+32847-096851FM-15+0149KDAL V0303405N004152200059N0160935N5+00675-01175104095ADDAA101000095GF100991999999999999999999KA1999M+01001KA2999N+00671MA1104065102255MD1340104+9999REMMET11401/01/08 17:53:26 METAR KDAL 012353Z 34008KT 10SM CLR 07/M12 A3073 RMK AO2 SLP409 T00671117 10100 20067 53010 (MG)
0160722583139602008010200537+32847-096851FM-15+0149KDAL V0303505N004152200059N0160935N5+00565-01115104175ADDAA101000095GF100991999999999999999999MA1104135102315REMMET09601/01/08 18:53:26 METAR KDAL 020053Z 35008KT 10SM CLR 06/M11 A3075 RMK AO2 SLP417 T00561111 (MG)
0160722583139602008010201537+32847-096851FM-15+0149KDAL V0303605N004152200059N0160935N5+00445-01115104215ADDAA101000095GF100991999999999999999999MA1104205102385REMMET09601/01/08 19:53:26 METAR KDAL 020153Z 36008KT 10SM CLR 04/M11 A3077 RMK AO2 SLP421 T00441111 (MG)
0180722583139602008010202537+32847-096851FM-15+0149KDAL V0300105N002652200059N0160935N5+00335-01065104285ADDAA101000095GF100991999999999999999999MA1104275102455MD1140184+9999REMMET10201/01/08 20:53:26 METAR KDAL 020253Z 01005KT 10SM CLR 03/M11 A3079 RMK AO2 SLP428 T00331106 51018 (MG)
0160722583139602008010203537+32847-096851FM-15+0149KDAL V0303405N002152200059N0160935N5+00115-01005104325ADDAA101000095GF100991999999999999999999MA1104305102485REMMET09601/01/08 21:53:26 METAR KDAL 020353Z 34004KT 10SM CLR 01/M10 A3080 RMK AO2 SLP432 T00111100 (MG)
0160722583139602008010204537+32847-096851FM-15+0149KDAL V0303605N001552200059N0160935N5+00065-00945104315ADDAA101000095GF100991999999999999999999MA1104305102485REMMET09601/01/08 22:53:26 METAR KDAL 020453Z 36003KT 10SM CLR 01/M09 A3080 RMK AO2 SLP431 T00061094 (MG)
0228722583139602008010205537+32847-096851FM-15+0149KDAL V0302805N002152200059N0160935N5+00065-00835104325ADDAA101000095GF100991999999999999999999KA1999M+00611KA2999N+00001MA1104305102485MD1140044+9999REMMET12401/01/08 23:53:26 METAR KDAL 020553Z 28004KT 10SM CLR 01/M08 A3080 RMK AO2 SLP432 T00061083 10061 20000 401001017 51004 (SW)
0996722583139602008010205596+32847-096851SOD  +0149KDAL V030999999999999999999999999999+99999+99999999999ADDAA124000095AJ100009599999999AL12400095AN1024000095KA1240M+01005KA2240N-00165MG1102244103284OE11240143101014015OE22240098334017185OE33240037199999995REMSOD80124 HR PRECIPITATION (IN):0.00  SNOW DEPTH (IN):0     24 HR SNOWFALL (IN):0.0  24 HR MAX TEMP (F):50 24 HR MAX TEMP TIME (LST):1532 24 HR MIN TEMP (F):29 24 HR MIN TEMP TIME (LST):0714 AVERAGE STATION PRESSURE:30.190 MINIMUM SEA LEVEL PRESSURE:30.50 TIME OF OCCURRENCE:0020 PEAK WIND SPEED (MPH):32  PEAK WIND DIR (DEG):10  PEAK WIND TIME (LST):1401  FASTEST 2MIN SPEED (MPH):22 FASTEST 2MIN DIR (DEG):340 FASTEST 2MIN TIME (LST):1718 AVERAGE WIND SPEED (MPH):8.3  24 HR AVG TEMP (F):40 DEPART FROM NORMAL: -6  HEATING DEGREE DAYS:25  COOLING DEGREE DAYS:0   LATEST DAY MAX TEMP (0700-1900 LST):50  LATEST NIGHT MIN TEMP(1900-0800 LST):29 HOURLY INCREMENTAL PRECIPITATION VALUES (IN):.00 0.00 0.00 0.00 0.00 0.00 0.00 0.00 0.00 0.00 0.00 0.00 0.00 0.00 0.00 0.00 0.00 0.00 0.00 0.00 0.00 0.00 0.00 0.00EQDR01     N7GJS072R02     N7GKS075
0160722583139602008010206537+32847-096851FM-15+0149KDAL V0303205N002152200059N0160935N5+00005-00895104365ADDAA101000095GF100991999999999999999999MA1104335102515REMMET09601/02/08 00:53:26 METAR KDAL 020653Z 32004KT 10SM CLR 00/M09 A3081 RMK AO2 SLP436 T00001089 (SW)
0161722583139602008010207537+32847-096851FM-15+0149KDAL V0300105N001552200059N0160935N5-00115-00895104415ADDAA101000095GF100991999999999999999999MA1104405102585REMMET09701/02/08 01:53:26 METAR KDAL 020753Z 01003KT 10SM CLR M01/M09 A3083 RMK AO2 SLP441 T10111089 (SW)
0181722583139602008010208537+32847-096851FM-15+0149KDAL V0303305N001552200059N0160935N5-00115-00835104445ADDAA101000095GF100991999999999999999999MA1104445102615MD1140124+9999REMMET10301/02/08 02:53:26 METAR KDAL 020853Z 33003KT 10SM CLR M01/M08 A3084 RMK AO2 SLP444 T10111083 51012 (SW)
0161722583139602008010209537+32847-096851FM-15+0149KDAL V0303505N002152200059N0160935N5-00285-00835104485ADDAA101000095GF100991999999999999999999MA1104475102655REMMET09701/02/08 03:53:26 METAR KDAL 020953Z 35004KT 10SM CLR M03/M08 A3085 RMK AO2 SLP448 T10281083 (SW)
0161722583139602008010210537+32847-096851FM-15+0149KDAL V0303005N001552200059N0160935N5-00225-00785104555ADDAA101000095GF100991999999999999999999MA1104545102715REMMET09701/02/08 04:53:26 METAR KDAL 021053Z 30003KT 10SM CLR M02/M08 A3087 RMK AO2 SLP455 T10221078 (SW)
0219722583139602008010211537+32847-096851FM-15+0149KDAL V0309999C000052200059N0160935N5-00285-00785104595ADDAA101000095GF100991999999999999999999KA1999M+00111KA2999N-00281MA1104575102755MD1340134+9999REMMET11501/02/08 05:53:26 METAR KDAL 021153Z 00000KT 10SM CLR M03/M08 A3088 RMK AO2 SLP459 T10281078 10011 21028 53013 (SW)
0161722583139602008010212537+32847-096851FM-15+0149KDAL V0303505N002152200059N0160935N5-00285-00725104655ADDAA101000095GF100991999999999999999999MA1104645102815REMMET09701/02/08 06:53:26 METAR KDAL 021253Z 35004KT 10SM CLR M03/M07 A3090 RMK AO2 SLP465 T10281072 (SW)
0161722583139602008010213537+32847-096851FM-15+0149KDAL V0309999C000052200059N0160935N5-00335-00785104735ADDAA101000095GF100991999999999999999999MA1104715102885REMMET09701/02/08 07:53:26 METAR KDAL 021353Z 00000KT 10SM CLR M03/M08 A3092 RMK AO2 SLP473 T10331078 (JM)
0181722583139602008010214537+32847-096851FM-15+0149KDAL V0303505N002652200059N0160935N5-00115-00675104815ADDAA101000095GF100991999999999999999999MA1104775102955MD1340224+9999REMMET10301/02/08 08:53:26 METAR KDAL 021453Z 35005KT 10SM CLR M01/M07 A3094 RMK AO2 SLP481 T10111067 53022 (JM)
0160722583139602008010215537+32847-096851FM-15+0149KDAL V0303305N003652200059N0160935N5+00065-00835104885ADDAA101000095GF100991999999999999999999MA1104885103055REMMET09601/02/08 09:53:26 METAR KDAL 021553Z 33007KT 10SM CLR 01/M08 A3097 RMK AO2 SLP488 T00061083 (JM)
0160722583139602008010216537+32847-096851FM-15+0149KDAL V0303505N003652200059N0160935N5+00225-00945104925ADDAA101000095GF100991999999999999999999MA1104915103085REMMET09601/02/08 10:53:26 METAR KDAL 021653Z 35007KT 10SM CLR 02/M09 A3098 RMK AO2 SLP492 T00221094 (JM)
0252722583139602008010217537+32847-096851FM-15+0149KDAL V0303505N004652200059N0160935N5+00335-01005104845ADDAA101000095GA1025+076205999GD11991+0762059GF102991999999999999999999KA1999M+00331KA2999N-00441MA1104815102985MD1040034+9999REMMET11701/02/08 11:53:26 METAR KDAL 021753Z 35009KT 10SM FEW250 03/M10 A3095 RMK AO2 SLP484 T00331100 10033 21044 50003 (JM)
0194722583139602008010218537+32847-096851FM-15+0149KDAL V0303405N005752200059N0160935N5+00395-00945104695ADDAA101000095GA1025+076205999GD11991+0762059GF102991999999999999999999MA1104675102855REMMET09901/02/08 12:53:26 METAR KDAL 021853Z 34011KT 10SM FEW250 04/M09 A3091 RMK AO2 SLP469 T00391094 (JM)
0194722583139602008010219537+32847-096851FM-15+0149KDAL V0300105N005752200059N0160935N5+00505-01065104555ADDAA101000095GA1045+076205999GD12991+0762059GF104991999999999999999999MA1104545102715REMMET09901/02/08 13:53:26 METAR KDAL 021953Z 01011KT 10SM SCT250 05/M11 A3087 RMK AO2 SLP455 T00501106 (JM)
0214722583139602008010220537+32847-096851FM-15+0149KDAL V0300205V003652200059N0160935N5+00505-01115104445ADDAA101000095GA1045+076205999GD12991+0762059GF104991999999999999999999MA1104405102585MD1640394+9999REMMET10501/02/08 14:53:26 METAR KDAL 022053Z 02007KT 10SM SCT250 05/M11 A3083 RMK AO2 SLP444 T00501111 56039 (JM)
0194722583139602008010221537+32847-096851FM-15+0149KDAL V0300105N00315091445MN0160935N5+00505-01115104405ADDAA101000095GA1075+091445999GD13991+0914459GF107991999999999999999999MA1104375102555REMMET09901/02/08 15:53:26 METAR KDAL 022153Z 01006KT 10SM BKN300 05/M11 A3082 RMK AO2 SLP440 T00501111 (MG)
0194722583139602008010222537+32847-096851FM-15+0149KDAL V0300205N00315076205MN0160935N5+00445-01115104415ADDAA101000095GA1075+076205999GD13991+0762059GF107991999999999999999999MA1104405102585REMMET09901/02/08 16:53:26 METAR KDAL 022253Z 02006KT 10SM BKN250 04/M11 A3083 RMK AO2 SLP441 T00441111 (MG)
0252722583139602008010223537+32847-096851FM-15+0149KDAL V0300205N00265076205MN0160935N5+00335-01115104385ADDAA101000095GA1075+076205999GD13991+0762059GF107991999999999999999999KA1999M+00561KA2999N+00281MA1104375102555MD1640064+9999REMMET11701/02/08 17:53:26 METAR KDAL 022353Z 02005KT 10SM BKN250 03/M11 A3082 RMK AO2 SLP438 T00331111 10056 20028 56006 (MG)
0194722583139602008010300537+32847-096851FM-15+0149KDAL V0300405N00215076205MN0160935N5+00285-01065104425ADDAA101000095GA1075+076205999GD13991+0762059GF107991999999999999999999MA1104405102585REMMET09901/02/08 18:53:26 METAR KDAL 030053Z 04004KT 10SM BKN250 03/M11 A3083 RMK AO2 SLP442 T00281106 (MG)
0194722583139602008010301537+32847-096851FM-15+0149KDAL V0300805N00215076205MN0160935N5+00175-01005104425ADDAA101000095GA1075+076205999GD13991+0762059GF107991999999999999999999MA1104405102585REMMET09901/02/08 19:53:26 METAR KDAL 030153Z 08004KT 10SM BKN250 02/M10 A3083 RMK AO2 SLP442 T00171100 (MG)
0252722583139602008010302537+32847-096851FM-15+0149KDAL V0300805N00215076205MN0160935N5+00175-01065104415ADDAA101000095GA1025+045725999GA2075+076205999GD11991+0457259GD23991+0762059GF107991999999999999999999MA1104375102555MD1040024+9999REMMET11201/02/08 20:53:26 METAR KDAL 030253Z 08004KT 10SM FEW150 BKN250 02/M11 A3082 RMK AO2 SLP441 T00171106 50002 (MG)
0232722583139602008010303537+32847-096851FM-15+0149KDAL V0309999C00005076205MN0160935N5+00065-01065104375ADDAA101000095GA1025+045725999GA2075+076205999GD11991+0457259GD23991+0762059GF107991999999999999999999MA1104335102515REMMET10601/02/08 21:53:26 METAR KDAL 030353Z 00000KT 10SM FEW150 BKN250 01/M11 A3081 RMK AO2 SLP437 T00061106 (MG)
0232722583139602008010304537+32847-096851FM-15+0149KDAL V0301305N00155091445MN0160935N5+00005-01065104365ADDAA101000095GA1025+039625999GA2075+091445999GD11991+0396259GD23991+0914459GF107991999999999999999999MA1104335102515REMMET10601/02/08 22:53:26 METAR KDAL 030453Z 13003KT 10SM FEW130 BKN300 00/M11 A3081 RMK AO2 SLP436 T00001106 (MG)
0262722583139602008010305537+32847-096851FM-15+0149KDAL V0301005N00265045725MN0160935N5+00005-01005104325ADDAA101000095GA1075+045725999GD13991+0457259GF107991999999999999999999KA1999M+00331KA2999N-00111MA1104305102485MD1840074+9999REMMET12701/02/08 23:53:26 METAR KDAL 030553Z 10005KT 10SM BKN150 00/M10 A3080 RMK AO2 SLP432 T00001100 10033 21011 400561044 58007 (SW)
0996722583139602008010305596+32847-096851SOD  +0149KDAL V030999999999999999999999999999+99999+99999999999ADDAA124000095AJ100009599999999AL12400095AN1024000095KA1240M+00565KA2240N-00435MG1102684104304OE11240080502014425OE22240067102015175OE33240024699999995REMSOD80124 HR PRECIPITATION (IN):0.00  SNOW DEPTH (IN):0     24 HR SNOWFALL (IN):0.0  24 HR MAX TEMP (F):42 24 HR MAX TEMP TIME (LST):1532 24 HR MIN TEMP (F):24 24 HR MIN TEMP TIME (LST):0741 AVERAGE STATION PRESSURE:30.320 MINIMUM SEA LEVEL PRESSURE:30.80 TIME OF OCCURRENCE:2359 PEAK WIND SPEED (MPH):18  PEAK WIND DIR (DEG):20  PEAK WIND TIME (LST):1442  FASTEST 2MIN SPEED (MPH):15 FASTEST 2MIN DIR (DEG):20  FASTEST 2MIN TIME (LST):1517 AVERAGE WIND SPEED (MPH):5.5  24 HR AVG TEMP (F):33 DEPART FROM NORMAL:-13  HEATING DEGREE DAYS:32  COOLING DEGREE DAYS:0   LATEST DAY MAX TEMP (0700-1900 LST):42  LATEST NIGHT MIN TEMP(1900-0800 LST):24 HOURLY INCREMENTAL PRECIPITATION VALUES (IN):.00 0.00 0.00 0.00 0.00 0.00 0.00 0.00 0.00 0.00 0.00 0.00 0.00 0.00 0.00 0.00 0.00 0.00 0.00 0.00 0.00 0.00 0.00 0.00EQDR01     N7GJS072R02     N7GKS075
0233722583139602008010306537+32847-096851FM-15+0149KDAL V0301405N00215045725MN0160935N5-00065-00895104305ADDAA101000095GA1075+045725999GA2085+076205999GD13991+0457259GD24991+0762059GF108991999999999999999999MA1104305102485REMMET10701/03/08 00:53:26 METAR KDAL 030653Z 14004KT 10SM BKN150 OVC250 M01/M09 A3080 RMK AO2 SLP430 T10061089 (SW)
0212722583139602008010307536+32847-096851FM-15+0149KDAL V0301305N00315045725MN0160935N5-00115-00895104265ADDAA101000095GA1075+045725999GA2085+076205999GD13991+0457259GD24991+0762059MA1104235102415REMMET11201/03/08 02:00:26 METAR KDAL 030753Z 13006KT 10SM BKN150 OVC250 M01/M09 A3078 RMK AO2 SLP426 T10111089 FIBI (SW)
0232722583139602008010308536+32847-096851FM-15+0149KDAL V0301305N00415045725MN0160935N5-00115-01115104215ADDAA101000095GA1075+045725999GA2085+076205999GD13991+0457259GD24991+0762059MA1104205102385MD1840114+9999REMMET11801/03/08 02:53:26 METAR KDAL 030853Z 13008KT 10SM BKN150 OVC250 M01/M11 A3077 RMK AO2 SLP421 T10111111 58011 FIBI (SW)
0233722583139602008010309537+32847-096851FM-15+0149KDAL V0301305N00415076205MN0160935N5-00175-01065104155ADDAA101000095GA1025+045725999GA2075+076205999GD11991+0457259GD23991+0762059GF107991999999999999999999MA1104135102315REMMET10701/03/08 03:56:26 METAR KDAL 030953Z 13008KT 10SM FEW150 BKN250 M02/M11 A3075 RMK AO2 SLP415 T10171106 (SW)
0195722583139602008010310537+32847-096851FM-15+0149KDAL V0301305N004152200059N0160935N5-00225-01175104155ADDAA101000095GA1025+076205999GD11991+0762059GF102991999999999999999999MA1104135102315REMMET10001/03/08 04:53:26 METAR KDAL 031053Z 13008KT 10SM FEW250 M02/M12 A3075 RMK AO2 SLP415 T10221117 (SW)
0253722583139602008010311537+32847-096851FM-15+0149KDAL V0301205N004152200059N0160935N5-00225-01225104145ADDAA101000095GA1045+076205999GD12991+0762059GF104991999999999999999999KA1999M+00001KA2999N-00281MA1104105102285MD1640074+9999REMMET11801/03/08 05:53:26 METAR KDAL 031153Z 12008KT 10SM SCT250 M02/M12 A3074 RMK AO2 SLP414 T10221122 10000 21028 56007 (SW)
0233722583139602008010312537+32847-096851FM-15+0149KDAL V0301205N00465076205MN0160935N5-00175-01225104125ADDAA101000095GA1025+042675999GA2075+076205999GD11991+0426759GD23991+0762059GF107991999999999999999999MA1104105102285REMMET10701/03/08 06:53:26 METAR KDAL 031253Z 12009KT 10SM FEW140 BKN250 M02/M12 A3074 RMK AO2 SLP412 T10171122 (SW)
0271722583139602008010313537+32847-096851FM-15+0149KDAL V0301305N00625073155MN0160935N5-00115-01115104125ADDAA101000095GA1025+042675999GA2075+073155999GA3085+091445999GD11991+0426759GD23991+0731559GD34991+0914459GF108991999999999999999999MA1104105102285REMMET11401/03/08 07:53:26 METAR KDAL 031353Z 13012KT 10SM FEW140 BKN240 OVC300 M01/M11 A3074 RMK AO2 SLP412 T10111111 (JM)
0290722583139602008010314537+32847-096851FM-15+0149KDAL V0301605N00575054865MN0160935N5+00005-01005104115ADDAA101000095GA1045+042675999GA2075+054865999GA3085+073155999GD12991+0426759GD23991+0548659GD34991+0731559GF108991999999999999999999MA1104105102285MD1640024+9999REMMET11901/03/08 08:53:26 METAR KDAL 031453Z 16011KT 10SM SCT140 BKN180 OVC240 00/M10 A3074 RMK AO2 SLP411 T00001100 56002 (JM)
0270722583139602008010315537+32847-096851FM-15+0149KDAL V0301605N00575054865MN0160935N5+00065-01065104115ADDAA101000095GA1025+039625999GA2075+054865999GA3085+073155999GD11991+0396259GD23991+0548659GD34991+0731559GF108991999999999999999999MA1104105102285REMMET11301/03/08 09:53:26 METAR KDAL 031553Z 16011KT 10SM FEW130 BKN180 OVC240 01/M11 A3074 RMK AO2 SLP411 T00061106 (JM)
0285722583139602008010316537+32847-096851FM-15+0149KDAL V0301805N00465054865MN0160935N5+00115-00945104145ADDAA101000095GA1025+019815999GA2045+039625999GA3075+054865999GD11991+0198159GD22991+0396259GD33991+0548659GD44991+0720019GF108991999999999999999999MA1104105102285REMMET11301/03/08 10:53:26 METAR KDAL 031653Z 18009KT 10SM FEW065 SCT130 BKN180 01/M09 A3074 RMK AO2 SLP414 T00111094 (JM)
0328722583139602008010317537+32847-096851FM-15+0149KDAL V0301805N00725073155MN0160935N5+00395-01005103985ADDAA101000095GA1045+039625999GA2045+054865999GA3075+073155999GD12991+0396259GD22991+0548659GD33991+0731559GF107991999999999999999999KA1999M+00391KA2999N-00221MA1103965102155MD1840134+9999REMMET13101/03/08 11:53:26 METAR KDAL 031753Z 18014KT 10SM SCT130 SCT180 BKN240 04/M10 A3070 RMK AO2 SLP398 T00391100 10039 21022 58013 (JM)
0270722583139602008010318537+32847-096851FM-15+0149KDAL V0301505N00725039625MN0160935N5+00505-01065103775ADDAA101000095GA1075+039625999GA2075+054865999GA3075+073155999GD13991+0396259GD23991+0548659GD33991+0731559GF107991999999999999999999MA1103765101955REMMET11301/03/08 12:53:26 METAR KDAL 031853Z 15014KT 10SM BKN130 BKN180 BKN240 05/M11 A3064 RMK AO2 SLP377 T00501106 (JM)
0285722583139602008010319537+32847-096851FM-15+0149KDAL V0301505N00775033535MN0160935N5+00505-01115103625ADDAA101000095GA1025+018295999GA2075+033535999GA3075+054865999GD11991+0182959GD23991+0335359GD33991+0548659GD43991+0750019GF107991999999999999999999MA1103595101785REMMET11301/03/08 13:53:26 METAR KDAL 031953Z 15015KT 10SM FEW060 BKN110 BKN180 05/M11 A3059 RMK AO2 SLP362 T00501111 (JM)
0301722583139602008010320537+32847-096851FM-15+0149KDAL V0301705N007252200059N0160935N5+00615-01065103495ADDAA101000095GA1025+018295999GA2045+033535999GA3045+076205999GD11991+0182959GD22991+0335359GD32991+0762059GF104991999999999999999999MA1103495101685MD1640484+9999REMMET13001/03/08 14:53:26 METAR KDAL 032053Z 17014KT 10SM FEW060 SCT110 SCT250 06/M11 A3056 RMK AO2 SLP349 TCU DSNT E T00611106 56048 (JM)
0194722583139602008010321537+32847-096851FM-15+0149KDAL V0301705N007752200059N0160935N5+00675-01115103405ADDAA101000095GA1025+039625999GD11991+0396259GF102991999999999999999999MA1103395101585REMMET09901/03/08 15:53:26 METAR KDAL 032153Z 17015KT 10SM FEW130 07/M11 A3053 RMK AO2 SLP340 T00671111 (MG)
0232722583139602008010322537+32847-096851FM-15+0149KDAL V0301605N006752200059N0160935N5+00565-01115103375ADDAA101000095GA1025+018295999GA2045+091445999GD11991+0182959GD22991+0914459GF104991999999999999999999MA1103355101555REMMET10601/03/08 16:53:26 METAR KDAL 032253Z 16013KT 10SM FEW060 SCT300 06/M11 A3052 RMK AO2 SLP337 T00561111 (MG)
0290722583139602008010323537+32847-096851FM-15+0149KDAL V0301605N005752200059N0160935N5+00505-01065103355ADDAA101000095GA1025+018295999GA2045+091445999GD11991+0182959GD22991+0914459GF104991999999999999999999KA1999M+00671KA2999N+00331MA1103355101555MD1640144+9999REMMET12401/03/08 17:53:26 METAR KDAL 032353Z 16011KT 10SM FEW060 SCT300 05/M11 A3052 RMK AO2 SLP335 T00501106 10067 20033 56014 (MG)
0232722583139602008010400537+32847-096851FM-15+0149KDAL V0301505N007252200059N0160935N5+00395-01005103305ADDAA101000095GA1025+018295999GA2045+091445999GD11991+0182959GD22991+0914459GF104991999999999999999999MA1103285101485REMMET10601/03/08 18:53:26 METAR KDAL 040053Z 15014KT 10SM FEW060 SCT300 04/M10 A3050 RMK AO2 SLP330 T00391100 (MG)
0243722583139602008010401537+32847-096851FM-15+0149KDAL V0301605N007752200059N0160935N5+00335-00945103305ADDAA101000095GA1025+018295999GA2045+091445999GD11991+0182959GD22991+0914459GF104991999999999999999999MA1103285101485OC100985REMMET10901/03/08 19:53:26 METAR KDAL 040153Z 16015G19KT 10SM FEW060 SCT300 03/M09 A3050 RMK AO2 SLP330 T00331094 (MG)
0214722583139602008010402537+32847-096851FM-15+0149KDAL V0301505N008852200059N0160935N5+00285-00895103255ADDAA101000095GA1025+076205999GD11991+0762059GF102991999999999999999999MA1103255101455MD1840104+9999REMMET10501/03/08 20:53:26 METAR KDAL 040253Z 15017KT 10SM FEW250 03/M09 A3049 RMK AO2 SLP325 T00281089 58010 (MG)
0194722583139602008010403537+32847-096851FM-15+0149KDAL V0301505N006752200059N0160935N5+00285-00835103215ADDAA101000095GA1025+076205999GD11991+0762059GF102991999999999999999999MA1103185101385REMMET09901/03/08 21:53:26 METAR KDAL 040353Z 15013KT 10SM FEW250 03/M08 A3047 RMK AO2 SLP321 T00281083 (MG)
0194722583139602008010404537+32847-096851FM-15+0149KDAL V0301605N007752200059N0160935N5+00225-00835103215ADDAA101000095GA1025+076205999GD11991+0762059GF102991999999999999999999MA1103185101385REMMET09901/03/08 22:53:26 METAR KDAL 040453Z 16015KT 10SM FEW250 02/M08 A3047 RMK AO2 SLP321 T00221083 (MG)
0262722583139602008010405537+32847-096851FM-15+0149KDAL V0301505N005752200059N0160935N5+00175-00785103165ADDAA101000095GA1025+076205999GD11991+0762059GF102991999999999999999999KA1999M+00501KA2999N+00171MA1103155101355MD1840094+9999REMMET12701/03/08 23:53:26 METAR KDAL 040553Z 15011KT 10SM FEW250 02/M08 A3046 RMK AO2 SLP316 T00171078 10050 20017 400671028 58009 (SW)
0996722583139602008010405596+32847-096851SOD  +0149KDAL V030999999999999999999999999999+99999+99999999999ADDAA124000095AJ100009599999999AL12400095AN1024000095KA1240M+00675KA2240N-00275MG1101814103154OE11240116216020165OE22240093915020205OE33240059099999995REMSOD80124 HR PRECIPITATION (IN):0.00  SNOW DEPTH (IN):0     24 HR SNOWFALL (IN):0.0  24 HR MAX TEMP (F):44 24 HR MAX TEMP TIME (LST):1608 24 HR MIN TEMP (F):27 24 HR MIN TEMP TIME (LST):0548 AVERAGE STATION PRESSURE:30.065 MINIMUM SEA LEVEL PRESSURE:30.46 TIME OF OCCURRENCE:2359 PEAK WIND SPEED (MPH):26  PEAK WIND DIR (DEG):160 PEAK WIND TIME (LST):2016  FASTEST 2MIN SPEED (MPH):21 FASTEST 2MIN DIR (DEG):150 FASTEST 2MIN TIME (LST):2020 AVERAGE WIND SPEED (MPH):13.2 24 HR AVG TEMP (F):36 DEPART FROM NORMAL: -9  HEATING DEGREE DAYS:29  COOLING DEGREE DAYS:0   LATEST DAY MAX TEMP (0700-1900 LST):44  LATEST NIGHT MIN TEMP(1900-0800 LST):27 HOURLY INCREMENTAL PRECIPITATION VALUES (IN):.00 0.00 0.00 0.00 0.00 0.00 0.00 0.00 0.00 0.00 0.00 0.00 0.00 0.00 0.00 0.00 0.00 0.00 0.00 0.00 0.00 0.00 0.00 0.00EQDR01     N7GJS072R02     N7GKS075
0189722583139602008010406537+32847-096851FM-15+0149KDAL V0301505N005152200059N0160935N5+00175-00675103075ADDAA101000095GA1025+076205999GD11991+0762059GF102991999999999999999999MA1103055101245REMMET09401/04/08 00:53:00 METAR KDAL 040653Z 15010KT 10SM FEW250 02/M07 A3043 RMK AO2 SLP307 T00171067
0189722583139602008010407537+32847-096851FM-15+0149KDAL V0301705N005152200059N0160935N5+00175-00505103025ADDAA101000095GA1025+076205999GD11991+0762059GF102991999999999999999999MA1103015101215REMMET09401/04/08 01:53:00 METAR KDAL 040753Z 17010KT 10SM FEW250 02/M05 A3042 RMK AO2 SLP302 T00171050
0209722583139602008010408537+32847-096851FM-15+0149KDAL V0301705N006252200059N0160935N5+00115-00395102975ADDAA101000095GA1045+076205999GD12991+0762059GF104991999999999999999999MA1102955101145MD1640184+9999REMMET10001/04/08 02:53:00 METAR KDAL 040853Z 17012KT 10SM SCT250 01/M04 A3040 RMK AO2 SLP297 T00111039 56018
0189722583139602008010409537+32847-096851FM-15+0149KDAL V0301605N005752200059N0160935N5+00115-00335102915ADDAA101000095GA1045+076205999GD12991+0762059GF104991999999999999999999MA1102915101115REMMET09401/04/08 03:53:00 METAR KDAL 040953Z 16011KT 10SM SCT250 01/M03 A3039 RMK AO2 SLP291 T00111033
0227722583139602008010410537+32847-096851FM-15+0149KDAL V0301605N004152200059N0160935N5+00065-00335102895ADDAA101000095GA1025+045725999GA2045+076205999GD11991+0457259GD22991+0762059GF104991999999999999999999MA1102885101085REMMET10101/04/08 04:53:00 METAR KDAL 041053Z 16008KT 10SM FEW150 SCT250 01/M03 A3038 RMK AO2 SLP289 T00061033
0247722583139602008010411537+32847-096851FM-15+0149KDAL V0301505N00465076205MN0160935N5+00065-00285102885ADDAA101000095GA1075+076205999GD13991+0762059GF107991999999999999999999KA1999M+00171KA2999N+00061MA1102885101085MD1640094+9999REMMET11201/04/08 05:53:00 METAR KDAL 041153Z 15009KT 10SM BKN250 01/M03 A3038 RMK AO2 SLP288 T00061028 10017 20006 56009
0189722583139602008010412537+32847-096851FM-15+0149KDAL V0301605N004652200059N0160935N5+00065-00225102855ADDAA101000095GA1025+076205999GD11991+0762059GF102991999999999999999999MA1102845101045REMMET09401/04/08 06:53:00 METAR KDAL 041253Z 16009KT 10SM FEW250 01/M02 A3037 RMK AO2 SLP285 T00061022
0265722583139602008010413537+32847-096851FM-15+0149KDAL V0301505N00515076205MN0160935N5+00115-00175102855ADDAA101000095GA1025+004575999GA2045+039625999GA3075+076205999GD11991+0045759GD22991+0396259GD33991+0762059GF107991999999999999999999MA1102845101045REMMET10801/04/08 07:53:00 METAR KDAL 041353Z 15010KT 10SM FEW015 SCT130 BKN250 01/M02 A3037 RMK AO2 SLP285 T00111017
0285722583139602008010414537+32847-096851FM-15+0149KDAL V0301705N00465036585MN0160935N5+00225-00115102865ADDAA101000095GA1045+003965999GA2075+036585999GA3085+076205999GD12991+0039659GD23991+0365859GD34991+0762059GF108991999999999999999999MA1102845101045MD1540024+9999REMMET11401/04/08 08:53:00 METAR KDAL 041453Z 17009KT 10SM SCT013 BKN120 OVC250 02/M01 A3037 RMK AO2 SLP286 T00221011 55002
0237722583139602008010415127+32847-096851FM-16+0149KDAL V0301705N00515003965MN0160935N5+00305-00105999999ADDGA1075+003965999GA2075+036585999GA3085+076205999GD13991+0039659GD23991+0365859GD34991+0762059GF108991999999999999999999MA1102845101045REMMET09101/04/08 09:12:00 SPECI KDAL 041512Z 17010KT 10SM BKN013 BKN120 OVC250 03/M01 A3037 RMK AO2
0236722583139602008010415537+32847-096851FM-15+0149KDAL V0301705N00725003965MN0160935N5+00505+00065102835ADDAA101000095GA1075+003965999GA2085+076205999GD13991+0039659GD24991+0762059GF108991999999999999999999MA1102815101015REMMET11001/04/08 09:53:00 METAR KDAL 041553Z 17014KT 10SM BKN013 OVC250 05/01 A3036 RMK AO2 SLP283 BKN V SCT T00500006
0198722583139602008010416117+32847-096851FM-16+0149KDAL V0301705N00725076205MN0160935N5+00605+00105999999ADDGA1045+003965999GA2085+076205999GD12991+0039659GD24991+0762059GF108991999999999999999999MA1102815101015REMMET08301/04/08 10:11:00 SPECI KDAL 041611Z 17014KT 10SM SCT013 OVC250 06/01 A3036 RMK AO2
0264722583139602008010416537+32847-096851FM-15+0149KDAL V0301805N006752200059N0160935N5+00835+00285102805ADDAA101000095GA1025+004275999GA2045+036585999GA3045+076205999GD11991+0042759GD22991+0365859GD32991+0762059GF104991999999999999999999MA1102815101015REMMET10701/04/08 10:53:00 METAR KDAL 041653Z 18013KT 10SM FEW014 SCT120 SCT250 08/03 A3036 RMK AO2 SLP280 T00830028
0333722583139602008010417537+32847-096851FM-15+0149KDAL V0301805N00775076205MN0160935N5+01115+00395102645ADDAA101000095GA1025+006105999GA2045+027435999GA3085+076205999GD11991+0061059GD22991+0274359GD34991+0762059GF108991999999999999999999KA1999M+01111KA2999N+00061MA1102645100845MD1840194+9999OC100985REMMET12801/04/08 11:53:00 METAR KDAL 041753Z 18015G19KT 10SM FEW020 SCT090 OVC250 11/04 A3031 RMK AO2 SLP264 T01110039 10111 20006 58019
0237722583139602008010418537+32847-096851FM-15+0149KDAL V0301805N00725012805MN0160935N5+01285+00505102445ADDAA101000095GA1025+008845999GA2085+012805999GD11991+0088459GD24991+0128059GF108991999999999999999999MA1102445100645OC101085REMMET10301/04/08 12:53:00 METAR KDAL 041853Z 18014G21KT 10SM FEW029 OVC042 13/05 A3025 RMK AO2 SLP244 T01280050
0275722583139602008010419537+32847-096851FM-15+0149KDAL V0301805N00885076205MN0160935N5+01445+00615102305ADDAA101000095GA1025+008845999GA2045+012805999GA3085+076205999GD11991+0088459GD22991+0128059GD34991+0762059GF108991999999999999999999MA1102305100515OC101185REMMET11001/04/08 13:53:00 METAR KDAL 041953Z 18017G23KT 10SM FEW029 SCT042 OVC250 14/06 A3021 RMK AO2 SLP230 T01440061
0313722583139602008010420537+32847-096851FM-15+0149KDAL V0302005N00825009755MN0160935N5+01505+00675102205ADDAA101000095GA1025+008235999GA2075+009755999GA3085+076205999GD11991+0082359GD23991+0097559GD34991+0762059GF108991999999999999999999MA1102205100415MD1640434+9999OC101245REMMET13401/04/08 14:53:00 METAR KDAL 042053Z 20016G24KT 10SM FEW027 BKN032 OVC250 15/07 A3018 RMK AO2 PK WND 19026/2007 SLP220 T01500067 56043
0237722583139602008010421537+32847-096851FM-15+0149KDAL V0301805N00935009755MN0160935N5+01505+00725102165ADDAA101000095GA1075+009755999GA2085+076205999GD13991+0097559GD24991+0762059GF108991999999999999999999MA1102175100385OC101135REMMET10301/04/08 15:53:00 METAR KDAL 042153Z 18018G22KT 10SM BKN032 OVC250 15/07 A3017 RMK AO2 SLP216 T01500072
0275722583139602008010422537+32847-096851FM-15+0149KDAL V0301805N00885009755MN0160935N5+01445+00785102105ADDAA101000095GA1075+009755999GA2075+021345999GA3085+076205999GD13991+0097559GD23991+0213459GD34991+0762059GF108991999999999999999999MA1102105100315OC101185REMMET11001/04/08 16:53:00 METAR KDAL 042253Z 18017G23KT 10SM BKN032 BKN070 OVC250 14/08 A3015 RMK AO2 SLP210 T01440078
0333722583139602008010423537+32847-096851FM-15+0149KDAL V0301705N00825039625MN0160935N5+01335+00835102115ADDAA101000095GA1025+010675999GA2075+039625999GA3085+076205999GD11991+0106759GD23991+0396259GD34991+0762059GF108991999999999999999999KA1999M+01561KA2999N+01111MA1102105100315MD1540094+9999OC101135REMMET12801/04/08 17:53:00 METAR KDAL 042353Z 17016G22KT 10SM FEW035 BKN130 OVC250 13/08 A3015 RMK AO2 SLP211 T01330083 10156 20111 55009
0255722583139602008010500537+32847-096851FM-15+0149KDAL V0301705N00775039625MN0160935N5+01335+00835102075ADDAA101000095GA1075+039625999GA2085+076205999GD13991+0396259GD24991+0762059GF108991999999999999999999MA1102075100285OC101245REMMET12101/04/08 18:53:00 METAR KDAL 050053Z 17015G24KT 10SM BKN130 OVC250 13/08 A3014 RMK AO2 PK WND 16028/0020 SLP207 T01330083
0226722583139602008010501537+32847-096851FM-15+0149KDAL V0301705N00515091445MN0160935N5+01225+00835102135ADDAA101000095GA1045+039625999GA2085+091445999GD12991+0396259GD24991+0914459GF108991999999999999999999MA1102135100345REMMET10001/04/08 19:53:00 METAR KDAL 050153Z 17010KT 10SM SCT130 OVC300 12/08 A3016 RMK AO2 SLP213 T01220083
0223722583139602008010502537+32847-096851FM-15+0149KDAL V0301705N00575006715MN0160935N5+01285+00835102105ADDAA101000095GA1085+006715999GD14991+0067159GD24991+0900019GF108991999999999999999999MA1102105100315MD1640004+9999REMMET09901/04/08 20:53:00 METAR KDAL 050253Z 17011KT 10SM OVC022 13/08 A3015 RMK AO2 SLP210 T01280083 56000
0198722583139602008010503257+32847-096851FM-16+0149KDAL V0301805N00575005795MN0160935N5+01305+00805999999ADDGA1075+005795999GA2085+009455999GD13991+0057959GD24991+0094559GF108991999999999999999999MA1102075100285REMMET08301/04/08 21:25:00 SPECI KDAL 050325Z 18011KT 10SM BKN019 OVC031 13/08 A3014 RMK AO2
0198722583139602008010503377+32847-096851FM-16+0149KDAL V0301805N00515010065MN0160935N5+01205+00805999999ADDGA1045+005795999GA2085+010065999GD12991+0057959GD24991+0100659GF108991999999999999999999MA1102075100285REMMET08301/04/08 21:37:00 SPECI KDAL 050337Z 18010KT 10SM SCT019 OVC033 12/08 A3014 RMK AO2
0226722583139602008010503537+32847-096851FM-15+0149KDAL V0301705N00575010065MN0160935N5+01225+00895102015ADDAA101000095GA1075+010065999GA2085+091445999GD13991+0100659GD24991+0914459GF108991999999999999999999MA1102035100245REMMET10001/04/08 21:53:00 METAR KDAL 050353Z 17011KT 10SM BKN033 OVC300 12/09 A3013 RMK AO2 SLP201 T01220089
0264722583139602008010504537+32847-096851FM-15+0149KDAL V0301905N00575008235MN0160935N5+01335+01005102015ADDAA101000095GA1075+008235999GA2075+010065999GA3085+060965999GD13991+0082359GD23991+0100659GD34991+0609659GF108991999999999999999999MA1102035100245REMMET10701/04/08 22:53:00 METAR KDAL 050453Z 19011KT 10SM BKN027 BKN033 OVC200 13/10 A3013 RMK AO2 SLP201 T01330100
0236722583139602008010504567+32847-096851FM-16+0149KDAL V0301905N00575008235MN0160935N5+01305+01005999999ADDGA1025+004885999GA2075+008235999GA3085+010675999GD11991+0048859GD23991+0082359GD34991+0106759GF108991999999999999999999MA1102035100245REMMET09001/04/08 22:56:00 SPECI KDAL 050456Z 19011KT 10SM FEW016 BKN027 OVC035 13/10 A3013 RMK AO2
0236722583139602008010505227+32847-096851FM-16+0149KDAL V0301905N00625011585MN0160935N5+01305+01105999999ADDGA1025+004885999GA2045+008235999GA3085+011585999GD11991+0048859GD22991+0082359GD34991+0115859GF108991999999999999999999MA1102035100245REMMET09001/04/08 23:22:00 SPECI KDAL 050522Z 19012KT 10SM FEW016 SCT027 OVC038 13/11 A3013 RMK AO2
0209722583139602008010505437+32847-096851FM-16+0149KDAL V0301905N00675004885MN0160935N5+01405+01105999999ADDGA1075+004885999GA2085+010975999GD13991+0048859GD24991+0109759GF108991999999999999999999MA1102035100245OC100885REMMET08601/04/08 23:43:00 SPECI KDAL 050543Z 19013G17KT 10SM BKN016 OVC036 14/11 A3013 RMK AO2
0305722583139602008010505537+32847-096851FM-15+0149KDAL V0301905N00575004885MN0160935N5+01395+01065101995ADDAA101000095GA1075+004885999GA2085+010975999GD13991+0048859GD24991+0109759GF108991999999999999999999KA1999M+01391KA2999N+01221MA1102035100245MD1640094+9999OC100935REMMET13101/04/08 23:53:00 METAR KDAL 050553Z 19011G18KT 10SM BKN016 OVC036 14/11 A3013 RMK AO2 SLP199 T01390106 10139 20122 401560006 56009
0908722583139602008010505596+32847-096851SOD  +0149KDAL V030999999999999999999999999999+99999+99999999999ADDAA124000095AJ100009199999999AN1024000099KA1240M+01565KA2240N+00065MG1100664102004OE11240143116018205OE22240111817018115OE33240063599999995REMSOD75824 HR PRECIPITATION (IN): 0.00 24 HR MAX TEMP (F):60 24 HR MAX TEMP TIME (LST):1521 24 HR MIN TEMP (F):33 24 HR MIN TEMP TIME (LST):0744 AVERAGE STATION PRESSURE(D):29.725 MINIMUM SEA LEVEL PRESSURE:30.12 TIME OF OCCURRENCE:2359 PEAK WIND SPEED (MPH):32  PEAK WIND DIR (DEG):160 PEAK WIND TIME (LST):1820  FASTEST 2MIN SPEED (MPH):25 FASTEST 2MIN DIR (DEG):170 FASTEST 2MIN TIME (LST):1811 AVERAGE WIND SPEED (MPH):14.2 24 HR AVG TEMP (F):47 DEPART FROM NORMAL:   2 HEATING DEGREE DAYS: 18 COOLING DEGREE DAYS:  0 LATEST DAY MAX TEMP (0700-1900 LST): 60 LATEST NIGHT MIN TEMP(1900-0800 LST):33 HOURLY INCREMENTAL PRECIPITATION VALUES (IN):0.00 0.00 0.00 0.00 0.00 0.00 0.00 0.00 0.00 0.00 0.00 0.00 0.00 0.00 0.00 0.00 0.00 0.00 0.00 0.00 0.00 0.00 0.00 0.00
0231722583139602008010506537+32847-096851FM-15+0149KDAL V0301805N00725005495MN0160935N5+01445+01115101945ADDAA101000095GA1075+005495999GA2085+010975999GD13991+0054959GD24991+0109759GF108991999999999999999999MA1101965100185REMMET10501/05/08 00:53:26 METAR KDAL 050653Z 18014KT 10SM BKN018 OVC036 14/11 A3011 RMK AO2 SLP194 T01440111 (JM)
0242722583139602008010507537+32847-096851FM-15+0149KDAL V0301905N00675005495MN0160935N5+01505+01175101875ADDAA101000095GA1025+003355999GA2085+005495999GD11991+0033559GD24991+0054959GF108991999999999999999999MA1101935100145OC100985REMMET10801/05/08 01:53:26 METAR KDAL 050753Z 19013G19KT 10SM FEW011 OVC018 15/12 A3010 RMK AO2 SLP187 T01500117 (JM)
0262722583139602008010508537+32847-096851FM-15+0149KDAL V0301905N00675006105MN0160935N5+01615+01175101795ADDAA101000095GA1075+006105999GA2085+008535999GD13991+0061059GD24991+0085359GF108991999999999999999999MA1101835100045MD1840194+9999OC100985REMMET11401/05/08 02:53:26 METAR KDAL 050853Z 19013G19KT 10SM BKN020 OVC028 16/12 A3007 RMK AO2 SLP179 T01610117 58019 (JM)
0252722583139602008010509397+32847-096851FM-16+0149KDAL V0301905N00675060965MN0160935N5+01605+01205999999ADDGA1025+006105999GA2045+008535999GA3085+060965999GD11991+0061059GD22991+0085359GD34991+0609659GF108991999999999999999999MA1101795100015OC100985REMMET09801/05/08 03:39:26 SPECI KDAL 050939Z 19013G19KT 10SM FEW020 SCT028 OVC200 16/12 A3006 RMK AO2 (JM)
0242722583139602008010509537+32847-096851FM-15+0149KDAL V0301905N00625060965MN0160935N5+01565+01225101725ADDAA101000095GA1025+006105999GA2085+060965999GD11991+0061059GD24991+0609659GF108991999999999999999999MA1101765099985OC100985REMMET10801/05/08 03:53:26 METAR KDAL 050953Z 19012G19KT 10SM FEW020 OVC200 16/12 A3005 RMK AO2 SLP172 T01560122 (JM)
0280722583139602008010510537+32847-096851FM-15+0149KDAL V0301805N00575060965MN0160935N5+01565+01225101675ADDAA101000095GA1025+005495999GA2045+039625999GA3085+060965999GD11991+0054959GD22991+0396259GD34991+0609659GF108991999999999999999999MA1101695099915OC100935REMMET11501/05/08 04:53:26 METAR KDAL 051053Z 18011G18KT 10SM FEW018 SCT130 OVC200 16/12 A3003 RMK AO2 SLP167 T01560122 (JM)
0203722583139602008010511367+32847-096851FM-16+0149KDAL V0301705N00465005495MN0160935N5+01405+01205999999ADDGA1075+005495999GA2085+060965999GD13991+0054959GD24991+0609659GF108991999999999999999999MA1101665099885REMMET08801/05/08 05:36:26 SPECI KDAL 051136Z 17009KT 10SM BKN018 OVC200 14/12 A3002 RMK AO2 (JM)
0289722583139602008010511537+32847-096851FM-15+0149KDAL V0301805N00415005495MN0160935N5+01445+01225101655ADDAA101000095GA1075+005495999GA2075+060965999GD13991+0054959GD23991+0609659GF107991999999999999999999KA1999M+01611KA2999N+01391MA1101695099915MD1640154+9999REMMET12301/05/08 05:53:26 METAR KDAL 051153Z 18008KT 10SM BKN018 BKN200 14/12 A3003 RMK AO2 SLP165 T01440122 10161 20139 56015 (JM)
0203722583139602008010512377+32847-096851FM-16+0149KDAL V0301805N005152200059N0160935N5+01405+01205999999ADDGA1045+004885999GA2045+060965999GD12991+0048859GD22991+0609659GF104991999999999999999999MA1101695099915REMMET08801/05/08 06:37:26 SPECI KDAL 051237Z 18010KT 10SM SCT016 SCT200 14/12 A3003 RMK AO2 (JM)
0269722583139602008010512537+32847-096851FM-15+0149KDAL V0301805N004152200059N0160935N5+01395+01175101695ADDAA101000095GA1025+004885999GA2045+007625999GA3045+076205999GD11991+0048859GD22991+0076259GD32991+0762059GF104991999999999999999999MA1101735099945REMMET11201/05/08 06:53:26 METAR KDAL 051253Z 18008KT 10SM FEW016 SCT025 SCT250 14/12 A3004 RMK AO2 SLP169 T01390117 (JM)
0269722583139602008010513537+32847-096851FM-15+0149KDAL V0301705N00465076205MN0160935N5+01395+01175101705ADDAA101000095GA1025+004885999GA2045+007625999GA3075+076205999GD11991+0048859GD22991+0076259GD33991+0762059GF107991999999999999999999MA1101735099945REMMET11201/05/08 08:02:26 METAR KDAL 051353Z 17009KT 10SM FEW016 SCT025 BKN250 14/12 A3004 RMK AO2 SLP170 T01390117 (AM)
0203722583139602008010514127+32847-096851FM-16+0149KDAL V0301605N00515076205MN0160935N5+01405+01205999999ADDGA1045+007625999GA2075+076205999GD12991+0076259GD23991+0762059GF107991999999999999999999MA1101695099915REMMET08801/05/08 08:12:26 SPECI KDAL 051412Z 16010KT 10SM SCT025 BKN250 14/12 A3003 RMK AO2 (AM)
0251722583139602008010514537+32847-096851FM-15+0149KDAL V0301805N004152200059N0160935N5+01565+01285101685ADDAA101000095GA1025+007625999GA2045+076205999GD11991+0076259GD22991+0762059GF104991999999999999999999MA1101735099945MD1040044+9999REMMET11101/05/08 08:53:26 METAR KDAL 051453Z 18008KT 10SM FEW025 SCT250 16/13 A3004 RMK AO2 SLP168 T01560128 50004 (AM)
0193722583139602008010515537+32847-096851FM-15+0149KDAL V0302005N006252200059N0160935N5+01785+01285101655ADDAA101000095GA1025+005795999GD11991+0057959GF102991999999999999999999MA1101695099915REMMET09801/05/08 09:55:26 METAR KDAL 051553Z 20012KT 10SM FEW019 18/13 A3003 RMK AO2 SLP165 T01780128 (AM)
0204722583139602008010516537+32847-096851FM-15+0149KDAL V0302205N006752200059N0160935N5+01945+01225101625ADDAA101000095GA1025+008845999GD11991+0088459GF102991999999999999999999MA1101665099885OC100985REMMET10101/05/08 10:53:26 METAR KDAL 051653Z 22013G19KT 10SM FEW029 19/12 A3002 RMK AO2 SLP162 T01940122 (AM)
0300722583139602008010517537+32847-096851FM-15+0149KDAL V0302205N005752200059N0160935N5+02115+01175101545ADDAA101000095GA1025+010675999GA2045+076205999GD11991+0106759GD22991+0762059GF104991999999999999999999KA1999M+02111KA2999N+01331MA1101595099815MD1840134+9999OC100935REMMET12601/05/08 11:53:26 METAR KDAL 051753Z 22011G18KT 10SM FEW035 SCT250 21/12 A3000 RMK AO2 SLP154 T02110117 10211 20133 58013 (AM)
0193722583139602008010518537+32847-096851FM-15+0149KDAL V0302005N006752200059N0160935N5+02225+01115101405ADDAA101000095GA1045+076205999GD12991+0762059GF104991999999999999999999MA1101465099685REMMET09801/05/08 12:53:26 METAR KDAL 051853Z 20013KT 10SM SCT250 22/11 A2996 RMK AO2 SLP140 T02220111 (AM)
0193722583139602008010519537+32847-096851FM-15+0149KDAL V0302105N005152200059N0160935N5+02395+01005101265ADDAA101000095GA1045+091445999GD12991+0914459GF104991999999999999999999MA1101325099545REMMET09801/05/08 13:53:26 METAR KDAL 051953Z 21010KT 10SM SCT300 24/10 A2992 RMK AO2 SLP126 T02390100 (AM)
0224722583139602008010520537+32847-096851FM-15+0149KDAL V0302005N00725091445MN0160935N5+02505+00945101155ADDAA101000095GA1075+091445999GD13991+0914459GF107991999999999999999999MA1101225099445MD1640374+9999OC101035REMMET10701/05/08 14:53:26 METAR KDAL 052053Z 20014G20KT 10SM BKN300 25/09 A2989 RMK AO2 SLP115 T02500094 56037 (AM)
0204722583139602008010521537+32847-096851FM-15+0149KDAL V0301905N00675091445MN0160935N5+02445+01005101145ADDAA101000095GA1075+091445999GD13991+0914459GF107991999999999999999999MA1101195099415OC100885REMMET10101/05/08 15:53:26 METAR KDAL 052153Z 19013G17KT 10SM BKN300 24/10 A2988 RMK AO2 SLP114 T02440100 (GR)
0204722583139602008010522537+32847-096851FM-15+0149KDAL V0301905N00775091445MN0160935N5+02505+01005101135ADDAA101000095GA1075+091445999GD13991+0914459GF107991999999999999999999MA1101195099415OC101035REMMET10101/05/08 16:53:26 METAR KDAL 052253Z 19015G20KT 10SM BKN300 25/10 A2988 RMK AO2 SLP113 T02500100 (GR)
0262722583139602008010523537+32847-096851FM-15+0149KDAL V0301805N007252200059N0160935N5+02285+01065101185ADDAA101000095GA1045+091445999GD12991+0914459GF104991999999999999999999KA1999M+02501KA2999N+02111MA1101225099445MD1340024+9999OC101135REMMET11901/05/08 17:53:26 METAR KDAL 052353Z 18014G22KT 10SM SCT300 23/11 A2989 RMK AO2 SLP118 T02280106 10250 20211 53002 (GR)
0204722583139602008010600537+32847-096851FM-15+0149KDAL V0301805N007752200059N0160935N5+02175+01115101215ADDAA101000095GA1045+091445999GD12991+0914459GF104991999999999999999999MA1101255099485OC101085REMMET10101/05/08 18:53:26 METAR KDAL 060053Z 18015G21KT 10SM SCT300 22/11 A2990 RMK AO2 SLP121 T02170111 (GR)
0204722583139602008010601537+32847-096851FM-15+0149KDAL V0301805N008252200059N0160935N5+02065+01175101225ADDAA101000095GA1025+091445999GD11991+0914459GF102991999999999999999999MA1101255099485OC101135REMMET10101/05/08 19:53:26 METAR KDAL 060153Z 18016G22KT 10SM FEW300 21/12 A2990 RMK AO2 SLP122 T02060117 (GR)
0224722583139602008010602537+32847-096851FM-15+0149KDAL V0301805N007252200059N0160935N5+02005+01225101245ADDAA101000095GA1025+091445999GD11991+0914459GF102991999999999999999999MA1101295099515MD1140064+9999OC101135REMMET10701/05/08 20:53:26 METAR KDAL 060253Z 18014G22KT 10SM FEW300 20/12 A2991 RMK AO2 SLP124 T02000122 51006 (GR)
0193722583139602008010603537+32847-096851FM-15+0149KDAL V0301905N006252200059N0160935N5+01945+01285101275ADDAA101000095GA1045+091445999GD12991+0914459GF104991999999999999999999MA1101325099545REMMET09801/05/08 21:53:26 METAR KDAL 060353Z 19012KT 10SM SCT300 19/13 A2992 RMK AO2 SLP127 T01940128 (GR)
0193722583139602008010604537+32847-096851FM-15+0149KDAL V0301905N006252200059N0160935N5+01945+01335101335ADDAA101000095GA1025+091445999GD11991+0914459GF102991999999999999999999MA1101395099615REMMET09801/05/08 22:53:26 METAR KDAL 060453Z 19012KT 10SM FEW300 19/13 A2994 RMK AO2 SLP133 T01940133 (GR)
0272722583139602008010605537+32847-096851FM-15+0149KDAL V0302005N005752200059N0160935N5+01895+01335101335ADDAA101000095GA1025+091445999GD11991+0914459GF102991999999999999999999KA1999M+02281KA2999N+01891MA1101395099615MD1140094+9999OC100885REMMET12901/05/08 23:53:26 METAR KDAL 060553Z 20011G17KT 10SM FEW300 19/13 A2994 RMK AO2 SLP133 T01890133 10228 20189 402500133 51009 (SW)
0996722583139602008010605596+32847-096851SOD  +0149KDAL V030999999999999999999999999999+99999+99999999999ADDAA124000095AJ100009599999999AL12400095AN1024000095KA1240M+02505KA2240N+01335MG1099684101124OE11240125219019165OE22240098318020075OE33240062199999995REMSOD80124 HR PRECIPITATION (IN):0.00  SNOW DEPTH (IN):0     24 HR SNOWFALL (IN):0.0  24 HR MAX TEMP (F):77 24 HR MAX TEMP TIME (LST):1654 24 HR MIN TEMP (F):56 24 HR MIN TEMP TIME (LST):0752 AVERAGE STATION PRESSURE:29.435 MINIMUM SEA LEVEL PRESSURE:29.86 TIME OF OCCURRENCE:1657 PEAK WIND SPEED (MPH):28  PEAK WIND DIR (DEG):190 PEAK WIND TIME (LST):1916  FASTEST 2MIN SPEED (MPH):22 FASTEST 2MIN DIR (DEG):180 FASTEST 2MIN TIME (LST):2007 AVERAGE WIND SPEED (MPH):13.9 24 HR AVG TEMP (F):67 DEPART FROM NORMAL:+22  HEATING DEGREE DAYS:0   COOLING DEGREE DAYS:2   LATEST DAY MAX TEMP (0700-1900 LST):77  LATEST NIGHT MIN TEMP(1900-0800 LST):54 HOURLY INCREMENTAL PRECIPITATION VALUES (IN):.00 0.00 0.00 0.00 0.00 0.00 0.00 0.00 0.00 0.00 0.00 0.00 0.00 0.00 0.00 0.00 0.00 0.00 0.00 0.00 0.00 0.00 0.00 0.00EQDR01     N7GJS072R02     N7GKS075
0193722583139602008010606537+32847-096851FM-15+0149KDAL V0301905N006752200059N0160935N5+01835+01335101305ADDAA101000095GA1025+091445999GD11991+0914459GF102991999999999999999999MA1101355099585REMMET09801/06/08 00:53:26 METAR KDAL 060653Z 19013KT 10SM FEW300 18/13 A2993 RMK AO2 SLP130 T01830133 (SW)
0204722583139602008010607537+32847-096851FM-15+0149KDAL V0301905N006752200059N0160935N5+01785+01335101315ADDAA101000095GA1025+091445999GD11991+0914459GF102991999999999999999999MA1101355099585OC101035REMMET10101/06/08 01:53:26 METAR KDAL 060753Z 19013G20KT 10SM FEW300 18/13 A2993 RMK AO2 SLP131 T01780133 (SW)
0213722583139602008010608537+32847-096851FM-15+0149KDAL V0301905N006252200059N0160935N5+01785+01285101305ADDAA101000095GA1045+091445999GD12991+0914459GF104991999999999999999999MA1101355099585MD1640024+9999REMMET10401/06/08 02:53:26 METAR KDAL 060853Z 19012KT 10SM SCT300 18/13 A2993 RMK AO2 SLP130 T01780128 56002 (SW)
0193722583139602008010609537+32847-096851FM-15+0149KDAL V0301805N00515091445MN0160935N5+01675+01285101325ADDAA101000095GA1075+091445999GD13991+0914459GF107991999999999999999999MA1101395099615REMMET09801/06/08 03:53:26 METAR KDAL 060953Z 18010KT 10SM BKN300 17/13 A2994 RMK AO2 SLP132 T01670128 (SW)
0193722583139602008010610537+32847-096851FM-15+0149KDAL V0301705N00465091445MN0160935N5+01565+01225101335ADDAA101000095GA1075+091445999GD13991+0914459GF107991999999999999999999MA1101395099615REMMET09801/06/08 04:53:26 METAR KDAL 061053Z 17009KT 10SM BKN300 16/12 A2994 RMK AO2 SLP133 T01560122 (SW)
0251722583139602008010611537+32847-096851FM-15+0149KDAL V0301705N00575091445MN0160935N5+01565+01225101355ADDAA101000095GA1085+091445999GD14991+0914459GF108991999999999999999999KA1999M+01891KA2999N+01561MA1101395099615MD1140044+9999REMMET11601/06/08 05:53:26 METAR KDAL 061153Z 17011KT 10SM OVC300 16/12 A2994 RMK AO2 SLP135 T01560122 10189 20156 51004 (SW)
0269722583139602008010612537+32847-096851FM-15+0149KDAL V0301705N00625091445MN0160935N5+01565+01225101375ADDAA101000095GA1025+005495999GA2045+045725999GA3075+091445999GD11991+0054959GD22991+0457259GD33991+0914459GF107991999999999999999999MA1101425099645REMMET11201/06/08 06:53:26 METAR KDAL 061253Z 17012KT 10SM FEW018 SCT150 BKN300 16/12 A2995 RMK AO2 SLP137 T01560122 (SW)
0232722583139602008010613537+32847-096851FM-15+0149KDAL V0301705N006252200059N0160935N5+01505+01285101425ADDAA101000095GA1025+006105999GA2045+076205999GD11991+0061059GD22991+0762059GF104991999999999999999999MA1101495099715REMMET10601/06/08 07:53:26 METAR KDAL 061353Z 17012KT 10SM FEW020 SCT250 15/13 A2997 RMK AO2 SLP142 T01500128 (SGC)
0252722583139602008010614537+32847-096851FM-15+0149KDAL V0301805N00575076205MN0160935N5+01675+01335101465ADDAA101000095GA1025+006105999GA2075+076205999GD11991+0061059GD23991+0762059GF107991999999999999999999MA1101525099745MD1340104+9999REMMET11201/06/08 08:53:26 METAR KDAL 061453Z 18011KT 10SM FEW020 BKN250 17/13 A2998 RMK AO2 SLP146 T01670133 53010 (SGC)
0232722583139602008010615537+32847-096851FM-15+0149KDAL V0301805N00885076205MN0160935N5+01895+01285101465ADDAA101000095GA1025+006105999GA2075+076205999GD11991+0061059GD23991+0762059GF107991999999999999999999MA1101525099745REMMET10601/06/08 09:53:26 METAR KDAL 061553Z 18017KT 10SM FEW020 BKN250 19/13 A2998 RMK AO2 SLP146 T01890128 (SGC)
0243722583139602008010616537+32847-096851FM-15+0149KDAL V0301805N00885076205MN0160935N5+02065+01285101435ADDAA101000095GA1025+006105999GA2075+076205999GD11991+0061059GD23991+0762059GF107991999999999999999999MA1101495099715OC101035REMMET10901/06/08 10:53:26 METAR KDAL 061653Z 18017G20KT 10SM FEW020 BKN250 21/13 A2997 RMK AO2 SLP143 T02060128 (SGC)
0301722583139602008010617537+32847-096851FM-15+0149KDAL V0301805N00825076205MN0160935N5+02225+01285101375ADDAA101000095GA1025+009145999GA2075+076205999GD11991+0091459GD23991+0762059GF107991999999999999999999KA1999M+02221KA2999N+01501MA1101425099645MD1840084+9999OC101245REMMET12701/06/08 11:53:26 METAR KDAL 061753Z 18016G24KT 10SM FEW030 BKN250 22/13 A2995 RMK AO2 SLP137 T02220128 10222 20150 58008 (SGC)
0261722583139602008010618537+32847-096851FM-15+0149KDAL V0301905N01035076205MN0160935N5+02225+01285101245ADDAA101000095GA1025+009145999GA2075+076205999GD11991+0091459GD23991+0762059GF107991999999999999999999MA1101295099515OC101345REMMET12701/06/08 12:53:26 METAR KDAL 061853Z 19020G26KT 10SM FEW030 BKN250 22/13 A2991 RMK AO2 PK WND 19026/1846 SLP124 T02220128 (SGC)
0261722583139602008010619537+32847-096851FM-15+0149KDAL V0302005N00725076205MN0160935N5+02285+01285101185ADDAA101000095GA1025+009145999GA2075+076205999GD11991+0091459GD23991+0762059GF107991999999999999999999MA1101255099485OC101135REMMET12701/06/08 13:53:26 METAR KDAL 061953Z 20014G22KT 10SM FEW030 BKN250 23/13 A2990 RMK AO2 PK WND 18026/1927 SLP118 T02280128 (SGC)
0281722583139602008010620537+32847-096851FM-15+0149KDAL V0302005N00825076205MN0160935N5+02285+01225101125ADDAA101000095GA1025+009145999GA2075+076205999GD11991+0091459GD23991+0762059GF107991999999999999999999MA1101195099415MD1640244+9999OC101445REMMET13301/06/08 14:53:26 METAR KDAL 062053Z 20016G28KT 10SM FEW030 BKN250 23/12 A2988 RMK AO2 PK WND 17028/2051 SLP112 T02280122 56024 (SGC)
0260722583139602008010621537+32847-096851FM-15+0149KDAL V0301705N00885076205MN0160935N5+02285+01335101115ADDAA101000095GA1045+011895999GA2075+076205999GD12991+0118959GD23991+0762059GF107991999999999999999999MA1101155099385OC101185REMMET12601/06/08 15:53:26 METAR KDAL 062153Z 17017G23KT 10SM SCT039 BKN250 23/13 A2987 RMK AO2 PK WND 19026/2125 SLP111 T02280133 (CC)
0260722583139602008010622537+32847-096851FM-15+0149KDAL V0301805N010852200059N0160935N5+02225+01285101145ADDAA101000095GA1025+011285999GA2045+076205999GD11991+0112859GD22991+0762059GF104991999999999999999999MA1101195099415OC101295REMMET12601/06/08 16:53:26 METAR KDAL 062253Z 18021G25KT 10SM FEW037 SCT250 22/13 A2988 RMK AO2 PK WND 19028/2239 SLP114 T02220128 (CC)
0289722583139602008010623537+32847-096851FM-15+0149KDAL V0301805N007752200059N0160935N5+02115+01335101095ADDAA101000095GA1025+012195999GA2045+076205999GD11991+0121959GD22991+0762059GF104991999999999999999999KA1999M+02331KA2999N+02111MA1101155099385MD1840034+9999REMMET12301/06/08 17:53:26 METAR KDAL 062353Z 18015KT 10SM FEW040 SCT250 21/13 A2987 RMK AO2 SLP109 T02110133 10233 20211 58003 (CC)
0159722583139602008010700537+32847-096851FM-15+0149KDAL V0301805N005152200059N0160935N5+02065+01395101135ADDAA101000095GF100991999999999999999999MA1101195099415REMMET09501/06/08 18:53:26 METAR KDAL 070053Z 18010KT 10SM CLR 21/14 A2988 RMK AO2 SLP113 T02060139 (CC)
0159722583139602008010701537+32847-096851FM-15+0149KDAL V0301905N004152200059N0160935N5+02005+01395101155ADDAA101000095GF100991999999999999999999MA1101195099415REMMET09501/06/08 19:53:26 METAR KDAL 070153Z 19008KT 10SM CLR 20/14 A2988 RMK AO2 SLP115 T02000139 (CC)
0213722583139602008010702537+32847-096851FM-15+0149KDAL V0301705N004152200059N0160935N5+01895+01395101185ADDAA101000095GA1025+012195999GD11991+0121959GF102991999999999999999999MA1101225099445MD1140084+9999REMMET10401/06/08 20:53:26 METAR KDAL 070253Z 17008KT 10SM FEW040 19/14 A2989 RMK AO2 SLP118 T01890139 51008 (CC)
0159722583139602008010703537+32847-096851FM-15+0149KDAL V0301605N006252200059N0160935N5+01945+01395101165ADDAA101000095GF100991999999999999999999MA1101225099445REMMET09501/06/08 21:53:26 METAR KDAL 070353Z 16012KT 10SM CLR 19/14 A2989 RMK AO2 SLP116 T01940139 (CC)
0159722583139602008010704537+32847-096851FM-15+0149KDAL V0301705N008252200059N0160935N5+01945+01445101165ADDAA101000095GF100991999999999999999999MA1101225099445REMMET09501/06/08 22:53:26 METAR KDAL 070453Z 17016KT 10SM CLR 19/14 A2989 RMK AO2 SLP116 T01940144 (CC)
0328722583139602008010705537+32847-096851FM-15+0149KDAL V0301805N00825014025MN0160935N5+02005+01505101165ADDAA101000095GA1025+006105999GA2075+014025999GD11991+0061059GD23991+0140259GF107991999999999999999999KA1999M+02111KA2999N+01891MA1101225099445MD1540014+9999OC101395REMMET15401/06/08 23:53:26 METAR KDAL 070553Z 18016G27KT 10SM FEW020 BKN046 20/15 A2989 RMK AO2 PK WND 17028/0528 SLP116 T02000150 10211 20189 402330150 55001 (SW)
0996722583139602008010705596+32847-096851SOD  +0149KDAL V030999999999999999999999999999+99999+99999999999ADDAA124000095AJ100009599999999AL12400095AN1024000095KA1240M+02335KA2240N+01505MG1099514101084OE11240143117023285OE22240111817023285OE33240069799999995REMSOD80124 HR PRECIPITATION (IN):0.00  SNOW DEPTH (IN):0     24 HR SNOWFALL (IN):0.0  24 HR MAX TEMP (F):74 24 HR MAX TEMP TIME (LST):1544 24 HR MIN TEMP (F):59 24 HR MIN TEMP TIME (LST):0754 AVERAGE STATION PRESSURE:29.385 MINIMUM SEA LEVEL PRESSURE:29.85 TIME OF OCCURRENCE:1813 PEAK WIND SPEED (MPH):32  PEAK WIND DIR (DEG):170 PEAK WIND TIME (LST):2328  FASTEST 2MIN SPEED (MPH):25 FASTEST 2MIN DIR (DEG):170 FASTEST 2MIN TIME (LST):2328 AVERAGE WIND SPEED (MPH):15.6 24 HR AVG TEMP (F):67 DEPART FROM NORMAL:+22  HEATING DEGREE DAYS:0   COOLING DEGREE DAYS:2   LATEST DAY MAX TEMP (0700-1900 LST):74  LATEST NIGHT MIN TEMP(1900-0800 LST):59 HOURLY INCREMENTAL PRECIPITATION VALUES (IN):.00 0.00 0.00 0.00 0.00 0.00 0.00 0.00 0.00 0.00 0.00 0.00 0.00 0.00 0.00 0.00 0.00 0.00 0.00 0.00 0.00 0.00 0.00 0.00EQDR01     N7GJS072R02     N7GKS075
0242722583139602008010706537+32847-096851FM-15+0149KDAL V0301905N00675014025MN0160935N5+02005+01505101215ADDAA101000095GA1045+007325999GA2085+014025999GD12991+0073259GD24991+0140259GF108991999999999999999999MA1101255099485OC100825REMMET10801/07/08 00:53:26 METAR KDAL 070653Z 19013G16KT 10SM SCT024 OVC046 20/15 A2990 RMK AO2 SLP121 T02000150 (SW)
0231722583139602008010707537+32847-096851FM-15+0149KDAL V0301805N007252200059N0160935N5+01945+01505101215ADDAA101000095GA1025+007015999GA2045+010675999GD11991+0070159GD22991+0106759GF104991999999999999999999MA1101255099485REMMET10501/07/08 01:53:26 METAR KDAL 070753Z 18014KT 10SM FEW023 SCT035 19/15 A2990 RMK AO2 SLP121 T01940150 (SW)
0224722583139602008010708537+32847-096851FM-15+0149KDAL V0301705N007752200059N0160935N5+01895+01565101175ADDAA101000095GA1045+014025999GD12991+0140259GF104991999999999999999999MA1101225099445MD1040024+9999OC101085REMMET10701/07/08 02:53:26 METAR KDAL 070853Z 17015G21KT 10SM SCT046 19/16 A2989 RMK AO2 SLP117 T01890156 50002 (SW)
0231722583139602008010709537+32847-096851FM-15+0149KDAL V0301605N007752200059N0160935N5+01895+01565101135ADDAA101000095GA1025+007015999GA2045+011585999GD11991+0070159GD22991+0115859GF104991999999999999999999MA1101195099415REMMET10501/07/08 03:53:26 METAR KDAL 070953Z 16015KT 10SM FEW023 SCT038 19/16 A2988 RMK AO2 SLP113 T01890156 (SW)
0203722583139602008010710217+32847-096851FM-16+0149KDAL V0301705N00625008235MN0160935N5+01905+01605999999ADDGA1075+008235999GA2075+010675999GD13991+0082359GD23991+0106759GF107991999999999999999999MA1101225099445REMMET08801/07/08 04:21:26 SPECI KDAL 071021Z 17012KT 10SM BKN027 BKN035 19/16 A2989 RMK AO2 (SW)
0193722583139602008010710537+32847-096851FM-15+0149KDAL V0301705N00675007625MN0160935N5+01945+01565101145ADDAA101000095GA1085+007625999GD14991+0076259GF108991999999999999999999MA1101195099415REMMET09801/07/08 04:53:26 METAR KDAL 071053Z 17013KT 10SM OVC025 19/16 A2988 RMK AO2 SLP114 T01940156 (SW)
0241722583139602008010711147+32847-096851FM-16+0149KDAL V0301705N00725011895MN0160935N5+01905+01605999999ADDGA1025+007015999GA2045+008535999GA3075+011895999GD11991+0070159GD22991+0085359GD33991+0118959GF107991999999999999999999MA1101195099415REMMET09501/07/08 05:14:26 SPECI KDAL 071114Z 17014KT 10SM FEW023 SCT028 BKN039 19/16 A2988 RMK AO2 (SW)
0327722583139602008010711537+32847-096851FM-15+0149KDAL V0301805N00725009145MN0160935N5+01945+01565101145ADDAA101000095GA1045+006405999GA2075+009145999GA3085+010675999GD12991+0064059GD23991+0091459GD34991+0106759GF108991999999999999999999KA1999M+02001KA2999N+01891MA1101195099415MD1540034+9999REMMET13001/07/08 05:53:26 METAR KDAL 071153Z 18014KT 10SM SCT021 BKN030 OVC035 19/16 A2988 RMK AO2 SLP114 T01940156 10200 20189 55003 (SW)
0231722583139602008010712516+32847-096851FM-16+0149KDAL V0301605N00625008535MN0160935N5+02005+01605999999ADDGA1045+006715999GA2075+008535999GA3085+011585999GD12991+0067159GD23991+0085359GD34991+0115859MA1101255099485OC100985REMMET10301/07/08 06:52:21 SPECI KDAL 071251Z 16012G19KT 10SM SCT022 BKN028 OVC038 20/16 A2990 RMK AO2 FIBI (SW)
0269722583139602008010712537+32847-096851FM-15+0149KDAL V0301605N00575008535MN0160935N5+02005+01615101195ADDAA101000095GA1045+006715999GA2075+008535999GA3085+011585999GD12991+0067159GD23991+0085359GD34991+0115859GF108991999999999999999999MA1101255099485REMMET11201/07/08 06:53:26 METAR KDAL 071253Z 16011KT 10SM SCT022 BKN028 OVC038 20/16 A2990 RMK AO2 SLP119 T02000161 (SW)
0270722583139602008010713537+32847-096851FM-15+0149KDAL V0302005N00415006715MN0160935N5+02065+01615101285ADDAA101000095GA1075+006715999GA2075+008845999GA3085+012195999GD13991+0067159GD23991+0088459GD34991+0121959GF108991999999999999999999MA1101355099585REMMET11301/07/08 07:53:26 METAR KDAL 071353Z 20008KT 10SM BKN022 BKN029 OVC040 21/16 A2993 RMK AO2 SLP128 T02060161 (SGC)
0346722583139602008010714537+32847-096851FM-15+0149KDAL V0302005N00315007015MN0160935N5+02065+01615101355ADDAA101000025AA203000021AU110020015AW1615GA1075+007015999GA2075+008845999GA3085+012195999GD13991+0070159GD23991+0088459GD34991+0121959GF108991999999999999999999MA1101395099615MD1340204+9999MW1611REMMET14101/07/08 08:53:26 METAR KDAL 071453Z 20006KT 10SM -RA BKN023 BKN029 OVC040 21/16 A2994 RMK AO2 RAB51 SLP135 P0000 60000 T02060161 53020 (SGC)
0230722583139602008010715516+32847-096851FM-16+0149KDAL V0302005N00575015245MN0160935N5+02105+01605999999ADDAU110020015AW1615GA1025+009755999GA2075+015245999GD11991+0097559GD23991+0152459MA1101425099645OC100985REMMET11601/07/08 09:52:21 SPECI KDAL 071551Z 20011G19KT 10SM -RA FEW032 BKN050 21/16 A2995 RMK AO2 RAE00B50 P0000 FIBI (SGC)
0274722583139602008010715537+32847-096851FM-15+0149KDAL V0302005N00675015245MN0160935N5+02115+01615101385ADDAA101000025AU110020015AW1615GA1025+009755999GA2075+015245999GD11991+0097559GD23991+0152459GF107991999999999999999999MA1101465099685MW1611REMMET12501/07/08 09:53:26 METAR KDAL 071553Z 20013KT 10SM -RA FEW032 BKN050 21/16 A2996 RMK AO2 RAE00B50 SLP138 P0000 T02110161 (SGC)
0282722583139602008010716537+32847-096851FM-15+0149KDAL V0302005N00515019815MN0160935N5+02175+01615101365ADDAA101000025GA1025+007625999GA2045+015245999GA3075+019815999GD11991+0076259GD22991+0152459GD33991+0198159GF107991999999999999999999MA1101425099645REMMET12501/07/08 10:53:26 METAR KDAL 071653Z 20010KT 10SM FEW025 SCT050 BKN065 22/16 A2995 RMK AO2 RAE49 SLP136 P0000 T02170161 (SGC)
0345722583139602008010717537+32847-096851FM-15+0149KDAL V0302105N00465009755MN0160935N5+02225+01615101255ADDAA101000095AA206000021GA1045+007925999GA2075+009755999GA3075+076205999GD12991+0079259GD23991+0097559GD33991+0762059GF107991999999999999999999KA1999M+02221KA2999N+01941MA1101325099545MD1840094+9999REMMET13701/07/08 11:53:26 METAR KDAL 071753Z 21009KT 10SM SCT026 BKN032 BKN250 22/16 A2992 RMK AO2 SLP125 60000 T02220161 10222 20194 58009 (SGC)
0232722583139602008010718537+32847-096851FM-15+0149KDAL V0302105N00725076205MN0160935N5+02395+01565101065ADDAA101000095GA1045+009755999GA2075+076205999GD12991+0097559GD23991+0762059GF107991999999999999999999MA1101125099345REMMET10601/07/08 12:56:26 METAR KDAL 071853Z 21014KT 10SM SCT032 BKN250 24/16 A2986 RMK AO2 SLP106 T02390156 (SGC)
0232722583139602008010719537+32847-096851FM-15+0149KDAL V0302205N00725015245MN0160935N5+02445+01505100955ADDAA101000095GA1045+011585999GA2075+015245999GD12991+0115859GD23991+0152459GF107991999999999999999999MA1101025099245REMMET10601/07/08 13:53:26 METAR KDAL 071953Z 22014KT 10SM SCT038 BKN050 24/15 A2983 RMK AO2 SLP095 T02440150 (SGC)
0263722583139602008010720537+32847-096851FM-15+0149KDAL V0302105N008852200059N0160935N5+02565+01445100865ADDAA101000095GA1045+012195999GA2045+076205999GD12991+0121959GD22991+0762059GF104991999999999999999999MA1100915099145MD1640394+9999OC101245REMMET11501/07/08 14:53:26 METAR KDAL 072053Z 21017G24KT 10SM SCT040 SCT250 26/14 A2980 RMK AO2 SLP086 T02560144 56039 (SGC)
0280722583139602008010721537+32847-096851FM-15+0149KDAL V0301905N00625012805MN0160935N5+02505+01565100895ADDAA101000095GA1075+012805999GA2075+021345999GA3075+076205999GD13991+0128059GD23991+0213459GD33991+0762059GF107991999999999999999999MA1100955099185OC101085REMMET11501/07/08 15:53:26 METAR KDAL 072153Z 19012G21KT 10SM BKN042 BKN070 BKN250 25/16 A2981 RMK AO2 SLP089 T02500156 (MG)
0314722583139602008010722537+32847-096851FM-15+0149KDAL V0301705N00825021005CN0160935N5+02445+01565100875ADDAA101000095GA1025+012505021GA2045+014635125GD11991+0125059GD22991+0146359GD33991+0210019GD43991+0750019GF107991999999999999999999MA1100915099145OC101135REMMET13101/07/08 16:53:26 METAR KDAL 072253Z 17016G22KT 10SM FEW041 SCT048TCU BKN 24/16 A2980 RMK AO2 SLP087 TCU E-SE MOV NE T02440156 (MG)EQDP01 220003SCOCIG
0300722583139602008010723537+32847-096851FM-15+0149KDAL V0301705N00985076205MN0160935N5+02335+01615100845ADDAA101000095GA1045+021345999GA2075+076205999GD12991+0213459GD23991+0762059GF107991999999999999999999KA1999M+02561KA2999N+02221MA1100915099145MD1840024+9999OC101295REMMET12601/07/08 17:53:26 METAR KDAL 072353Z 17019G25KT 10SM SCT070 BKN250 23/16 A2980 RMK AO2 SLP084 T02330161 10256 20222 58002 (MG)
0242722583139602008010800537+32847-096851FM-15+0149KDAL V0301605N00775076205MN0160935N5+02285+01565100835ADDAA101000095GA1025+010675999GA2075+076205999GD11991+0106759GD23991+0762059GF107991999999999999999999MA1100885099115OC101085REMMET10801/07/08 18:53:26 METAR KDAL 080053Z 16015G21KT 10SM FEW035 BKN250 23/16 A2979 RMK AO2 SLP083 T02280156 (MG)
0176722583139602008010801357+32847-096851FM-16+0149KDAL V0301605N00775008845MN0160935N5+02205+01605999999ADDGA1075+008845999GD13991+0088459GF107991999999999999999999MA1100885099115OC101185REMMET08401/07/08 19:35:26 SPECI KDAL 080135Z 16015G23KT 10SM BKN029 22/16 A2979 RMK AO2 (MG)
0260722583139602008010801537+32847-096851FM-15+0149KDAL V0301605N00825008535MN0160935N5+02225+01565100815ADDAA101000095GA1075+008535999GA2075+076205999GD13991+0085359GD23991+0762059GF107991999999999999999999MA1100885099115OC101135REMMET12601/07/08 19:53:26 METAR KDAL 080153Z 16016G22KT 10SM BKN028 BKN250 22/16 A2979 RMK AO2 PK WND 16026/0137 SLP081 T02220156 (MG)
0232722583139602008010802107+32847-096851FM-16+0149KDAL V0301705N00985009755MN0160935N5+02205+01605999999ADDGA1075+009755999GA2075+076205999GD13991+0097559GD23991+0762059GF107991999999999999999999MA1100885099115OC101345REMMET10901/07/08 20:10:26 SPECI KDAL 080210Z 17019G26KT 10SM BKN032 BKN250 22/16 A2979 RMK AO2 PK WND 18026/0206 (MG)
0211722583139602008010802516+32847-096851FM-16+0149KDAL V0301705N00935008235MN0160935N5+02205+01605999999ADDGA1075+008235999GA2085+011285999GD13991+0082359GD24991+0112859MA1100885099115OC101185REMMET11401/07/08 20:52:21 SPECI KDAL 080251Z 17018G23KT 10SM BKN027 OVC037 22/16 A2979 RMK AO2 PK WND 18026/0206 FIBI (MG)
0269722583139602008010802537+32847-096851FM-15+0149KDAL V0301705N01035008235MN0160935N5+02225+01615100835ADDAA101000095GA1075+008235999GA2085+010675999GD13991+0082359GD24991+0106759GF108991999999999999999999MA1100885099115MD1540014+9999REMMET12901/07/08 20:53:26 METAR KDAL 080253Z 17020KT 10SM BKN027 OVC035 22/16 A2979 RMK AO2 PK WND 18026/0206 SLP083 T02220161 55001 (MG)
0242722583139602008010803537+32847-096851FM-15+0149KDAL V0302005N00625007625MN0160935N5+02225+01725100945ADDAA101000095GA1075+007625999GA2085+011285999GD13991+0076259GD24991+0112859GF108991999999999999999999MA1101025099245OC101135REMMET10801/07/08 21:53:26 METAR KDAL 080353Z 20012G22KT 10SM BKN025 OVC037 22/17 A2983 RMK AO2 SLP094 T02220172 (MG)
0252722583139602008010804417+32847-096851FM-16+0149KDAL V0301905N00725019815MN0160935N5+02205+01705999999ADDGA1025+007015999GA2045+008535999GA3085+019815999GD11991+0070159GD22991+0085359GD34991+0198159GF108991999999999999999999MA1101025099245OC101085REMMET09801/07/08 22:41:26 SPECI KDAL 080441Z 19014G21KT 10SM FEW023 SCT028 OVC065 22/17 A2983 RMK AO2 (MG)
0280722583139602008010804537+32847-096851FM-15+0149KDAL V0301905N00885014025MN0160935N5+02225+01725100955ADDAA101000095GA1045+008235999GA2075+014025999GA3085+021345999GD12991+0082359GD23991+0140259GD34991+0213459GF108991999999999999999999MA1101025099245OC101185REMMET11501/07/08 22:53:26 METAR KDAL 080453Z 19017G23KT 10SM SCT027 BKN046 OVC070 22/17 A2983 RMK AO2 SLP095 T02220172 (MG)
0252722583139602008010805267+32847-096851FM-16+0149KDAL V0301805N00725007925MN0160935N5+02205+01705999999ADDGA1075+007925999GA2075+010065999GA3075+016765999GD13991+0079259GD23991+0100659GD33991+0167659GF107991999999999999999999MA1101025099245OC101035REMMET09801/07/08 23:26:26 SPECI KDAL 080526Z 18014G20KT 10SM BKN026 BKN033 BKN055 22/17 A2983 RMK AO2 (SW)
0299722583139602008010805537+32847-096851FM-15+0149KDAL V0301805N00725007015MN0160935N5+02175+01725100945ADDAA101000095GA1075+007015999GA2075+008845999GD13991+0070159GD23991+0088459GF107991999999999999999999KA1999M+02331KA2999N+02171MA1101025099245MD1040114+9999REMMET13301/07/08 23:53:26 METAR KDAL 080553Z 18014KT 10SM BKN023 BKN029 22/17 A2983 RMK AO2 SLP094 T02170172 10233 20217 402560189 50011 (SW)
0996722583139602008010805596+32847-096851SOD  +0149KDAL V030999999999999999999999999999+99999+99999999999ADDAA124000025AJ100009599999999AL12400095AN1024000095KA1240M+02565KA2240N+01895MG1099324100784OE11240134118020065OE22240111817020075OE33240070299999995REMSOD80124 HR PRECIPITATION (IN):T     SNOW DEPTH (IN):0     24 HR SNOWFALL (IN):0.0  24 HR MAX TEMP (F):78 24 HR MAX TEMP TIME (LST):1522 24 HR MIN TEMP (F):66 24 HR MIN TEMP TIME (LST):0545 AVERAGE STATION PRESSURE:29.330 MINIMUM SEA LEVEL PRESSURE:29.76 TIME OF OCCURRENCE:2002 PEAK WIND SPEED (MPH):30  PEAK WIND DIR (DEG):180 PEAK WIND TIME (LST):2006  FASTEST 2MIN SPEED (MPH):25 FASTEST 2MIN DIR (DEG):170 FASTEST 2MIN TIME (LST):2007 AVERAGE WIND SPEED (MPH):15.7 24 HR AVG TEMP (F):72 DEPART FROM NORMAL:+27  HEATING DEGREE DAYS:0   COOLING DEGREE DAYS:7   LATEST DAY MAX TEMP (0700-1900 LST):78  LATEST NIGHT MIN TEMP(1900-0800 LST):66 HOURLY INCREMENTAL PRECIPITATION VALUES (IN):.00 0.00 0.00 0.00 0.00 0.00 0.00 0.00 T    T    T    0.00 0.00 0.00 0.00 0.00 0.00 0.00 0.00 0.00 0.00 0.00 0.00 0.00EQDR01     N7GJS072R02     N7GKS075
0231722583139602008010806537+32847-096851FM-15+0149KDAL V0301805N00675007015MN0160935N5+02115+01725100895ADDAA101000095GA1075+007015999GA2085+008845999GD13991+0070159GD24991+0088459GF108991999999999999999999MA1100955099185REMMET10501/08/08 00:53:26 METAR KDAL 080653Z 18013KT 10SM BKN023 OVC029 21/17 A2981 RMK AO2 SLP089 T02110172 (SW)
0204722583139602008010807537+32847-096851FM-15+0149KDAL V0301905N00675007325MN0160935N5+02175+01725100895ADDAA101000095GA1085+007325999GD14991+0073259GF108991999999999999999999MA1100955099185OC101135REMMET10101/08/08 01:53:26 METAR KDAL 080753Z 19013G22KT 10SM OVC024 22/17 A2981 RMK AO2 SLP089 T02170172 (SW)
0224722583139602008010808537+32847-096851FM-15+0149KDAL V0302105N00675006715MN0160935N5+02175+01725100955ADDAA101000095GA1075+006715999GD13991+0067159GF107991999999999999999999MA1101025099245MD1340024+9999OC100935REMMET10701/08/08 02:53:26 METAR KDAL 080853Z 21013G18KT 10SM BKN022 22/17 A2983 RMK AO2 SLP095 T02170172 53002 (SW)
0231722583139602008010809537+32847-096851FM-15+0149KDAL V0302105N00625021345MN0160935N5+02115+01785100995ADDAA101000095GA1045+008235999GA2075+021345999GD12991+0082359GD23991+0213459GF107991999999999999999999MA1101055099285REMMET10501/08/08 03:53:26 METAR KDAL 080953Z 21012KT 10SM SCT027 BKN070 21/18 A2984 RMK AO2 SLP099 T02110178 (SW)
0307722583139602008010810537+32847-096851FM-15+0149KDAL V0302105N00465021345MN0144845N5+02065+01785101015ADDAA101001395AU110020015AW1615GA1045+010065999GA2045+016765999GA3085+021345999GD12991+0100659GD22991+0167659GD34991+0213459GF108991999999999999999999MA1101055099285MW1611REMMET12701/08/08 04:53:26 METAR KDAL 081053Z 21009KT 9SM -RA SCT033 SCT055 OVC070 21/18 A2984 RMK AO2 RAB37 SLP101 P0005 T02060178 (SW)
0392722583139602008010811537+32847-096851FM-15+0149KDAL V0302405N00265010975MN0160935N5+02005+01675101095ADDAA101000025AA206001391AA324001391GA1045+007625999GA2075+010975999GA3075+016765999GD12991+0076259GD23991+0109759GD33991+0167659GF107991999999999999999999KA1999M+02221KA2999N+02001MA1101155099385MD1340124+9999REMMET15401/08/08 05:53:26 METAR KDAL 081153Z 24005KT 10SM SCT025 BKN036 BKN055 20/17 A2987 RMK AO2 RAE05 SLP109 P0000 60005 70005 T02000167 10222 20200 53012 (SW)EQDQ01  00138PRCP24
0308722583139602008010812537+32847-096851FM-15+0149KDAL V0302605N00265030485MN0160935N5+01945+01395101165ADDAA101000095GA1025+010975999GA2075+030485999GA3075+091445999GD11991+0109759GD23991+0304859GD33991+0914459GF107991999999999999999999MA1101225099445REMMET15101/08/08 06:54:26 METAR KDAL 081253Z 26005KT 10SM FEW036 BKN100 BKN300 19/14 A2989 RMK AO2 SLP116 FRQ LTGIC DSNT E-SE CB DSNT E-SE MOV E T01940139 (SW)
0307722583139602008010813537+32847-096851FM-15+0149KDAL V0303005N00625025915MN0160935N5+01785+00675101345ADDAA101000095GA1025+012195999GA2075+025915999GA3085+091445999GD11991+0121959GD23991+0259159GD34991+0914459GF108991999999999999999999MA1101395099615OC101135REMMET14201/08/08 07:53:26 METAR KDAL 081353Z 30012G22KT 10SM FEW040 BKN085 OVC300 18/07 A2994 RMK AO2 PRESRR SLP134 CB DSNT NE-SE MOV E T01780067 (JM)
0339722583139602008010814537+32847-096851FM-15+0149KDAL V0303105N00885024385MN0160935N5+01675+00175101495ADDAA101000095GA1025+012195999GA2075+024385999GA3085+091445999GD11991+0121959GD23991+0243859GD34991+0914459GF108991999999999999999999MA1101525099745MD1340394+9999OC101545REMMET16001/08/08 08:56:26 METAR KDAL 081453Z 31017G30KT 10SM FEW040 BKN080 OVC300 17/02 A2998 RMK AO2 PK WND 32030/1445 SLP149 CB DSNT NE-SE MOVD E T01670017 53039 (JM)
0298722583139602008010815537+32847-096851FM-15+0149KDAL V0303105N00885030485MN0160935N5+01505+00175101705ADDAA101000095GA1045+025915999GA2075+030485999GA3075+091445999GD12991+0259159GD23991+0304859GD33991+0914459GF107991999999999999999999MA1101765099985OC101345REMMET13301/08/08 09:53:26 METAR KDAL 081553Z 31017G26KT 10SM SCT085 BKN100 BKN300 15/02 A3005 RMK AO2 PK WND 30026/1549 SLP170 T01500017 (JM)
0298722583139602008010816537+32847-096851FM-15+0149KDAL V0303005N00985091445MN0160935N5+01445+00175101835ADDAA101000095GA1025+025915999GA2045+030485999GA3075+091445999GD11991+0259159GD22991+0304859GD33991+0914459GF107991999999999999999999MA1101865100085OC101245REMMET13301/08/08 10:53:26 METAR KDAL 081653Z 30019G24KT 10SM FEW085 SCT100 BKN300 14/02 A3008 RMK AO2 PK WND 32028/1613 SLP183 T01440017 (JM)
0356722583139602008010817537+32847-096851FM-15+0149KDAL V0303205N01035060965MN0160935N5+01445+00005101915ADDAA101000095GA1025+030485999GA2075+060965999GA3075+091445999GD11991+0304859GD23991+0609659GD33991+0914459GF107991999999999999999999KA1999M+02001KA2999N+01331MA1101965100185MD1140414+9999OC101395REMMET15101/08/08 11:53:26 METAR KDAL 081753Z 32020G27KT 10SM FEW100 BKN200 BKN300 14/00 A3011 RMK AO2 PK WND 33031/1735 SLP191 T01440000 10200 20133 51041 (JM)
0315722583139602008010818537+32847-096851FM-15+0149KDAL V0303305N01035054865MN0160935N5+01335-00115101955ADDAA101000095GA1025+016765999GA2075+054865999GA3085+091445999GD11991+0167659GD23991+0548659GD34991+0914459GF108991999999999999999999MA1102005100215OC101295REMMET15001/08/08 12:53:26 METAR KDAL 081853Z 33020G25KT 10SM FEW055 BKN180 OVC300 13/M01 A3012 RMK AO2 PK WND 32030/1754 SLP195 CB DSNT E MOV E T01331011 (JM)
0280722583139602008010819537+32847-096851FM-15+0149KDAL V0303305N00775054865MN0160935N5+01285+00005101965ADDAA101000095GA1025+033535999GA2075+054865999GA3085+091445999GD11991+0335359GD23991+0548659GD34991+0914459GF108991999999999999999999MA1102005100215OC101085REMMET11501/08/08 13:53:26 METAR KDAL 081953Z 33015G21KT 10SM FEW110 BKN180 OVC300 13/00 A3012 RMK AO2 SLP196 T01280000 (JM)
0263722583139602008010820537+32847-096851FM-15+0149KDAL V0303505N00675054865MN0160935N5+01335-00065101985ADDAA101000095GA1025+036585999GA2085+054865999GD11991+0365859GD24991+0548659GF108991999999999999999999MA1102035100245MD1240074+9999OC101135REMMET11501/08/08 14:53:26 METAR KDAL 082053Z 35013G22KT 10SM FEW120 OVC180 13/M01 A3013 RMK AO2 SLP198 T01331006 52007 (JM)
0281722583139602008010821537+32847-096851FM-15+0149KDAL V0303405N00675076205MN0160935N5+01285-00065102035ADDAA101000095GA1025+030485999GA2045+042675999GA3075+076205999GD11991+0304859GD22991+0426759GD33991+0762059GF107991999999999999999999MA1102075100285OC100935REMMET11601/08/08 15:53:26 METAR KDAL 082153Z 34013G18KT 10SM FEW100 SCT140 BKN250 13/M01 A3014 RMK AO2 SLP203 T01281006 (MG)
0270722583139602008010822537+32847-096851FM-15+0149KDAL V0303305N00575076205MN0160935N5+01285-00065102055ADDAA101000095GA1025+030485999GA2045+042675999GA3075+076205999GD11991+0304859GD22991+0426759GD33991+0762059GF107991999999999999999999MA1102105100315REMMET11301/08/08 16:53:26 METAR KDAL 082253Z 33011KT 10SM FEW100 SCT140 BKN250 13/M01 A3015 RMK AO2 SLP205 T01281006 (MG)
0290722583139602008010823537+32847-096851FM-15+0149KDAL V0303505N00315048775MN0160935N5+01175-00065102085ADDAA101000095GA1075+048775999GA2075+076205999GD13991+0487759GD23991+0762059GF107991999999999999999999KA1999M+01441KA2999N+01171MA1102135100345MD1140094+9999REMMET12401/08/08 17:53:26 METAR KDAL 082353Z 35006KT 10SM BKN160 BKN250 12/M01 A3016 RMK AO2 SLP208 T01171006 10144 20117 51009 (MG)
0231722583139602008010900537+32847-096851FM-15+0149KDAL V0303605N00265048775MN0160935N5+01175+00005102145ADDAA101000095GA1075+048775999GA2075+076205999GD13991+0487759GD23991+0762059GF107991999999999999999999MA1102175100385REMMET10501/08/08 18:53:26 METAR KDAL 090053Z 36005KT 10SM BKN160 BKN250 12/00 A3017 RMK AO2 SLP214 T01170000 (MG)
0231722583139602008010901537+32847-096851FM-15+0149KDAL V0300305N00155048775MN0160935N5+01115+00005102195ADDAA101000095GA1075+048775999GA2075+076205999GD13991+0487759GD23991+0762059GF107991999999999999999999MA1102245100445REMMET10501/08/08 19:53:26 METAR KDAL 090153Z 03003KT 10SM BKN160 BKN250 11/00 A3019 RMK AO2 SLP219 T01110000 (MG)
0251722583139602008010902537+32847-096851FM-15+0149KDAL V0300405N00215076205MN0160935N5+01005+00065102255ADDAA101000095GA1045+048775999GA2085+076205999GD12991+0487759GD24991+0762059GF108991999999999999999999MA1102275100485MD1140154+9999REMMET11101/08/08 20:53:26 METAR KDAL 090253Z 04004KT 10SM SCT160 OVC250 10/01 A3020 RMK AO2 SLP225 T01000006 51015 (MG)
0231722583139602008010903537+32847-096851FM-15+0149KDAL V0309999C00005076205MN0160935N5+00945+00065102285ADDAA101000095GA1045+048775999GA2085+076205999GD12991+0487759GD24991+0762059GF108991999999999999999999MA1102305100515REMMET10501/08/08 21:53:26 METAR KDAL 090353Z 00000KT 10SM SCT160 OVC250 09/01 A3021 RMK AO2 SLP228 T00940006 (MG)
0231722583139602008010904537+32847-096851FM-15+0149KDAL V0300705N00215076205MN0160935N5+00785+00175102305ADDAA101000095GA1045+048775999GA2085+076205999GD12991+0487759GD24991+0762059GF108991999999999999999999MA1102305100515REMMET10501/08/08 22:53:26 METAR KDAL 090453Z 07004KT 10SM SCT160 OVC250 08/02 A3021 RMK AO2 SLP230 T00780017 (MG)
0299722583139602008010905537+32847-096851FM-15+0149KDAL V0300605N002152200059N0160935N5+00615+00175102325ADDAA101000095GA1025+048775999GA2045+076205999GD11991+0487759GD22991+0762059GF104991999999999999999999KA1999M+01221KA2999N+00611MA1102345100545MD1140064+9999REMMET13301/08/08 23:53:26 METAR KDAL 090553Z 06004KT 10SM FEW160 SCT250 06/02 A3022 RMK AO2 SLP232 T00610017 10122 20061 402220061 51006 (SW)
0996722583139602008010905596+32847-096851SOD  +0149KDAL V030999999999999999999999999999+99999+99999999999ADDAA124001395AJ100009599999999AL12400095AN1024000095KA1240M+02225KA2240N+00615MG1100084100884OE11240160933011355OE22240134133011365OE33240054199999995REMSOD80124 HR PRECIPITATION (IN):0.05  SNOW DEPTH (IN):0     24 HR SNOWFALL (IN):0.0  24 HR MAX TEMP (F):72 24 HR MAX TEMP TIME (LST):0310 24 HR MIN TEMP (F):43 24 HR MIN TEMP TIME (LST):2359 AVERAGE STATION PRESSURE:29.555 MINIMUM SEA LEVEL PRESSURE:29.79 TIME OF OCCURRENCE:0203 PEAK WIND SPEED (MPH):36  PEAK WIND DIR (DEG):330 PEAK WIND TIME (LST):1135  FASTEST 2MIN SPEED (MPH):30 FASTEST 2MIN DIR (DEG):330 FASTEST 2MIN TIME (LST):1136 AVERAGE WIND SPEED (MPH):12.1 24 HR AVG TEMP (F):58 DEPART FROM NORMAL:+13  HEATING DEGREE DAYS:7   COOLING DEGREE DAYS:0   LATEST DAY MAX TEMP (0700-1900 LST):67  LATEST NIGHT MIN TEMP(1900-0800 LST):64 HOURLY INCREMENTAL PRECIPITATION VALUES (IN):.00 0.00 0.00 0.00 0.05 T    0.00 0.00 0.00 0.00 0.00 0.00 0.00 0.00 0.00 0.00 0.00 0.00 0.00 0.00 0.00 0.00 0.00 0.00EQDR01     N7GJS072R02     N7GKS075
0159722583139602008010906537+32847-096851FM-15+0149KDAL V0309999C000052200059N0160935N5+00565+00175102395ADDAA101000095GF100991999999999999999999MA1102405100615REMMET09501/09/08 00:53:26 METAR KDAL 090653Z 00000KT 10SM CLR 06/02 A3024 RMK AO2 SLP239 T00560017 (SW)
0159722583139602008010907537+32847-096851FM-15+0149KDAL V0309999C000052200059N0160935N5+00565+00115102305ADDAA101000095GF100991999999999999999999MA1102305100515REMMET09501/09/08 01:53:26 METAR KDAL 090753Z 00000KT 10SM CLR 06/01 A3021 RMK AO2 SLP230 T00560011 (SW)
0179722583139602008010908537+32847-096851FM-15+0149KDAL V0309999C000052200059N0160935N5+00445+00115102295ADDAA101000095GF100991999999999999999999MA1102305100515MD1840024+9999REMMET10101/09/08 02:53:26 METAR KDAL 090853Z 00000KT 10SM CLR 04/01 A3021 RMK AO2 SLP229 T00440011 58002 (SW)
0159722583139602008010909537+32847-096851FM-15+0149KDAL V0309999C000052200059N0160935N5+00395+00065102275ADDAA101000095GF100991999999999999999999MA1102275100485REMMET09501/09/08 03:53:26 METAR KDAL 090953Z 00000KT 10SM CLR 04/01 A3020 RMK AO2 SLP227 T00390006 (SW)
0193722583139602008010910537+32847-096851FM-15+0149KDAL V0309999C000052200059N0160935N5+00335+00005102205ADDAA101000095GA1025+003055999GD11991+0030559GF102991999999999999999999MA1102205100415REMMET09801/09/08 04:53:26 METAR KDAL 091053Z 00000KT 10SM FEW010 03/00 A3018 RMK AO2 SLP220 T00330000 (SW)
0217722583139602008010911537+32847-096851FM-15+0149KDAL V0309999C000052200059N0160935N5+00225+00005102155ADDAA101000095GF100991999999999999999999KA1999M+00611KA2999N+00221MA1102175100385MD1840154+9999REMMET11301/09/08 05:53:26 METAR KDAL 091153Z 00000KT 10SM CLR 02/00 A3017 RMK AO2 SLP215 T00220000 10061 20022 58015 (SW)
0193722583139602008010912537+32847-096851FM-15+0149KDAL V0303305N001552200059N0160935N5+00225+00065102225ADDAA101000095GA1025+003055999GD11991+0030559GF102991999999999999999999MA1102245100445REMMET09801/09/08 06:53:26 METAR KDAL 091253Z 33003KT 10SM FEW010 02/01 A3019 RMK AO2 SLP222 T00220006 (SW)
0194722583139602008010913537+32847-096851FM-15+0149KDAL V0309999C000052200059N0160935N5+00285+00005102225ADDAA101000095GA1025+076205999GD11991+0762059GF102991999999999999999999MA1102245100445REMMET09901/09/08 07:53:26 METAR KDAL 091353Z 00000KT 10SM FEW250 03/00 A3019 RMK AO2 SLP222 T00280000 (SGC)
0214722583139602008010914537+32847-096851FM-15+0149KDAL V0309999C000052200059N0160935N5+00565+00175102205ADDAA101000095GA1025+076205999GD11991+0762059GF102991999999999999999999MA1102205100415MD1040044+9999REMMET10501/09/08 08:53:26 METAR KDAL 091453Z 00000KT 10SM FEW250 06/02 A3018 RMK AO2 SLP220 T00560017 50004 (SGC)
0194722583139602008010915537+32847-096851FM-15+0149KDAL V0301105N003152200059N0160935N5+01005+00065102155ADDAA101000095GA1025+045725999GD11991+0457259GF102991999999999999999999MA1102175100385REMMET09901/09/08 09:53:26 METAR KDAL 091553Z 11006KT 10SM FEW150 10/01 A3017 RMK AO2 SLP215 T01000006 (SGC)
0195722583139602008010916537+32847-096851FM-15+0149KDAL V0301405N006252200059N0160935N5+01175-00065102045ADDAA101000095GA1025+076205999GD11991+0762059GF102991999999999999999999MA1102075100285REMMET10001/09/08 10:53:26 METAR KDAL 091653Z 14012KT 10SM FEW250 12/M01 A3014 RMK AO2 SLP204 T01171006 (SGC)
0253722583139602008010917537+32847-096851FM-15+0149KDAL V0301505N004652200059N0160935N5+01285-00065101935ADDAA101000095GA1025+076205999GD11991+0762059GF102991999999999999999999KA1999M+01281KA2999N+00171MA1101935100145MD1840264+9999REMMET11801/09/08 11:53:26 METAR KDAL 091753Z 15009KT 10SM FEW250 13/M01 A3010 RMK AO2 SLP193 T01281006 10128 20017 58026 (SGC)
0201722583139602008010918537+32847-096851FM-15+0149KDAL V0301605N005152200059N0160935N5+01335+00005101705ADDAA101000095GA1025+076205999GD11991+0762059GF102991999999999999999999MA1101735099945REMMET10601/09/08 12:53:26 METAR KDAL 091853Z 16010KT 10SM FEW250 13/00 A3004 RMK AO2 PRESFR SLP170 T01330000 (SGC)
0194722583139602008010919537+32847-096851FM-15+0149KDAL V0301705N005752200059N0160935N5+01445+00005101535ADDAA101000095GA1025+076205999GD11991+0762059GF102991999999999999999999MA1101565099785REMMET09901/09/08 13:53:26 METAR KDAL 091953Z 17011KT 10SM FEW250 14/00 A2999 RMK AO2 SLP153 T01440000 (SGC)
0253722583139602008010920537+32847-096851FM-15+0149KDAL V0301605N006752200059N0160935N5+01565-00065101415ADDAA101000095GA1025+048775999GA2045+076205999GD11991+0487759GD22991+0762059GF104991999999999999999999MA1101425099645MD1640514+9999REMMET11301/09/08 14:53:26 METAR KDAL 092053Z 16013KT 10SM FEW160 SCT250 16/M01 A2995 RMK AO2 SLP141 T01561006 56051 (SGC)
0232722583139602008010921537+32847-096851FM-15+0149KDAL V0301505N004652200059N0160935N5+01565-00065101315ADDAA101000095GA1025+045725999GA2045+091445999GD11991+0457259GD22991+0914459GF104991999999999999999999MA1101325099545REMMET10601/09/08 15:58:26 METAR KDAL 092153Z 15009KT 10SM FEW150 SCT300 16/M01 A2992 RMK AO2 SLP131 T01561006 (MG)
0193722583139602008010922537+32847-096851FM-15+0149KDAL V0301605N006252200059N0160935N5+01505+00005101255ADDAA101000095GA1025+091445999GD11991+0914459GF102991999999999999999999MA1101255099485REMMET09801/09/08 16:53:26 METAR KDAL 092253Z 16012KT 10SM FEW300 15/00 A2990 RMK AO2 SLP125 T01500000 (MG)
0251722583139602008010923537+32847-096851FM-15+0149KDAL V0301605N005752200059N0160935N5+01445+00005101195ADDAA101000095GA1025+091445999GD11991+0914459GF102991999999999999999999KA1999M+01561KA2999N+01221MA1101225099445MD1640224+9999REMMET11601/09/08 17:53:26 METAR KDAL 092353Z 16011KT 10SM FEW300 14/00 A2989 RMK AO2 SLP119 T01440000 10156 20122 56022 (MG)
0193722583139602008011000537+32847-096851FM-15+0149KDAL V0301405N005752200059N0160935N5+01285+00065101185ADDAA101000095GA1025+091445999GD11991+0914459GF102991999999999999999999MA1101195099415REMMET09801/09/08 18:53:26 METAR KDAL 100053Z 14011KT 10SM FEW300 13/01 A2988 RMK AO2 SLP118 T01280006 (MG)
0193722583139602008011001537+32847-096851FM-15+0149KDAL V0301505N005152200059N0160935N5+01175+00115101155ADDAA101000095GA1025+091445999GD11991+0914459GF102991999999999999999999MA1101155099385REMMET09801/09/08 19:53:26 METAR KDAL 100153Z 15010KT 10SM FEW300 12/01 A2987 RMK AO2 SLP115 T01170011 (MG)
0213722583139602008011002537+32847-096851FM-15+0149KDAL V0301605N006752200059N0160935N5+01225+00115101125ADDAA101000095GA1025+091445999GD11991+0914459GF102991999999999999999999MA1101155099385MD1840074+9999REMMET10401/09/08 20:53:26 METAR KDAL 100253Z 16013KT 10SM FEW300 12/01 A2987 RMK AO2 SLP112 T01220011 58007 (MG)
0164722583139602008011002534+32833-096850FM-16+0148KDAL V0201601N006712200019N0160931N1+01201+00101101121ADDGD11991+0900019GF102991999999999999999999MA1101151999999MD1810071+9999REMMET082SPECI KDAL 100253Z 16013KT 10SM FEW300 12/01 A2987 RMK AO2 SLP112 T01220011 58007;
0159722583139602008011003537+32847-096851FM-15+0149KDAL V0301505N007252200059N0160935N5+01175+00175101045ADDAA101000095GF100991999999999999999999MA1101055099285REMMET09501/09/08 21:53:26 METAR KDAL 100353Z 15014KT 10SM CLR 12/02 A2984 RMK AO2 SLP104 T01170017 (MG)
0159722583139602008011004537+32847-096851FM-15+0149KDAL V0301705N006752200059N0160935N5+01175+00175100995ADDAA101000095GF100991999999999999999999MA1101025099245REMMET09501/09/08 22:53:26 METAR KDAL 100453Z 17013KT 10SM CLR 12/02 A2983 RMK AO2 SLP099 T01170017 (MG)
0227722583139602008011005537+32847-096851FM-15+0149KDAL V0301805N004652200059N0160935N5+01115+00225100925ADDAA101000095GF100991999999999999999999KA1999M+01441KA2999N+01111MA1100955099185MD1640184+9999REMMET12301/09/08 23:53:26 METAR KDAL 100553Z 18009KT 10SM CLR 11/02 A2981 RMK AO2 SLP092 T01110022 10144 20111 401560017 56018 (SW)
0996722583139602008011005596+32847-096851SOD  +0149KDAL V030999999999999999999999999999+99999+99999999999ADDAA124000095AJ100009599999999AL12400095AN1024000095KA1240M+01565KA2240N+00175MG1099784100914OE11240098315021555OE22240080515021565OE33240035899999995REMSOD80124 HR PRECIPITATION (IN):0.00  SNOW DEPTH (IN):0     24 HR SNOWFALL (IN):0.0  24 HR MAX TEMP (F):60 24 HR MAX TEMP TIME (LST):1631 24 HR MIN TEMP (F):35 24 HR MIN TEMP TIME (LST):0643 AVERAGE STATION PRESSURE:29.465 MINIMUM SEA LEVEL PRESSURE:29.80 TIME OF OCCURRENCE:2359 PEAK WIND SPEED (MPH):22  PEAK WIND DIR (DEG):150 PEAK WIND TIME (LST):2155  FASTEST 2MIN SPEED (MPH):18 FASTEST 2MIN DIR (DEG):150 FASTEST 2MIN TIME (LST):2156 AVERAGE WIND SPEED (MPH):8.0  24 HR AVG TEMP (F):48 DEPART FROM NORMAL: +3  HEATING DEGREE DAYS:17  COOLING DEGREE DAYS:0   LATEST DAY MAX TEMP (0700-1900 LST):60  LATEST NIGHT MIN TEMP(1900-0800 LST):35 HOURLY INCREMENTAL PRECIPITATION VALUES (IN):.00 0.00 0.00 0.00 0.00 0.00 0.00 0.00 0.00 0.00 0.00 0.00 0.00 0.00 0.00 0.00 0.00 0.00 0.00 0.00 0.00 0.00 0.00 0.00EQDR01     N7GJS072R02     N7GKS075
0193722583139602008011006537+32847-096851FM-15+0149KDAL V0301605N004152200059N0160935N5+01115+00285100885ADDAA101000095GA1025+076205999GD11991+0762059GF102991999999999999999999MA1100915099145REMMET09801/10/08 00:53:26 METAR KDAL 100653Z 16008KT 10SM FEW250 11/03 A2980 RMK AO2 SLP088 T01110028 (SW)
0193722583139602008011007537+32847-096851FM-15+0149KDAL V0301605N004652200059N0160935N5+01065+00285100845ADDAA101000095GA1025+076205999GD11991+0762059GF102991999999999999999999MA1100885099115REMMET09801/10/08 01:53:26 METAR KDAL 100753Z 16009KT 10SM FEW250 11/03 A2979 RMK AO2 SLP084 T01060028 (SW)
0213722583139602008011008537+32847-096851FM-15+0149KDAL V0301605N003152200059N0160935N5+00945+00335100825ADDAA101000095GA1025+076205999GD11991+0762059GF102991999999999999999999MA1100855099085MD1640104+9999REMMET10401/10/08 02:53:26 METAR KDAL 100853Z 16006KT 10SM FEW250 09/03 A2978 RMK AO2 SLP082 T00940033 56010 (SW)
0193722583139602008011009537+32847-096851FM-15+0149KDAL V0301805N00265076205MN0160935N5+00945+00395100755ADDAA101000095GA1075+076205999GD13991+0762059GF107991999999999999999999MA1100785099015REMMET09801/10/08 03:53:26 METAR KDAL 100953Z 18005KT 10SM BKN250 09/04 A2976 RMK AO2 SLP075 T00940039 (SW)
0193722583139602008011010537+32847-096851FM-15+0149KDAL V0302305N00315076205MN0160935N5+01175+00225100745ADDAA101000095GA1075+076205999GD13991+0762059GF107991999999999999999999MA1100785099015REMMET09801/10/08 04:53:26 METAR KDAL 101053Z 23006KT 10SM BKN250 12/02 A2976 RMK AO2 SLP074 T01170022 (SW)
0262722583139602008011011537+32847-096851FM-15+0149KDAL V0302705N005152200059N0160935N5+01225+00005100845ADDAA101000095GA1025+076205999GD11991+0762059GF102991999999999999999999KA1999M+01221KA2999N+00831MA1100885099115MD1340024+9999OC100885REMMET11901/10/08 05:53:26 METAR KDAL 101153Z 27010G17KT 10SM FEW250 12/00 A2979 RMK AO2 SLP084 T01220000 10122 20083 53002 (SW)
0223722583139602008011012537+32847-096851FM-15+0149KDAL V0303105N009852200059N0160935N5+01115-00175101045ADDAA101000095GA1025+076205999GD11991+0762059GF102991999999999999999999MA1101085099315OC101445REMMET12001/10/08 06:53:26 METAR KDAL 101253Z 31019G28KT 10SM FEW250 11/M02 A2985 RMK AO2 PK WND 31028/1252 SLP104 T01111017 (SW)
0205722583139602008011013537+32847-096851FM-15+0149KDAL V0303005N007752200059N0160935N5+00945-00175101155ADDAA101000095GA1025+076205999GD11991+0762059GF102991999999999999999999MA1101195099415OC101085REMMET10201/10/08 07:53:26 METAR KDAL 101353Z 30015G21KT 10SM FEW250 09/M02 A2988 RMK AO2 SLP115 T00941017 (JM)
0225722583139602008011014537+32847-096851FM-15+0149KDAL V0303005N007252200059N0160935N5+00945-00065101295ADDAA101000095GA1025+076205999GD11991+0762059GF102991999999999999999999MA1101325099545MD1140434+9999OC101085REMMET10801/10/08 08:53:26 METAR KDAL 101453Z 30014G21KT 10SM FEW250 09/M01 A2992 RMK AO2 SLP129 T00941006 51043 (JM)
0210722583139602008011015537+32847-096851FM-15+0149KDAL V0303005N007252200059N0160935N5+01115+00005101385ADDAA101000095GA1025+042675999GD11991+0426759GF102991999999999999999999MA1101425099645OC101185REMMET10701/10/08 09:53:26 METAR KDAL 101553Z 30014G23KT 10SM FEW140 11/00 A2995 RMK AO2 SLP138 ACC W T01110000 (JM)
0243722583139602008011016537+32847-096851FM-15+0149KDAL V0303105N00935039625MN0160935N5+01175-00065101445ADDAA101000095GA1075+039625999GA2075+076205999GD13991+0396259GD23991+0762059GF107991999999999999999999MA1101495099715OC101295REMMET10901/10/08 10:53:26 METAR KDAL 101653Z 31018G25KT 10SM BKN130 BKN250 12/M01 A2997 RMK AO2 SLP144 T01171006 (JM)
0291722583139602008011017537+32847-096851FM-15+0149KDAL V0303105N00775039625MN0160935N5+01175-00065101475ADDAA101000095GA1075+039625999GD13991+0396259GF107991999999999999999999KA1999M+01281KA2999N+00941MA1101495099715MD1140194+9999OC101185REMMET14801/10/08 11:53:26 METAR KDAL 101753Z 31015G23KT 10SM BKN130 12/M01 A2997 RMK AO2 PK WND 33027/1727 SLP147 VIRGA E-S T01171006 10128 20094 51019 (JM)
0292722583139602008011018537+32847-096851FM-15+0149KDAL V0303105N00885039625MN0160935N5+01285-00115101375ADDAA101000095GA1025+027435999GA2075+039625999GA3075+076205999GD11991+0274359GD23991+0396259GD33991+0762059GF107991999999999999999999MA1101395099615OC101245REMMET12701/10/08 12:53:26 METAR KDAL 101853Z 31017G24KT 10SM FEW090 BKN130 BKN250 13/M01 A2994 RMK AO2 SLP137 VIRGA SE-S T01281011 (JM)
0232722583139602008011019537+32847-096851FM-15+0149KDAL V0303205N006252200059N0160935N5+01445-00225101325ADDAA101000095GA1025+039625999GA2045+076205999GD11991+0396259GD22991+0762059GF104991999999999999999999MA1101355099585REMMET10601/10/08 13:53:26 METAR KDAL 101953Z 32012KT 10SM FEW130 SCT250 14/M02 A2993 RMK AO2 SLP132 T01441022 (JM)
0273722583139602008011020537+32847-096851FM-15+0149KDAL V0303205N007752200059N0160935N5+01565-00335101285ADDAA101000095GA1025+036585999GA2045+076205999GD11991+0365859GD22991+0762059GF104991999999999999999999MA1101325099545MD1640194+9999OC101085REMMET12501/10/08 14:53:26 METAR KDAL 102053Z 32015G21KT 10SM FEW120 SCT250 16/M03 A2992 RMK AO2 SLP128 6//// T01561033 56019 PNO (MG)
0257722583139602008011021537+32847-096851FM-15+0149KDAL V0303205N008252200059N0160935N5+01565-00445101285ADDAA101000095GA1025+036585999GA2045+076205999GD11991+0365859GD22991+0762059GF104991999999999999999999MA1101325099545OC101135REMMET12301/10/08 15:53:26 METAR KDAL 102153Z 32016G22KT 10SM FEW120 SCT250 16/M04 A2992 RMK AO2 SLP128 ACC DSNT SE T01561044 $ (MG)
0194722583139602008011022537+32847-096851FM-15+0149KDAL V0303205N006752200059N0160935N5+01505-00565101315ADDAA101000095GA1025+036585999GD11991+0365859GF102991999999999999999999MA1101355099585REMMET09901/10/08 16:53:26 METAR KDAL 102253Z 32013KT 10SM FEW120 15/M06 A2993 RMK AO2 SLP131 T01501056 (MG)
0224722583139602008011023537+32847-096851FM-15+0149KDAL V0303205N005152200059N0160935N5+01395-00615101375ADDAA101000095GF100991999999999999999999KA1999M+01611KA2999N+01171MA1101395099615MD1340094+9999REMMET12001/10/08 17:53:26 METAR KDAL 102353Z 32010KT 10SM CLR 14/M06 A2994 RMK AO2 SLP137 6//// T01391061 10161 20117 53009 (MG)
